:020000040800F2
:10000000007C00203D030008712700085F04000801
:100010006D2700083D1E0008952E00080000000016
:10002000000000000000000000000000572A000847
:10003000CB1E000800000000AB030008BD04000850
:100040005703000857030008570300085703000828
:100050005703000857030008570300085703000818
:100060005703000857030008570300085703000808
:1000700057030008570300085703000857030008F8
:1000800057030008570300085703000857030008E8
:100090005703000857030008570300088F22000881
:1000A00057030008570300085703000857030008C8
:1000B00057030008570300085703000857030008B8
:1000C00057030008570300085703000857030008A8
:1000D0005703000857030008570300085703000898
:1000E000512200085703000857030008570300086F
:1000F0005703000857030008570300085703000878
:100100005703000857030008570300085703000867
:100110005703000857030008570300085703000857
:100120005703000857030008570300085703000847
:100130005703000857030008570300085703000837
:100140005703000857030008570300085703000827
:100150005703000857030008570300085703000817
:100160005703000857030008570300085703000807
:100170005703000857030008570300080000000059
:1001800057030008570300085703000857030008E7
:1001900057030008570300085703000857030008D7
:1001A00057030008570300085703000800F002F83F
:1001B00000F09AF80AA090E8000C82448344AAF167
:1001C0000107DA4501D100F08FF8AFF2090EBAE865
:1001D0000F0013F0010F18BFFB1A43F0010318477B
:1001E000F48A0000148B0000103A24BF78C878C14C
:1001F000FAD8520724BF30C830C144BF04680C602D
:10020000704700000023002400250026103A28BF74
:1002100078C1FBD8520728BF30C148BF0B60704778
:100220006E2900F07983702900F0C184662907F0F7
:100230002887652907F02587672907F02287612924
:1002400007F0218703681B0A28BF41F08001692954
:1002500000F02683642900F02383752900F02083B1
:100260006F2900F04F84782900F08D84E92900F08F
:10027000E983E42900F0E683F52900F0E383EF2920
:1002800000F04C84F82900F08C840368DB0928BF57
:1002900041F08001632901F00A82732901F00F8285
:1002A000E32901F01A82F32901F01F820020704730
:1002B0001FB507F0D9FE9DE8030000F059FA00F0E1
:1002C00096F901F077FA04000020002107F0B6FE4D
:1002D000401C60600020002107F09AFEE06000F002
:1002E00019FA1FBD10B510BD01F036FA1146FFF71F
:1002F000DFFF01F0E5FB01F013FB03B4FFF7F2FFB2
:1003000003BC00F075FD00000B49D1F800C04A683D
:100310005CF8043B1068184442F8040B8C4528BF75
:10032000A1F1DC0C8A4228BFA1F1DC02C1F800C0B7
:100330004A6020F000407047B4010020094880471F
:1003400009480047FEE7FEE7FEE7FEE7FEE7FEE7B7
:10035000FEE7FEE7FEE7FEE704480549054A064BCF
:1003600070470000512E0008AD0100080076002003
:10037000007C00200078002000780020EFF310803F
:1003800072B6704780F310887047434A1368012B98
:1003900004D04FF001031360404A1060404A1160DE
:1003A00040484FF0805101607047EFF3108272B601
:1003B0003948016851B34FF00001016037480168C6
:1003C00091B1EFF309811EF0100F08BF21ED108BE2
:1003D00021E9F00F4FF000041EF0100F08BF0124B8
:1003E00041F8044D006801602D490968096808C991
:1003F000B1E8F00F002B18BF00F05AB881F309885C
:100400004EF0100E002B18BF2EF0100E82F3108845
:100410004EF0040E704722490860EFF3148222F078
:10042000040282F314881D494FF0000008601A4945
:100430004FF0010008601C484FF47F01D0F8002005
:1004400041EA0201016017484FF0805101601748EE
:100450000068006880F3088861B662B670471EF0D5
:10046000040F0CBFEFF30880EFF3098020E9F00FD1
:1004700040F804ED40F804ED1EF0040F0CBF80F3CB
:10048000088880F3098800B506F02AFE5DF804EBC1
:100490004EF0040E70470000E4740020C872002083
:1004A000D072002004ED00E020ED00E008ED00E057
:1004B000B1EC088BB1EC08CBFFF7A0BF30B410B59E
:1004C0000348804730BCAE4630BC024800470000BD
:1004D000BD770008592A000800BF704770B506466E
:1004E00000F02AF9056806F10B0020F00704B44279
:1004F0009CBF002070BD2B466A68BAB11068A0424C
:1005000010D304F1080188423CBF5068586007D3FB
:100510005168101941601168091B0160586014602E
:10052000101D70BD13465268002AE7D121462846A7
:1005300000F00AF90028DED170BD70B50446051F31
:1005400000F0FAF80068002C14BF446870BD002C5D
:1005500018BFAC423CBF20466468F8D301680A1853
:10056000AA4218BF456003D12A68054611440160BC
:1005700028684119A1421CBF6C6070BD6168696048
:1005800021680844286070BD7CB51D4616460C00E5
:10059000009007D04142A14202D32044401E01E016
:1005A0004FF0FF30064B7B442A46694601903046A7
:1005B00000F0CBF9002C02D0009A002111707CBD14
:1005C000C70300000B4910B5A1F17C020A4CC2E937
:1005D0003712372106E000EB104342F82130074B79
:1005E00000FB03400B1EA1F10101F4DC10BD012052
:1005F000E8E7000054010020E119D666CD0D0100A6
:100600000EB5054614460E4613A000F0ADFB284675
:1006100000F0AAFB16A000F0A7FB304600F0A4FBF8
:1006200015A000F0A1FB00218DF80B100A210DF19F
:100630000A008DF80A1008E094FBF1F201FB124267
:1006400094FBF1F4303200F8012D002CF4DC00F0C2
:100650008BFB00F07EFB00002A2A2A206173736561
:100660007274696F6E206661696C65643A2000007F
:100670002C2066696C6520002C206C696E6520005A
:1006800010B5431C02E010F8011B71B18107FAD1CB
:100690004FF0013202C88C1A8C4314EAC211F9D00F
:1006A000C01A0A0603D0C01E10BDC01A10BD0A042D
:1006B00001D0801E10BD0902FCD0401E10BD4FF0BD
:1006C000000200B5134694469646203922BFA0E8A2
:1006D0000C50A0E80C50B1F12001BFF4F7AF0907AE
:1006E00028BFA0E80C5048BF0CC05DF804EB89009F
:1006F00028BF40F8042B08BF704748BF20F8022BE2
:1007000011F0804F18BF00F8012B704770477047F9
:100710007047000070B5064C7C44064D7D4404E0F3
:100720002046016808448047241DAC42F8D170BDC2
:10073000689101006891010000487047C4010020E1
:10074000704770477047704738B504460A46002026
:100750006946AFF30080002808BF38BD0246009903
:10076000204600F04FFB012038BD012000F0ECBF17
:10077000F8B5AFF30080054600200C46102000BFFE
:100780000646A819A0420DD9324669460020AFF3AB
:100790000080070008BF00F0D7FF0098A04218BFF4
:1007A0000546C419FFF7C8FF05600746F01D20F095
:1007B00007004619284600F00AF8B44208BFF8BD01
:1007C000A21B31463868BDE8F84000F01BBB002191
:1007D0000160C0E9011070471020704770B50446F1
:1007E00085690068C10601D5302600E02026C007D3
:1007F00007D070BDD4E9012130469047206A401CE3
:1008000020626D1EF6D570BD70B50446856900780E
:10081000C00707D170BDD4E9012120209047206A8C
:10082000401C20626D1EF6D570BD09684A0501D5D1
:1008300040B27047C905FCD500B2704709684A0547
:1008400001D5C0B27047C905FCD580B2704770B5FC
:100850000C460546012A05D02878800600D5EA69AD
:10086000002302E0012305E05B1C934202D2E05C1E
:100870000028F9D1A869E618C01AA861286A1844A6
:1008800028622846FFF7AAFF04E0D5E9012114F801
:10089000010B9047B442F8D32846FFF7B5FF70BD6F
:1008A0002DE9F0410646002410687529314616A549
:1008B00010D0FFF7BAFF002802DA404213A507E084
:1008C00031688A0701D512A502E0490704D511A5B0
:1008D000012401E0FFF7B2FF00210A2206F12407FC
:1008E00009E0B0FBF2FCB0FBF2F302FB1C0030307D
:1008F00078541846491C0028F3D123462A4630462E
:10090000BDE8F04100F0DDBA000000002D0000005D
:100910002B0000002000000011680268006A5305E7
:1009200001D508700AE0D30501D5088006E013065A
:1009300003D5C217C1E9000200E00860012070473A
:1009400001694A1C02610878704700B58FB0CDE993
:1009500001310021059105497944CDE90310114683
:10096000684600F02FF90FB000BD0000E5FFFFFF63
:10097000D1E900239A4202D2531C0B6010707047D9
:100980002DE9FF5F15468A460446DFF8AC80F8443F
:100990000027D8E900103E46CDE9001010E03AF8F3
:1009A00016106A4602A800F0A4FE411C07D0217868
:1009B000890603D5E269391891420DD80744761C9F
:1009C0002078800602D5E069B84205DDAE42E6DB5C
:1009D0003AF816000028E2D1A069C01BA0612046A9
:1009E000FFF7FCFED8E90010CDE90010002017E069
:1009F0003AF818106A4602A800F07BFEB0F1FF3FFB
:100A000081460BD000250DF1080B05E0D4E901214A
:100A10001BF8050090476D1C4D45F7D308F1010008
:100A2000B0428046E4DB206A384420622046FFF76B
:100A3000EBFE00F003B80000FA7600003FBCBDE812
:100A4000C09F00002DE9F0418046D21D22F0070230
:100A50000025D2E90002F52915A614D0011E72F175
:100A6000000106DA0023D0EB030063EB020211A6BB
:100A700008E0D8F800108B0701D50FA602E049075F
:100A800001D50EA601251146002408F1240704E033
:100A900000F0D2F930323A55641C50EA0102F7D125
:100AA0002B46324621464046BDE8F04100F009BAE7
:100AB000000000002D0000002B00000020000000BE
:100AC00030B4002100F1240408E002F00705D20848
:100AD000303542EA4372DB086554491C52EA03058B
:100AE000F3D10468002310A2250708D504F02004E0
:100AF0000C4304D0C46901230CA2641EC46130BC41
:100B000000F0DFB910B5044621461068FFF796FEE5
:100B100002462046BDE810400023D1E7D21D22F056
:100B20000701D1E90023CBE70000000030000000FE
:100B3000F0B40D460188090502D5214C7C4402E041
:100B40001F4C7C440E34002100F1240608E002F022
:100B50000F071209E75D42EA03721B097754491C2B
:100B600052EA0307F3D102780023120704D5702D4F
:100B700006D009B1022311342246F0BC00F0A1B91D
:100B800001231034F8E770B504460D46214610687D
:100B9000FFF754FE024629462046BDE87040002378
:100BA000C6E7D21D22F00703D3E90023C0E703689C
:100BB000126843F0200303600823C3610023B7E7F2
:100BC000547500002DE9F05F894604464FF0000A95
:100BD000DFF874B1FB44C0F820A02046E1688847E4
:100BE000002874D0252806D0D4E901219047206A36
:100BF000401C2062F1E700265F462046E1688847F6
:100C00002028054607DB312D05D2781910F8200C75
:100C100008B10643F1E7B00701D526F00406C4F891
:100C20001CA00027C4F818A02A2D09D0284607F0D8
:100C3000E7F938B304EB8708303DC8F8185019E0DD
:100C400059F8041B204604EB87029161E16888474C
:100C5000012F054618D1E069002820DA26F0200689
:100C60001DE0D8F8180000EB800005EB400030389C
:100C7000C8F818002046E1688847054607F0C0F923
:100C80000028EED1012F0AD02E2D08D12046E16890
:100C900088477F1C0546022F46F02006C4DBA0696A
:100CA000002803DA404246F00106A061F00701D0B7
:100CB00026F010066C2D0BD0682D09D04C2D39D0A4
:100CC0006A2D35D0742D35D07A2D33D016E038E02A
:100CD000E1682F4620468847B842054609D16C2F67
:100CE00026D04FF48060E1680643204688470546D9
:100CF00004E06C2F1AD04FF4807006430DB3A5F1B9
:100D00004100192802D8203546F400664A46294693
:100D1000204626604E46FFF783FA80B101280BD0AB
:100D2000F61D26F0070000F1080956E74020E4E729
:100D30008020D8E70020D6E706F104094DE72846D1
:100D400052E7206A00F002B8E474000030BCBDE84D
:100D5000C09F10B5002000F0F0FCFFF7C3FABDE81B
:100D60001040012000F044B810B5044602E0641CB5
:100D700000F036F820780028F9D110BD10B5203ADF
:100D8000C0F00B80B1E81850A0E81850B1E8185036
:100D9000A0E81850203ABFF4F5AF5FEA027C24BF08
:100DA000B1E81850A0E8185044BF18C918C0BDE8F1
:100DB00010405FEA827C24BF51F8043B40F8043BBA
:100DC00008BF7047D20728BF31F8023B48BF11F86F
:100DD000012B28BF20F8023B48BF00F8012B7047C9
:100DE00008B569468DF800000320ABBE08BD0000C1
:100DF00001491820ABBEFEE72600020000487047FC
:100E0000BC010020034640688C46002818BF884279
:100E10003CBF03464068F8D318681844884207D09E
:100E20000CF1030020F00700001D411A521A014680
:100E3000081D0A60FFF781BB30B5B0F10A0271F1FD
:100E400000034FEA900E4EEA817EB0EB0E0061EB9C
:100E500091014FEA101E4EEA017E10EB0E0041EBAD
:100E600011114FEA102E4EEA016E10EB0E0041EB0D
:100E700011214FEA104E4EEA014E10EB0E0041EBED
:100E80001141401841F100014FEAD00040EA4170A1
:100E90004FEAD1014FEA810444EA907410EB8005D7
:100EA00044EB01046D1944EB0404521BA3414FF0C1
:100EB000000348BF0A3200D530BD401C41F100019B
:100EC00030BD2DE9F0470D4699469246044600F1A3
:100ED00024080168880604D5E06921F0100121602A
:100EE00000E00120A84201DD471B00E00027A169C6
:100EF0007A1902EB0900081AA0612078C00602D412
:100F00002046FFF76BFC002608E0D4E901211AF81F
:100F100006009047206A401C761C20624E45F4DB98
:100F20002078C0060AD52046FFF758FC06E0D4E931
:100F3000012130209047206A401C2062381EA7F112
:100F40000107F4DC07E0D4E9012118F80500904717
:100F5000206A401C2062281EA5F10105F3DC204612
:100F6000FFF752FC2078000602D50220BDE8F0878A
:100F70000120FBE72DE9FF4F0C461E464FF0FF37DF
:100F80008BB0D2E90001DDF860800A908A46C1F397
:100F90000A5505B93D46002108464FF00000BAF158
:100FA000000F00F4400005DA00EB80004FF4400130
:100FB00001EA50004FEA9059B9F1010F00DDB9463E
:100FC0000A9850EA4A000ED044F61050A5F2FF35B8
:100FD00045432F14B8F1000F1ED07542291E1EDDA7
:100FE000C9F100021CE0B8F1010F4FF0000001D080
:100FF000302103E0F24305E02154401CB042FBDB0A
:1010000030460022002121540B99C1F80880C1E923
:1010100000200FB000F0BCB9BD1B6D1CDEE74A46D6
:1010200000DA694206A800F009FC06AB93E8070065
:1010300003AB83E8070050460A9906F001FC8DE8EF
:101040000700A0F500501F3800900398002D0ADD1E
:1010500042F21F014A460844002303A90390684650
:1010600006F06AFE09E0A0F500504A461F3800234A
:1010700003A90390684606F074FE8DE8070000049B
:10108000000C03D04FF0FF30410800E01046B8F1EB
:10109000000F03D00022009215461EE0751E05D4F5
:1010A000FFF7CAFE303262556D1EF9D5B3460122F4
:1010B000084302D000227F1C04E02078302801D1B0
:1010C00000227F1E002A099784D01DE0112D07DA27
:1010D000FFF7B2FE303262556D1C50EA0102F5D1C5
:1010E000084302D00098C8B10EE00021681E05E058
:1010F000235C625C63542254401E491C8142F7DB2E
:10110000AB46A81B401E0990002004F80B000B986A
:10111000099AC0F80880C0E9002B7AE711264FF041
:10112000000857E72DE9F04F88460446D21D22F00B
:10113000070191B0D1E90001CDE90A0106F048FFAD
:1011400002460B98C00F01D02D2007E020688107D0
:1011500001D52B2002E0202101EAC000032A0990DA
:1011600001D0072A05DB03464146204600F026FB56
:101170000BE12078800601D5E06900E00620B8F197
:10118000650F814606D0B8F1660F18D0B8F1670F29
:1011900070D131E00020B9F1110F009001DB112373
:1011A00001E009F101030AAA01A90CA8FFF7E2FE78
:1011B000DDE90C70002609F10105834647E00120B6
:1011C0004B4600904FF000470AAA01A90CA8FFF770
:1011D000D1FEDDE90DB00C995D46002610B909F18C
:1011E00001000D18B9EB050003D4C0F1FF3609F179
:1011F0000105A5EB09002BE0B9F1010F01DA4FF071
:1012000001090020B9F1110F0090484601DD1123BA
:1012100000E003460AAA01A90CA8FFF7ABFEDDE92E
:101220000C704D4600268346207800070AD4AB4553
:1012300000DA5D4601A8012D04DD411911F8011CF9
:10124000302907D04F4502DA17F1040F04DA0120E4
:1012500082460FE06D1EEEE7002F02DCED1B3E44E0
:1012600003E0781CA84200DD7D1CB81B00F1010AD8
:101270004FF000472078000703D4AA4501DB4FF068
:10128000FF3A0021B7F1004F0DF143088DF84310EC
:1012900024D002202B23002F01DA7F422D230A21A4
:1012A000021EA0F1010000DC5FB197FBF1FC97FB8F
:1012B000F1F201FB1C7C17460CF1300C08F801CD53
:1012C000EEE7A8F1010003702188090501D5452149
:1012D00000E06521A0F1010800F8011C09980FA9A0
:1012E000A1EB0807FF1D00B10120411901EBEA70D5
:1012F000A1693844081A401EA0612078C00602D4B3
:101300002046FFF76BFA099828B1D4E901219047EC
:10131000206A401C20622078C00622D52046FFF7B4
:101320005DFA1EE0002E04DBB34502DD01A8805DFE
:1013300000E03020D4E901219047206A401C20625F
:10134000761CAAF101005FEA000A0AD100F032FA25
:10135000C0680168405CD4E901219047206A401CC4
:101360002062281EA5F10105DCDC07E0D4E901219B
:1013700018F8010B9047206A401C2062381EA7F124
:101380000107F3DC2046FFF73FFA032011B041E6E6
:1013900030BCBDE8C08F00002DE9F04F04460D467B
:1013A000D21D22F0070089B0D0E90097484639469F
:1013B00006F00EFE0246F80F01D02D2307E020684C
:1013C000810701D52B2302E0202101EAC0038DF81B
:1013D00020300BB1012000E00020032A824601D01A
:1013E000072A04DB2946204600F0E8F93FE120788F
:1013F000800601D40D2500E0E569C7F30A560D2DDE
:1014000049DA00214FEA175B08464FF00000002F31
:1014100000F4400007DA00EB80004FF4400100EBDD
:10142000D07001EA60008115012901DD4FF0FF3124
:1014300000224FEA850CBCF1180F06D31346ACF11D
:1014400018004FF08052C24003E04FF4801323FA9B
:101450000CF30CF10C0CBCF1200F04D3ACF1200CFC
:1014600009FA0CF001E007FA0CF000294FF00048EF
:1014700001DD18B90FE00ED140450CD319EB02097C
:101480005F4121B9404502D19F4329EA0209BBEBE4
:10149000175F00D0761C2088000502D57B48784471
:1014A00002E07A487844193808AA302302F80A3052
:1014B000037C0AF10101002E0AF1020A53546A4624
:1014C00002DC4FF0300101E04FF031014FF0010834
:1014D0008DF8001002D0A6F2FF3603E059EA47016A
:1014E00000D06B4E002D02DC2178090704D54FF0A7
:1014F00002082E218DF80110C44600210BE0C7F32D
:1015000003433F01C35C491C6D1E02F808300529E6
:1015100008F1010801DA002DF1DC00210CE000EBFC
:101520001973491C1B786D1E082902F808304FEA10
:10153000091908F1010801DA002DF0DC21688B0699
:1015400002D516E0A8F10108E04505DD02EB08032D
:1015500013F8013C302BF5D0B8F1000F09DD02EB98
:10156000080313F8013C2E2B03D1090701D4A8F17D
:101570000108002D05DD3E2102F808106D1E08F15E
:101580000108407C002E02F8080008F1010804DA86
:101590002D20764202F8080002E02B2002F8080015
:1015A0000A214FF47A70864208F101080BDB96FBA2
:1015B000F0F3303302F8083096FBF0F308F101083D
:1015C00000FB136601E0642E0CDB642096FBF0F355
:1015D000303302F8083096FBF0F308F1010800FB05
:1015E000136601E00A2E06DB96FBF1F0303002F8BC
:1015F000080008F1010896FBF1F001FB10603030A3
:1016000002F80800A16908F1010808EB050202EBE5
:101610000A00081AA0612078C00602D42046FFF70D
:10162000DDF8216A08AE01EB0A00206204E0D4E98B
:10163000012116F8010B9047BAF1010AF7D2207880
:10164000C00602D52046FFF7C9F86E4609E016F835
:10165000010B3E280FD0D4E901219047206A401C9D
:101660002062B8F10108F2D22046FFF7CDF809B0A8
:10167000032000F00FB8206A2844206203E0D4E978
:101680000121302090476D1EEBD3F8E73E6C00003F
:1016900002FCFFFF30BCBDE8C08F10B5436913B139
:1016A000AFF3008001E0FFF7D2F8012010BD1278FF
:1016B00000F124010A7000224A700122EDE711684E
:1016C0004FF0FF32E9E710B5436913B1AFF3008083
:1016D00001E0FFF755F9012010BD128800F1240147
:1016E00082840022C2840122EDE711684FF0FF32AC
:1016F000E9E72DE9F04116460C46054600F052F8A0
:10170000036893F80101012807D0FF2C12D8185D57
:1017100080B101202C70BDE8F081D3F8070132467A
:10172000214603F20713C7182846BC46BDE8F0411E
:10173000002360474FF0FF30EDE710B500F0FEF8F2
:10174000BDE8104000F0F5B810B500F00FF9BDE8A5
:10175000104000F0EEB870477546FFF74FFBAE46FD
:1017600005006946534620F00700854618B020B5AD
:10177000FEF7F2FDBDE820404FF000064FF00007F5
:101780004FF000084FF0000BAC46ACE8C009ACE8E5
:10179000C009ACE8C009ACE8C00921F007018D46DA
:1017A0007047000010B500F005F8001D10BD00BF27
:1017B0008D68000000487047DC0100202DE9F041F1
:1017C0001F46044603260168072A01F4006004DB73
:1017D00008B116A505E016A503E008B115A500E0BF
:1017E00015A521F010002060A069C01EA0610FB1F6
:1017F000401EA0612046FEF7F1FF4FB1D4E9012160
:1018000038469047206A401C2062C01C206206E0D7
:10181000206AFAE7D4E9012115F8010B9047761EFA
:10182000F8D22046FEF7F0FFBDE8F0814E414E00B1
:101830006E616E00494E4600696E66002DE9F04704
:10184000814616468AB0354878440DC88DE80D00AB
:1018500032487844801C03AC0DC884E80D0041F682
:101860009B300844372190FBF1F290FBF1F5A5F194
:10187000800501FB12041B3C02D56442012000E0FC
:101880000020DFF898A080460027FA44AAF1BE0A9B
:101890000EE0E0070AD03246684607EB4701012315
:1018A0000AEB810106F05DFA8DE8070064107F1CE9
:1018B000002CEED1194F7F44AE3F19E0E80715D058
:1018C00007EB04100DF1180A90E80E008AE80E00EC
:1018D000C068F04201D1981908903246012306A948
:1018E00003A806F03EFA03AB83E807006D10641C02
:1018F000002DE3D14FF0010332466946B8F1000FE5
:1019000003A802D006F018FA01E006F02AFAC9E9A5
:101910000001C9F808200AB0BDE8F087246900007A
:1019200010B50446AFF300802046BDE81040FEF736
:10193000E4BC002801D0FFF75BBA704710B5002166
:1019400002A000F03BF8012010BD000053494741C0
:101950004252543A2041626E6F726D616C20746520
:10196000726D696E6174696F6E00000010B50128B8
:1019700005D0002103A000F021F8012010BD09A12D
:10198000F8E7000053494752544D454D3A204F75F2
:1019900074206F662068656170206D656D6F727967
:1019A000000000003A2048656170206D656D6F721F
:1019B0007920636F727275707465640070B5054646
:1019C0000C460A2000E06D1CFFF70AFA35B12878B2
:1019D0000028F8D102E0641CFFF702FA14B1207865
:1019E0000028F8D1BDE870400A20FFF7F9B90000DF
:1019F00030B44FF0013C50F8042B51F8043BCCFAC2
:101A000052F4D51A20D1FCB950F8042B51F8043BFC
:101A1000CCFA52F4D51A17D1B4B950F8042B51F8B6
:101A2000043BCCFA52F4D51A0ED16CB950F8042B01
:101A300051F8043BCCFA52F4D51A05D1002CDAD077
:101A400030BC4FF00000704729BAB1FA81F111F0B3
:101A50001801D1F120008440F2D1CA40CB4012F0ED
:101A6000FF0213F0FF0330BCD01A704702F0FF03EF
:101A700043EA032242EA024200F002B84FF00002B9
:101A80000429C0F0128010F0030C3EF41AAECCF121
:101A9000040CBCF1020F18BF00F8012BA8BF20F8FE
:101AA000022BA1EB0C01FEF70CBE5FEAC17C24BF48
:101AB00000F8012B00F8012B48BF00F8012B7047FC
:101AC0002DE9F04381B041F20004C4F20204FEF7B4
:101AD00055FC00F0ECFC01F0A5F82068000703D4E9
:101AE000D4F89400000A01E02068000948F2D851B7
:101AF000A26800F00F00C0F6000151F82000C2F308
:101B00008101DFE801F02F02070C42F20040C0F231
:101B1000F40027E041F20020C0F27A0022E0E16800
:101B2000E36801F00302C3F30211022A01F101018B
:101B300006D0032A04BF41F20020C0F27A0003E07D
:101B400042F20040C0F2F400E268B0FBF1F0C2F3F0
:101B50000621E2684843C2F34161022202EB4101DF
:101B6000B0FBF1F040F20C01C2F200010860A26883
:101B700048F20873C2F30312C0F600039A5C48F6F9
:101B8000CC44D04048F6C842C0F60004C0F600027B
:101B9000A242086009D248F6C845C0F6000500BF59
:101BA00055F8040B8047A542FAD343F2C860C2F24D
:101BB0000000C11C00F5705020F0030421F0030563
:101BC000A4F11801A9424FF0000138BF0121192CDE
:101BD0004FF0000238BF012211434FF0000632D10E
:101BE00040F61C01C2F2000101270F7040F2F821FB
:101BF000C2F20001621B41F6A0630D604FF4F55183
:101C00000C3AC0F20103204685E8460040F2F42178
:101C100040F80C3D44E9022240F2FC24C2F20001EB
:101C2000C2F20004086059A22046022105F042FBDE
:101C300004F11400C4E9050040F61400C2F20000EB
:101C4000A7836672056047F2EC40C2F20000C0E96B
:101C5000000047F2D42047F2E025C2F20000C2F2B1
:101C600000050680A819A8510836B6F5807F4060A7
:101C7000F8D147F2D821C2F2000143F2C46847F21A
:101C8000E039C1E9001140F25001C2F20008002021
:101C9000C2F20009C2F20001C8F80000C9F8000051
:101CA0000A5C012A04D010304028F9D1002600E057
:101CB0000E18F06805F016FAB8B3F2680021044671
:101CC000002705F0B3FA0120208148F6C430C0F6A1
:101CD000000000BFC15D042FE15501D00137F9E7D5
:101CE000E0190021C170A0F80110FEF747FB56F87B
:101CF000041F224642F80C1F4A6032605660FEF70D
:101D000041FB4FF4807005F0EDF958B146F6F971DA
:101D100002461427C0F6000120460A23009703F06C
:101D200013FD03E0204605F0AEFA0024204605F03E
:101D3000CBFC40F21C34C2F2000416A22046012162
:101D400005F0B8FA47F24D6147F2E4322027C0F6B9
:101D50000001C2F2000220461F23009703F0F4FCAA
:101D6000204605F0B1FCD9F8000003F05FFC05EB5C
:101D7000C00050F8080CA0F114010830C8F8001099
:101D8000FEF749FB002001B0BDE8F0836865617093
:101D9000000000007469646C6500000070B5B8B1A3
:101DA0000C46E9B116461AB3054620461421FEF743
:101DB00086FC2869C4E90205042020703078296A6D
:101DC0006A8A401A5043E08001212046E17470BDC8
:101DD00048F6391115A0C0F60001CD22FEF710FC1F
:101DE00048F639110BA0C0F60001CE22FEF708FC20
:101DF00048F6391102A0C0F60001CF22FEF700FC20
:101E00004E554C4C20213D207063684368617243FD
:101E10006F6465004E554C4C20213D207074446524
:101E20007363726970746F72000000004E554C4C01
:101E300020213D207074466F6E740000FEE70000A4
:101E40002DE9F04740F2D824C2F200042078D0BB3C
:101E500040F2D62648F6A33940F2D72747F2EC5590
:101E60004FF0AB08C2F20006CBF62E294FF0160A4F
:101E7000C2F20007C2F2000504F020FAFEF7A2FB4E
:101E8000FEF742FAC1B201FB08F1090B01EB410177
:101E9000A0EBC1003070FEF737FAC1B2A1FB090216
:101EA0001209286802FB1A11397050B1327800BF4C
:101EB00003789A4202D143789942DDD040680028E5
:101EC000F6D101202070BDE8F087704770B584B06E
:101ED000012905461DD1B5F90840284604F034F81B
:101EE00004F5FF3000F5B5704FF0961140080391EE
:101EF00000210291ADF8080049F2487049F23871AA
:101F0000C0F60100C0F6010102AB2A4604F071F8E8
:101F100069E040F2EC20C2F20000017933A2002017
:101F2000022918BF024639A440F2A006012918BFB1
:101F300014462A46C2F20006002D08BF4FF0FF32B9
:101F4000B36948F2CC11C0F600018B4232610CD06B
:101F5000B6F90420B161002A308106DCB6F906002A
:101F600000210828C8BF0121717204F09BF90220EA
:101F7000C0F2DF000090EC20C0F209000190694639
:101F8000284644F208227F2304F005F840F2E0706E
:101F9000CFF6FF70C6F80A002046FEF771FBC0F1CD
:101FA000280148083072B069C1F34701B0F9102028
:101FB000B6F90430514399424FF01C0171720BDBAA
:101FC000B0F912001D225043B6F9062000213172EB
:101FD0009042B8BF1D21717248F63B40C0F6000028
:101FE000214604F063F804B070BD00BF596F75203E
:101FF00068697420796F757273656C662C206761EF
:102000006D65206F7665722100000000596F7520A4
:10201000686974207468652077616C6C2C20676136
:102020006D65206F766572210000000070B588B084
:102030000129044627D14FF46C000690F020C0F22D
:102040000400079006A9204644F208227F2303F0EB
:10205000A2FF4FF4801004904FF45C0504A92046C1
:1020600044F208227F23059503F095FFF020C0F28B
:102070001000CDE9020502A9204644F208227F2380
:1020800003F089FF4CE0204603F05EFFF020C0F231
:102090001000002601906946204644F208227F2362
:1020A000009603F078FF40F2A005C2F20005A9698E
:1020B00048F2CC10C0F6000081422C610CD0B5F97A
:1020C0000410A86100292E8106DCB5F90600002164
:1020D0000828C8BF0121697204F0E4F8A8694FF626
:1020E000FF71B0F91020B5F90430A9810221B3EBDA
:1020F000420FC0F2E071A96009DCB0F91200B5F935
:102100000620002129729042B8BF0121697240F275
:10211000EC20C2F200000188428802A003F0C6FF52
:1021200008B070BD2073636F72653A202534640A6D
:1021300020206C656E6774683A20253464000000C6
:10214000B0B584B0012904461DD1B4F90850204629
:1021500003F0FAFE05F5FF3000F5B5704FF096116B
:102160004008039100210291ADF8080049F248703F
:1021700049F23871C0F60100C0F6010102AB2246F7
:1021800003F037FF53E040F2A0052146C2F20005FC
:10219000002C08BF4FF0FF31AA6948F2CC10C0F6FE
:1021A0000000824229610CD0B5F90410A86100201A
:1021B0000029288105DCB5F906100829C8BF0120CF
:1021C000687204F06FF80220C0F2DF000090EC208B
:1021D000C0F2090001906946204644F208227F239C
:1021E00003F0D9FEA8694FF6FF71A981B0F910106C
:1021F000B5F9042001EB4101B2EB410F41F6064174
:10220000C0F2E071A9600BDCB0F912001D2250434E
:10221000B5F90620002129729042B8BF1D216972CC
:1022200048F63B40C0F6000002A103F03FFF04B0B7
:10223000B0BD00BF507265737320416E79204B654D
:102240007920746F2053746172742047616D65004A
:1022500040F2942140F21440C2F200010122C4F283
:1022600001000A700168490540F2F221C2F2000142
:1022700042BF4FF4806303600A700268920458BF43
:1022800070474FF40052026004200870704740F21B
:10229000942140F21440C2F200010122C4F2010074
:1022A0000A700168890540F2F221C2F2000104D5EA
:1022B0004FF40072026002220A700268D20558BF11
:1022C00070474FF48072026003200870704700006E
:1022D0002DE9F04F84B00A68002A00F0E28041F650
:1022E000004500F13847C4F6000508234FEAB72639
:1022F000A84208BF0723072E38BF4FEAB7234FF085
:10230000010C00254FF0000B01274FF0000800934F
:10231000019100BFA7F101090CFA09F4224000F075
:10232000AC80D1F804A00292BAF1120F00F2B3808F
:102330000CFA0AF212F0061F00F0AD800322D0F86A
:1023400008E002FA05F3CA682EEA030EAA4042EA40
:102350000E0282604268DE43A2434FEA1A1404FA76
:1023600009F42243AE464260C2688C68324004FAE7
:102370000EF422434AF01004122CC26017D16FF001
:10238000030101EA590202440BF01C030F21D2F8A9
:1023900020A001FA03F401992AEA0404D1F810C03C
:1023A00001990CFA03F323431362D1F804A00268E5
:1023B0000AF00303324003FA0EF31A430260029E4E
:1023C0005FEACA034FF0010C57D541F26001C4F235
:1023D00002010A6840F2004E42F001020A600A68F7
:1023E000C4F2010E02F001020392039A29F00302E3
:1023F0004FF608497244CFF6FF7952F809C00BF046
:102400000C040F2101FA04F32CEA030CDDE900317E
:1024100003FA04F444EA0C0342F80930DEF800C081
:102420004B684CEA0604DA0358BF2CEA0604CEF8DF
:102430000040DEF804C09C034CEA060258BF2CEAB8
:102440000602CEF80420DEF808C0DC024CEA0602E0
:1024500058BF2CEA060240F20C4CCEF80820C4F219
:10246000010CDCF800409B0244EA060258BF24EA53
:102470000602CCF800204FF0010C0A6808F10108B0
:1024800032FA07F307F101070BF1040B05F102051E
:102490007FF440AF05E00322AA404FEA480ED6433E
:1024A00062E704B000F000B830BCBDE8C08F80B572
:1024B00082B04EF60C50CEF2000001684FF6FF02DB
:1024C000114040F20032C0F2FA52114301600F2075
:1024D00000F019F8A8B941F25800C4F2020081686E
:1024E00041F001018160816801F0010101910199D0
:1024F000016841F080510160006800F08050009058
:10250000009802B080BD40F20C01C2F200010968DF
:1025100044F6D352C1F26202A1FB02124FF0FF3126
:1025200001EB92130022B2EB136F1CBF0120704726
:102530004EF210014EF60C5CCEF20001CEF2000C11
:102540004B60F0238CF817308A6007220F284FF079
:1025500001000A6088BF7047DCF800100023C1F357
:10256000022181F00702042A28BF0422033938BF60
:1025700019464FF0FF3303FA02F2D24302FA01F197
:1025800009018CF8171047F2F851C2F200010870E7
:102590000020704741F20001C4F20201886810F087
:1025A0000C02C86805D00C2A27D100F003000128CE
:1025B00023D10868000703D4D1F89400000A01E091
:1025C0000868000948F2D85300F00F00C0F6000375
:1025D00053F82030002A184618BF00200C2A18BFD4
:1025E0007047C86800F0030002280FD0032804BF1A
:1025F00041F20023C0F27A030CE0042A1DD0082A1D
:1026000020D141F20020C0F27A00704742F200432C
:10261000C0F2F403C868CA68C0F30210C2F306220D
:10262000C96801305A43B2FBF0F0C1F341610222A4
:1026300002EB4101B0FBF1F0704742F20040C0F202
:10264000F400704700200023C8E72DE9F04383B071
:1026500007462A2040F2184489468DF80100C4F646
:10266000000410250DF10100012198461646256150
:1026700000F05AF8380A8DF802000DF1020001212D
:10268000256000F051F80DF1030001218DF8037071
:10269000256000F049F8300A8DF8040001A80121F6
:1026A000256000F041F80DF1050001218DF805606D
:1026B000256000F039F82B208DF806000DF106009A
:1026C0000121256100F030F84FEA19208DF807004C
:1026D0000DF107000121256000F026F802A8012174
:1026E0008DF80890256000F01FF84FEA18208DF84B
:1026F00009000DF109000121256000F015F80DF128
:102700000A0001218DF80A80256000F00DF82C20C8
:102710008DF80B000DF10B000121256100F004F88C
:1027200003B0BDE8F08300002DE9F04148F201025A
:10273000C8F20002A1FB0223DE0B04463004A0EB2A
:10274000D33001EBD33825184FF6FF773EB1204642
:102750004FF6FF7100F00EF83C44013EF6E71FFA19
:1027600088F12846BDE8F04100F004B8FEE700001B
:10277000FEE700002DE9F04182B040F23025C2F2C0
:10278000000595F85C20012A00F0FD804FF001085B
:1027900047F2F45785F85C80C2F200073C6895F870
:1027A0005D20012A40F0EA80002800F0E78000293F
:1027B00000F0E4800322002385F85D202B66A863E7
:1027C000A987E9872B64A5F84430A5F84630AA68A4
:1027D000EB64B2F5004F2A682B6507D1136823F02C
:1027E00040031360136843F48043136013685B066F
:1027F00003D4136843F0400313606B680139EE683B
:10280000B3FA83F3B1FA81F15B094909B6F5E06FD8
:1028100041EA030113D931B130F8021BD160A8633A
:10282000E98F0139E987E98F002941D0916889074B
:10283000F2D43968091BC9087C29F4D99EE0002923
:102840004FF6FE7111D0EB8F022B05D330F8023B0F
:10285000D3604FF6FE7304E000784B1C1073A86B36
:102860000130A863EE8F3344EB87EB8F03B3013164
:1028700093689B0706D43B681B1BDB087C2B14D991
:102880007CE000BFEB8F022B06D330F8023BD36015
:102890004FF6FE7305E000BF00780B461073A86B7F
:1028A0000130A863EE8F3344EB87EB8F002BDFD131
:1028B0004FF4C050214600F069F800284DD140F295
:1028C0000C023868C2F2000239681368201A00F559
:1028D0007A72C3F3CB3050430190286883681B069B
:1028E0000FD500BF3B685B1A934211D2019B019E3A
:1028F000002BA6F101060196866808BF1A4633062A
:10290000F0D44FF4C060214600F040F828BB2AE024
:10291000416821F0E00141606968B1F5827F0AD128
:10292000A968B1F5004F02D0B1F5806F03D10168FD
:1029300021F040010160A96AB1F5005F07D101688B
:1029400021F400510160016841F40051016001204F
:1029500085F85D00002085F85C00286E40F02000BE
:10296000286620202866A86838B9002000902868CA
:10297000C1680091806800900098286E002085F85A
:102980005D8085F85C0002B0BDE8F081B0B582B032
:1029900047F2F45EC2F2000EDEF80020DEF80030EE
:1029A000891A40F20C02C2F20002D2F800C02322BF
:1029B0000CFB02F201F57A71120D4A4340F2302C01
:1029C0000092C2F2000CDCF800209468044215D09A
:1029D000B0F5C06F02D1147B0194019CDEF8004079
:1029E000E41A8C420CD2009C009D002CA5F101053C
:1029F0000095956808BF21460542E9D1002028E0EE
:102A0000506820F0E0005060DCF80400B0F5827FF0
:102A10000BD1DCF80800B0F5004F02D0B0F5806FA4
:102A200003D1106820F040001060DCF82800B0F5F9
:102A3000005F07D1106820F400501060106840F467
:102A40000050106001208CF85D0000208CF85C00C4
:102A5000032002B0B0BD70472DE9F04F83B0FDF701
:102A60008DFC47F2CC22C2F20002117801311170C4
:102A7000FDF788FC47F2F450C2F20000016843F20F
:102A8000C4640131016047F2E84BC2F20004C2F2B3
:102A9000000B2068DBF80010026C0131CBF800104D
:102AA000511E016428D1C16B0164FDF767FC2168E8
:102AB00091F8342002F00F02012A1BD10A4652F885
:102AC000143F5768BB4215D05F6091F8357047F2EC
:102AD000E026C2F2000606EBC7078E698A617D68B0
:102AE00033602A608D617A604F61FDF74BFC04F022
:102AF0003BFC01E0FDF746FC0DF10409DBF800802A
:102B0000CDF80890CDF80490FDF738FC47F2EC4A78
:102B1000C2F2000ADAF80060009056456BD04FF61A
:102B2000FE74C7F6FF7400BF7069A8EB0000A042F6
:102B300061D8D6E900104860726816F80B0C116075
:102B4000810736605CBF00F0FE0006F80B0C0198B0
:102B500046603060D6E902100196C6F804908847B6
:102B60000198DBF80080484541D0D6E9000141607A
:102B700071687660086016F80B0C366000F003018F
:102B8000032934D100F0FE0006F80B0CFDF7F6FB2C
:102B9000D6E9001216F80BCC4A60726853461160F1
:102BA000C6E90066DBF800103269DAF804705518DF
:102BB000756100BFBB4207D01A461B685969491BA3
:102BC000F8D0A142F6D801E03B683A4647F2F44714
:102BD000C2F2000739685E60013139604CF00101D2
:102BE00033601660726006F80B1CFDF7CBFBDAF859
:102BF0000060564598D10098FDF7C4FBFDF7BEFB79
:102C000047F2CC22C2F2000211780139117003B0F0
:102C100000F002B8FDF7B6BB30BCBDE8C04FFFF70F
:102C2000F9BF000010B547F20000C4F200000168CF
:102C300001F4C061B1F5007F1FD00168012262F389
:102C40004A21016040F20C01C2F2000109683223FE
:102C500059434DF68363C4F21B33A1FB031302EB0C
:102C6000934100224469013942F10003640501D512
:102C7000002BF7D1406940054ED441F20004C4F264
:102C80000204A068E16800F00C00082805D00C28B8
:102C900045D101F00301032941D12168E26847F6DB
:102CA000737341F20341CFF66063C1F200011A4031
:102CB0008A4217D1206880015CD4206840F080707F
:102CC0002060E06840F08070E06047F2F450C2F2AB
:102CD00000000168226892014CD40268521A032A4B
:102CE000F8D32CE00C282AD0206840015CBF206873
:102CF0005FEAC00023D4206820F08070206047F293
:102D0000F450C2F20000026823689B0119D50368E1
:102D10009B1A022BF8D912E072B600BFFEE72168B9
:102D200041F48031216047F2F451C2F200010A6897
:102D300023689B03B2D40B689B1A642BF8D972B634
:102D4000FEE7E26848F28C03C0F29D131A4011437B
:102D5000E160216841F080712160E16841F080719B
:102D6000E16001682268920104D40268521A022AC2
:102D7000F8D9E4E742F2000CC4F2020CDCF80010CF
:102D800049070CD4DCF80010042262F30201CCF8ED
:102D90000010DCF8001001F00701042955D121686A
:102DA000890152D5A16841F2883341F00301A16045
:102DB00047F2F451C2F200010A6800BFA06800F0B7
:102DC0000C000C2804D00868801A9842F6D93CE020
:102DD000A06820F0F000A060DCF8000000F0070020
:102DE00005280CD3DCF80000042161F30200CCF8C4
:102DF0000000DCF8000000F00700042825D1A068DE
:102E000020F4E060A060A06820F46050A060FFF7AC
:102E1000C1FBA16848F20872C1F30311C0F60002B9
:102E2000515C01F01F01C84040F20C01C2F20001E8
:102E3000086047F2F850C2F2000001781020002923
:102E400018BF0F20FFF75FFB08B172B6FEE710BD99
:102E50004EF68850CEF2000001684FF6FF7341F441
:102E60007001016041F20000C4F202000168CEF678
:102E7000F62341F0010101600021816002681A40DF
:102E800002604FF48052C260026822F48022026025
:102E900081617047FEE740F6B801C2F20001486D5B
:102EA00020B10068486508B1012011E091F8740074
:102EB00020B1012081F8700000207047886B002845
:102EC000F7D0086C0028F4D04865012081F8740020
:102ED00081F87100704770B5A2B090E87800049452
:102EE0000393D0E9043005950696CDE9073091E8C3
:102EF0003900D1E9041640F6200EC2F2000ECDE9E9
:102F00000D1609A94FF0000C39C1DEF82400ADF808
:102F100008C00F928068CDF800C001680EF1200053
:102F2000019019B168468847044600E0FC2401F08E
:102F300093FF60B222B070BDF0B5A3B090E8F0008E
:102F400005950494D0E9044006960797CDE908401A
:102F500092E87100D2E904271093CDE90E270AAA5E
:102F600071C291E81D00D1E9041540F6200EC2F2AD
:102F7000000ECDE9151512A94FF0000C1CC1DEF8AA
:102F80002410ADF80CC011908868CDF804C0016819
:102F90000EF12000029019B101A88847044600E014
:102FA000FC2401F059FF60B223B0F0BD2DE9F047D9
:102FB000A2B040F62008C2F20008002608F1200561
:102FC000924600960195ADF80860D0E90065D0E919
:102FD0000227D0E90440CDE90365CDE90527CDE915
:102FE000074093E885005D69D3E90363DDE92A9C26
:102FF000CDE90C6309AB85C391E88D00D1E90416D6
:10300000CDE90E5CCDE914166E4610A906F15805FF
:103010008DC128463021FDF752FBBAF1000F07D0D1
:103020009AE88F00DAF8144085E88F006C6102E0BE
:1030300001208DF86300B9F1000F0AD006F170008D
:1030400099E88E00D9E9046580E88E00C0E904653E
:1030500002E001208DF87B00D8F824008068016828
:1030600019B168468847044600E0FC2401F0F4FEEC
:1030700060B222B0BDE8F0872DE9F043A3B040F67E
:103080002008C2F200089946002308F120070D46E7
:1030900001930297ADF80C30D0E90037D0E9026116
:1030A000D0E90440CDE90437CDE90661CDE9084017
:1030B00092E88B00D2E904260DF1280E8EE88B00F1
:1030C0000EA801AFDDF8A8C080E8441007F1400663
:1030D00030463021FDF7F3FA15B13FCD3FC602E08F
:1030E00001208DF84F00B9F1000F0AD007F1580008
:1030F00099E88E00D9E9046580E88E00C0E904658E
:1031000002E001208DF86700D8F82400806801688B
:1031100019B101A88847044600E0FC2401F09CFE98
:1031200060B223B0BDE8F083B0B5A2B0D0E90042F0
:10313000D0E902350394D0E9044004AF2CC7CDE9AF
:10314000074091E81D00D1E9041540F6200EC2F2B7
:10315000000ECDE90D150AA91CC1DEF82410099056
:103160004FF0000CC868ADF808C001680EF12000EF
:10317000CDF800C0019019B168468847044600E0C8
:10318000FC2401F069FE60B222B0B0BD2DE9F0432D
:10319000A3B040F62008C2F2000899460D4600216F
:1031A00008F1200301910293ADF80C1090E88A0019
:1031B000D0E9036440690DF1100C8CE88A00CDE978
:1031C0000764099092E88B00D2E90426CDE90E2627
:1031D0000AAA8BC201AF07F13C0630463021FDF749
:1031E0006EFA15B13FCD3FC602E001208DF84B00CD
:1031F000B9F1000F0AD007F1540099E88E00D9E91F
:10320000046580E88E00C0E9046502E001208DF8C5
:103210006300D8F82400C068016819B101A8884784
:10322000044600E0FC2401F017FE60B223B0BDE8C4
:10323000F0832DE9F047B8B040F62006C2F2000650
:10324000706A407800F00300022819D003282ED1BC
:10325000B06B411C01D1F069B063F16B0022CDE984
:103260001822CDE916220F920E9211B30D684F6805
:10327000290C41EA07444FEA174ACDE90A5720E0F2
:10328000B06B411C01D1F069B063F16B00220029E1
:10329000CDE90C22CDE90A220992089275D00F6877
:1032A0004A68390C41EA0245CDE9067273E0FC2018
:1032B000D9E0011DF163876800240B974FEA174A94
:1032C000002502A908AA002301F006FE002800F04C
:1032D000C5800899B06B029102A916AA012302F0D9
:1032E00009FE002800F051818046BDF82000BDF89D
:1032F0002210281A756C0FFA80F9ADF82800601AB0
:1033000004B2E907ADF82A0023D0B9F1FF3F0EDC83
:10331000306CB0F9080099FBF0F101FB109009EB5B
:103320000701091A8146ADF82800ADF82C10B4F158
:10333000FF3F0EDC306CB0F90A0094FBF0F101FBAA
:10334000104004EB0A01091A0446ADF82A00ADF852
:103350002E10D8F808000AA90F900EA8024602F015
:1033600084FD00287AD00FFA89F7002F00F18680BB
:1033700020B2B0F1FF3F40F38180306C0AAA414691
:103380002B4602F0BAF9054669E0011DF163816838
:1033900000250791002716A90EAA002301F09CFD25
:1033A00000285BD00E99B06B169116A90AAA0123CA
:1033B00002F0A0FD002800F0F4800446BDF83800BB
:1033C000BDF83A10381AADF81800681AA168ADF8BF
:1033D0001A0008A8099106A9024602F046FDE8B3C2
:1033E0000020CDE90400CDE9020006A902AA20468A
:1033F000012302F07FFD88B3706A017801F00E02AC
:10340000052AC0F0BC80C1F342010122407802FAD3
:1034100001F115910027C30902A80EA915AA00976A
:1034200001F0ACFD16A88821FDF749F90EAB0ECBD3
:10343000CDE91A2319911199129A06F12000CDE9CC
:103440001C121399726A1E919168179009680029DD
:1034500000F0978016A88847054693E0FD25E8B25E
:10346000FD3818BF2846202101EA9001403186F836
:10347000290040B2718538B0BDE8F08725F001031E
:103480000AA902AA404602F0ECF805460028E6D454
:10349000736CD807E3D0BDF90C00BDF93C10814234
:1034A00020DDDDE90E250FFA84FC091A1044BCF179
:1034B000FF3FCDE90825ADF82410ADF8200006DC6B
:1034C000BDF80E00ADF82240001BADF8260008A99B
:1034D0004046002202F0C5F80546B0F1FF3F01DC8E
:1034E000E81CBCD1BDF90E00BDF93E10814221DDC2
:1034F000DDE90E32091A00EB1340B7F1FF3FCDE9C9
:103500000832ADF82610ADF8220007DCBDF80C003B
:10351000ADF82090A0EB0900ADF82400736C08A969
:103520004046002202F09DF80546B0F1FF3F01DC65
:10353000E81C94D1BDF90C00BDF93C2082428EDD1F
:10354000BDF90E10BDF93E308B427FF788AF0E9F5C
:10355000121A3844ADF824205A1AADF8200001EBB5
:103560001741D6E91003ADF82620ADF8221008AABD
:10357000414602F0C2F80546B0F1FF3F6FE7FC2577
:103580006DE7FC2501F068FC69E748F64D4048F618
:10359000D701C0F60000C0F6000140F21762FDF747
:1035A0002FF848F64D4048F6D701C0F60000C0F6A7
:1035B000000140F2A652FDF723F800002DE9F04F7C
:1035C000D1B0002900F0F28240F6200BC2F2000BCD
:1035D0000746DBF824000C4601781546C1F342018A
:1035E000012202FA01F12D91CDE92B114178082237
:1035F000C8064FF000062A9202D44FF000080CE0F3
:10360000DBF84800CB090CA92BAA009501F0B6FC09
:1036100048B38046DBF8240041780DF1900ACB09CD
:103620002CAA38465146009501F0A8FC814618A9FD
:103630002DAA20460023009601F0A0FCB9F1000F4E
:103640004FF0FD0418BF002803D160B251B000F064
:10365000F3BADBF824004078C10600F0040004D47B
:1036600038B900241CE0FD24EFE700283FD10024F6
:1036700054E0DBF848001EA90C310022002300248E
:1036800001F02AFC60B10AF10C0108AA002302F043
:1036900031FC1EA92AAA0123009501F06FFC044603
:1036A000DBF82400407800073DD5DBF84C0012A978
:1036B0000C3100220023002601F00EFC002800F04F
:1036C0008880DBF8382002941478D2F808C00823E8
:1036D000E40703934BD10023002400BF9688D188D0
:1036E000D268344417780B44FF07F7D03CE0DBF88E
:1036F0005C001EA90C3100220023002401F0ECFB29
:1037000060B10CA90C3108AA002302F0F3FB1EA93A
:103710002AAA0123009501F031FC0446DBF82400BD
:103720004078000701D4002653E0DBF8600012A9BE
:103730000C3100220023002601F0CEFB002848D0E7
:10374000DBF8382008231778D2F808C0FF07029466
:1037500003930CD1002300249788D688D2683C4478
:1037600011783344C907F7D0C4EA034200E00022CD
:10377000BDF87030BDF86C10A3EB0C074368866889
:10378000891A1944340CCDE92E36ADF8B810B919A0
:10379000012CADF8BC100ED0BDF86E10BDF87270E3
:1037A000A1EB1241A7EB1C4201EB1341ADF8BA109B
:1037B0001119ADF8BE102EA904AA0023002402F0AE
:1037C00099FB12A903AA0123009401F0D7FB029CE4
:1037D0000646BDF9A000BDF97020BDF9A210BDF9E3
:1037E000727090420AF11003B8BF0246B942B8BFE6
:1037F0000F46C2EA074ADBF82400CDF8A0A04078C3
:10380000E90700F0100171D1002940F0DF802C9A07
:1038100024A94846009501F0B7FADBF82400407867
:1038200040071ED5ECB1BDF98800BDF9A070BDF907
:103830008A20B4462646BDF9A240B842B8BF074622
:10384000ADF88870A242B8BF14461EA92A9AADF8F6
:103850008A40344601F1100320466646009501F087
:1038600093FA27468EB1BDF95800BDF97020BDF915
:103870005A10BDF972309042B8BF0246ADF85820D8
:103880009942B8BF0B46ADF85A3024A9484601F01A
:1038900048FC044600287FF4D8AE1EAD38462946C1
:1038A00001F03FFC044600287FF4CFAE0DF148083C
:1038B0003046414601F035FC044600287FF4C5AE91
:1038C000DBF82400407810F00C0F00F05C81002F32
:1038D00008BF3D46002E08BFB04624A818AA2946B6
:1038E0004346CDF800A0FFF7C7FB5DE1002940F09B
:1038F000E0802C9A24A94846009501F045FADBF8AF
:103900002400407840071ED5ECB1BDF98800BDF910
:10391000A070BDF98A20B4462646BDF9A240B8423F
:10392000B8BF0746ADF88870A242B8BF14461EA9BA
:103930002A9AADF88A40344601F1100320466646C3
:10394000009501F021FA27468EB1BDF95800BDF966
:103950007020BDF95A10BDF972309042B8BF0246CE
:10396000ADF858209942B8BF0B46ADF85A3024A99B
:10397000484601F0D6FB044600287FF466AE1EAD33
:103980003846294601F0CDFB044600287FF45DAEA1
:103990000DF148083046414601F0C3FB04460028BB
:1039A0007FF453AEDBF82400407810F00C0F00F0E9
:1039B000F080002F08BF3D46002E08BFB04624A867
:1039C00018AA29464346FFF7E1FBEDE02B9A0CA924
:1039D00001F110034046009501F0D6F9DBF8240010
:1039E000407840071ED5ECB1BDF98800BDF94070A4
:1039F000BDF98A20B4462646BDF94240B842B8BF58
:103A00000746ADF88870A242B8BF14461EA92A9A8C
:103A1000ADF88A40344601F1100320466646009511
:103A200001F0B2F927468EB1BDF95800BDF97020FA
:103A3000BDF95A10BDF972309042B8BF0246ADF8D8
:103A400058209942B8BF0B46ADF85A300CA94046F1
:103A500001F067FB044600287FF4F7AD1EAD384641
:103A6000294601F05EFB044600287FF4EEAD0DF11F
:103A700048083046414601F054FB044600287FF4D4
:103A8000E4ADDBF82400407810F00C0F00F08680E5
:103A9000002F08BF3D4624A80CA918AB2A46002ECB
:103AA00008BFB046CDF80080CDF804A0FFF77EFA3D
:103AB0007AE0410700F18680000700F18C802B9AA4
:103AC0000CA901F110034046009501F05DF9DBF807
:103AD0002400407840071AD5CCB1BDF98800BDF963
:103AE0004070BDF98A20BDF94260B8421EA9B8BF36
:103AF0000746ADF88870B242B8BF16462A9A01F15F
:103B000010032046ADF88A60009501F03DF90CA93C
:103B1000404601F006FB044600287FF496AD0BF109
:103B2000200124AF2F918ECF0DF1C40C8CE88E00B4
:103B3000DDE9281218ABCDE935120ECBDDE91C67A3
:103B40000DF1DC0C3C971B9F8CE88E00DDE9102109
:103B50000CAFCDE941210F9B86CFCDE93E27DBF8A5
:103B600024203B9640933D910020D1682E90ADF8E3
:103B7000C000096819B12EA88847044600E0FC245B
:103B800001F06AF961E524A818A95246FFF7A3F9E4
:103B90000AE024A818A9FFF7C7FA05E024A80CA991
:103BA00018AA5346FFF7C8F904464EE548F64D40BB
:103BB00048F6D701C0F60000C0F6000140F2DB2253
:103BC000FCF71EFD48F6D70107A0C0F6000140F241
:103BD000D632FCF715FD48F6D7010DA0C0F600015E
:103BE00040F2D732FCF70CFD214F505F434F524556
:103BF0002E70744F702D3E496E666F2E506172614B
:103C00006D2E624861735372634D61736B000000E7
:103C1000214F505F434F52452E70744F702D3E49D7
:103C20006E666F2E506172616D2E624861734465DD
:103C3000734D61736B00000030BCBDE8C08F0000A5
:103C400010B5416840F62002C2F20002002908BF08
:103C500002F120014A68127802F00E02082A1BD1F4
:103C6000B0F91EC0BCF1010F14DBC268B0F914E05A
:103C7000098CB0F91C000023012806DB002400BFDA
:103C800022F814100134A042FAD10133634502EB4B
:103C90004E02F1D1002010BD48F2187048F6ED1127
:103CA000C0F60000C0F600014FF4C572FCF7A8FC96
:103CB0002DE9F04F83B0436840F62001C2F20001C5
:103CC000002B08BF01F120035968097801F00E01AB
:103CD000082940F02C81596A11F00C0F01D0FC2406
:103CE00021E1C1F30217072F4FF0000400F21B81FE
:103CF000D0E903E6426A858AB0F92CC0B3F828A05F
:103D0000B3F82C80DFE817F03C006E000F01AB0029
:103D100008000F010800DB00B0F93EA0BAF1010F66
:103D2000C0F20081EB1D1BB24FEAE30906F0070366
:103D30000124B0F93C0004FA03F800254FF4FF76A3
:103D4000012816DB00274346744600BF21780B424A
:103D500004D032F81710C94322F8171013F07F016E
:103D600006EA430307F1010704BF01340123B84207
:103D7000ECD10135CE44554502EB4C02E0D1D1E007
:103D8000B0F93E90B9F1010FC0F2CC80EB1D1BB22F
:103D9000D91006F007030124B0F93C0004FA03F837
:103DA0004FF0000B4FF4FF77012813DB002544464A
:103DB000734600BF1E78344218BF22F815A014F0D5
:103DC0007F0607EA440405F1010504BF013301241D
:103DD000A842EFD10BF1010B8E44CB4502EB4C0214
:103DE000E2D19FE0B0F93E30012B19460293C0F2B8
:103DF0009980EB1D1BB2D91006F007030124B0F91E
:103E00003C00019104FA03F14FF0000B4FF4FF76F0
:103E1000009100BF012818DB009F0024754600BFF9
:103E20002B4613F8019B514617EA090F08BF41467C
:103E300022F8141017F07F0106EA470704F1010485
:103E400004BF1D460127A042EAD101990BF1010BE5
:103E50008E44029902EB4C028B45DBD162E0B0F953
:103E60003E90B9F1010F5DDBE91D09B24FEAE10AAD
:103E700006F007010123B0F93C0003FA01FB00261C
:103E80004FF4FF77012813DB00255C46714600BF25
:103E90000B781C4208BF22F8158014F07F0307EA54
:103EA000440405F1010504BF01310124A842EFD10A
:103EB0000136D6444E4502EB4C02E3D132E0B0F974
:103EC0003EA0BAF1010F2DDBE91D09B24FEAE1096D
:103ED00006F007010123B0F93C0003FA01FB0026BC
:103EE0004FF4FF77012817DB00255946744600BFC1
:103EF0002378194243461CBF32F81530DB4322F8C1
:103F0000153011F07F0307EA410105F1010504BFF7
:103F100001340121A842EBD10136CE44564502EBD3
:103F20004C02DFD1002460B203B000F00CB848F2BC
:103F3000187048F6ED11C0F60000C0F6000140F21E
:103F40007B22FCF75DFB30BCBDE8C08F2DE9F04F54
:103F500089B0476840F62001C2F20001002F08BF77
:103F600001F1200779680978082940F0918097F8D5
:103F70002420C168B0F91430FF2A6ED0B0F91E5069
:103F8000012D2E460295C0F27F803F8CB0F91CA017
:103F9000FE00F0B20490F82000EA172EFC2000EAA0
:103FA000D70BC2F58077A3EB0A000024FF2507ABEF
:103FB0000DF1140C019000BFBAF1010F039443DB23
:103FC0004FF000080498ADF820E0ADF81C00ADF803
:103FD0001EB0ADF822500C884FF00009E000C0B2CE
:103FE000ADF81400F82000EA1420ADF81800FC2009
:103FF00000EAD400ADF81600ADF81A5033F81900F5
:104000003CF81940504304FB070080B2000A2CF82A
:10401000190009F10109B9F1030FEFD1BDF814003E
:10402000BDF81640BDF81860C0F3C40004F0FC04ED
:1040300040EAC40006F0F80440EA042008F1010850
:10404000D04521F8020BBDD1039C02980134844273
:10405000019801EB4001AFD116E0B0F91E20012A12
:1040600012DB3F8CB0F91C00002600BF012806DBE4
:10407000002500BF21F815700135A842FAD101369C
:10408000964201EB4301F1D1002009B000F026B8BF
:1040900048F2B57102A0C0F60001ED22FCF7B0FABB
:1040A00041524D5F32445F434F4C4F55525F524730
:1040B00042353635203D3D204F505F434F52452E0F
:1040C00070744F702D3E496E666F2E436F6C6F7526
:1040D000722E6368536368656D65000030BCBDE88F
:1040E000C08F00002DE9F04F8DB0416840F62002EE
:1040F000C2F20002002908BF02F120014A681278CA
:1041000002F00E02082A40F07D828A6A002A00F03E
:10411000848290F84B20D20708D190F84A20062AD2
:1041200006D0EB2A40F08482F52067E2FE2065E2AB
:10413000B0F91430B0F94870496AC2680493036C4E
:104140000697446AB0F92C7011F00C01039700F047
:104150009280042900F0B9810C2900F01781082908
:1041600040F07182B0F93E70012F39460597C0F2D8
:104170004482B0F93C100BAF08460891481E00215C
:104180000DF12408029000BF08980791012864DB14
:1041900002984FF0000903EB000C02EB400E2146A1
:1041A0009CF800600025FF2E08BF4FF0FF35AD1BC7
:1041B000BEF800604FF0FF0AF000C0B2ADF82C006E
:1041C000F82000EA1620ADF83000FC2000EAD60006
:1041D000ADF82E00088805F5807BC600F6B2ADF874
:1041E0002460F82606EA1026ADF82860FC26ADF813
:1041F00032A006EAD000ADF82AA06E424FF0000AC5
:10420000ADF8260037F81A0038F81A50704305FB4D
:104210000B0080B2000A28F81A000AF1010ABAF16C
:10422000030FEFD1BDF82400BDF82650BDF828607B
:10423000C0F3C40005F0FC0540EAC50006F0F8052F
:1042400040EA052021F8020B089809F10109ACF1B8
:10425000010C8145AEF1020EA2D10498079902EB40
:1042600040020398013104EB40040598814206980E
:10427000034489D1C1E1B0F93E70012F3946059759
:10428000C0F2BB81B0F93C1004980791401A049029
:1042900003980BAE401A0390069809AF401A00210C
:1042A000029000BF07980691012861DB4FF0000ED5
:1042B000197800250893FF2908BF4FF0FF351088B3
:1042C000691AC5009346EDB2F822FC23ADF82C50D4
:1042D00002EA102503EAD000ADF82E002046FF24A4
:1042E000ADF83050ADF832408246008801F5807854
:1042F000C500EDB2ADF8245002EA102503EAD00063
:10430000C1F1000C4FF00009ADF82850ADF82600BF
:10431000ADF82A4036F8190037F8191000FB0CF0F8
:1043200001FB080080B2000A27F8190009F1010911
:10433000B9F1030FEED1BDF82400BDF82610BDF889
:104340002850C0F3C40001F0FC0140EAC10005F0B0
:10435000F80140EA0120544624F8020B089B079814
:104360000EF1010E5A46013386450BF102029FD130
:104370000498069902EB40020398013104EB4004D3
:1043800005988142029803448CD136E1B0F93EC0D1
:10439000B0F952108C4500F36281BCF1010FC0F2FC
:1043A0002C81069DACF10101B0F93C6001FB0530A8
:1043B000049BCDF808C0594302EB410759420491D0
:1043C00003990BAB891B03916942002509AA01914E
:1043D000089600BF012E0595CDE9067064DB711EBD
:1043E00000EB010E07EB41084FF0000C9EF8007047
:1043F0000026FF2F08BF4FF0FF36B8F80000F61B6D
:10440000C700FFB24FF0F80AFC25ADF82C700AEA9D
:10441000102705EAD000FF21ADF83070ADF82E006E
:10442000ADF83210208806F58079C700FFB2ADF8EC
:1044300024700AEA102705EAD000C6F1000A4FF0FE
:10444000000BADF82870ADF82600ADF82A1000BFBB
:1044500033F81B0032F81B6000FB0AF006FB090072
:1044600080B2000A22F81B000BF1010BBBF1030F15
:10447000EED1BDF82400BDF82660BDF82870C0F369
:10448000C40006F0FC0640EAC60007F0F80640EA61
:104490000620089E0CF1010C24F8020BAEF1010E6F
:1044A000B445A8F10208A1D1069F0498059D07EB29
:1044B00040070398DDF808C004EB40040798019911
:1044C00001356545084485D197E0B0F93E70B0F9F3
:1044D00052108F4200F3CF80012FC0F28E80B0F9CE
:1044E0003C600698791E01FB003A049B08965943EC
:1044F00002EB410B5942049103994042891B0391FD
:1045000000260BAB09AAF821FC250190029700BFF9
:10451000089805960128CDE906BA5DDB4FF0000E3C
:104520009AF800700020FF2F08BF4FF0FF30BBF853
:104530000060C01BF700FFB2ADF82C7001EA16272F
:10454000ADF8307005EAD6074FF0FF0CADF82E70CD
:10455000ADF832C0278800F58079FE00F6B2ADF8DC
:10456000246001EA172605EAD707ADF82AC0C0F192
:1045700000084FF0000CADF82860ADF8267000BFC1
:1045800033F81C0032F81C6000FB08F006FB090041
:1045900080B2000A22F81C000CF1010CBCF1030FE0
:1045A000EED1BDF82400BDF82670BDF82860C0F338
:1045B000C40007F0FC0740EAC70006F0F80740EA2D
:1045C000072024F8020B08980EF1010E0AF1010AE7
:1045D00086450BF1020BA3D1DDF818B00498059EB7
:1045E0000BEB400B0398029F04EB4004DDF81CA08A
:1045F00001980136BE4282448AD1002040B20DB0FB
:1046000000F045B848F2577048F6A421C0F6000003
:10461000C0F600017022FBF7F3FF48F60F3048F6B2
:10462000A421C0F60000C0F600017322FBF7E8FFEA
:1046300048F6763048F6A421C0F60000C0F6000126
:10464000A822FBF7DDFF48F6BE3048F64221C0F64F
:104650000000C0F6000140F21372FBF7D1FF48F6EC
:10466000914048F64221C0F60000C0F6000140F239
:10467000AD62FBF7C5FF48F6914048F64221C0F60F
:104680000000C0F6000140F25D62FBF7B9FF30BCEC
:10469000BDE8C08F2DE9F04F97B0426840F6200189
:1046A000C2F20001002A08BF01F120025168097816
:1046B00001F00E01082940F01C83916A002900F0E6
:1046C000248390F84710C90708D190F846100629AE
:1046D00006D0EB2940F02583F52006E3FE2004E315
:1046E000516AC268D0F824B00292B0F9142011F0D7
:1046F0000C010A92C26B03900192B0F94420099216
:10470000B0F92C200C9200F0BC80042900F02E821D
:104710000C2900F06381082940F00F83B0F936209E
:10472000012A11460792C0F2DF82B0F91E1000275D
:1047300015AB13AAF8250091002940F39B80B0F92E
:104740001C60B0F9340011960690701E0590781820
:10475000DDE90161049000BF05980E97371801EB61
:1047600040000F9006980B91594608961097CDF887
:1047700034B000BFDDF844801290404538BF804619
:10478000B8F1000F5ED0DDE90F904FF0000B00BFD5
:1047900007780024FF2F08BF4FF0FF34B9F80060FE
:1047A000E71BF400E4B24FF0FC0CADF8544005EA0E
:1047B00016240CEAD6064FF0FF0AADF85840ADF8C3
:1047C0005660ADF85AA00E8807F5807EF400E4B27A
:1047D000ADF84C4005EA16240CEAD606ADF852A016
:1047E000C7F1000A4FF0000CADF85040ADF84E6034
:1047F00033F81C4032F81C6004FB0AF406FB0E443C
:10480000A4B2240A22F81C400CF1010CBCF1030FE5
:10481000EED1BDF84C70BDF84E60BDF85040C7F306
:10482000C40706F0FC0647EAC60704F0F80647EAA4
:1048300006270BF1010B21F8027B0138C345A9F1D2
:104840000209A5D11298B0EB080093D10E9F0798EA
:1048500001378742DDE90C0B0BEB400B0ADADDE98F
:104860000860064404988742DDE90A0101EB400133
:104870007FF472AF0798009987420398FFF65CAF08
:1048800032E2B0F93620012A11460892C0F22C8299
:10489000B0F91E10002215AC13ADF827059100BF2A
:1048A000002940F395800398B0F91C30B0F934002A
:1048B000109307905018069002980F9001980E9050
:1048C0000B92079A5946CDF834B000BF1098119258
:1048D000824238BF1046002812905FD0DDE90EC931
:1048E0004FF0000E9CF800300022FF2B08BF4FF065
:1048F000FF32B9F80060D21AF300DBB2ADF85430E1
:1049000007EA1623FC20ADF8583000EAD6034FF032
:10491000FF08ADF85630ADF85A800B8802F5807B61
:10492000DE00F6B2ADF84C6007EA132600EAD303C6
:10493000ADF85280C2F100084FF0000AADF85060A7
:10494000ADF84E3034F81A2035F81A3002FB08F270
:1049500003FB0B2292B2120A25F81A200AF1010A6F
:10496000BAF1030FEED1BDF84C20BDF84E30BDF8C2
:104970005060C2F3C40203F0FC0342EAC30206F033
:10498000F803129842EA03220EF1010E21F8022BDD
:104990000CF1010C864509F10209A3D1DDE91120D2
:1049A000121A93D10B9A089801328242DDE90C0B5E
:1049B0000BEB400B0CDA09980E99014406980E9106
:1049C00082420A980F9901EB40010F917FF478AF72
:1049D000089805998242FFF663AF85E1C28BB0F972
:1049E0004E1016B28E4200F3B481B0F93610012990
:1049F00008460891C0F278810998019B711E01FB5D
:104A00000031404201910A99059048420490501E9D
:104A1000484302994FF0FF0901EB4000002115AF18
:104A20000DF14C0800900296002E40F399800398F7
:104A3000B0F91C20B0F9340011920990501EDDE944
:104A4000003207908819069007980E91111803EB11
:104A500040000F9009985C460B9210910A93CDF894
:104A600034B000BFDDF844C01290604538BF8446C2
:104A7000BCF1000F5CD0DDE90F0E4FF0000B00BF62
:104A80009EF800100026FF2908BF4FF0FF3603886C
:104A9000711ADE00F6B2F8224FF0FC0AADF854604D
:104AA00002EA13260AEAD303ADF85860ADF856308F
:104AB000ADF85A90238801F58076DD00EDB2ADF8AF
:104AC0004C5002EA13250AEAD30349424FF0000A88
:104AD000ADF85050ADF84E30ADF8529037F81A306E
:104AE00038F81A504B4305FB06339BB21B0A28F8D3
:104AF0001A300AF1010ABAF1030FEFD1BDF84C10D8
:104B0000BDF84E30BDF85050C1F3C40103F0FC03B2
:104B100041EAC30105F0F80341EA03210BF1010B5F
:104B200024F8021BAEF1010EE345A0F10200A7D16B
:104B30001298B0EB0C0095D10E9908980131814282
:104B4000DDE90C0B0BEB400B0ADA05980B9A0A9B7C
:104B5000024406988142049803EB40037FF474AF4B
:104B60000898029E8142FFF65FAFBDE0C28BB0F9AC
:104B70004E1016B28E4200F3F880B0F936100129BB
:104B800008460B91C0F2B0800998019B711E01FB91
:104B90000031404205910A99089048420790501E02
:104BA0004843029915AF01EB400000210DF14C087C
:104BB00004900696002E40F392800398B0F91C20D2
:104BC000B0F9340011920A90881909900598109054
:104BD00004980F900A98CDE90DB100BFDDF844C0EC
:104BE0001290604538BF8446BCF1000F5DD0DDE90E
:104BF0000FA9002699F800100024FF2908BF4FF0E4
:104C0000FF34BAF80030641AD900C9B2F822ADF8FE
:104C1000541002EA1321FC20ADF8581000EAD30129
:104C20004FF0FF0EADF85610ADF85AE0BBF800306B
:104C300004F58071DD00EDB2ADF84C5002EA1325A9
:104C400000EAD303ADF852E064424FF0000EADF835
:104C50005050ADF84E3000BF37F81E3038F81E50B7
:104C6000634305FB01339BB21B0A28F81E300EF18B
:104C7000010EBEF1030FEFD1BDF84C10BDF84E3060
:104C8000BDF85050C1F3C40103F0FC0341EAC30175
:104C900005F0F80341EA032101362BF8021B09F164
:104CA000010966450AF1020AA4D11298B0EB0C0082
:104CB00094D10E990B9801318142DDE90C0B0BEB7D
:104CC000400B0CDA0898109A02440998109281421D
:104CD00007980F9A02EB40020F927FF47BAF0B987C
:104CE000069E8142FFF666AF002040B217B000F08A
:104CF00048B848F2577048F6A421C0F60000C0F644
:104D0000000140F2F722FBF77BFC48F60F3048F633
:104D1000A421C0F60000C0F6000140F2FA22FBF721
:104D20006FFC48F62E3048F6A421C0F60000C0F60D
:104D3000000140F23932FBF763FC48F6BE3048F61A
:104D40004221C0F60000C0F6000140F28642FBF7A7
:104D500057FC48F65E4048F64221C0F60000C0F617
:104D6000000140F20942FBF74BFC48F65E4048F672
:104D70004221C0F60000C0F600014FF46A72FBF752
:104D80003FFC30BCBDE8C08FF0B591F80BC0DDF83A
:104D900014E05FEA8C7C0EF0080C05D4BCF1000F27
:104DA00008D14FF0000C0DE0BCF1000F13D14FF013
:104DB000000C1FE08F891E8805893744A5EB070C7E
:104DC000A1F80CC05FEA4E7717D5CF895B8846897A
:104DD0003B44F31A1CE0D1F814C08D89BCF8047070
:104DE000BCF808401E8804EB47072E44A7EB060CCE
:104DF000A1F80CC05FEA4E7701D4002309E04F69A7
:104E0000CD89FE887F895B8807EB46072B44FB1A18
:104E1000CB81082A0CD34F68B0F9086007FA8CF7E9
:104E200016FB03734B60C0685A4300EBD20011E0DD
:104E30004F680FFA8CF607FA8CF74F60B0F908004C
:104E40000F68504307307243C0081BB207EBD20211
:104E500000FB03200860F0BD10B540F62004C2F24C
:104E60000004606A407800F01F00122814DCC21FA2
:104E7000082A04F1400124D8DFE802F0052525289E
:104E8000052525250500206C00F0DFF8A06C00F05A
:104E9000DCF804F14C0119E01A2804DC132813D0C3
:104EA000172805D00FE01B2802D01F2818BF10BDFF
:104EB000A06C00F0CAF8E06D00F0C7F804F16001E2
:104EC00004E0032802D010BD04F148010868BDE8E1
:104ED000104000F0BAB800002DE9F04383B004465A
:104EE0000F46806861681D461646786039600BB1D0
:104EF000002028600EB1002030602078C10739D131
:104F00004FF000090DF10408400703D515B12868DA
:104F100000B92C60E46864B37EB1B7F90000B7F95A
:104F200002104042328820EAE07049421044728800
:104F300021EAE171308050187080A1682078CDF8A6
:104F400004900291C0071CBF60680190404639463A
:104F50003A4600F08AFF60B12078C0070AD1A088E5
:104F6000398808443880E088798808447880207837
:104F7000CAE70024204603B0BDE8F0832DE9F041E4
:104F800082B01E4615460C4601F114036946002204
:104F90004FF00008FFF7A0FF616919B109780222FC
:104FA00022EA410800284DD0DDF820C016B1017872
:104FB000890702D4D5F800E007E0C1780123C1F3E6
:104FC000420103FA01FEC5F800E05FEA0C75BDF886
:104FD00000304FF00005BDF802208788C1884FF0EF
:104FE000000658BFDD1B5FEA4C7358BF561ABEF16E
:104FF000080F09D3B0F908102AB211FB0622C668BF
:105000008BB202FB0EF10DE0B0F90810C7688BB24D
:105010000EFB01F10731C90836B22AB201FB067650
:105020000EFB02F106EBD101C4E90012DDE900122A
:105030002381C4E90312C178E27AA17202F0FC0173
:105040004144E17202B0BDE8F081A8B180B582B000
:10505000694600220023FFF73FFF50B10146007868
:10506000000706D58B69CA680020C8600BB10869C3
:10507000984702B0BDE880407047F0B581B0B1F903
:105080000C00B1F910603218F02A1CDCB1F90E5096
:10509000B1F912707B19F02B15DCACB24D69511EC1
:1050A000013B80B28AB29BB22146FDF7CEFA40F2B4
:1050B0001840C4F600001021016006FB07F0410013
:1050C0002846FDF731FB40F6B800EFF3108372B6C7
:1050D000C2F20000D0F880100022C0F8802083F3D4
:1050E000108891B1CA60EFF3108272B6C36F0B6083
:1050F000B0F87630C167591CA0F8761082F310889A
:1051000001B0BDE8F04000F07DBB48F6BE3048F687
:105110002101C0F60000C0F600014FF43672FBF723
:105120006FFAB0B5054600284FF000002ED00C46AF
:1051300061B3287800F00900092826D16B69EBB12A
:10514000286904F10C022946984708B3E8602060FA
:10515000E878A8B1C0F34200022811D8C0F10300DA
:105160004FF0FF31626801FA00F00021E181218AED
:1051700022EA00006060A081084405E0FA2005E012
:10518000208A00216160E1602081002040B2B0BD32
:10519000F920FBE770B540F2080EC2F2000EDEF80F
:1051A000001099B340F6B80240F2000CC2F20002BF
:1051B000C2F2000CD2F89800DCF8002040F2202364
:1051C000904238BF0246C2F200031C68CCF80020AF
:1051D00040F22822C2F20002A042C8BF0446D2E92F
:1051E00000561C602C1846EBE070C2E90040481ED7
:1051F000CEF800000AD14FF0FF30CCF800000020BC
:105200001860C2E900001E20CEF80000012070BD29
:1052100090F838200021002A41600163416318BFE3
:105220007047FBF78AB940F29421C2F200010A7874
:10523000012A18BF7047406800220A7040F2F2212C
:1052400090F8A830C2F200010A7043F0010180F822
:10525000A810704780B50820FBF740F947F2EC51E1
:10526000C2F200010860B0B140F2011101800021DA
:10527000416040F2D000C2F2000003210170FCF74F
:10528000DFFD40F2EC20C2F200004FF480310160FB
:105290004FF44841818080BD90F838200021002AD9
:1052A00041600163416318BF7047FBF746B90000D6
:1052B0002DE9F04381B040F2EC2940F29801C2F2AE
:1052C0000009C2F2000199F805500E68044600F08A
:1052D000F5FFD4E90C7357EA030204D0C71B71EB46
:1052E0000303C0F2C280A6FB057357EA030614BF8E
:1052F0001E460127C0197141002AC4E90C0100F0C3
:10530000B4800820FBF7EAF8002800F0AB8047F2F1
:10531000EC58C2F2000840F2F2260546D8F8000028
:10532000C2F200063778D0E90012002329606B60D2
:105330009FB133700E0A7B1E032B46EA02620FD820
:10534000DFE803F002141C2540F2D003C2F2000390
:105350001B78022B33D0032321E00B0A43EA0262BD
:1053600040F2D003C2F200031B781DE040F2D003EC
:10537000C2F200031B78EBB1012310E040F2D0032E
:10538000C2F200031B78032B1BD0022307E040F27C
:10539000D003C2F200031B78012B0DD0002340F292
:1053A000D007C2F200073B70032B0CD8DFE803F0F4
:1053B00002040709013A00E001326A7003E0013992
:1053C00000E00131297040F2D623C2F200031B78BD
:1053D000C9B299421FD140F2D723C2F200031B7811
:1053E000D7B29F4217D1B9F80000B9F802100A30BD
:1053F000A9F80000481CA9F8020040F2D820C2F227
:10540000000000210170FCF71BFDD8F80000686067
:10541000C8F8005026E0172921D8D2B2152A1ED884
:10542000436863B1064600BF3778B9421F4602D1D0
:1054300073789A4220D07B683E46002BF4D100213D
:10544000034600BF0A4619465B68002BFAD1814229
:105450000ED0002050600846FBF76FF8D5E701201A
:1054600089F804000020C4E90C0001B0BDE8F08315
:10547000FBF763F80020CAE70220F1E770B50446A5
:1054800040F2EC20C2F200000079002184F83910CB
:10549000C0B147F2EC55C2F20005286830B100BF38
:1054A0004668FBF74AF8002E3046F9D1012084F80F
:1054B00039006068002190F8A820296042F00101BD
:1054C00080F8A81070BD90F838200021002A4160B3
:1054D0000163416318BF7047FBF72FB880B5EFF346
:1054E000108072B601214906084A116080F31088C5
:1054F00002F03AF906480021416001600548016068
:105500000548016000F00AF880BDC04604ED00E0E7
:10551000F87400200475002008750020704780B5DD
:1055200008460121FCF70CFE002080BD80B508462E
:105530000021FCF705FE002080BD80B50846012152
:10554000FCF774FD002080BD2DE9F04782B00C46C9
:1055500008460021FCF76AFD47F2EC50C2F2000059
:1055600005682DB349F2287849F218764FF01009F2
:105570004FF00A1AC0F60108C0F601066F4600BFD8
:105580002878697800EB80004000ADF8000001EB5E
:10559000810009EB4000ADF802004046314622464A
:1055A0003B46CDF804A000F024FD6D68002DE7D146
:1055B00040F2D820C2F200000078012824D140F245
:1055C000D620C2F20000007840F2D721C2F20001DA
:1055D00000EB800009784000ADF8000001EB81008D
:1055E000102101EB4000ADF802004FF00A100190CD
:1055F00049F2087049F2F861C0F60100C0F60101F5
:105600006B46224600F0F5FC002002B0BDE8F087B2
:1056100080B508460121FCF759FC002080BD80B50B
:1056200008460021FCF752FC002080BD18B1C1B231
:1056300019B101200EE00020704710F47F4102D024
:10564000090A092006E010F47F0107BF010E1920A6
:10565000090C112048F20862C0F60002515C0844AF
:1056600070472DE9F0438BB00D46174609886A68EC
:1056700040F620096C88984606460020C2F20009D0
:105680004B421144CDE90900CDE90700CDE9050001
:10569000CDE90300D9F84000ADF804306342ADF81D
:1056A000081004EB1241ADF80630ADF80A1001A95C
:1056B00007AA012300F01EFCC0B11FB1DDE90810EC
:1056C0007860396003AA30462946012300F012FCB5
:1056D00060B1D9F82400007800F00E00052807D347
:1056E00007A803A94246FDF769FF02E0FD2000E09C
:1056F000FC2040B20BB0BDE8F083B0B584B01C46CE
:10570000134605460020CDE90200CDE900006A46B7
:1057100008461946012300F0EDFB78B140F6200061
:10572000C2F20000406A007800F00E00052807D39E
:10573000694628462246FDF741FF02E0FD2000E0D1
:10574000FC2040B204B0B0BD2DE9F0410446143055
:105750001D46C4E9050000204FF48073DDF8188071
:10576000C4E90810C4E90A23104623214FF48072CB
:1057700001F05CFDD4E90A12D4E90803114421F0D8
:1057800007014BF6EF66A1F144026FF04307CDF637
:10579000AD6600BFCE510437FCD147F287560027D3
:1057A000C0F600064FF0807C41E9083741E90677F2
:1057B00041E9047641E9020C41F8447CE26104F1DC
:1057C00044000A21224684F8365084F83550C4E952
:1057D0000E78C4F84080276384F83470C4E91C77DD
:1057E00001F068FD47F2FB6004F15801C0F60000CB
:1057F000C4E9161104F1600184F84D7091C1E766A7
:10580000BDE8F08140F6B803EFF3108072B6C2F243
:105810000003D3F88410B1B10A68C3F8842012B928
:105820000022C3F8882093F8732002F0FD0283F869
:10583000732080F31088C3F880108A69D3E906C00A
:10584000D20F4B60604793F8731041F0020183F868
:10585000731080F3108870472DE9F04F85B040F643
:10586000B804C2F20004216A002900F099820546BA
:1058700094F87200042800F2AB80DFE810F0B0006A
:10588000DF01FF010500050094F8730000F0FE0041
:1058900084F8730000F012FDA269C4E92401002A13
:1058A00000F08A82A06F002800F09282B4F84410C1
:1058B000B4F84C20B4F84630B4F84E701144FA18DD
:1058C0008181C281E18AA06F490726D541690029FB
:1058D00000F08782B0F91020B0F912305A43E2B1DB
:1058E000CB0740F0878201F00303022B05D10B8820
:1058F000013A1BBA1B0C21F8023B530802F00102CB
:1059000006D000BF0F68013B7FBA41F8047BF9D194
:105910001AB10A6812BA120C0A80816994F87020D0
:1059200021F0004141EAC2718161EFF3108072B64B
:10593000D4F88830A26F94F873100026002B14BF9F
:105940001A60C4F88420C4F88820166080F3108898
:10595000880748BFFFF756FFE18AA06FC90784F8A0
:1059600070600AD140F62002C2F200020023EFF379
:10597000108172B6D36181F31088018AB4F8442093
:105980001144B4F950200BB29342A4F8441035DB13
:10599000408AB4F84610B4F95220084401B2A4F881
:1059A000460000209142A4F8440027DBA4F84600FA
:1059B000FDF771FA10BB00F081FCD4F89010D4F818
:1059C0009C20401A1044C4F89C00002084F8720007
:1059D000216B09B1606B88474FF00008D0E194F863
:1059E00073100020C4F89800C4F89C0041F0010036
:1059F00084F8730000F062FCC4E92401B5FA85F074
:105A000040094FF0000A04F1580802AE019000BFAF
:105A1000C4F878A0EFF3108072B6B4F87610E28A7A
:105A2000B1EB123F11D9EFF3108172B6B4F87630B2
:105A3000E26F013BA4F876301AB11368E367C2F84D
:105A400000A081F310885460A26780F31088D4F816
:105A500078B0BBF1000F0DD094F870000BF108097D
:105A600050B10198656584F87400012084F87100D4
:105A700004E000BF0020AFE094F8710050B3606D07
:105A800084F871A048B3017B31B9011D04F14C02C7
:105A9000204600F0EAF920BBFDF7FDF90028EBD124
:105AA000EFF3108072B6A16F61B1EFF3108272B69E
:105AB000E36F0B60B4F87630E167591CA4F87610F8
:105AC00082F31088C4F878A080F310884FF0FF307C
:105AD00082E000BFB4F8680042E0D4E90001C4E904
