:020000040800F2
:10000000007E00209102000833130008B3030008AB
:1000100031130008310B00085D1B000800000000D0
:100020000000000000000000000000006D16000845
:10003000330B000800000000FF0200081104000854
:10004000AB020008AB020008AB020008AB020008DC
:10005000AB020008AB020008AB020008AB020008CC
:10006000AB020008AB020008AB020008AB020008BC
:10007000AB020008AB020008AB020008AB020008AC
:10008000AB020008AB020008AB020008AB0200089C
:10009000AB020008AB020008AB0200085D0B0008D1
:1000A000AB020008AB020008AB020008AB0200087C
:1000B000AB020008AB020008AB020008AB0200086C
:1000C000AB020008AB020008AB020008AB0200085C
:1000D000AB020008AB020008AB020008AB0200084C
:1000E000350B0008AB020008AB020008AB020008A9
:1000F000AB020008AB020008AB020008AB0200082C
:10010000AB020008AB020008AB020008AB0200081B
:10011000AB020008AB020008AB020008AB0200080B
:10012000AB020008AB020008AB020008AB020008FB
:10013000AB020008AB020008AB020008AB020008EB
:10014000AB020008AB020008AB020008AB020008DB
:10015000AB020008AB020008AB020008AB020008CB
:10016000AB020008AB020008AB020008AB020008BB
:10017000AB020008AB020008AB0200080000000060
:10018000AB020008AB020008AB020008AB0200089B
:10019000AB020008AB020008AB020008AB0200088B
:1001A000AB020008AB020008AB02000800F002F846
:1001B00000F044F80AA090E8000C82448344AAF1BD
:1001C0000107DA4501D100F039F8AFF2090EBAE8BB
:1001D0000F0013F0010F18BFFB1A43F0010318477B
:1001E000003B0000203B0000103A24BF78C878C1D3
:1001F000FAD8520724BF30C830C144BF04680C602D
:10020000704700000023002400250026103A28BF74
:1002100078C1FBD8520728BF30C148BF0B60704778
:100220001FB503F049FB9DE8030000F021FA00F040
:100230007EF900F0EFF91FBD10B510BD00F0F1FA26
:100240001146FFF7EDFF00F079FB00F00FFB03B460
:10025000FFF7F2FF03BC00F0B1FA00000B49D1F840
:1002600000C04A685CF8043B1068184442F8040B6C
:100270008C4528BFA1F1DC0C8A4228BFA1F1DC0229
:10028000C1F800C04A6020F0004070473C010020E7
:100290000948804709480047FEE7FEE7FEE7FEE71A
:1002A000FEE7FEE7FEE7FEE7FEE7FEE70448054956
:1002B000054A064B704700001D1B0008AD010008F1
:1002C00000780020007E0020007A0020007A0020C4
:1002D000EFF3108072B6704780F310887047434A7E
:1002E0001368012B04D04FF001031360404A1060E3
:1002F000404A116040484FF0805101607047EFF371
:10030000108272B63948016851B34FF000010160A4
:100310003748016891B1EFF309811EF0100F08BF53
:1003200021ED108B21E9F00F4FF000041EF0100FAB
:1003300008BF012441F8044D006801602D49096897
:10034000096808C9B1E8F00F002B18BF00F05AB8CF
:1003500081F309884EF0100E002B18BF2EF0100EFE
:1003600082F310884EF0040E704722490860EFF3C4
:10037000148222F0040282F314881D494FF0000019
:1003800008601A494FF0010008601C484FF47F01D3
:10039000D0F8002041EA0201016017484FF0805177
:1003A000016017480068006880F3088861B662B68B
:1003B00070471EF0040F0CBFEFF30880EFF30980C5
:1003C00020E9F00F40F804ED40F804ED1EF0040FB2
:1003D0000CBF80F3088880F3098800B502F05AFE4C
:1003E0005DF804EB4EF0040E704700003C760020F0
:1003F000347400203874002004ED00E020ED00E0AB
:1004000008ED00E0B1EC088BB1EC08CBFFF7A0BF22
:1004100030B410B50348804730BCAE4630BC02480B
:1004200000470000353800081518000800BF704765
:1004300070B5A0FB0140B4F1805170F1000024BF01
:10044000002070BD204600F007F805001CBF2146C3
:1004500000F08BF9284670BD70B5064600F0ECF848
:10046000056806F10B0020F00704B4429CBF002091
:1004700070BD2B466A68BAB11068A04210D304F16F
:10048000080188423CBF5068586007D35168101972
:1004900041601168091B016058601460101D70BD37
:1004A00013465268002AE7D12146284600F0CCF8CE
:1004B0000028DED170BD70B50446051F00F0BCF801
:1004C0000068002C14BF446870BD002C18BFAC42FB
:1004D0003CBF20466468F8D301680A18AA4218BFD6
:1004E000456003D12A680546114401602868411916
:1004F000A1421CBF6C6070BD6168696021680844DE
:10050000286070BD0B4910B5A1F17C020A4CC2E90C
:100510003712372106E000EB104342F82130074B39
:1005200000FB03400B1EA1F10101F4DC10BD012012
:10053000E8E70000DC000020E119D666CD0D0100DF
:100540000EB5054614460E4613A000F0D2F8284614
:1005500000F0CFF816A000F0CCF8304600F0C9F853
:1005600015A000F0C6F800218DF80B100A210DF13E
:100570000A008DF80A1008E094FBF1F201FB124228
:1005800094FBF1F4303200F8012D002CF4DC00F083
:10059000B0F800F0A3F800002A2A2A2061737365DE
:1005A0007274696F6E206661696C65643A20000040
:1005B0002C2066696C6520002C206C696E6520001B
:1005C0004FF0000200B5134694469646203922BFEC
:1005D000A0E80C50A0E80C50B1F12001BFF4F7AF37
:1005E000090728BFA0E80C5048BF0CC05DF804EB19
:1005F000890028BF40F8042B08BF704748BF20F887
:10060000022B11F0804F18BF00F8012B7047704784
:100610007047704770B5064C7C44064D7D4404E03D
:100620002046016808448047241DAC42F8D170BDC3
:10063000E4360000E4360000004870474C0100201A
:10064000704770477047704738B504460A46002027
:100650006946AFF30080002808BF38BD0246009904
:10066000204600F0B5F8012038BD012000F0D1B8D7
:10067000F8B5AFF30080054600200C46102000BFFF
:100680000646A819A0420DD9324669460020AFF3AC
:100690000080070008BF00F0BCF80098A04218BF17
:1006A0000546C419FFF7C8FF05600746F01D20F096
:1006B00007004619284600F00AF8B44208BFF8BD02
:1006C000A21B31463868BDE8F84000F081B800212F
:1006D0000160C0E9011070471020704710B500207C
:1006E00000F090F8FFF7A8FDBDE81040012000F0F1
:1006F00065B810B5044602E0641C00F058F8207894
:100700000028F9D110BD10B5203AC0F00B80B1E837
:100710001850A0E81850B1E81850A0E81850203A36
:10072000BFF4F5AF5FEA027C24BFB1E81850A0E83F
:10073000185044BF18C918C0BDE810405FEA827C59
:1007400024BF51F8043B40F8043B08BF7047D20770
:1007500028BF31F8023B48BF11F8012B28BF20F811
:10076000023B48BF00F8012B70474FF000020429FC
:10077000C0F0128010F0030C3FF424AFCCF1040C55
:10078000BCF1020F18BF00F8012BA8BF20F8022B04
:10079000A1EB0C01FFF716BF5FEAC17C24BF00F894
:1007A000012B00F8012B48BF00F8012B704708B55A
:1007B00069468DF800000320ABBE08BD0149182032
:1007C000ABBEFEE72600020000487047440100204F
:1007D000034640688C46002818BF88423CBF034649
:1007E0004068F8D318681844884207D00CF1030019
:1007F00020F00700001D411A521A0146081D0A6028
:10080000FFF759BE10B500F03FF8BDE8104000F00A
:1008100036B810B500F050F8BDE8104000F02FB821
:1008200070477546FFF7D0FFAE4605006946534650
:1008300020F00700854618B020B5FFF737FDBDE86A
:1008400020404FF000064FF000074FF000084FF037
:10085000000BAC46ACE8C009ACE8C009ACE8C00984
:10086000ACE8C00921F007018D46704710B5044679
:10087000AFF300802046BDE81040FFF7E8BC002839
:1008800001D0FFF79BBF704710B5002102A000F018
:100890003BF8012010BD0000534947414252543AF1
:1008A0002041626E6F726D616C207465726D696E4D
:1008B0006174696F6E00000010B5012805D0002139
:1008C00003A000F021F8012010BD09A1F8E7000005
:1008D00053494752544D454D3A204F7574206F6629
:1008E0002068656170206D656D6F72790000000091
:1008F0003A2048656170206D656D6F727920636F75
:10090000727275707465640070B505460C460A20F5
:1009100000E06D1CFFF74BFF35B128780028F8D1B7
:1009200002E0641CFFF743FF14B120780028F8D1DF
:10093000BDE870400A20FFF73ABF00002DE9FC41F6
:10094000FFF7C6FC00F0CAFB00F0FAFF6148624AFC
:100950000168090747BF01680909D0F89410090A1E
:1009600001F00F0152F821108268C2F38102DFE822
:1009700002F02202040659491DE059491BE0C268F1
:1009800002F00303C268C2F302120132022B03D049
:10099000032B08BF524900E05049B1FBF2F1C26895
:1009A0000223C2F306225143C268C2F3416203EB41
:1009B0004202B1FBF2F14B4A4B4B4C4C4C4D116097
:1009C0008068C0F30310185C21FA00F01060AC429C
:1009D00002D201CC8047FAE7464800270022C11C1A
:1009E00000F5705020F0030021F00305A0F118017C
:1009F000A9424FF0000138BF0121192838BF012258
:100A0000114322D13C4E421B4FF001084FF4F551E7
:100A10003B4C03460C3A86F8088085E88600374947
:100A2000F56240F8042C43F80C1D40F8082C35A260
:100A300020460221336302F037FC04F11400A4F8CD
:100A40001C8067727563C4E905002B4D2F4E05F1BC
:100A500060006F81C5E91800B7F5807F04D0F019F8
:100A6000F05140600837F7E700202B494FF48072BF
:100A70000A23C5E9100005F15800C5E91600142045
:100A8000009023A002F02FFD02F0FAFD234C24A2D7
:100A90000121204602F008FC20201F21234A4FF4A8
:100AA0008073CDE900102049204601F049FB204623
:100AB00002F0E6FD286C01F013FB06EBC00050F8D5
:100AC000080CA0F1140108306964FFF74EFC002007
:100AD000BDE8FC8100100240303900080024F40019
:100AE00000127A000C000020603A0008D43C000894
:100AF000D83C000834380020A8010020A01E0100C6
:100B00007404002068656170000000003C740020DF
:100B10006D61696E00000000952F000894040020AC
:100B20007469646C65000000AD3500083C750020F8
:100B3000FEE7704713480168490505D54FF4806109
:100B400001220160E8490A700168890405D54FF463
:100B500000510160E44804210170704709480168B0
:100B6000890505D54FF4007102220160F7490A702A
:100B70000168C90505D54FF480710160F348032170
:100B8000017070471404014096B0DFF84C43F02127
:100B90002046FFF715FD01F029FB04F144005C211C
:100BA000FFF70EFDDFF8341320464422FFF7ABFDBC
:100BB0004FF4B4504FF4345200250126E066C84883
:100BC000A4F8765000F11C01C560C572067241613F
:100BD000E1680161816962F31701816100F0D0FF72
:100BE00094F8730084F8706040F0020084F8730099
:100BF00001F0FCFABB4E304665B96C350027D82FA2
:100C000006D010B16C21FFF7DBFC6C37B819F6E7A2
:100C10003E44F1E701F05CFF01F05AFF012034216E
:100C2000FFF706FCB04E306128B3B04AB04BB14D6F
:100C30000021C0E90014C0E90211C0E90611C0E9B1
:100C40000A31C0E90851C0E90421EFF3108272B6FD
:100C500000236BB9D4F8A4500DB1286001E0C4F8AA
:100C6000A000C4F8A4000160043B82F31088F0E700
:100C700002F0A0F900B1FEE74FF000080DF12C09D9
:100C80004FF0020A4FF0050B706902F0E1FB0028FB
:100C9000FAD194F8A900092800F2B880D4F8A0701D
:100CA000DFE800F0050B1D2E41475387A769002F91
:100CB00000F0DE80012084F8A900FD68002D00F01E
:100CC000BE80796911B138468847FD6800F066FB3F
:100CD0004846CDE90D5701F06FFD84F8A9A000202A
:100CE00001F0BEFAB0F1FF3F40F39080002840F0E1
:100CF000E480B96909B138468847032084F8A9001F
:100D00003D69002D00F08280EB462C215846FFF70C
:100D100057FC5846CDE902574FF0050B01F04CFD4A
:100D2000042084F8A900F96909B13846884784F895
:100D3000A9B0B86801F094FAB0F1FF3F66DD002871
:100D400040F0BB80062084F8A900396A09B1384612
:100D5000884794F8A800C1075BD1410759BF042018
:100D600084F8A900012184F8A91044BF00F0FB0019
:100D700084F8A800A1E094F8A800002200F0FE008A
:100D800084F8A800EFF3108172B6002062B9D4F89D
:100D9000A00028B10368C4F8A0300BB9C4F8A4803F
:100DA00081F31088043AF1E780B3816A71B3884710
:100DB0002CE0D4F8B0502878002800F0878000F0AC
:100DC000EDFA68680E940D90484601F0F5FC082095
:100DD00084F8B48084F8A90094F8A80000F0FD001D
:100DE00084F8A800B4F8DE00C82898BFC820A4F88A
:100DF000DE00002001F034FAB0F1FF3F06DD0028EC
:100E00005BD194F8A800800717D456E084F8A98035
:100E100053E0796A09B138468847D4F8E83023B1FD
:100E2000D4F8EC0021463A469847D4F8B000007850
:100E300084F8DC0008B10C283CD309203BE0B868FA
:100E4000A0B3D7F810A0BAF1000F2FD0796919B16B
:100E500038468847D7F810A000F0A0FA4846CDE9F8
:100E60000DA701F0A9FC4FF0020A84F8A9A024E024
:100E7000EFF3108072B601220021D2070BD094F854
:100E8000A81001F0FE0201F0010184F8A820002260
:100E900080F31088F1E7C8070FD0D4F8E83063B1C9
:100EA000D4F8EC0021460022984706E003204FF0DA
:100EB000020A00E0072084F8A900322002F090FB2B
:100EC000B06902F0A1FA0028FAD1DDE61A490AA0B9
:100ED00040F2D942FFF734FB280A0020D43800083A
:100EE000180B00205C760020A80100207520000867
:100EF000292000082D200008746869732E53776933
:100F00007463682E70744D6F64652D3E636845662A
:100F1000666563747320213D2041524D5F32445F0A
:100F20005343454E455F5357495443485F434647F3
:100F30005F4E4F4E45000000363B00088F48416A27
:100F4000426A521A792AFBD3704700BFA8010020D9
:100F50002DE9F84F5A4A4FF008094FF0000C4FF0B6
:100F6000010A4FF0000B904200F1384208BF4FF0E9
:100F700007094FEAB223072B38BF4FEAB2290022F4
:100F80000C6834FA02F308BF00F0A4B80AFA02F3BE
:100F900014EA030800F086804F68122F00F2888060
:100FA0000AFA07F414F0061F00F082800324D0F838
:100FB00008E0CE6804FA0CF42EEA040506FA0CF6F2
:100FC0006FEA040E354385603D094668954026EA80
:100FD00003032B4343606346C5688E6805EA0E052C
:100FE0009E403543C56047F01005122D11D10BF01E
:100FF0001C050F2404FA05F66FF0030404EA5207F7
:1010000007443C6AB4430E6906FA05F52C433C627A
:101010004F68046807F0030505FA03F304EA0E04B9
:1010200023430360FB003DD5284C264F22F00305E7
:1010300023683D4443F00103236023680F2403F039
:10104000010300930BF00C03009E9C4009FA03F38C
:101050001F4EB646AE5926EA0404234345F80E3027
:101060003B684D6843EA0804EE0358BF23EA0804CE
:101070003C60AE037B6843EA080458BF23EA0804D7
:101080007C60EE02BB68104E43EA080458BF23EAB6
:101090000804BC60AD02336843EA080458BF23EA81
:1010A000080434600CF1020C0BF1040B013267E709
:1010B000032303FA0CF36FEA030E53008CE700BF1F
:1010C000001C0048000401400C0401406010024074
:1010D00008FCFFFF18BCBDE8E08F0000E0B53A480F
:1010E0004FF6FF02016811400D4A114301600F20C5
:1010F00000F01AF800B18CBD0A48816841F0010186
:101100008160816801F0010101910199016841F05C
:1011100080510160006800F08050009000988CBD04
:101120000003FA055810024010B511494FF47A72C5
:101130000968B1FBF2F14A1E0021B1EB126F01D038
:10114000012412E00B4BF0245A600B4A1470996092
:10115000072101240F28196007D84FF0FF300F2115
:1011600000F00EF8054804710024204610BD00BFB1
:101170000C00002010E000E023ED00E0A8010020BA
:1011800010B5104A00F00F030F4C043B02442344F7
:10119000002848BF03F10C0220684FF0FF34C0F371
:1011A0000220C31E80F0070038BF0023042828BF98
:1011B000042004FA00F021EA0000984000011070B9
:1011C00010BD00BF00E400E00CED00E010B52349C5
:1011D0008A68C86812F00C0205D00C2A1FD100F0F2
:1011E000030001281BD108681F4B000747BF086890
:1011F0000009D1F89400000A002A00F00F0053F80B
:101200002030184618BF00200C2A21D1C86800F0F1
:101210000300022809D0032808BF124B06E0042A65
:1012200017D0082A17D10F4810BD0D4BC868CA68DF
:10123000C9680224C2F30622C0F30210C1F341615F
:101240005A43013004EB4101B2FBF0F0B0FBF1F086
:1012500010BD034810BD00200023D5E70010024058
:101260000024F40000127A00303900082DE9F84318
:10127000DFF8409007462A20984616460D46C84794
:101280000D4C380AA047F8B2A047300AA047F0B288
:10129000A0472B20C847280AA047E8B2A0474FEA3A
:1012A0001820A0475FFA88F0A0472C204946BDE8E7
:1012B000F8430847F9120008151300082DE9F0411A
:1012C0004FF6FF770446B1FBF7F00144C0EB004254
:1012D000454204EB02088EB2012D08BFBDE8F08143
:1012E0001DB120464FF6FF7101E04046314600F047
:1012F00069F83C440135EFE7E0B5054910220A6082
:101300008DF807000DF107000121FFF7D7FF8CBD15
:1013100028040048E0B5054910220A608DF807004E
:101320000DF107000121FFF7C9FF8CBD180400482B
:10133000FEE7FEE7DBF80400DBF808104FF4FC6280
:101340008023CDE900017047C1B2890051FA80F1D4
:10135000000A00EB41000B3880B27047286840F06B
:1013600002002860286800F0020008900898704782
:1013700000200021EF22EF23FFF778BFC1B2B1FBBD
:10138000F6F101EB8101A0EB4100704784F8721087
:10139000D4F89C100844C4F89C00704748462C219F
:1013A000FFF70EB92046FEF797BF044600202072D3
:1013B000FEF78EBF4FF4FC6280230844514601388B
:1013C000704700002DE9FC41A74D95F85C20012AEB
:1013D00000F0F5804FF00108A14F85F85C807C6A31
:1013E00095F85D20012A40F0E580002800F0E280B9
:1013F000002900F0DF80032285F85D2000222A66A4
:10140000E987A987A863A5F844202A64C5E91322BF
:10141000A5F84620AB682A68B3F5004F07D11368DA
:1014200023F040031360136843F480431360136890
:101430005B0603D4136843F040031360EE686B68E7
:10144000B6F5E06F1ED90BB1012906D130F8021BA9
:10145000D160A863E98F0139E9872968EA8F002AFA
:1014600049D08A68920705D47A6A121BD2087C2A6E
:10147000F4D99FE030F8022BCA60A863EA8F013AE2
:10148000EA87EBE74FF6FE7C0BB1012912D1E98F19
:10149000022905D330F8021BD1604FF6FE7105E03A
:1014A00000780CF101011073A86B0130A863EA8F7A
:1014B0001144E98729680CF10102EB8FDBB18B68DD
:1014C0009B0705D47B6A1B1BDB087C2BF5D971E0DD
:1014D000EB8F022B05D330F8023BCB604FF6FE7347
:1014E00004E0007813460873A86B0130A863EE8F00
:1014F0003344EB87E1E74FF4C050214600F062F837
:10150000002846D1786A201A00F57A71554800689B
:101510007A6AC0F3CB3048430190286883681B0681
:101520000BD57B6A9B1A8B420ED2019B019E013E1A
:101530000196002B08BF1946F0E74FF4C060214622
:1015400000F040F828BB2AE0416821F0E00141604A
:101550006968B1F5827F0AD1A968B1F5004F02D060
:10156000B1F5806F03D1016821F040010160A96AE3
:10157000B1F5005F07D1016821F4005101600168F5
:1015800041F400510160002085F85C00012085F8DD
:101590005D00286E40F02000286620202866A8689C
:1015A00038B9002000902868C168009180680090D8
:1015B0000098286E002085F85C0085F85D80BDE805
:1015C000FC8100BFFCB5D84B5A6A891A232201F569
:1015D0007A74244909685D6A5143090D6143009199
:1015E00021490A689668064204BF0020FCBDB0F598
:1015F000C06F02D1167B0196019E5E6A761BA642E1
:1016000007D2009E009F013F0097002E08BF34467E
:10161000E8E7506820F0E00050604868B0F5827F4D
:101620000AD18868B0F5004F02D0B0F5806F03D1C1
:10163000106820F040001060886AB0F5005F07D1A4
:10164000106820F400501060106840F400501060E2
:10165000002081F85C00012081F85D000320FCBDC2
:10166000A80100200C00002010020020704700009C
:10167000AD4C6549002520690163642D04D0A8B2F2
:1016800001F0EAF90135F8E7604D40F2022101204E
:1016900029805F49A5F8C800C8720B2001F00EFA36
:1016A000032085F8CA0001F0DFF9606908B1A0697C
:1016B00008B901F07FFC606901F0A6FE0028FAD1AC
:1016C000A06901F0C5FE0028FAD14FF0000AC82039
:1016D00001F086FFB5F8C80005EB400010F802BC29
:1016E00010F8016C207870B1013884F800A003284C
:1016F00009D8DFE800F002170B1195F8CA0002289C
:1017000020D0032012E095F8CA0011E095F8CA0035
:1017100003281AD0022009E095F8CA0001280FD04A
:10172000002003E095F8CA0040B1012085F8CA0006
:1017300003280CD8DFE800F002040609013E06E0A9
:10174000013604E0ABF1010B01E00BF1010B207B52
:101750005FFA8BF787421ED1607BF1B281421AD1CA
:101760000120A07301F080F9B5F8C8000130A5F898
:10177000C80080B205EB400000F8016C00F802BC24
:10178000B5F8C80005EB400030F8020CFFF7DCFDAF
:1017900001F094F99BE75FEA0B6034D0300632D059
:1017A0000A2F30D85FFA86F8B8F10B0F2BD22888B1
:1017B0004FF00009C1B2890051FA80F1000A00EB34
:1017C000410013490B3880B201F8009001F044F950
:1017D000B5F8C81009F1010088420CD205EB4901A7
:1017E0008A78974202D1CA7890450BD0498825F86B
:1017F00019108146ECE705EB410000F8016C00F898
:1018000002BC64E7FEE7FEE710000020347700200A
:10181000740200202DE9FE43FEF75AFD424D697A1D
:1018200001316972FEF758FD696AAA6A686C013174
:101830006962511CA962016C0139016425D1C16B37
:101840000164FEF745FD696C91F8342002F00F0247
:10185000012A18D10A4652F8143F5468A34212D004
:101860005C608C698A61236091F835302F4C04EB01
:10187000C3035C682260C1E905345A60FEF72CFDA1
:1018800001F04AFD01E0FEF727FD01AEAF6ACDE9A8
:101890000166FEF71DFD804625488146284650F822
:1018A000604F844234D060694946381A48452FD881
:1018B000D4E9000141606168086014F80B0C2460F1
:1018C00081075CBF00F0FE0004F80B0C0198446037
:1018D000C4E90006D4E90210019488470198AF6A70
:1018E000B042DBD0D4E9000141606168086014F8BF
:1018F0000B1CC4E900448807D0D5C807CED0A4F19A
:10190000140001F0FE0104F80B1C01F003FFC5E711
:101910004046FEF7E1FCFEF7DBFC697A01396972AB
:1019200000F008B8FEF7D8BCA80100203C740020E5
:10193000FEFFFF7F06BCBDE8F843FFF7F3BF0000E2
:10194000B0B56D48016801F4C061B1F5007F18D0F1
:101950000168012262F34A21322201606749096865
:101960005143674AB1FBF2F1002201314469013968
:1019700042F10003640501D5002BF7D14069400511
:101980003ED4744CA068E16800F00C00082805D033
:101990000C2837D101F00301032933D12168E16814
:1019A000594A0A4059498A4214D1206880014ED4CC
:1019B000206840F080702060E06840F08070E06057
:1019C0005048416A2268920141D4426A521A032A5D
:1019D000F8D324E00C2822D0206840011FD42068CE
:1019E000C0001CD4206820F0807020604548426A06
:1019F00023689B0115D5436A9B1A022BF8D90EE088
:101A000072B6FEE7216841F4803121603D494A6A9F
:101A100023689B03C3D44B6A9B1A642BF8D972B614
:101A2000FEE7E2683A4B1A401143E160216841F059
:101A300080712160E16841F08071E160416A226853
:101A4000920104D4426A521A022AF8D9E7E73148CF
:101A50000168490709D40168042262F302010160A8
:101A6000016801F00701042943D12168890140D5AB
:101A7000A168244D41F2883241F00301A160696AF6
:101A8000A36803F00C030C2B04D06B6A5B1A93421F
:101A9000F6D92EE0A16821F0F001A160016801F003
:101AA0000701052909D30168042262F302010160DC
:101AB000006800F0070004281BD1A06820F4E06053
:101AC000A060A06820F46050A060FFF77FFBA168D1
:101AD000114AC1F30311515C01F01F01C8400749CD
:101AE000086029791020002918BF0F20FFF71CFB80
:101AF00008B172B6FEE7B0BD007000400C000020D7
:101B000040420F00A8010020737F60FE0314001004
:101B10008C809D0100200240603A00080C480E4B6A
:101B2000016841F4700101600A48016841F0010157
:101B300001600021816002681A4002604FF4805207
:101B4000C260026822F4802202608161704700BF97
:101B500088ED00E000100240FFFFF6EAFEE700001B
:101B600080B500F0B5FF154AC2E9240180BD00BF71
:101B700080B500F0ADFF1149D1F89010401A80BD3A
:101B800068B10E4AEFF3108172B6D36F0360D0676D
:101B9000B2F876000130A2F8760081F31088704721
:101BA0000648416D39B10968416521B1012180F8CC
:101BB00071100120704700F0ADBA00BF280A002064
:101BC0002DE9F04F87B042684949002A08BF01F16A
:101BD000200251680978082940F08480138C92F81B
:101BE0002420B0F91440C168FF2A65D0FC25B0F963
:101BF0001CA0B0F91E0000270DF1140C05EAD30B50
:101C0000F82505EA1328DB000190A4EB0A00FF2564
:101C10000090C2F58070DBB203AC019EB7425DDA82
:101C20004FF0000E0297D64540DAADF81880ADF8B7
:101C30001430ADF81A50ADF816B0ADF81250F827C0
:101C40004FF000090E8807EA1627ADF81070FC2740
:101C500007EAD607F600F6B2ADF80E70ADF80C60E4
:101C6000B9F1030F0DD03CF8197034F819605743DF
:101C700006FB0076B6B2360A24F8196009F10109AC
:101C8000EEE7BDF80E60BDF80C700EF1010E06F027
:101C9000FC06C7F3C40747EAC606BDF8107007F094
:101CA000F80746EA072621F8026BBCE7029F009E70
:101CB00001EB46010137B0E7B0F91E20002595423F
:101CC0000CDAB0F91C600027B74203DA21F81730AC
:101CD0000137F9E701EB44010135F0E7002007B0D7
:101CE00000F028B8124903A0ED22FEF729FC00BF3E
:101CF0009009002041524D5F32445F434F4C4F5595
:101D0000525F524742353635203D3D204F505F43AC
:101D10004F52452E70744F702D3E496E666F2E43A4
:101D20006F6C6F75722E6368536368656D65000034
:101D3000703A000830BCBDE8C08F000010B51A4CE6
:101D4000616A04F14000497801F01F01CA1F082AA6
:101D500012D9032923D013291FD0172903D01B29F7
:101D600001D01F2918D1A06C00F0D1F8E06D00F06F
:101D7000CEF804F1600012E0DFE802F0050E0E116B
:101D8000050E0E0E0500206C00F0C1F8A06C00F0EE
:101D9000BEF804F14C0002E010BD04F148000068F8
:101DA000BDE8104000F0B3B8900900202DE9FE43D3
:101DB00004460F4640681D461646A16838607960A3
:101DC0000BB1002028600EB1002030602078C107E0
:101DD00039D14FF000090DF10408400703D515B1C2
:101DE000286800B92C60E46864B37EB1B7F90010CC
:101DF0003088B7F90220494221EAE1710844514292
:101E00003080708821EAE17108447080A068CDF8C4
:101E1000049039463A4602902078C0071CBF60689B
:101E20000190404600F0DAFC60B12078C0070AD18A
:101E3000A0883988084438807888E1880844788008
:101E40002078CAE70024204600F000B806BCBDE8B0
:101E5000F88313460022FFF7A9BFFEB515460C46CE
:101E600001F1140269461E46FFF7F3FF616921B1D3
:101E70000978022222EA410C01E04FF0000C002810
:101E800044D0089B16B10278920701D42A6806E074
:101E9000C2780126C2F3420206FA02F22A605D0706
:101EA000C788BDF802104FF000064FF0000558BF7C
:101EB000CD1B1B078188BDF8007058BF7E1A082A09
:101EC00007D331B2B0F9086016FB0513C568B6B286
:101ED0000BE0B0F90810C7682DB202FB01F307331D
:101EE000DB0803FB057533B28EB25A432681DDE968
:101EF0000016C4E9031605EBD201C4E90013E17A28
:101F0000C27801F0FC016144A272E172FEBD90B1A1
:101F1000E0B569460022FFF79CFF50B1014600780A
:101F2000000706D58B690020CA68C8600BB1086934
:101F30009847BDE88C407047F8B5B1F90C00B1F98D
:101F400010502A18F02A18DCB1F90E70B1F912609D
:101F5000F319F02B11DC013A013B4C69B9B280B2A4
:101F600092B29BB2FFF782F916481021016005FB7F
:101F700006F041002046FFF7A1F9B84BEFF31081BE
:101F800072B600220024002064B9D3F8805010B14A
:101F9000A84203D100E02846C3F8802081F31088CE
:101FA000043CF1E738B10021C160FFF7E9FDBDE86D
:101FB000F84000F027B9064903A04FF43672FEF747
:101FC000BFFA00BF1804004866616C73650000002A
:101FD000DC3A0008F0B51348816801B34A1E9F49F6
:101FE0008260D1F898303B490C6AD1E91456A3427B
:101FF000C8BF1C460768BB4238BF1F4607600C625B
:10200000ED1846EBE373C1E9145342B90022C1E96C
:1020100014220A624FF0FF3101601E21816001200D
:10202000F0BD00BF00000020FEF745BA7047000079
:1020300080B5EFF3108072B601214906084A11609D
:1020400080F3108801F0CCFB06480021416001605C
:10205000054801600548016000F00AF880BDC046EF
:1020600004ED00E0407600204C7600205076002001
:10207000704700002DE9FE4FDFF858900C464FF0F6
:102080000008F0274FF6FF7A0DF1040B0025D9F870
:102090001000006B0188428802FB01F39D4216D2BA
:1020A000B7FBF2F2B7FBF1F14068CDF80480ADF870
:1020B0000810ADF80A2026EA0A0183780288204633
:1020C0008E185946324600F0FBFB0135DFE7002051
:1020D00000F002B8A80100201EBCBDE8E08F00009F
:1020E00018B1C1B219B101200EE00020704710F400
:1020F0007F4102D0090A092006E010F47F0107BFE2
:10210000010E1920090C1120014A515C0844704746
:1021100060390008514991F8740020B1012081F81C
:10212000700000207047886B0028F7D00A6C002AE6
:10213000F4D001204A6581F8740081F8710070477D
:10214000F8B504460020C4E9081004F11400C4E9FD
:102150000A232321C4E9050010461A4601F024F899
:10216000D4E90A12D4E90807DDE906CE6FF0430589
:1021700011441B4A21F00706A6F1440115B1725122
:102180000435FBE7174B00254FF0807246E9020249
:1021900046E9087546E9065504F14400224646E939
:1021A0000453E1610A2146F8445C84F836C0C4E96E
:1021B0000E5EC4F840E084F835C0C4E91C5584F8CC
:1021C0003450256301F070F804F15801064884F892
:1021D0004D50E566C4E9161104F1600131C1F8BD46
:1021E000EFBEADDE25350008EF36000804490122B8
:1021F000EFF3108072B60A7080F31088704700BF4A
:1022000058760020B0B51548EFF3108272B600235F
:102210000021B3B9D0F8841039B10D680024C0F89A
:1022200084501DB9C0F8884000E0022490F8735033
:10223000043B05F0FD052C4380F8734082F31088C1
:10224000E7E749B1C0F880104860D0E906308A69F4
:10225000D20FBDE8B0401847B0BD00BF280A00202B
:102260002DE9FE4FDFF8D0448346206A002800F0B5
:10227000458294F87200042800F2A180DFE810F093
:10228000A600B201CD010500050094F8730000F02E
:10229000FE0084F87300FFF763FCA069002800F0DB
:1022A0003382A06F002800F03582B4F84610B4F8ED
:1022B0004E20B4F844301144B4F84C20C181D118F8
:1022C0008181E18AA06F490724D54169002900F086
:1022D0002782B0F91020B0F912305A43D2B1CB079F
:1022E00040F0248201F00303022B05D10B88013A50
:1022F0001BBA1B0C21F8023B530802F0010204D068
:102300000D68013B6DBA20C1FAD11AB10A6812BA40
:10231000120C0A80826994F8701022F0004242EA9E
:10232000C1718161EFF3108072B60121C90715D028
:102330002146A36F94F8732051F8885FC2F34002DE
:10234000002D18BF29460B604FF0880108BF84217B
:1023500063500021196080F31088E7E7D00718BFA9
:10236000FFF750FF0020A66F84F87000E08AC007D6
:1023700002D1002000F070FA308AB4F8441008440A
:10238000B4F95010A4F8440000B2884229DB718AE5
:10239000B4F846200020A4F844001144B4F95220B7
:1023A000A4F8461009B291421BDBA4F84600FFF7DF
:1023B000F7FBB0B9FFF7DCFB0021FEF7E7FF216B6D
:1023C00009B1606B88474FF000088EE10020C4E936
:1023D000260094F8730040F0010084F87300FFF7C2
:1023E000BFFBBBFA8BF000274FEA5019A767EFF34A
:1023F000108072B60021F9B9E28AB4F87630B3EBF6
:10240000123F15D9EFF3108272B6002300266BB984
:10241000B4F87660013EA4F87660E66F16B13568D0
:10242000E567376082F31088043BF0E7A6677460C5
:1024300080F310880431DEE7D4F87880B8F1000F1B
:102440000CD094F8700008F1080A48B1012084F813
:102450007490C4F854B084F8710003E00026A9E039
:1024600094F87100E0B1606D84F87170D8B1017BAF
:1024700031B9011D04F14C02204600F0AFF9B0B9AA
:10248000FFF78EFB0028EBD1EFF3108572B6A06F3B
:10249000FFF776FBA7674FF0FF3685F3108889E0DA
:1024A000B4F8680050E0D4E90001C4E91301E08AFF
:1024B000C0F3821191B14FF0FF3202FA01F1B4F88A
:1024C0004C2002EA0103A4F84C30D21AB4F8503080
:1024D0001A44CB431A441140A4F85010C0F34221CF
:1024E00089B14FF0FF32B4F84E308A4003EA02055A
:1024F000A4F84E505B1BB4F852502B44D5432B44E8
:102500001A40A4F8522080071CD4B4F95030B4F912
:102510005200E26E5843904201D99A4212D9B2FB5E
:10252000F3F298B20029A4F8680053D04FF0FF33BB
:1025300003FA01F111404FF6FE72114202D0A4F8E5
:102540006A1001E0E068A066B4F94410B4F95020C4
:1025500000B2521A8242B8BF1046B4F84EC0B4F866
:102560004630B4F84C50A8F81000B4F94600B4F95D
:102570005260B4F96A20301A04F158069042B8BF8C
:1025800002466068A8F81220324601906818694631
:102590004042ADF800000CEB030000234042ADF8D0
:1025A0000200504600F060F9E08AC00702D13046D0
:1025B00000F052F9C4F88C6016B1701C06D1F9E62F
:1025C000A16A19B1E06A8847D4F88C60002E3FF404
:1025D0000DAF02E0A4F86A20B6E7FFF7C9FA0121BF
:1025E000FEF7D4FEFFF7BCFA94F87320D4F88C10F1
:1025F000D4E9083002F0010298478046FFF7B8FAA4
:10260000A16BD4F898201044C4F89800C1B1B8F177
:10261000000F15D1022084F87200FFF7A1FA94F898
:102620007320D4F88C10D4E90E3002F001029847E0
:102630008046FFF79DFAD4F898100844C4F8980033
:10264000E08A00070CD4B8F1010F4CD0B8F1FF3F7D
:1026500042DDB8F1020F43D103204FF002083CE005
:102660004F4F4FF00109EA466FF00105BBF1000F33
:10267000E9D09BF80C0060BBD4F88C60C6B3FEF7C1
:1026800059FE30465146ADF80690B847BBF80A00EF
:10269000BDF80210FEF78EFEADF802003046B847D6
:1026A000FEF748FE05EB114109EB1040ADF8049030
:1026B000ADF80610ADF8020030465146B847BBF8F9
:1026C0000800BDF80010FEF775FEADF800003046BA
:1026D000B847DBF800B0C9E7002084F8720004E0D6
:1026E000042084F872004FF00108404600F060B802
:1026F0002C482D4940F28312FDF722FF2B4819493F
:1027000040F20F32FDF71CFF244816494FF4B8720F
:10271000FDF716FF134919A040F27112FDF710FFE3
:10272000104911A040F21B12FDF70AFF0D4903A04A
:102730004FF49172FDF704FF280A0020282828751D
:10274000696E747074725F74292070687742756660
:10275000666572292026203078303129203D3D20C1
:1027600030000000DC3A00084E554C4C20213D2042
:102770007068774275666665720000004E554C4C75
:1027800020213D20746869732E4164617074657204
:102790002E707443757272656E7400004A3C0008B6
:1027A000C1280008BC3C0008F43B0008883C000835
:1027B0001EBCBDE8E08F0000B0B5074BEFF3108101
:1027C00072B600223AB9D0E90245043AC3E9084595
:1027D00081F31088F6E7B0BD280A0020F0B58388A1
:1027E000B0F900508C88B1F90270B0F902E02B44C6
:1027F000BC46013B1EB2B1F900301C44013C24B27E
:10280000A642B8BF3446BE45C8BFF4469D42C8BFC5
:102810002B469C4211DBC0881FFA8EF6BDB23044B5
:10282000013806B2C8880FFA8CF12844013800B28A
:102830008642B8BF3046884201DA0020F0BD4AB176
:10284000A0EB0C00A2F802C013800130D080E01A87
:10285000013090800120F0BD7B4AEFF3108172B609
:10286000D06181F3108870477CB514460A4605464E
:1028700000202146C4E902002060009041F8040FC6
:1028800016685268A2600E60A868019068462BB175
:102890000A46FFF7A3FF30B900260BE0002200260E
:1028A000FFF79CFF30B128682646E560206000F005
:1028B000FA00207030467CBD0023FFF777BA000095
:1028C0002DE9F041B8B0DFF8A8864FF0000C4FF0CA
:1028D000030E0027B8F82A50EFF3108472B605F003
:1028E000100677B94EB9A8F82AC088F829E0B8F8D8
:1028F0002A5045F01005A8F82A5084F31088043FA8
:10290000EFE7002E40F09180A8F840204F4A88F869
:102910004430C8E90E01C8F82420421C03D1D8F87D
:102920001C00C8F838000022CDE90D22CDE90B22A9
:10293000CDE9082239B10F6849683A0CCDE9067132
:1029400042EA014606E0011D00260027C8F83C10B7
:102950008168079116A90FAAFFF7AEFF002857D08C
:102960000F9801231690D8F8380016A90BAAFFF784
:102970007BFF002862D00446BDF83C00381AADF851
:102980001800BDF83E00301AADF81A00A068099092
:1029900006A908A80246FFF721FFC8B300200123BB
:1029A000CDE90400CDE9020006A902AA2046FFF7FE
:1029B0005BFF68B3D8F82400017801F00E02052A05
:1029C00036D3C1F342010122407802FA01F1159198
:1029D0000021C309009102A80FA915AAFFF73DFA2B
:1029E00016A88821FDF7ECFD0FAB0FCB19AC0FC477
:1029F00013981D9014981E9008F120001790D8F895
:102A0000240080680168A9B116A88847044612E02E
:102A1000FD24E0B2FD3818BF2046202188F82900A7
:102A200001EA90004030A8F82A0038B0BDE8F081F3
:102A3000FC24EEE7FC24FFF781F9EAE704480549A6
:102A400040F2A652FDF77CFD9009002018390008DD
:102A5000BC3C0008923B00081B496FF07E4249686D
:102A600041F82020704700BF70B5114CA07BF0B139
:102A7000104D0A2600F02CF8FDF744FDFDF7EEFBA3
:102A8000FEF77CFC2073FDF7E9FBFEF777FC607333
:102A9000A089FEF759FC295C0129EBD00121064AE7
:102AA00029540021A1730849496841F8202070BDCC
:102AB000A80100207402002000F8FF010249034A27
:102AC000496841F820207047100000200000FF01F5
:102AD00010B5EFF3108072B60B490A684B68D21A32
:102AE0001D4B1B685B0106D50B689B1A102B02DB84
:102AF000096851184A1C19494B680C6880F3108802
:102B0000D117A018594110BD14E000E080B5EFF3D3
:102B1000108172B6002807D10D48002202600D4BCB
:102B20004360826007220260012040060A4A10606A
:102B300081F3108800F054FE0848002141600160D4
:102B40000748016007480160FFF792FA80BDC04660
:102B500010E000E0FFFFFF0004ED00E04076002001
:102B60004C760020507600202DE9F04F8DB0FEF716
:102B7000B5FAFEF7E5FE01204FF00109FFF7C6FFA9
:102B8000EF4D4FF0020BD024EE4F286840F080004C
:102B90002860286800F0800008900898FEF7DEFBA7
:102BA000286840F008002860286800F008000890B5
:102BB000CDF814B0CDE903990294089802AE3846D6
:102BC0003146FEF7C5F907F50068BC62802431463E
:102BD00040460294FEF7BCF9DB4804600460BC6226
:102BE0004024BC62FEF7AAF9BC61D84C4FF40072D5
:102BF000D74800264FF4E0614FF48273C4E9059290
:102C0000072284E84900C4E9031BE661C4E90866B9
:102C1000C4E90A6294F85D200AB1AA461BE084F870
:102C20005C60AA46FEF79AFBE86840F40040E86062
:102C3000E86800F4004007900620CDE909B90C903F
:102C400003200B9028200890079808A93846FEF723
:102C50007FF92068E16884F85DB0B1F5E06F41F478
:102C60000063B94601F47061026822F0400202601C
:102C700098BF01263203B3F5706F1CBF0023A36217
:102C8000D4E90135D4E90467114303F4827305F4F0
:102C900004452B4406F002052B4407F001052B44A4
:102CA000A56905F400763344E66906F03806334436
:102CB000266A06F080063344A66A06F400563343BB
:102CC000002603600423626A03EA1543194302F0F5
:102CD00010021143626B02F00802114341600121AE
:102CE000266684F85D10016841F040010160FEF73E
:102CF00025F9984C1120A047FEF720F93620A0476F
:102D0000954D0020A8473A20A0476520A847B2204B
:102D1000A0470C20A8470C20A8470020A847332034
:102D2000A8473320A847B720A0477220A847BB2058
:102D3000A0473D20A847C020A0472C20A847C2207C
:102D4000A0470120A847C320A0471920A847C420B6
:102D5000A0472020A847C620A0470F20A847D02082
:102D6000A047A420A847A120A847E020A047D02042
:102D7000A8470420A8470D20A8471120A8471320E2
:102D8000A8472B20A8473F20A8475420A8474C20FD
:102D9000A8471820A8470D20A8470B20A8471F20A8
:102DA000A8472320A847E120A047D020A847042017
:102DB000A8470C20A8471120A8471320A8472C207B
:102DC000A8473F20A8474420A8475120A8472F20C4
:102DD000A8471F20A8471F20A8472020A847232036
:102DE000A8472120A0472920A047FEF7C1FAFEF7F7
:102DF000BFFA5A484FF6FF71B6F5107F03D020F89E
:102E000016100136F8E7554E10200024C9F81800B6
:102E1000632C06D830464FF49061FEF74FFA013428
:102E2000F6E78020C9F81800DAF8000040F0080042
:102E3000CAF80000DAF8000000F0080008900898CE
:102E4000DAF8000040F00800CAF80000DAF80000E4
:102E500000F0080008900898DAF8000040F0080038
:102E6000CAF80000DAF8000000F00800089008989E
:102E7000DAF8000040F00400CAF80000DAF80000B8
:102E8000DFF8E0A000F004000890089800200A9005
:102E9000334809904FF48060089008AE40463146B0
:102EA000D047314D28200021A847304FCB464FF462
:102EB00080794FF400703146C7F80490089040467E
:102EC000D04717200021A8474FF400044046314660
:102ED0003C60CDF82090D04717200021A8473C60E7
:102EE0004FF40050314608900BF58060D047282001
:102EF0000021A847C7F804901D489421EFF31084DF
:102F000072B6FDF75DFB1D4984F31088052419A0F6
:102F10004FF400721923009400F0E5FA08B100F0B4
:102F2000AFFB194916A04FF400721723009400F06C
:102F3000DAFA08B100F0A4FB00200DB000F026B8CA
:102F40004C10024000040048280C004810020020E9
:102F5000003C0040F9120008151300080C05002081
:102F600000001110510F00088111000800E100E07D
:102F700090090020656E67696E650000890B000886
:102F800067616D65000000007116000830BCBDE887
:102F9000C08F0000B0B5054C054DAC4202D201CC4B
:102FA0008047FAE7BDE8B040FFF7DEBDD83C000837
:102FB000DC3C000810B50B4C606918B90AA000F0A1
:102FC00015FA6061A16929B90AA000F00FFA01465B
:102FD000A0616069B1FA81F1B0FA80F04909400955
:102FE000084310BDA8010020656E67696E655265D3
:102FF00071000000656E67696E65527370000000B5
:10300000F8B5002844D0E74D0446E86AA0423FD80E
:10301000286BA0423CD9634800F01AFA4FF4F551EE
:10302000204640F80C1D6A6B90423CBF6863024624
:10303000E96A54F808CCAF6B0CEB0106831B3B44E8
:10304000AB6310D0738873B92B6B9E420BD0B24226
:1030500004BF68630246D6F804C0431A44F808CC9B
:1030600076680E44B36054F8046C8F1987420AD016
:103070007B8843B9824208BF6F63C7F804C054F825
:10308000080C084486604748BDE8F84000F0BCB929
:10309000F8BD00BFFEE700002DE9F843002844D04A
:1030A0003F49DFF8F486CA1C01F5705122F0030293
:1030B00021F00301891AA1F1180998F808100029D4
:1030C00018BF4946033020F003078F422DD83548FA
:1030D00000F0BEF90C2F98BF0C2798F808000028C4
:1030E00008BF8146D8F82C00D8F834C0A9EB0704F3
:1030F000ACEB0003A34215D2C5181A4669886B6869
:103100000029F7D102F10C06991BB942F2D307F15D
:103110001804A1420CD201216980991AD8E90E2322
:103120000A441BE01F4800F06FF90020BDE8F88357
:1031300007F10C0437444FF4F551C151C1194B60EC
:103140006F608A60012249686A8009F10C0291422D
:103150001CBF01448F60D8E90E13621893424FF4EC
:10316000F551C8F8382038BFC8F83C20298065459B
:1031700006D00C4800F048F905F10C00BDE8F883D2
:10318000D8F83020BCF802100029F2D09445F0D0D5
:10319000DCF8041000EB010CC8F834C0F2E700BF03
:1031A000343800207404002010B5042A15D310F020
:1031B000030312D1CBB24FF001345C4303460F2A14
:1031C00008D9C3E90044C3E90244103A1033F6E7D2
:1031D00010C3043A042AFBD204E0034602E003F8D9
:1031E000011B013A002AFAD110BD2DE9F0410E462B
:1031F000074600F045F80546C068FFF74DFF044656
:10320000C0B1EA68204600214FF00008FFF7CCFF6C
:10321000314684F80980277200F056F9FDF758F816
:1032200055F8041F224642F80C1F4A602A60556078
:10323000FDF752F82046BDE8F08110B5FEF7B5F86D
:103240002246216952F80C3F5960216922610B60C6
:103250001260FDF741F82046BDE81040FFF7D0BEF0
:1032600010B5FEF7A2F854F80C1F62684A60626855
:103270001160C4E90044BDE81040FDF72DB800001E
:1032800008496FF04F0212F1100304BF002070478D
:103290000A4492F8502082421A46F4D1C8184030AD
:1032A000704700BF180000202DE9F0410446084691
:1032B00090460F46FFF7E4FF0546FDF709F8DE4E9E
:1032C000718901317181FDF707F8FDF701F8718906
:1032D0000139718109B2002902DDFCF7FDFF07E029
:1032E00000217181FCF7F8FF706C08B100F014F850
:1032F00047F0800041462072204600F0E5F8FCF7D8
:10330000E7FF55F8041F44F80C1F4C602C60656003
:10331000BDE8F041FCF7E0BFB0B5FCF7D9FFE34DE5
:103320000446688920B12046BDE8B040FCF7D4BF10
:10333000286CFEF7D5FE2C496A6C01EBC00050F8F2
:10334000080CA0F114019142EDD0696400F108016C
:1033500002F11C006A7A12B1FCF7C1FFE3E7FCF747
:10336000BEFFE0E7F8B50446FCF7B2FF94F835205D
:103370001D4BCE4E94F8341004F1140503EBC20239
:10338000376C01F0F0015368013184F83410A36107
:103390001D60A36B556062613B433364BDE8F84038
:1033A000FCF79ABFA801002010B50446FCF790FF77
:1033B000214651F8142F4B6853604B681A60C1E9DD
:1033C000001191F82110084A02EBC10352F83110A4
:1033D000994205D1F04AA16B136C23EA01011164F3
:1033E000BDE81040FCF778BF3C74002080B5014672
:1033F0000220FFF7FAFE30B100218183417200F113
:103400001401C0E9051180BDF8B50546FCF760FF61
:103410002E46044656F8147FB74204D0A7F1140094
:1034200000F00CF90BE0A88B4FF6FF71884204D135
:10343000FDF7B8FF6FF00200F8BD0130A883FDF77B
:10344000B1FFB74218BFFFF767FF0020F8BD0000CB
:10345000F8B50646FCF73CFF0446B08B28B10138AE
:10346000B083FDF79FFF00202CE0CB48777A456CB6
:1034700000202863284600F01BF906F114009FB1D4
:10348000012F18D10146096881420DD091F8212001
:1034900095F835309342F6D2486805F1140202607F
:1034A000C5E905104A6006E0B16905F114020A6039
:1034B000A9616861B261FDF775FFFFF72DFF286B09
:1034C0000028D0D0F8BD00BF00228B5C83541BB114
:1034D0000132082AF9D17047511C00220829FAD07C
:1034E00042540131FAE7FEB50E46014601201F465F
:1034F0001546FFF77AFE88B104462846FFF7CCFD53
:1035000048B10246089831462B46CDE90070204666
:10351000FEF716FE03E02046FFF78FFE002420464C
:10352000FEBD0000F8B59C4F7D6CFCF7D1FE044653
:10353000FCF7CEFE296F064609B12846884730467B
:10354000FCF7CAFE2846FFF72FFF042085F8340059
:10355000FCF7BEFE2E4656F8581F72684A60726825
:10356000116016F80B1CC6E9006601F0FE0106F8B2
:103570000B1CFCF7B1FEA6F11400FFF771FE16F963
:10358000500CB0F1FF3F07DD57F8580F45F8140F06
:1035900045603D606F6002E02846FFF761FEFFF77F
:1035A000BBFE2046BDE8F840FCF796BE7A4DFCF71E
:1035B0008FFE0446284650F8586F86420DD0D6E953
:1035C000001270694A6072681160C6E90066FFF710
:1035D00017FDA6F11400FFF730FEFDF7E3FEE6E766
:1035E00070B50646FCF774FE05466B48446C2046F1
:1035F00000F05EF84FF47A70B6FBF0F101FB106258
:10360000424302F2E732B2FBF0F201FB0026FCF784
:103610005FFEA666FCF760FE04F1440000F07AF855
:103620002846FCF759FEFFF777FE206B023004BFF7
:103630000020206370BD00BFA8010020B0B5044683
:1036400090F8340000F00F00022818BFB0BDFCF75E
:103650003FFE21460546A06951F8142F5060A0692D
:10366000A161026004F14400096000F097F8284667
:10367000FCF732FE2046BDE8B040FFF773BE000005
:1036800080B50221012280F8341090F8361080F8BD
:10369000351002FA01F18163FFF7D0FF3E48406C1C
:1036A00018B1BDE88040FFF737BE80BDA8010020FB
:1036B000B0B5044690F8340000F00F00012818BFA0
:1036C000B0BDFCF705FE05462046FFF76DFE94F8F9
:1036D000340000F0F000023084F8340004F14400BB
:1036E00000F05CF82846BDE8B040FCF7F5BD80B5B9
:1036F0000246816952F8143F5960816982610B600A
:103700006FF0010112600163FFF72CFEBDE88040FD
:10371000FFF702BE2DE9F0418046FCF7D9FD414696
:10372000DFF874E051F8142F0EF160074B6811F8C0
:103730000BCC53604B681A60DEF828200B690960D7
:103740009D1801226FF000434D61DEF86440D207FE
:103750000ED0A74209D03E463F687A69521BF8D086
:103760009A42F6D200223746F1E700222746EEE7DA
:103770003A68C8F8142051604CF001023960C8F86A
:10378000187088F80920DEF848200132CEF8482069
:10379000BDE8F041FCF7A0BDA801002010B504462B
:1037A000407AC00708BF10BDFCF792FD54F8141F03
:1037B00062684A606268116014F80B1CC4E9004436
:1037C00001F0FE0104F80B1CBDE81040FCF784BDBD
:1037D000002070470020704700207047002070478D
:1037E000B0B51048046810492046B0FBF1F03049EC
:1037F00008607D20C1002046B0FBF1F02949086037
:10380000EFF3108472B6FFF763F9084D6960286022
:10381000FFF75EF969682968401A0549086084F372
:103820001088B0BD0C00002040420F00680400204A
:103830007004002070B51848006818494A68441C94
:10384000086800230019086053414B60144D286834
:10385000001928602868134E316890FBF1F0316838
:1038600041432A68511A29600F490A6810180860F4
:103870000E4D28680019286028680D4C216890FBBF
:10388000F1F0216841432A68511A296009490A6800
:103890001018086070BDC04614E000E040760020BB
:1038A00048760020580000204C76002054760020F6
:1038B0005C00002050760020F1EE100A4FF6FF71F8
:1038C000C0F2C03120EA010040F04070E1EE100A81
:1038D0007047000000000000F000F000180B00200E
:1038E000F0001800002D000001000400391F00083E
:1038F00000000000000000000000000000000000C8
:1039000000000000D51F00080000000000000000BB
:10391000000000000000000008020031000000006C
:103920002839000800000000C11B0008000000004A
:10393000A0860100400D0300801A060000350C002F
:1039400040420F0080841E0000093D0000127A00F2
:103950000024F40000366E010048E801006CDC022F
:10396000000001000200010003000100020001004C
:103970000400010002000100030001000200010038
:103980000500010002000100030001000200010027
:103990000400010002000100030001000200010018
:1039A0000600010002000100030001000200010006
:1039B00004000100020001000300010002000100F8
:1039C00005000100020001000300010002000100E7
:1039D00004000100020001000300010002000100D8
:1039E00007000100020001000300010002000100C5
:1039F00004000100020001000300010002000100B8
:103A000005000100020001000300010002000100A6
:103A10000400010002000100030001000200010097
:103A20000600010002000100030001000200010085
:103A30000400010002000100030001000200010077
:103A40000500010002000100030001000200010066
:103A50000400010002000100030001000200010057
:103A6000000000000000000001020304060708092E
:103A7000433A2F55736572732F32343037332F41E9
:103A80007070446174612F4C6F63616C2F41726D73
:103A90002F5061636B732F41524D2F41726D2D3248
:103AA000442F312E312E332F4C6962726172792F7F
:103AB000536F757263652F5F5F61726D5F32645F14
:103AC000636F6C6F75725F66696C6C696E675F7748
:103AD0006974685F616C7068612E6300433A2F55AA
:103AE000736572732F32343037332F4170704461F5
:103AF00074612F4C6F63616C2F41726D2F50616345
:103B00006B732F41524D2F41726D2D32442F312E48
:103B1000312E332F48656C7065722F536F75726349
:103B2000652F61726D5F32645F68656C7065725F8E
:103B30007066622E6300433A2F55736572732F329D
:103B4000343037332F417070446174612F4C6F6390
:103B5000616C2F41726D2F5061636B732F41524D19
:103B60002F41726D2D32442F312E312E332F486567
:103B70006C7065722F536F757263652F61726D5F24
:103B800032645F68656C7065725F7363656E652E25
:103B90006300433A2F55736572732F3234303733D5
:103BA0002F417070446174612F4C6F63616C2F41C1
:103BB000726D2F5061636B732F41524D2F41726DA7
:103BC0002D32442F312E312E332F4C6962726172A7
:103BD000792F496E636C7564655C2E2E2F536F755B
:103BE0007263652F5F5F61726D5F32645F636F72D6
:103BF000652E6300433A2F55736572732F3234304C
:103C000037332F417070446174612F4C6F63616C66
:103C10002F41726D2F5061636B732F41524D2F41B5
:103C2000726D2D32442F312E312E332F48656C703A
:103C300065722F536F757263652F61726D5F3264A9
:103C40005F68656C7065722E63004E554C4C202188
:103C50003D20746869732E744346472E4465706531
:103C60006E64656E63792E6576744F6E4C6F774C1B
:103C70006576656C52656E646572696E672E666EF8
:103C800048616E646C6572004E554C4C20213D209D
:103C9000746869732E744346472E446570656E647C
:103CA000656E63792E6576744F6E44726177696EC6
:103CB000672E666E48616E646C6572004E554C4CA2
:103CC00020213D207074546172676574000000000B
:103CD000DD370008D5370008D1370008D93700088C
:103CE000083D00080000002060000000E801000816
:103CF000683D000860000020A07D0000040200086C
:103D000031E3FFFF00000000FFFFFFFF00000000A5
:103D10001E00000000093D000A000A00D802002031
:103D2000010000001C0000201C00002078000000A2
:103D3000020000002C0000202C00002020000000C9
:103D4000050000003C0000203C0000203000000086
:103D50000A0000004C0000204C0000202C00000055
:083D6000010000000100000059
:04000005080001AD41
:00000001FF
