:020000040800F2
:10000000584B002051020008890E000871030008B7
:10001000850E0008D5070008A91800080000000098
:10002000000000000000000000000000570F000862
:10003000D707000800000000BF020008D103000835
:100040006B0200086B0200086B0200086B020008DC
:100050006B0200086B0200086B0200086B020008CC
:100060006B0200086B0200086B0200086B020008BC
:100070006B0200086B0200086B0200086B020008AC
:100080006B0200086B0200086B0200086B0200089C
:100090006B0200086B0200086B020008FB070008F7
:1000A0006B0200086B0200086B0200086B0200087C
:1000B0006B0200086B0200086B0200086B0200086C
:1000C0006B0200086B0200086B0200086B0200085C
:1000D0006B020008E91500086B0200086B020008BB
:1000E000D90700086B0200086B0200086B020008C9
:1000F0006B0200086B0200086B0200086B0200082C
:100100006B0200086B0200086B0200086B0200081B
:100110006B0200086B0200086B0200086B0200080B
:100120006B0200086B0200086B0200086B020008FB
:100130006B0200086B0200086B0200086B020008EB
:100140006B0200086B0200086B0200086B020008DB
:100150006B0200086B0200086B0200086B020008CB
:100160006B0200086B0200086B0200086B020008BB
:100170006B0200086B0200086B0200080000000020
:100180006B0200086B0200086B0200086B0200089B
:100190006B0200086B0200086B0200086B0200088B
:1001A0006B0200086B0200086B02000800F002F806
:1001B00000F03EF80AA090E8000C82448344AAF1C3
:1001C0000107DA4501D100F033F8AFF2090EBAE8C1
:1001D0000F0013F0010F18BFFB1A43F0010318477B
:1001E0007831000098310000103A24BF78C878C1F7
:1001F000FAD8520724BF30C830C144BF04680C602D
:10020000704700000023002400250026103A28BF74
:1002100078C1FBD8520728BF30C148BF0B60704778
:100220001FB502F0D7FF00F0E5F91FBD10B510BDF6
:1002300000F032F91146FFF7F3FF00F0EDF900F09E
:1002400050F903B4FFF7F2FF03BC00F0F3F800002D
:100250000948804709480047FEE7FEE7FEE7FEE75A
:10026000FEE7FEE7FEE7FEE7FEE7FEE70448054996
:10027000054A064B704700002D140008AD01000828
:1002800058450020584B0020584700205847002070
:10029000EFF3108072B6704780F310887047424ABF
:1002A0001368012B04D04FF0010313603F4A106024
:1002B0003F4A11603F484FF0805101607047EFF3B3
:1002C000108272B63848016851B34FF000010160E6
:1002D0003648016891B1EFF309811EF0100F08BF95
:1002E00021ED108B21E9F00F4FF000041EF0100FEC
:1002F00008BF012441F8044D006801602C490968D9
:10030000096808C9B1E8F00F002B18BF00F05AB80F
:1003100081F309884EF0100E002B18BF2EF0100E3E
:1003200082F310884EF0040E704721490860EFF305
:10033000148222F0040282F314881C494FF000005A
:10034000086019494FF0010008601B481B49D0F8AC
:10035000002041EA0201016016484FF0805101601F
:1003600017480068006880F3088861B662B6704775
:100370001EF0040F0CBFEFF30880EFF3098020E9B3
:10038000F00F40F804ED40F804ED1EF0040F0CBF30
:1003900080F3088880F3098800B502F08FFA5DF8D1
:1003A00004EB4EF0040E704708450020EC4200209C
:1003B000F442002004ED00E020ED00E00000FFFF2B
:1003C00008ED00E0B1EC088BB1EC08CBFFF7A0BF63
:1003D00030B410B50348804730BCAE4630BC02484C
:1003E0000047000041310008590F000800BF704766
:1003F0004FF000020429C0F0128010F0030C00F04E
:100400002580CCF1040CBCF1020F18BF00F8012BC1
:10041000A8BF20F8022BA1EB0C0100F017B85FEA8F
:10042000C17C24BF00F8012B00F8012B48BF00F865
:10043000012B704701491820ABBEFEE726000200E1
:1004400000487047600000204FF0000200B51346DE
:1004500094469646203922BFA0E80C50A0E80C50E4
:10046000B1F12001BFF4F7AF090728BFA0E80C5095
:1004700048BF0CC05DF804EB890028BF40F8042B8E
:1004800008BF704748BF20F8022B11F0804F18BFFB
:1004900000F8012B704770477546FFF7D1FFAE4655
:1004A00005006946534620F00700854618B020B580
:1004B000FFF7DCFEBDE820404FF000064FF00007DC
:1004C0004FF000084FF0000BAC46ACE8C009ACE8B8
:1004D000C009ACE8C009ACE8C00921F007018D46AD
:1004E000704710B50446AFF300802046BDE81040C9
:1004F000FFF7A7BE53EA020C00F069802DE9F04B2C
:100500004FF00006002B1FBFB3FA83F503FA05F482
:1005100024FA05F65E4012BF1643B2FA82F502FADB
:1005200005F4C5F120051EBF22FA05FC44EA0C04BF
:10053000203556EA044C4FEA144418BF641C4FF0AF
:1005400000084FF00009904271EB030C39D30029E9
:1005500019BFB1FA81F701FA07F6B0FA80F700FA8D
:1005600007F6C7F120071EBF20FA07FC46EA0C0673
:100570002037B6FBF4FCA7EB0507103F07F01F0B75
:10058000CBF120062CFA06F60CFA0BFB44BFB3465F
:100590000026202FA4BF5E464FF0000B5BEA060C3E
:1005A00008BF4FF0010B19EB0B0948EB0608ABFB3A
:1005B000027C06FB02CC0BFB03CCC01B71EB0C01D5
:1005C000C1E70B46024641464846BDE8F08B13B5ED
:1005D000084318BF4FF0FF300146AFF30080BDE87D
:1005E0001C40704702F0FF0343EA032242EA024242
:1005F000FFF700BF70B5064C7C44064D7D4404E017
:100600002046016808448047241DAC42F8D170BDE3
:100610007C2D00007C2D00002DE9F04182B0FFF719
:1006200037FE00F0EAF900F091FD00F0A5FE43F27C
:10063000503443F24C30C0F60004C0F60000A04233
:1006400009D243F24C35C0F6000500BF55F8040B43
:100650008047A542FAD340F2EC60C2F20000C11C10
:1006600000F5705020F0030421F00305A4F11801F7
:10067000A9424FF0000138BF0121192C4FF00002B0
:1006800038BF012211434FF0000632D140F2E4613D
:10069000C2F2000101270F7040F2C011C2F2000146
:1006A000621B41F6A0630D604FF4F5510C3AC0F2A5
:1006B0000103204685E8460040F2BC1140F80C3D9D
:1006C00044E9022240F2C414C2F20001C2F2000462
:1006D00008603AA22046022102F06CFA04F11400EC
:1006E000C4E9050040F2DC60C2F20000A783667234
:1006F000056044F21050C2F20000C0E9000044F26C
:10070000F82044F20435C2F20000C2F2000506806F
:10071000A819A8510836B6F5807F4060F8D140F29C
:10072000E86844F20447C2F200080020C2F2000761
:10073000C8F80000386044F2FC20C2F2000042F227
:10074000C571C0E9000014241EA0C0F600014FF4DA
:1007500080720A23009402F093FB02F053FC40F2F3
:10076000E414C2F2000419A22046012102F022FA88
:100770001F2042F6897144F2084220260090C0F6FC
:100780000001C2F2000220464FF48073019601F08E
:10079000C9F8204602F036FC386801F0A7F805EBEE
:1007A000C00050F8080CA0F114010830C8F800107F
:1007B000FFF7BBFD002002B0BDE8F0816865617005
:1007C000000000006D61696E000000007469646CD7
:1007D00065000000FEE7704740F21440C4F20100DB
:1007E0000168490544BF4FF48061016001688904D4
:1007F00044BF4FF400510160704740F21440C4F20E
:1008000001000168890544BF4FF40071016001686F
:10081000C90544BF4FF48071016070472DE9F04F66
:1008200084B00A68002A00F0E28041F6004500F139
:100830003847C4F6000508234FEAB726A84208BF88
:100840000723072E38BF4FEAB7234FF0010C0025CE
:100850004FF0000B01274FF000080093019100BFFB
:10086000A7F101090CFA09F4224000F0AC80D1F89C
:1008700004A00292BAF1120F00F2B3800CFA0AF24D
:1008800012F0061F00F0AD800322D0F808E002FA53
:1008900005F3CA682EEA030EAA4042EA0E028260FD
:1008A0004268DE43A2434FEA1A1404FA09F42243D1
:1008B000AE464260C2688C68324004FA0EF42243AD
:1008C0004AF01004122CC26017D16FF0030101EA44
:1008D000590202440BF01C030F21D2F820A001FAA8
:1008E00003F401992AEA0404D1F810C001990CFA22
:1008F00003F323431362D1F804A002680AF0030350
:10090000324003FA0EF31A430260029E5FEACA0302
:100910004FF0010C57D541F26001C4F202010A68A0
:1009200040F2004E42F001020A600A68C4F2010E71
:1009300002F001020392039A29F003024FF60849DC
:100940007244CFF6FF7952F809C00BF00C040F2166
:1009500001FA04F32CEA030CDDE9003103FA04F494
:1009600044EA0C0342F80930DEF800C04B684CEA58
:100970000604DA0358BF2CEA0604CEF80040DEF87D
:1009800004C09C034CEA060258BF2CEA0602CEF8CB
:100990000420DEF808C0DC024CEA060258BF2CEA4C
:1009A000060240F20C4CCEF80820C4F2010CDCF830
:1009B00000409B0244EA060258BF24EA0602CCF833
:1009C00000204FF0010C0A6808F1010832FA07F321
:1009D00007F101070BF1040B05F102057FF440AFAD
:1009E00005E00322AA404FEA480ED64362E704B06E
:1009F00000F000B830BCBDE8C08F80B582B04EF6C4
:100A00000C50CEF2000001684FF6FF02114040F298
:100A10000032C0F2FA52114301600F2000F019F8C1
:100A2000A8B941F25800C4F20200816841F0010106
:100A30008160816801F0010101910199016841F033
:100A400080510160006800F080500090009802B072
:100A500080BD40F20001C2F20001096844F6D352A1
:100A6000C1F26202A1FB02124FF0FF3101EB9213BF
:100A70000022B2EB136F1CBF012070474EF2100131
:100A80004EF60C5CCEF20001CEF2000C4B60F0236F
:100A90008CF817308A6007220F284FF001000A6097
:100AA00088BF7047DCF800100023C1F3022181F0F9
:100AB0000702042A28BF0422033938BF19464FF021
:100AC000FF3303FA02F2D24302FA01F109018CF872
:100AD000171044F25451C2F2000108700020704710
:100AE00041F20001C4F20201886810F00C02C868EB
:100AF00005D00C2A27D100F00300012823D1086873
:100B0000000703D4D1F89400000A01E00868000946
:100B100043F2F01300F00F00C0F6000353F820304A
:100B2000002A184618BF00200C2A18BF7047C86852
:100B300000F0030002280FD0032804BF41F2002375
:100B4000C0F27A030CE0042A1DD0082A20D141F219
:100B50000020C0F27A00704742F20043C0F2F40372
:100B6000C868CA68C0F30210C2F30622C96801301F
:100B70005A43B2FBF0F0C1F34161022202EB4101A2
:100B8000B0FBF1F0704742F20040C0F2F400704751
:100B900000200023C8E7F0B583B02A2040F21844B3
:100BA0008DF80100C4F6000410250DF101000121AB
:100BB000256100F055F800260DF1020001218DF8A5
:100BC0000260256000F04CF80DF1030001218DF862
:100BD0000360256000F044F801A801218DF804604D
:100BE000256000F03DF8EF270DF1050001218DF89B
:100BF0000570256000F034F82B208DF806000DF10B
:100C000006000121256100F02BF80DF107000121FC
:100C10008DF80760256000F023F802A801218DF807
:100C20000860256000F01CF80DF1090001218DF825
:100C30000960256000F014F80DF10A0001218DF81B
:100C40000A70256000F00CF82C208DF80B000DF1D7
:100C50000B000121256100F003F803B0F0BD000096
:100C60002DE9F04383B040F2C405C2F2000595F8C7
:100C70005C20012A00F002814FF0010844F2505933
:100C800085F85C80C2F20009D9F8004095F85D2033
:100C9000012A40F0EE80002800F0EB8003220023C0
:100CA00085F85D202B66A863A987E9872B64A5F8E2
:100CB0004430A5F84630AA68EB64B2F5004F2A68C4
:100CC0002B6507D1136823F040031360136843F4C6
:100CD0008043136013685B0603D4136843F040033A
:100CE00013606B684FF0FF3717FA81F1EE68B3FAC3
:100CF00083F3B1FA81F15B094909B6F5E06F41EA86
:100D0000030114D931B130F8021BD160A863E98F17
:100D10000139E987E98F002942D091688907F2D427
:100D2000D9F80010091BC9087C29F3D9A1E00029D2
:100D30004FF6FE7111D0EB8F022B05D330F8023B3A
:100D4000D3604FF6FE7304E000784B1C1073A86B61
:100D50000130A863EF8F3B44EB87EB8F03B3013186
:100D600093689B0706D4D9F800301B1BDB087C2B4B
:100D700013D97EE0EB8F022B06D330F8023BD36011
:100D80004FF6FE7305E000BF00780B461073A86BAA
:100D90000130A863EF8F3B44EB87EB8F002BDFD153
:100DA0004FF4C050214600F071F8002850D140F2B5
:100DB0000002D9F80000C2F20002D9F8001013684E
:100DC000201A00F57A72C3F3CB30504302902868A2
:100DD00083681B0610D500BFD9F800305B1A934218
:100DE00011D2029B029F002BA7F10107029787688F
:100DF00008BF1A463B06EFD44FF4C060214600F00E
:100E000045F828BB2AE0416821F0E00141606968AB
:100E1000B1F5827F0AD1A968B1F5004F02D0B1F5D2
:100E2000806F03D1016821F040010160A96AB1F52A
:100E3000005F07D1016821F400510160016841F4AD
:100E400000510160012085F85D00002085F85C00FC
:100E5000286E40F02000286620202866A86838B94F
:100E6000002001902868C168019180680190019874
:100E7000286E002085F85D8085F85C0003B0BDE831
:100E8000F0830000FEE70000FEE70000B0B582B08E
:100E900044F2505EC2F2000EDEF80020DEF80030B0
:100EA000891A40F20002C2F20002D2F800C02322E6
:100EB0000CFB02F201F57A71120D4A4340F2C40CA8
:100EC0000092C2F2000CDCF800209468044215D0B5
:100ED000B0F5C06F02D1147B0194019CDEF8004094
:100EE000E41A8C420CD2009C009D002CA5F1010557
:100EF0000095956808BF21460542E9D1002028E009
:100F0000506820F0E0005060DCF80400B0F5827F0B
:100F10000BD1DCF80800B0F5004F02D0B0F5806FBF
:100F200003D1106820F040001060DCF82800B0F514
:100F3000005F07D1106820F400501060106840F482
:100F40000050106001208CF85D0000208CF85C00DF
:100F5000032002B0B0BD70472DE9F04F83B0FFF71A
:100F600097F944F2F022C2F20002117801311170B7
:100F7000FFF792F944F25051C2F20001086840F2C2
:100F8000E8640130086044F20C55C2F20004C2F279
:100F9000000520682968026C01312960511E016436
:100FA0002AD1C16B0164FFF773F9216891F83420ED
:100FB00002F00F02012A1DD10A4652F8143F576869
:100FC000BB4217D05F6091F8357044F20436C2F22C
:100FD000000606EBC7078E698A612C467D68336080
:100FE0002A608D6125467A604F61FFF755F901F05F
:100FF0003BFE01E0FFF750F901AED5F800900296F4
:101000000196FFF745F944F2105AC2F2000ADAF8E5
:1010100000800090D0457DD04FF6FE74C7F6FF7477
:10102000D8F81400A9EB0000A04273D8D8E900104A
:101030004860D8F8042018F80B0C11608107C8F834
:1010400000805CBF00F0FE0008F80B0C0198C0F8AF
:101050000480C8F80000D8E90210CDF80480C8F870
:10106000046088470198D5F80090B0424DD0D8E987
:1010700000014160D8F80410C8F80480086018F82E
:101080000B0CC8F8008000F0030103293DD100F0EB
:10109000FE0008F80B0CFFF7FBF8D8E90012D8F8AF
:1010A00010304A60D8F80420AB461160C8E90088C7
:1010B0002A6818F80B1CDAF804709D185346C8F813
:1010C000145000BFBB4207D01A461B685E69761BEE
:1010D000F8D0A642F6D801E03B683A4644F21856EA
:1010E000C2F20006376841F0010101373760C3F8EA
:1010F0000480C8F80030C2F80080C8F8042008F85E
:101100000B1CFFF7C9F85D4601AEDAF80080D04548
:101110007FF486AF0098FFF7BFF8FFF7B9F844F205
:10112000F022C2F20002117801391170FFF7B4F811
:1011300044F25051C2F2000108680130086003B067
:1011400000F000B830BCBDE8C08F000010B547F219
:101150000000C4F20000016801F4C061B1F5007F35
:101160001FD00168012262F34A21016040F20001B0
:10117000C2F200010968322359434DF68363C4F279
:101180001B33A1FB031302EB934100224469013995
:1011900042F10003640501D5002BF7D140694005F9
:1011A0004ED441F20004C4F20204A068E16800F0E9
:1011B0000C00082805D00C2845D101F003010329B3
:1011C00041D12168E26847F6737341F20341CFF6DB
:1011D0006063C1F200011A408A4217D12068800181
:1011E0005CD4206840F080702060E06840F080703F
:1011F000E06044F25050C2F200000168226892019F
:101200004CD40268521A032AF8D32CE00C282AD0B6
:10121000206840015CBF20685FEAC00023D42068DA
:1012200020F08070206044F25050C2F2000002684A
:1012300023689B0119D503689B1A022BF8D912E089
:1012400072B600BFFEE7216841F48031216044F2AC
:101250005051C2F200010A6823689B03B2D40B68A4
:101260009B1A642BF8D972B6FEE7E26848F28C0349
:10127000C0F29D131A401143E160216841F0807172
:101280002160E16841F08071E160016822689201AB
:1012900004D40268521A022AF8D9E4E742F2000C98
:1012A000C4F2020CDCF8001049070CD4DCF8001082
:1012B000042262F30201CCF80010DCF8001001F007
:1012C0000701042955D12168890152D5A16841F24D
:1012D000883341F00301A16044F25051C2F2000191
:1012E0000A6800BFA06800F00C000C2804D0086851
:1012F000801A9842F6D93CE0A06820F0F000A06087
:10130000DCF8000000F0070005280CD3DCF8000032
:10131000042161F30200CCF80000DCF8000000F0CA
:101320000700042825D1A06820F4E060A060A06830
:1013300020F46050A060FFF7D3FBA16843F2203295
:10134000C1F30311C0F60002515C01F01F01C84057
:1013500040F20001C2F20001086044F25450C2F2AF
:10136000000001781020002918BF0F20FFF771FB43
:1013700008B172B6FEE710BD41F20000C4F20200EF
:101380000168090703D4D0F89410090A01E0016844
:10139000090943F2F012836801F00F01C0F6000260
:1013A00052F82110C3F38102DFE802F02F02070C8C
:1013B00042F20041C0F2F40127E041F20021C0F204
:1013C0007A0122E0C368C26803F00303C2F3021289
:1013D000022B02F1010206D0032B04BF41F20021CF
:1013E000C0F27A0103E042F20041C0F2F401C368A6
:1013F000B1FBF2F1C3F30622C3685143C3F3416268
:10140000022303EB4202B1FBF2F140F20002C2F20E
:1014100000021160806843F22033C0F30310C0F66D
:101420000003185C21FA00F0106070474EF68850F7
:10143000CEF2000001684FF6FF7341F470010160C5
:1014400041F20000C4F202000168CEF6F62341F03A
:10145000010101600021816002681A4002604FF4BE
:101460008052C260026822F480220260816170476B
:10147000806A0021A0F85A10A0F8521070470000AE
:101480002DE9F04F81B00446007800285AD040F290
:10149000281544F25059C2F200054FF0000AC2F27A
:1014A00000090127A86F202848D195F87400012869
:1014B00044D02120C5F880A0A867D9F80060A5F81D
:1014C0005070A5F85270A868296980F4805050EADD
:1014D000010818BFA04685F874A0B5F852004FF077
:1014E000000B08BFA34600BFF0B12846802132465A
:1014F0004FF6FF7300F02CF800BB2868B8F1000F1E
:1015000002D018F8011B05E03BF8021B4FF0000861
:101510006FF35F210185B5F852000138A5F852003C
:10152000B5F85200E0E700BF2846402132464FF6AA
:10153000FF7300F00DF808B92020A86714F8010F18
:101540000028AFD101B000F000B830BCBDE8C08FBA
:10155000B0B5D0F800C0DCF81C400C408C4216D06E
:1015600044F2505EC2F2000EDEF80040A51ADCF82C
:1015700000409D420DD8640744BFDCF81C405FEA80
:10158000045415D4DCF81C400C408C42ECD10020F3
:10159000B0BD24F4D071CCF80010DCF8081021F0B4
:1015A0000101CCF808102021816700F17C0114E0D2
:1015B0004FF40061CCF82010DCF8001021F4D07159
:1015C000CCF80010DCF8081021F00101CCF808106C
:1015D00020218167C16700F1800120220A6000217B
:1015E00080F874100320B0BDF0B581B040F2281728
:1015F000C2F20007386840F62F03C16902688568A7
:101600000B40202B02F020030CD15BB1796E002936
:1016100000F0418140F22810C2F2000001B0BDE8A4
:10162000F040084740F60F04214208D040F220164F
:10163000C0F2004605F001041640361911D13B6E88
:10164000012B05D111F0100318BF12F0100368D15F
:10165000CB025FD515F480035CD04FF4801101629A
:1016600019E1CE0718BF12F4807607D00126066272
:10167000D7F8806046F00106C7F880608E0708D56D
:101680003CB102260662D7F8806046F00406C7F82F
:1016900080604E0708D53CB104260662D7F880600A
:1016A00046F00206C7F880600E070DD543EA04062F
:1016B000B6FA86F6760907D108260662D7F8806062
:1016C00046F00806C7F880600E050BD512F0806260
:1016D00008D04FF400620262D7F8802042F0200266
:1016E000C7F88020D7F88020002A00F0D48011F0BD
:1016F000200118BF002B40F0BF80D7F8801082680F
:1017000001F0280102F04002891878D10020C7F8C2
:101710008000C0E00B0627D512F0800324D0B96EFC
:1017200075E710210162816849062DD4B7F8581079
:10173000B7F85A20B7F85A30002B00F0AC8091422D
:1017400000F0A980016821F490710160816821F0A6
:10175000010181602021F9670021396679660168FD
:1017600021F01001016096E0490640F1948012F0EA
:10177000400100F09080016821F0400101602020CC
:10178000B8670020B86686E0396F0A6853689DB272
:10179000002D00F08080B7F85860B5427BD2A7F8E2
:1017A0005A3013689B0674D4036823F48073036073
:1017B000836823F001038360836823F04003836020
:1017C0002023FB6700233B66036823F010030360BC
:1017D00091F82500022857D11068012320F00E004F
:1017E0001060106820F001001060D1E9102000F0B6
:1017F0001C0003FA00F0506081F8253046E00168D3
:1018000021F490710160816821F001018160396EDD
:10181000012903D1016821F0100101602021F9673D
:101820000021396679668168490634D5816821F0DE
:1018300040018160386F70B341F27141C0F6000120
:10184000816390F82510022927D10168D0E910237F
:101850000F6827F00E070F600F6827F001070F6071
:1018600003F01C01012303FA01F15160002180F80B
:10187000253080F8241012E0796E00293FF43DAF46
:1018800038468847386838E70420C863002081F864
:101890002400B7F85A0001B0F0BD0421C16301B0C3
:1018A000BDE8F040FFF7E4BDFEE780B54EF6045119
:1018B000CEF200014FF00072EFF3108072B60A60B2
:1018C00080F3108801F006FC44F22050C2F20000C0
:1018D0000021C0E9001144F22C50C2F20000016066
:1018E00044F23050C2F20000016080BD18B1C1B2B4
:1018F00019B101200EE00020704710F47F4102D0A2
:10190000090A092006E010F47F0107BF010E192023
:10191000090C112043F22022C0F60002515C084459
:10192000704700002DE9F04381B004461430C4E94B
:1019300005000020DDE90898C4E90810C4E90A237D
:10194000104623211A4601F06BF8D4E90A12D4E9B3
:101950000803114421F007014BF6EF65A1F14402A1
:101960006FF04307CDF6AD65CD510437FCD142F69B
:10197000C5650027C0F600054FF0807641E90837BD
:1019800041E9067741E9047541E9020641F8447CE2
:10199000E26104F144000A21224684F8369084F87A
:1019A0003590C4E90E78C4F84080276384F8347019
:1019B000C4E91C7701F0FEF843F2370004F1580146
:1019C000C0F60000C4E9161104F1600184F84D70FE
:1019D00091C1E76601B0BDE8F0834EF21402CEF289
:1019E0000002EFF3108C72B611685368D2F8F00C55
:1019F000C91A400106D51068401A102802DB106889
:101A00000844411C44F22050C2F20000D0E9000218
:101A10008CF31088401842EBE17170472DE9F04FCC
:101A20008DB04EF60C5540F2004841F24C07CEF214
:101A30000005C4F60008C4F20207FEF7DEFFFFF758
:101A400085FBFFF799FC4FF00071EFF3108072B641
:101A500045F8081C80F3108801F03CFB44F220504C
:101A6000C2F200000021C0E9001144F22C50C2F281
:101A70000000016044F23050C2F20000016038689A
:101A800003AE40F0800038603868D02500F0800058
:101A9000089008983868314640F00100386038688E
:101AA00000F0010008900898386840F002003860A3
:101AB000386800F0020008900898386840F002008A
:101AC0003860386800F0020008900898386840F0E4
:101AD00008003860386800F0080008900898012075
:101AE000CDE904000220069040460395FEF796FEDD
:101AF000C8F82850802508F500603146039502900B
:101B0000FEF78CFE40F62840C4F600000560056034
:101B1000402044F25054C8F82850C8F82800C2F2B7
:101B2000000420682168091A7929FBD343F600498B
:101B300040F2C405C4F200094020C2F200054FF48F
:101B40008271C8F8180000264FF4E0624FF0020AD4
:101B500001204FF40073C5E900910721C5E9026235
:101B6000C5E904A0C5E90636C5E90866C5E90A6104
:101B700095F85D1069B185F85DA0D9F800004FF4C3
:101B8000E06E20F04000C9F800004FF4805C484649
:101B900035E085F85C60396841F0020139603968E8
:101BA00001F0020108910899F96841F40041F960D7
:101BB000F96801F40041089108990A90032028214E
:101BC0000B900620CDE9081A0C9008A94046FEF7B4
:101BD00025FE2868D5F80CE085F85DA00268BEF502
:101BE000E06F22F04002026098BF01264EF40062CE
:101BF0004FEA063CB2F5706F1CBF0023AB62D5E91B
:101C00000136D5E9042103F4827306F40446334413
:101C100002F002021A44AB6901F00101EE691144BD
:101C200003F40072114406F038022E6A114406F0E3
:101C30008002AE6A114406F400521143016004218F
:101C40006A6A0EF4706601EA13416B6B46EA0C0691
:101C500002F01002314303F00803114319434160BD
:101C600000212966012185F85D10016841F04001DD
:101C7000016020682168091A7929FBD311208DF8A9
:101C800020001020C8F8280008A80121FEF7E8FF6E
:101C9000206800BF2168091A7929FBD336208DF806
:101CA0002000102508A80121C8F828504FF001098C
:101CB000FEF7D6FF002608A801218DF82060C8F89D
:101CC0001850FEF7CDFF3A208DF8200008A801211A
:101CD000C8F82850FEF7C4FF65208DF8200008A83A
:101CE0000121C8F81850FEF7BBFFB2208DF8200084
:101CF00008A80121C8F82850FEF7B2FF0C2708A851
:101D000001218DF82070C8F81850FEF7A9FF08A827
:101D100001218DF82070C8F81850FEF7A1FF08A81F
:101D200001218DF82060C8F81850FEF799FF33277D
:101D300008A801218DF82070C8F81850FEF790FF10
:101D400008A801218DF82070C8F81850FEF788FF08
:101D5000B7208DF8200008A80121C8F82850FEF708
:101D60007FFF72208DF8200008A80121C8F81850C4
:101D7000FEF776FFBB208DF8200008A80121C8F8E7
:101D80002850FEF76DFF3D208DF8200008A80121A6
:101D9000C8F81850FEF764FFC0208DF8200008A88E
:101DA0000121C8F82850FEF75BFF2C208DF8200099
:101DB00008A80121C8F81850FEF752FFC2208DF87C
:101DC000200008A80121C8F82850FEF749FF08A8FC
:101DD00001218DF82090C8F81850FEF741FFC3206C
:101DE0008DF8200008A80121C8F82850FEF738FF18
:101DF00019208DF8200008A80121C8F81850FEF716
:101E00002FFFC4208DF8200008A80121C8F8285011
:101E1000FEF726FF20208DF8200008A80121C8F831
:101E20001850FEF71DFFC6208DF8200008A80121DC
:101E3000C8F82850FEF714FF0F208DF8200008A8DE
:101E40000121C8F81850FEF70BFF4FF0D00908A881
:101E500001218DF82090C8F82850FEF701FFA4203A
:101E60008DF8200008A80121C8F81850FEF7F8FEE8
:101E7000A1208DF8200008A80121C8F81850FEF70D
:101E8000EFFEE0208DF8200008A80121C8F82850B6
:101E9000FEF7E6FE08A801218DF82090C8F818503A
:101EA000FEF7DEFE04208DF8200008A80121C8F806
:101EB0001850FEF7D5FE0D2408A801218DF820400A
:101EC000C8F81850FEF7CCFE11208DF8200008A8A5
:101ED0000121C8F81850FEF7C3FE13208DF820002A
:101EE00008A80121C8F81850FEF7BAFE2B208DF87B
:101EF000200008A80121C8F81850FEF7B1FE3F20C5
:101F00008DF8200008A801213F27C8F81850FEF7D7
:101F1000A7FE54208DF8200008A80121C8F8185009
:101F2000FEF79EFE4C208DF8200008A80121C8F87D
:101F30001850FEF795FE18208DF8200008A8012102
:101F4000C8F81850FEF78CFE08A801218DF8204033
:101F5000C8F81850FEF784FE0B208DF8200008A862
:101F60000121C8F81850FEF77BFE1F2408A80121A4
:101F70008DF82040C8F81850FEF772FE4FF0230A83
:101F800008A801218DF820A0C8F81850FEF768FEB7
:101F9000E1208DF8200008A80121C8F82850FEF79C
:101FA0005FFE08A801218DF82090C8F81850FEF7B0
:101FB00057FE04208DF8200008A80121C8F8185009
:101FC000FEF74EFE0C208DF8200008A80121C8F86D
:101FD0001850FEF745FE11208DF8200008A80121B9
:101FE000C8F81850FEF73CFE13208DF8200008A812
:101FF0000121C8F81850FEF733FE2C208DF8200080
:1020000008A80121C8F81850FEF72AFE08A80121E7
:102010008DF82070C8F81850FEF722FE44208DF885
:10202000200008A80121C8F81850FEF719FE512019
:102030008DF8200008A80121C8F81850FEF710FEFE
:102040002F208DF8200008A80121C8F81850FEF7AD
:1020500007FE08A801218DF82040C8F81850FEF7A7
:10206000FFFD08A801218DF82040C8F81850FEF7A0
:10207000F7FD20208DF8200008A80121C8F818508D
:10208000FEF7EEFD08A801218DF820A0C8F8185031
:10209000FEF7E6FD21208DF8200008A80121C8F8F0
:1020A0002850FEF7DDFD29208DF8200008A8012129
:1020B000C8F82850FEF7D4FDFEF76DFDFEF76BFD66
:1020C00040F25C20C2F200004FF6FF7120F81610BB
:1020D0000136B6F5107FF9D140F25C2641F24C078B
:1020E00010200025C2F20006C4F20207C8F818004A
:1020F00030464FF49061FEF7B3FD632D05F1010505
:10210000F6D38020C8F81800386808AE40F0080000
:10211000386038684EF2174400F0080008900898BC
:1021200038684EF2001B40F008003860386800251F
:1021300000F00800089008983868314640F0080020
:1021400038603868CEF2000400F008000890089863
:102150003868CEF2000B40F004003860386800F0B8
:102160000400089008980020C1F21100DDF808A0D2
:1021700009904FF48060089050460A95FEF74EFB98
:102180004EF60C59CEF20009D9F8000065744FF4F0
:102190008070CBF804004FF4007008905046314630
:1021A0002746FEF73BFBD9F8000025704FF40007E7
:1021B000CBF800704FF48070089050463146FEF71F
:1021C0002DFBD9F800002570CBF800704FF40050BB
:1021D000089008F580603146A246FEF71FFBD9F84B
:1021E000000065744FF48070CBF8040040F2C00822
:1021F000C2F2000898F80000002840F08F8243F6F1
:102200000049C4F2000940F2281609F57C40C2F2E8
:1022100000060C224FF4E13186E82300C6E903559D
:10222000C6E90525C6E907557562B16F29B10023D6
:102230004FF0000C0021002466E0002041F24C0128
:1022400086F87400C4F20201486908AC40F480408A
:10225000486148694FF0030800F4804008900898EE
:102260000868072540F001000860086800F00100D8
:1022700008900898086840F0010008600868214646
:1022800000F00100089008980220099001200A90AF
:102290004FF4007008904FF09040CDF82C800C95D2
:1022A000FEF7BCFA4FF4806008904FF09040214652
:1022B0000C95FEF7B3FA4EF60C50CEF20000006813
:1022C0000022C0F3022080F00701042928BF042166
:1022D000033838BF10464FF0FF3202FA01F128EA06
:1022E000010101FA00F000018AF80E002020CBF86D
:1022F000040006F1100C40F2C0083068D6E9024331
:102300009CE82610C2F200082427B767076821431B
:1023100027F0010707601143026846F6F317CEF66F
:10232000FF773A40114341EA0C010160416809F529
:10233000884221F4405119434160316A83689042D8
:1023400018BF0D4323F430612943816044F6FF71C7
:1023500044F2505AC4F20001C2F2000A88424FF01F
:10236000100318DC44F20041C4F2000141F24C07B2
:102370008842C4F2020728D044F60001C4F20001EA
:10238000884225D044F60041C4F2000188422FD192
:10239000F96B8B0924E045F20001C4F2000141F21F
:1023A0004C078842C4F2020715D048F20001C4F27B
:1023B0000001884212D043F60001C4F201018842B4
:1023C00016D1FB6B0FF298350EE0F96B8B0807E026
:1023D000F96B0B0904E0F96B0B0A01E0F96B8B0A4E
:1023E00043F23035C0F6000503F0030155F8213003
:1023F00090421ED0BCF5004F3FD1082B00F28A81DD
:1024000042F20040C0F2F400DFE813F0090075006A
:102410008D00840187008401840184018B0040F2D7
:102420000000C2F20000006857F8441CC1F302210A
:102430006AE0082B00F26E8142F20040C0F2F40024
:10244000DFE813F0090068013D006801370068010A
:10245000680168013B0040F20000C2F20000006821
:1024600057F8441C43F24032C1F30221C0F6000287
:10247000515C01F01F01C8401DE0082B00F24A81A9
:1024800042F20040C0F2F400DFE813F009005C0003
:10249000740044016E00440144014401720040F2A2
:1024A0000000C2F20000006857F8441CC1F302218A
:1024B00051E0FEF715FB10B967E04FF40040726879
:1024C00002EB42018842C0F025811103884200F2EC
:1024D0002181010E000210EB520041F100010023A6
:1024E000FEF708F84FF60052A0F54071C0F20F0257
:1024F000914248D30EE140F20000C2F200000068B1
:1025000057F8441CC1F3C22143F24032C0F6000226
:10251000515C01F01F01C84001E0FEF7E1FA10B97B
:1025200033E04FF4004071684A0802EB4000B0FB12
:10253000F1F04FF6F071014000F0EC80C0F3420082
:10254000084320E040F20000C2F20000006857F8A3
:10255000441CC1F3C22143F24032C0F60002515C78
:1025600001F01F01C84001E0FEF7BAFA10B90CE013
:102570004FF40040716800EB5100B0FBF1F080B205
:102580001028C0F0C7803168C860716A0020002937
:102590007066B06651D0CA0706D03268B36A576811
:1025A00027F400373B4353608A0706D53268F36A45
:1025B000576827F480373B4353604A0706D5326893
:1025C000336B576827F480273B4353600A0706D5CF
:1025D0003268736B576827F400473B435360CA0661
:1025E00006D53268B36B976827F480573B439360F6
:1025F0008A0606D53268F36B976827F400573B4389
:1026000093604A0610D53268336C5768B3F5801F63
:1026100027F4801747EA0307576005D15368776CA2
:1026200023F4C0033B435360090606D53168B26CFE
:102630004B6823F400231A434A6031684A6822F445
:1026400090424A608A6822F02A028A600A6842F050
:1026500001020A60C6F88000DAF800400868000746
:102660000ED540F22815C2F2000528464FF400119D
:1026700022466FF07E43FEF76BFF00284ED129689B
:10268000086840070CD540F22810C2F200004FF451
:10269000800122466FF07E43FEF75AFF00283DD1AD
:1026A0002020B067F0670027012044F240553766CC
:1026B00086F8747088F80000EFF3108472B6C2F2E6
:1026C00000052BA10220C5E90077AF6000F018FAE1
:1026D00028B300F11401C0E905118783477228600F
:1026E00026A1022000F00CFAD8B100F11401C0E9D3
:1026F0000511002181834172686023A000F0BEF9BA
:1027000044F23855C2F20005286060B121A000F003
:10271000B5F907E00020C6E9190000BFFEE72F6009
:1027200001E00020686084F310881DA0FEF7A8FE79
:102730001DA0FEF7A5FE43F2A50164271CA0C0F66C
:1027400000014FF400721923009700F099FB28B1A3
:1027500000F058FC00200DB000F030B8FEE700BFDC
:10276000010000000400000002000000080000005A
:10277000746E73715761697452657100746E737110
:102780004769766552737000746E7371457674494B
:1027900032450000746E737145767445324700000F
:1027A000776F726C640A000068656C6C6F0A0A00CF
:1027B000746E73715F6766780000000030BCBDE81E
:1027C000C08F0000B0B543F2543443F25030C0F62D
:1027D0000004C0F60000A04209D243F25035C0F612
:1027E000000500BF55F8040B8047A542FAD3BDE8A9
:1027F000B040FFF713B92DE9F04100285CD040F25A
:10280000C016C2F2000604463068A04254D840F216
:10281000BC18C2F20008D8F80000A0424CD940F21F
:10282000C410C2F2000000F0CBFA4FF4F55021467C
:1028300040F2DC6C41F80C0DC2F2000CDCF800E058
:1028400044F24C5571453CBFCCF800108E4654F80C
:10285000080C3268C2F200052F6886188B1B3B44B7
:102860002B6011D073887BB9D8F800309E420BD012
:10287000B64504BFCCF800108E4670688D1A44F837
:10288000080C736813449D6054F8046C95198D42CC
:102890000AD06B8843B98E4508BFCCF800506860F9
:1028A00054F8080C1044866040F2C410C2F20000D4
:1028B000BDE8F04100F05EBABDE8F081FEE700003F
:1028C0002DE9F04381B000284AD040F2E46440F2A0
:1028D000EC610330C2F20004C2F2000120F00306F2
:1028E0002078CA1C01F5705122F0030221F0030187
:1028F000891A0028A1F1180918BF484686422FD826
:1029000040F2C410C2F200000C2E98BF0C2600F05A
:1029100057FA40F2DC6E40F2C010C2F2000EC2F272
:102920000000DEF8008002682078A8EB020300288F
:1029300008BF8146A9EB06018B420BD2D4186788E9
:10294000606827B903F10C07C51BB5420CD2884259
:102950000346F3D340F2C410C2F2000000F00AFABA
:10296000002001B0BDE8F08306F1180140F2E06CF0
:102970008D42C2F2000C10D20121618044F24C5110
:10298000C2F20001C01A0B68DCF8005018448542FE
:10299000086022D2CCF800001FE006F10C013E4492
:1029A00095194FF4F5579751C5E901036660012366
:1029B000686809F10C05638044F24C53A8421CBFBF
:1029C00010448660C2F200031868DCF80050084426
:1029D0008542186038BFCCF800004FF4F5504445EC
:1029E000208014D1B8F8020088B140F2BC10C2F2C5
:1029F0000000006880450AD0D8F8041002EB0108F6
:102A0000B8F8021009B18045F6D1CEF8008040F246
:102A1000C410C2F2000000F0ADF904F10C00A0E710
:102A2000B0B5042A054618D315F0030015D1C8B275
:102A30004FF00133102A00FB03F310D32C4600BFE4
:102A400004F11000103AC4E90033C4E902330F2A3C
:102A50000446F5D8032A03D807E0284605E02846AF
:102A6000043A032A40F8043BFAD822B1CBB211460B
:102A70001A46FDF7B7FD2846B0BD000070B5014607
:102A8000062000F03DF8044600284FF0000034D046
:102A9000607204F11400C4E905000420C0F2400093
:102AA00020624FF40070FFF70BFFE06110B3628CFF
:102AB0004FF0000EC4F828E0C4F82CE0C4F830E071
:102AC0008AB1B4F820C000260CF1040301460025A9
:102AD0000E6003FB05060135013A1944F8D1A1EB5C
:102AE0000C000438206304F13400A4F824E0C4E9A5
:102AF0000D0003E0204600F047F80024204670BD9A
:102B00002DE9F0410C4640F2040106460020C2F2D5
:102B1000000100BF0A5CB24205D010305028F9D144
:102B20004FF0000801E001EB0008D8F80C00FFF7B7
:102B3000C7FE054628B3D8F80C20284600210027F8
:102B4000FFF76EFF2E726F72E05DE85518B1013726
:102B5000082FF9D107E0072F05D0E819C7F10701C1
:102B60000130FDF745FCFDF793FB58F8041F2A469A
:102B700042F80C1F4A60C8F80020C2F80480FDF734
:102B80008BFB2846BDE8F08110B50446002020727A
:102B9000FDF77EFB2246216952F80C3F59602169FE
:102BA00022610B601260FDF777FB2046BDE8104004
:102BB000FFF721BE2DE9F0410E4640F20401154613
:102BC00004460020C2F200010A5CB24205D0103077
:102BD0005028F9D14FF0000801E001EB0008FDF7A3
:102BE00057FB44F2F827C2F20007398801313980D7
:102BF000FDF752FBFDF74CFB398801390AB2002A78
:102C0000398002DDFDF748FB0BE000213980FDF73C
:102C100043FB40F2E860C2F20000006808B100F037
:102C200023F846F080002072002000BF295C215468
:102C300019B101300828F9D107E0072805D0C0F103
:102C4000070120440130FDF7D3FBFDF721FB58F8C5
:102C5000041F44F80C1F4C60C8F80040C4F80480FE
:102C6000BDE8F041FDF718BB10B5FDF711FB44F2CC
:102C7000F821C2F200010988044621B12046BDE8CE
:102C80001040FDF709BB44F20440C2F200000068A6
:102C9000FEF72CFE44F20431C2F2000101EBC00049
:102CA00040F2E86250F8081CC2F200021068A1F17C
:102CB00014038342E2D0136044F2F022C2F2000215
:102CC00012781C3001F1080112B1FDF7E8FAD5E7DE
:102CD000FDF7E5FAD2E710B50446FDF7D9FA94F806
:102CE000341094F8352001F0F001013184F83410EB
:102CF00044F20431C2F2000101EBC2014A6844F21D
:102D0000044C04F11403C2F2000C1360A2614B6086
:102D1000A26BDCF80030616143EA0201CCF80010DC
:102D2000BDE81040FDF7B8BAB0B50546FDF7B0FAFA
:102D3000294651F8142F4B6853604B6849601A605C
:102D400091F8212044F204330960C2F2000353F8E1
:102D5000324003EBC202944208D144F20442C2F270
:102D60000002A96B136823EA01011160BDE8B040BD
:102D7000FDF792BAB0B50546FDF78AFA2A4652F831
:102D8000141F0446914209D0A1F1140000F019F972
:102D90002046FDF781FAFFF767FF0FE0A88B4FF69B
:102DA000FF71884205D12046FDF776FA6FF00200E8
:102DB000B0BD0130A8832046FDF76EFA0020B0BDFB
:102DC0002DE9F04381B00646FDF762FAB18B044667
:102DD00031B1481EB0832046FDF75EFA00204CE07A
:102DE00040F2E860C2F2000005680020286395F810
:102DF000340096F8099000F00F00012806F114073E
:102E000013D1FDF745FA80462846FFF78DFF95F868
:102E1000340000F0F000023085F8340005F1440081
:102E200000F01DF94046FDF737FAB9F1000F14D054
:102E3000B9F1010F18D138460068B8420DD095F8A5
:102E4000351090F821209142F6D2416805F1140224
:102E50000A60A9614260686106E0B06905F1140189
:102E60000160A861B1616F612046FDF715FAFFF7B7
:102E7000FBFE286B002808BF002001B0BDE8F083EE
:102E8000F0B583B00E46014601201F461546FFF7F8
:102E900037FE98B104462846FFF712FD58B1DDF819
:102EA00020C00246204631462B460097CDF804C08C
:102EB000FEF738FD03E02046FFF766FE00242046BB
:102EC00003B0F0BDF0B581B040F2E860C2F200009E
:102ED0000568FDF7DDF90446FDF7DAF9296F0646C6
:102EE00009B1284688473046FDF7D6F92846FFF74E
:102EF0001BFF042085F83400FDF7CAF92A46E96D66
:102F000052F8583F5960E96DEA650B6095F84D102D
:102F1000126001F0FE0185F84D10FDF7BDF90026A5
:102F200085F84C60FDF7B4F92F4657F8501F7A68C2
:102F30004A607A681160C7E90077FDF7ADF917F9C3
:102F4000480CB0F1FF3F0ADD44F2FC20C2F2000061
:102F5000016845F8141F4D60056068600CE02E7232
:102F6000FDF796F955F80C1F6A684A606A681160A7
:102F7000C5E90055FDF790F9FFF776FE204601B050
:102F8000BDE8F040FDF788B944F2FC26C2F2000625
:102F9000FDF77EF931680446B1420ED0D1E9002038
:102FA000A1F1140550604B6848691A60C1E900112D
:102FB000FFF721FC2846FFF7E7FD2046FDF76CF9F7
:102FC000E6E7B0B5044690F8340000F00F000228A0
:102FD00018BFB0BDFDF75CF92246A16952F8143F55
:102FE00005465960A16904F144000B60A2611260BA
:102FF00000F035F82846FDF74FF92046BDE8B0400F
:10300000FFF769BE80B590F83610012280F83510C0
:1030100002FA01F18163022180F83410FFF7D1FF39
:1030200040F2E860C2F20000006818B1BDE88040DC
:10303000FFF71ABE80BD80B50246816952F8143F81
:103040006FF0010C59608169C0F830C00B6082617B
:103050001260FFF740FEBDE88040FFF705BE10B5E7
:103060000446407AC00708BF10BDFDF711F954F8B7
:10307000141F62684A6062686460116014F80B1C77
:10308000246001F0FE0104F80B1CBDE81040FDF7C0
:1030900003B90020704700207047002070470020CF
:1030A0007047000044F24054C2F200042068FFF769
:1030B00087FE0028FAD1A56835B100BFA86880470F
:1030C0000028FBD12D68F7E76068FFF753FE002862
:1030D000FAD1EBE7B0B540F20000C2F200000068A0
:1030E0004DF68361C4F21B31A0FB011244F6D351AB
:1030F000C1F26201A0FB0101900C40F25802C2F241
:1031000000021060880940F25401C2F20001086018
:10311000EFF3108472B6FEF760FC40F2B015C2F215
:103120000005C5E90001FEF758FCD5E90012401A78
:1031300040F2B811C2F20001086084F31088B0BDFB
:103140004EF21400CEF2000044F220510068C2F2A8
:103150000001D1E900230130121843F10003C1E955
:10316000002344F22851C2F200010A6840F2540CD4
:1031700002440A60C2F2000C0A68DCF80030DCF895
:1031800000C092FBF3F20B680CFB12330B6044F2AD
:103190002C51C2F200010B681A440A6044F2345107
:1031A000C2F200010A68104440F258020860C2F2FC
:1031B000000208681368126890FBF3F00B6802FBCA
:1031C00010320A6044F23051C2F200010A68104421
:1031D00008607047F1EE100A4FF6FF71C0F2C0317F
:1031E00020EA010040F04070E1EE100A7047000054
:1031F000A0860100400D0300801A060000350C0077
:1032000040420F0080841E0000093D0000127A0039
:103210000024F40000366E010048E801006CDC0276
:103220000000010002000100030001000200010093
:10323000040001000200010003000100020001007F
:10324000050001000200010003000100020001006E
:10325000040001000200010003000100020001005F
:10326000060001000200010003000100020001004D
:10327000040001000200010003000100020001003F
:10328000050001000200010003000100020001002E
:10329000040001000200010003000100020001001F
:1032A000070001000200010003000100020001000C
:1032B00004000100020001000300010002000100FF
:1032C00005000100020001000300010002000100EE
:1032D00004000100020001000300010002000100DF
:1032E00006000100020001000300010002000100CD
:1032F00004000100020001000300010002000100BF
:1033000005000100020001000300010002000100AD
:10331000040001000200010003000100020001009E
:103320000000000000000000010203040607080975
:10333000000000000400000002000000080000007F
:1033400000000000010203049F30000897300008CD
:10335000933000089B3000088033000800000020F4
:1033600060000000E8010008E03300086000002071
:10337000F84A00000402000833E5FFFF00000000E7
:1033800000093D00010000000800002008000020A6
:103390007800000002000000180000201800002043
:1033A0002000000005000000280000202800002068
:1033B0003000000006000000380000203800002027
:1033C0003C0000000A0000004800002048000020E7
:1033D0002C000000010000000100000000000000BF
:04000005080001AD41
:00000001FF
