:020000040800F2
:10000000404B002059020008111000087B03000833
:100010000D100008290B000835170008000000002B
:10002000000000000000000000000000F7120008BF
:100030002B0B000800000000C7020008D9030008CD
:1000400073020008730200087302000873020008BC
:1000500073020008730200087302000873020008AC
:10006000730200087302000873020008730200089C
:10007000730200087302000873020008730200088C
:10008000730200087302000873020008730200087C
:100090007302000873020008730200084F0B000887
:1000A000730200087302000873020008730200085C
:1000B000730200087302000873020008730200084C
:1000C000730200087302000873020008730200083C
:1000D000730200087302000873020008730200082C
:1000E0002D0B000873020008730200087302000859
:1000F000730200087302000873020008730200080C
:1001000073020008730200087302000873020008FB
:1001100073020008730200087302000873020008EB
:1001200073020008730200087302000873020008DB
:1001300073020008730200087302000873020008CB
:1001400073020008730200087302000873020008BB
:1001500073020008730200087302000873020008AB
:10016000730200087302000873020008730200089B
:100170007302000873020008730200080000000008
:10018000730200087302000873020008730200087B
:10019000730200087302000873020008730200086B
:1001A00073020008730200087302000800F002F8EE
:1001B00000F042F80AA090E8000C82448344AAF1BF
:1001C0000107DA4501D100F037F8AFF2090EBAE8BD
:1001D0000F0013F0010F18BFFB1A43F0010318477B
:1001E0006830000088300000103A24BF78C878C119
:1001F000FAD8520724BF30C830C144BF04680C602D
:10020000704700000023002400250026103A28BF74
:1002100078C1FBD8520728BF30C148BF0B60704778
:100220001FB502F0E5FE9DE8030000F0D3F900F0F1
:10023000A3F91FBD10B510BD00F051FA1146FFF72C
:10024000EFFF00F003FB00F06FFA03B4FFF7F2FFDB
:1002500003BC00F011FA0000094880470948004734
:10026000FEE7FEE7FEE7FEE7FEE7FEE7FEE7FEE766
:10027000FEE7FEE704480549054A064B70470000C3
:10028000F1160008AD01000840450020404B002059
:100290004047002040470020EFF3108072B67047BF
:1002A00080F310887047434A1368012B04D04FF045
:1002B00001031360404A1060404A116040484FF00B
:1002C000805101607047EFF3108272B639480168BF
:1002D00051B34FF0000101603748016891B1EFF36D
:1002E00009811EF0100F08BF21ED108B21E9F00FDE
:1002F0004FF000041EF0100F08BF012441F8044D18
:10030000006801602D490968096808C9B1E8F00F63
:10031000002B18BF00F05AB881F309884EF0100E78
:10032000002B18BF2EF0100E82F310884EF0040E32
:10033000704722490860EFF3148222F0040282F32E
:1003400014881D494FF0000008601A494FF0010061
:1003500008601C484FF47F01D0F8002041EA0201F8
:10036000016017484FF0805101601748006800682D
:1003700080F3088861B662B670471EF0040F0CBFA8
:10038000EFF30880EFF3098020E9F00F40F804ED67
:1003900040F804ED1EF0040F0CBF80F3088880F3D2
:1003A000098800B502F074FA5DF804EB4EF0040E13
:1003B0007047000004450020E8420020F042002081
:1003C00004ED00E020ED00E008ED00E0B1EC088B6A
:1003D000B1EC08CBFFF7A0BF30B410B5034880479D
:1003E00030BCAE4630BC0248004700006D2F00080C
:1003F000F912000800BF704770B5064600F0CEF84D
:10040000056806F10B0020F00704B4429CBF0020F1
:1004100070BD2B466A68BAB11068A04210D304F1CF
:10042000080188423CBF5068586007D351681019D2
:1004300041601168091B016058601460101D70BD97
:1004400013465268002AE7D12146284600F0AEF84C
:100450000028DED170BD70B50446051F00F09EF87F
:100460000068002C14BF446870BD002C18BFAC425B
:100470003CBF20466468F8D301680A18AA4218BF36
:10048000456003D12A680546114401602868411976
:10049000A1421CBF6C6070BD61686960216808443E
:1004A000286070BD0EB5054614460E4613A000F038
:1004B000D2F8284600F0CFF816A000F0CCF830466D
:1004C00000F0C9F815A000F0C6F800218DF80B1057
:1004D0000A210DF10A008DF80A1008E094FBF1F2F0
:1004E00001FB124294FBF1F4303200F8012D002C94
:1004F000F4DC00F0B0F800F0A3F800002A2A2A206B
:10050000617373657274696F6E206661696C65648E
:100510003A2000002C2066696C6520002C206C6954
:100520006E6520004FF0000200B5134694469646D3
:10053000203922BFA0E80C50A0E80C50B1F12001F6
:10054000BFF4F7AF090728BFA0E80C5048BF0CC0A4
:100550005DF804EB890028BF40F8042B08BF704702
:1005600048BF20F8022B11F0804F18BF00F8012B74
:10057000704770477047704770B5064C7C44064D15
:100580007D4404E02046016808448047241DAC42B5
:10059000F8D170BDE82C0000E82C0000004870473E
:1005A00058000020704770477047704738B50446C0
:1005B0000A4600206946AFF30080002808BF38BD16
:1005C00002460099204600F061F8012038BD012064
:1005D00000F07DB8F8B5AFF30080054600200C466A
:1005E000102000BF0646A819A0420DD93246694620
:1005F0000020AFF30080070008BF00F068F8009803
:10060000A04218BF0546C419FFF7C8FF056007469A
:10061000F01D20F007004619284600F00AF8B44201
:1006200008BFF8BDA21B31463868BDE8F84000F0AD
:100630002DB800210160C0E90110704710207047FB
:1006400010B5002000F03CF8FFF7F4FDBDE81040C5
:10065000012000F011B810B5044602E0641C00F05F
:1006600004F820780028F9D110BD08B569468DF846
:1006700000000320ABBE08BD01491820ABBEFEE759
:1006800026000200004870475000002003464068E2
:100690008C46002818BF88423CBF03464068F8D308
:1006A00018681844884207D00CF1030020F00700B6
:1006B000001D411A521A0146081D0A60FFF7CBBE01
:1006C00010B500F03FF8BDE8104000F036B810B5A6
:1006D00000F050F8BDE8104000F02FB870477546A4
:1006E000FFF7D0FFAE4605006946534620F00700ED
:1006F000854618B020B5FFF7BDFDBDE820404FF09E
:1007000000064FF000074FF000084FF0000BAC461A
:10071000ACE8C009ACE8C009ACE8C009ACE8C00965
:1007200021F007018D46704710B50446AFF30080F5
:100730002046BDE81040FFF788BD002801D0FFF734
:100740009BBF704710B5002102A000F03BF80120CC
:1007500010BD0000534947414252543A2041626E55
:100760006F726D616C207465726D696E6174696F12
:100770006E00000010B5012805D0002103A000F094
:1007800021F8012010BD09A1F8E7000053494752A4
:10079000544D454D3A204F7574206F662068656151
:1007A00070206D656D6F7279000000003A20486519
:1007B0006170206D656D6F727920636F72727570F4
:1007C0007465640070B505460C460A2000E06D1C97
:1007D000FFF74BFF35B128780028F8D102E0641C00
:1007E000FFF743FF14B120780028F8D1BDE870402E
:1007F0000A20FFF73ABF02F0FF0343EA032242EA6E
:10080000024200F002B84FF000020429C0F012804A
:1008100010F0030C3FF488AECCF1040CBCF1020FD5
:1008200018BF00F8012BA8BF20F8022BA1EB0C0188
:10083000FFF77ABE5FEAC17C24BF00F8012B00F805
:10084000012B48BF00F8012B704700002DE9F04351
:1008500081B041F20004C4F20204FFF71DFD00F074
:1008600076FA00F02FFE2068000703D4D4F8940035
:10087000000A01E02068000943F22401A26800F0A8
:100880000F00C0F6000151F82000C2F38101DFE83B
:1008900001F02F02070C42F20040C0F2F40027E002
:1008A00041F20020C0F27A0022E0E168E36801F042
:1008B0000302C3F30211022A01F1010106D0032A47
:1008C00004BF41F20020C0F27A0003E042F200408F
:1008D000C0F2F400E268B0FBF1F0C2F30621E26876
:1008E0004843C2F34161022202EB4101B0FBF1F047
:1008F00040F20001C2F200010860A26843F2541302
:10090000C2F30312C0F600039A5C43F24024D040C5
:1009100043F23C22C0F60004C0F60002A242086086
:1009200009D243F23C25C0F6000500BF55F8040B80
:100930008047A542FAD340F2E860C2F20000C11C31
:1009400000F5705020F0030421F00305A4F1180114
:10095000A9424FF0000138BF0121192C4FF00002CD
:1009600038BF012211434FF0000632D140F24C61F2
:10097000C2F2000101270F7040F22811C2F20001FB
:10098000621B41F6A0630D604FF4F5510C3AC0F2C2
:100990000103204685E8460040F2241140F80C3D52
:1009A00044E9022240F22C14C2F20001C2F2000417
:1009B000086059A22046022102F054F804F1140004
:1009C000C4E9050040F24460C2F20000A7836672E9
:1009D000056044F20C50C2F20000C0E9000044F28D
:1009E000F42044F20035C2F20000C2F20005068095
:1009F000A819A8510836B6F5807F4060F8D144F2B6
:100A0000F821C2F2000140F2E46844F20049C1E971
:100A1000001140F20401C2F200080020C2F20009F5
:100A2000C2F20001C8F80000C9F800000A5C012AFF
:100A300004D010304028F9D1002600E00E18F068EC
:100A400001F028FFB8B3F26800210446002701F046
:100A5000C5FF0120208143F23220C0F6000000BF14
:100A6000C15D042FE15501D00137F9E7E0190021FC
:100A7000C170A0F80110FFF70FFC56F8041F2246C2
:100A800042F80C1F4A6032605660FFF709FC4FF4D1
:100A9000807001F0FFFE58B142F2A971024614279E
:100AA000C0F6000120460A23009701F057F803E042
:100AB000204601F0C0FF0024204602F0DDF940F29C
:100AC0004C14C2F2000416A22046012101F0CAFF14
:100AD00042F6FD5144F204422027C0F60001C2F262
:100AE000000220461F23009701F038F8204602F04C
:100AF000C3F9D9F8000001F016F805EBC00050F872
:100B0000080CA0F114010830C8F80010FFF711FC20
:100B1000002001B0BDE8F08368656170000000004E
:100B20007469646C65000000FEE7704740F2144091
:100B3000C4F201000168490544BF4FF480610160BF
:100B40000168890444BF4FF400510160704740F2CE
:100B50001440C4F201000168890544BF4FF40071DC
:100B600001600168C90544BF4FF48071016070479E
:100B70002DE9F04F84B00A68002A00F0E28041F6C7
:100B8000004500F13847C4F6000508234FEAB726B0
:100B9000A84208BF0723072E38BF4FEAB7234FF0FC
:100BA000010C00254FF0000B01274FF000080093C7
:100BB000019100BFA7F101090CFA09F4224000F0ED
:100BC000AC80D1F804A00292BAF1120F00F2B38007
:100BD0000CFA0AF212F0061F00F0AD800322D0F8E2
:100BE00008E002FA05F3CA682EEA030EAA4042EAB8
:100BF0000E0282604268DE43A2434FEA1A1404FAEE
:100C000009F42243AE464260C2688C68324004FA5E
:100C10000EF422434AF01004122CC26017D16FF078
:100C2000030101EA590202440BF01C030F21D2F820
:100C300020A001FA03F401992AEA0404D1F810C0B3
:100C400001990CFA03F323431362D1F804A002685C
:100C50000AF00303324003FA0EF31A430260029EC5
:100C60005FEACA034FF0010C57D541F26001C4F2AC
:100C700002010A6840F2004E42F001020A600A686E
:100C8000C4F2010E02F001020392039A29F003025A
:100C90004FF608497244CFF6FF7952F809C00BF0BD
:100CA0000C040F2101FA04F32CEA030CDDE90031F6
:100CB00003FA04F444EA0C0342F80930DEF800C0F9
:100CC0004B684CEA0604DA0358BF2CEA0604CEF857
:100CD0000040DEF804C09C034CEA060258BF2CEA30
:100CE0000602CEF80420DEF808C0DC024CEA060258
:100CF00058BF2CEA060240F20C4CCEF80820C4F291
:100D0000010CDCF800409B0244EA060258BF24EACA
:100D10000602CCF800204FF0010C0A6808F1010827
:100D200032FA07F307F101070BF1040B05F1020595
:100D30007FF440AF05E00322AA404FEA480ED643B5
:100D400062E704B000F000B830BCBDE8C08F80B5E9
:100D500082B04EF60C50CEF2000001684FF6FF0252
:100D6000114040F20032C0F2FA52114301600F20EC
:100D700000F019F8A8B941F25800C4F202008168E5
:100D800041F001018160816801F001010191019947
:100D9000016841F080510160006800F080500090CF
:100DA000009802B080BD40F20001C2F20001096863
:100DB00044F6D352C1F26202A1FB02124FF0FF319E
:100DC00001EB92130022B2EB136F1CBF012070479E
:100DD0004EF210014EF60C5CCEF20001CEF2000C89
:100DE0004B60F0238CF817308A6007220F284FF0F1
:100DF00001000A6088BF7047DCF800100023C1F3CF
:100E0000022181F00702042A28BF0422033938BFD7
:100E100019464FF0FF3303FA02F2D24302FA01F10E
:100E200009018CF8171044F23851C2F20001087021
:100E30000020704741F20001C4F20201886810F0FE
:100E40000C02C86805D00C2A27D100F00300012845
:100E500023D10868000703D4D1F89400000A01E008
:100E60000868000943F2240300F00F00C0F60003F5
:100E700053F82030002A184618BF00200C2A18BF4B
:100E80007047C86800F0030002280FD0032804BF91
:100E900041F20023C0F27A030CE0042A1DD0082A94
:100EA00020D141F20020C0F27A00704742F20043A4
:100EB000C0F2F403C868CA68C0F30210C2F3062285
:100EC000C96801305A43B2FBF0F0C1F3416102221C
:100ED00002EB4101B0FBF1F0704742F20040C0F27A
:100EE000F400704700200023C8E72DE9F04383B0E9
:100EF00007462A2040F2184489468DF80100C4F6BE
:100F0000000410250DF101000121984616462561C7
:100F100000F05AF8380A8DF802000DF102000121A4
:100F2000256000F051F80DF1030001218DF80370E8
:100F3000256000F049F8300A8DF8040001A801216D
:100F4000256000F041F80DF1050001218DF80560E4
:100F5000256000F039F82B208DF806000DF1060011
:100F60000121256100F030F84FEA19208DF80700C3
:100F70000DF107000121256000F026F802A80121EB
:100F80008DF80890256000F01FF84FEA18208DF8C2
:100F900009000DF109000121256000F015F80DF19F
:100FA0000A0001218DF80A80256000F00DF82C2040
:100FB0008DF80B000DF10B000121256100F004F804
:100FC00003B0BDE8F08300002DE9F04148F20102D2
:100FD000C8F20002A1FB0223DE0B04463004A0EBA2
:100FE000D33001EBD33825184FF6FF773EB12046BA
:100FF0004FF6FF7100F00EF83C44013EF6E71FFA91
:1010000088F12846BDE8F04100F004B8FEE7000092
:10101000FEE700002DE9F04182B040F2B005C2F2D7
:10102000000595F85C20012A00F0FD804FF00108D2
:1010300044F2345785F85C80C2F200073C6895F8AA
:101040005D20012A40F0EA80002800F0E7800029B6
:1010500000F0E4800322002385F85D202B66A8635E
:10106000A987E9872B64A5F84430A5F84630AA681B
:10107000EB64B2F5004F2A682B6507D1136823F0A3
:1010800040031360136843F48043136013685B06E6
:1010900003D4136843F0400313606B680139EE68B2
:1010A000B3FA83F3B1FA81F15B094909B6F5E06F50
:1010B00041EA030113D931B130F8021BD160A863B2
:1010C000E98F0139E987E98F002941D091688907C3
:1010D000F2D43968091BC9087C29F4D99EE000299B
:1010E0004FF6FE7111D0EB8F022B05D330F8023B87
:1010F000D3604FF6FE7304E000784B1C1073A86BAE
:101100000130A863EE8F3344EB87EB8F03B30131DB
:1011100093689B0706D43B681B1BDB087C2B14D908
:101120007CE000BFEB8F022B06D330F8023BD3608C
:101130004FF6FE7305E000BF00780B461073A86BF6
:101140000130A863EE8F3344EB87EB8F002BDFD1A8
:101150004FF4C050214600F069F800284DD140F20C
:1011600000023868C2F2000239681368201A00F5DC
:101170007A72C3F3CB3050430190286883681B0612
:101180000FD500BF3B685B1A934211D2019B019EB1
:10119000002BA6F101060196866808BF1A463306A1
:1011A000F0D44FF4C060214600F040F828BB2AE09C
:1011B000416821F0E00141606968B1F5827F0AD1A0
:1011C000A968B1F5004F02D0B1F5806F03D1016875
:1011D00021F040010160A96AB1F5005F07D1016803
:1011E00021F400510160016841F4005101600120C7
:1011F00085F85D00002085F85C00286E40F0200036
:10120000286620202866A86838B900200090286841
:10121000C1680091806800900098286E002085F8D1
:101220005D8085F85C0002B0BDE8F081B0B582B0A9
:1012300044F2345EC2F2000EDEF80020DEF8003028
:10124000891A40F20002C2F20002D2F800C0232242
:101250000CFB02F201F57A71120D4A4340F2B00C18
:101260000092C2F2000CDCF800209468044215D011
:10127000B0F5C06F02D1147B0194019CDEF80040F0
:10128000E41A8C420CD2009C009D002CA5F10105B3
:101290000095956808BF21460542E9D1002028E065
:1012A000506820F0E0005060DCF80400B0F5827F68
:1012B0000BD1DCF80800B0F5004F02D0B0F5806F1C
:1012C00003D1106820F040001060DCF82800B0F571
:1012D000005F07D1106820F400501060106840F4DF
:1012E0000050106001208CF85D0000208CF85C003C
:1012F000032002B0B0BD70472DE9F04F83B0FEF778
:10130000CBFF44F2EC22C2F20002117801311170DD
:10131000FEF7C6FF44F23450C2F20000016840F20A
:10132000E4640131016044F2085BC2F20004C2F2DD
:10133000000B2068DBF80010026C0131CBF80010C4
:10134000511E016428D1C16B0164FEF7A5FF21681D
:1013500091F8342002F00F02012A1BD10A4652F8FC
:10136000143F5768BB4215D05F6091F8357044F266
:101370000036C2F2000606EBC7078E698A617D68F7
:1013800033602A608D617A604F61FEF789FF01F05A
:10139000C3FB01E0FEF784FF0DF10409DBF80080D8
:1013A000CDF80890CDF80490FEF776FF44F20C5A81
:1013B000C2F2000ADAF80060009056456BD04FF692
:1013C000FE74C7F6FF7400BF7069A8EB0000A0426E
:1013D00061D8D6E900104860726816F80B0C1160ED
:1013E000810736605CBF00F0FE0006F80B0C019828
:1013F00046603060D6E902100196C6F8049088472E
:101400000198DBF80080484541D0D6E900014160F1
:1014100071687660086016F80B0C366000F0030106
:10142000032934D100F0FE0006F80B0CFEF734FF60
:10143000D6E9001216F80BCC4A6072685346116068
:10144000C6E90066DBF800103269DAF80470551856
:10145000756100BFBB4207D01A461B685969491B1A
:10146000F8D0A142F6D801E03B683A4644F214575E
:10147000C2F2000739685E60013139604CF0010149
:1014800033601660726006F80B1CFEF709FFDAF88D
:101490000060564598D10098FEF702FFFEF7FCFE6B
:1014A00044F2EC22C2F2000211780139117003B04B
:1014B00000F002B8FEF7F4BE30BCBDE8C04FFFF745
:1014C000F9BF000010B547F20000C4F20000016847
:1014D00001F4C061B1F5007F1FD00168012262F301
:1014E0004A21016040F20001C2F200010968322382
:1014F00059434DF68363C4F21B33A1FB031302EB84
:10150000934100224469013942F10003640501D589
:10151000002BF7D1406940054ED441F20004C4F2DB
:101520000204A068E16800F00C00082805D00C282F
:1015300045D101F00301032941D12168E26847F652
:10154000737341F20341CFF66063C1F200011A40A8
:101550008A4217D1206880015CD4206840F08070F6
:101560002060E06840F08070E06044F23450C2F2E5
:1015700000000168226892014CD40268521A032AC2
:10158000F8D32CE00C282AD0206840015CBF2068EA
:101590005FEAC00023D4206820F08070206044F20D
:1015A0003450C2F20000026823689B0119D5036819
:1015B0009B1A022BF8D912E072B600BFFEE7216831
:1015C00041F48031216044F23451C2F200010A68D2
:1015D00023689B03B2D40B689B1A642BF8D972B6AC
:1015E000FEE7E26848F28C03C0F29D131A401143F3
:1015F000E160216841F080712160E16841F0807113
:10160000E16001682268920104D40268521A022A39
:10161000F8D9E4E742F2000CC4F2020CDCF8001046
:1016200049070CD4DCF80010042262F30201CCF864
:101630000010DCF8001001F00701042955D12168E1
:10164000890152D5A16841F2883341F00301A160BC
:1016500044F23451C2F200010A6800BFA06800F0F1
:101660000C000C2804D00868801A9842F6D93CE097
:10167000A06820F0F000A060DCF8000000F0070097
:1016800005280CD3DCF80000042161F30200CCF83B
:101690000000DCF8000000F00700042825D1A06855
:1016A00020F4E060A060A06820F46050A060FFF724
:1016B000C1FBA16843F25412C1F30311C0F600024A
:1016C000515C01F01F01C84040F20001C2F200016C
:1016D000086044F23850C2F200000178102000295E
:1016E00018BF0F20FFF75FFB08B172B6FEE710BD11
:1016F0004EF68850CEF2000001684FF6FF7341F4B9
:101700007001016041F20000C4F202000168CEF6EF
:10171000F62341F0010101600021816002681A4056
:1017200002604FF48052C260026822F4802202609C
:1017300081617047FEE700002DE9F04F89B04768EE
:1017400040F25061C2F20001002F08BF01F12007F2
:1017500079680978082940F0918097F82420C168B9
:10176000B0F91430FF2A6ED0B0F91E50012D2E466C
:101770000295C0F27F803F8CB0F91CA0FE00F0B251
:101780000490F82000EA172EFC2000EAD70BC2F5DF
:101790008077A3EB0A000024FF2507AB0DF1140CA2
:1017A000019000BFBAF1010F039443DB4FF0000832
:1017B0000498ADF820E0ADF81C00ADF81EB0ADF80F
:1017C00022500C884FF00009E000C0B2ADF81400C0
:1017D000F82000EA1420ADF81800FC2000EAD4003C
:1017E000ADF81600ADF81A5033F819003CF819405E
:1017F000504304FB070080B2000A2CF8190009F1DD
:101800000109B9F1030FEFD1BDF81400BDF816407E
:10181000BDF81860C0F3C40004F0FC0440EAC40042
:1018200006F0F80440EA042008F10108D04521F848
:10183000020BBDD1039C029801348442019801EB54
:101840004001AFD116E0B0F91E20012A12DB3F8C17
:10185000B0F91C00002600BF012806DB002500BFF0
:1018600021F815700135A842FAD10136964201EBF4
:101870004301F1D1002009B000F026B843F2641111
:1018800002A0C0F60001ED22FEF70CFE41524D5FB2
:1018900032445F434F4C4F55525F524742353635C5
:1018A000203D3D204F505F434F52452E70744F7086
:1018B0002D3E496E666F2E436F6C6F75722E636896
:1018C000536368656D65000030BCBDE8C08F0000E3
:1018D00010B540F25064C2F20004606A407800F033
:1018E0001F00122814DCC21F082A04F1400124D86A
:1018F000DFE802F005252528052525250500206CB3
:1019000000F0DFF8A06C00F0DCF804F14C0119E005
:101910001A2804DC132813D0172805D00FE01B2841
:1019200002D01F2818BF10BDA06C00F0CAF8E06DEF
:1019300000F0C7F804F1600104E0032802D010BDF4
:1019400004F148010868BDE8104000F0BAB8000092
:101950002DE9F04383B004460F46806861681D4658
:101960001646786039600BB1002028600EB1002067
:1019700030602078C10739D14FF000090DF104081B
:10198000400703D515B1286800B92C60E46864B33A
:101990007EB1B7F90000B7F902104042328820EA60
:1019A000E07049421044728821EAE1713080501899
:1019B0007080A1682078CDF804900291C0071CBF08
:1019C00060680190404639463A4600F025F960B11A
:1019D0002078C0070AD1A088398808443880E08878
:1019E0007988084478802078CAE70024204603B02C
:1019F000BDE8F0832DE9F04182B01E4615460C4645
:101A000001F11403694600224FF00008FFF7A0FF20
:101A1000616919B10978022222EA410800284DD0F3
:101A2000DDF820C016B10178890702D4D5F800E0AE
:101A300007E0C1780123C1F3420103FA01FEC5F8B2
:101A400000E05FEA0C75BDF800304FF00005BDF80E
:101A500002208788C1884FF0000658BFDD1B5FEA6F
:101A60004C7358BF561ABEF1080F09D3B0F90810CD
:101A70002AB211FB0622C6688BB202FB0EF10DE002
:101A8000B0F90810C7688BB20EFB01F10731C90825
:101A900036B22AB201FB06760EFB02F106EBD1014B
:101AA000C4E90012DDE900122381C4E90312C17800
:101AB000E27AA17202F0FC014144E17202B0BDE899
:101AC000F081A8B180B582B0694600220023FFF7FB
:101AD0003FFF50B101460078000706D58B69CA6800
:101AE0000020C8600BB10869984702B0BDE880408B
:101AF0007047000080B5EFF3108072B601214906EF
:101B00009F4A116080F3108801F006FA9D48002179
:101B1000416001609C4801609C48016000F002F84F
:101B200080BDC046704718B1C1B219B101200EE0A6
:101B30000020704710F47F4102D0090A092006E016
:101B400010F47F0107BF010E1920090C112043F288
:101B50005402C0F60002515C084470472DE9F04180
:101B6000044614301D46C4E9050000204FF480737C
:101B7000DDF81880C4E90810C4E90A2310462321BF
:101B80004FF4807200F02AFFD4E90A12D4E9080366
:101B9000114421F007014BF6EF66A1F144026FF00A
:101BA0004307CDF6AD6600BFCE510437FCD142F6F7
:101BB00037560027C0F600064FF0807C41E9083711
:101BC00041E9067741E9047641E9020C41F8447C99
:101BD000E26104F144000A21224684F8365084F878
:101BE0003550C4E90E78C4F84080276384F8347017
:101BF000C4E91C7700F036FF42F6AB6004F15801EF
:101C0000C0F60000C4E9161104F1600184F84D70BB
:101C100091C1E766BDE8F0812DE9F0418388B0F914
:101C20000040B1F804C02344013B1FB2B1F90030B9
:101C3000B0F90280B1F9025003EB0C06013E9C4260
:101C40000FFA86FCC8BF2346A845AE46C8BFC646A5
:101C50006745B8BFBC469C4511DBC988ADB2294475
:101C6000C5881FFA88F4013908B26119013909B22F
:101C70008142B8BF08460FFA8EF1884202DA00208E
:101C8000BDE8F08152B1ACEB0301A0EB0E000131D5
:101C900001301380A2F802E09180D0800120BDE8DD
:101CA000F08170B582B014460A46054600202146F0
:101CB000C4E90200206041F8040F56681268A6606B
:101CC0000A600090A868019068462BB10A46FFF7A9
:101CD000A3FF30B900260BE000220026FFF79CFF8F
:101CE00030B128682646206000F0FA002070E560D8
:101CF000304602B070BD000010B5EFF3108072B630
:101D00000B490A684B68D21A1D4B1B685B0106D54C
:101D10000B689B1A102B02DB096851184A1C1949E1
:101D20004B680C6880F31088D117A018594110BD7A
:101D300014E000E080B5EFF3108172B6002807D1FF
:101D40000D48002202600D4B436082600722026052
:101D5000012040060A4A106081F3108801F0DCF887
:101D600008480021416001600748016007480160A0
:101D7000FFF7D8FE80BDC04610E000E0FFFFFF0087
:101D800004ED00E0184500202445002028450020EF
:101D9000B8B040F2004941F24C0BC4F60009C4F25D
:101DA000020BFEF7D4FFFFF78DFB01200124FFF7A4
:101DB000C1FFDBF800000FAE40F08000CBF8000060
:101DC000DBF80000D02500F0800016901698DBF8B4
:101DD0000000314640F00200CBF80000DBF80000C4
:101DE00000F0020016901698DBF8000040F00800A2
:101DF000CBF80000DBF8000000F008001690169801
:101E0000022012904846CDE90F541194FEF7B0FE1F
:101E1000802409F500603146C9F828500F940190DC
:101E2000FEF7A6FE40F62840C4F6000004600460F9
:101E3000402044F23455C9F82840C9F82800C2F2BD
:101E4000000528682968091A7929FBD343F6004060
:101E500040F2B006C4F200004021C2F200064FF486
:101E60008272C9F818100027012186E8850006F162
:101E700014024FF4E0634FF002084FF4007492C272
:101E80000722C6E90338C6E90877C6E90A7296F858
:101E90005D2052B186F85D8001684FF4805C21F0CE
:101EA000400101604FF4E0613AE086F85C70DBF8D5
:101EB000000040F00200CBF80000DBF8000000F06A
:101EC000020016901698DBF80C0040F40040CBF8A6
:101ED0000C00DBF80C0000F4004016901698282047
:101EE000CDE9160803201990062018911A9016A91A
:101EF0004846FEF73DFE3068F16886F85D8002686E
:101F0000B1F5E06F22F04002026098BF012741F472
:101F100000624FEA073CB2F5706F1CBF0023B3624A
:101F2000D6E90137D6E9044203F4827307F4044783
:101F30003B4404F002073B44B76902F00102F46934
:101F40001A4407F400731A4404F03803346A1A443C
:101F500004F08003B46A1A4404F400531A43026084
:101F60000422736A01F4706102EA1742776B41EA56
:101F70000C0103F01003114307F00807194339431C
:101F8000416000213166012186F85D10016841F051
:101F900040010160286800BF2968091A7929FBD32C
:101FA00011208DF858001020C9F8280016A801212A
:101FB000FFF70AF8286800BF2968091A7929FBD3B6
:101FC00036208DF85800102516A80121C9F8285090
:101FD0000124FEF7F9FF002616A801218DF85860AC
:101FE000C9F81850FEF7F0FF3A208DF8580016A8EF
:101FF0000121C9F82850FEF7E7FF65208DF8580049
:1020000016A80121C9F81850FEF7DEFFB2208DF89E
:10201000580016A80121C9F82850FEF7D5FF0C2753
:1020200016A801218DF85870C9F81850FEF7CCFF9A
:1020300016A801218DF85870C9F81850FEF7C4FF92
:1020400016A801218DF85860C9F81850FEF7BCFF9A
:10205000332716A801218DF85870C9F81850FEF7DB
:10206000B3FF16A801218DF85870C9F81850FEF773
:10207000ABFFB7208DF8580016A80121C9F82850E9
:10208000FEF7A2FF72208DF8580016A80121C9F8AA
:102090001850FEF799FFBB208DF8580016A80121B3
:1020A000C9F82850FEF790FF3D208DF8580016A87B
:1020B0000121C9F81850FEF787FFC0208DF858009D
:1020C00016A80121C9F82850FEF77EFF2C208DF8B4
:1020D000580016A80121C9F81850FEF775FFC22054
:1020E0008DF8580016A80121C9F82850FEF76CFF9A
:1020F00016A801218DF85840C9F81850FEF764FF62
:10210000C3208DF8580016A80121C9F82850FEF701
:102110005BFF19208DF8580016A80121C9F8185046
:10212000FEF752FFC4208DF8580016A80121C9F807
:102130002850FEF749FF20208DF8580016A80121ED
:10214000C9F81850FEF740FFC6208DF8580016A8B1
:102150000121C9F82850FEF737FF0F208DF85800ED
:1021600016A80121C9F81850FEF72EFFD02416A892
:1021700001218DF85840C9F82850FEF725FFA4200A
:102180008DF8580016A80121C9F81850FEF71CFF59
:10219000A1208DF8580016A80121C9F81850FEF7A3
:1021A00013FFE0208DF8580016A80121C9F8285027
:1021B000FEF70AFF16A801218DF85840C9F81850FB
:1021C000FEF702FF04208DF8580016A80121C9F877
:1021D0001850FEF7F9FE0D2716A801218DF858704A
:1021E000C9F81850FEF7F0FE11208DF8580016A817
:1021F0000121C9F81850FEF7E7FE13208DF85800AA
:1022000016A80121C9F81850FEF7DEFE2B208DF824
:10221000580016A80121C9F81850FEF7D5FE3F2036
:102220008DF8580016A801214FF03F0AC9F8185040
:10223000FEF7CAFE54208DF8580016A80121C9F8EF
:102240001850FEF7C1FE4C208DF8580016A8012149
:10225000C9F81850FEF7B8FE18208DF8580016A8D7
:102260000121C9F81850FEF7AFFE16A801218DF81C
:102270005870C9F81850FEF7A7FE0B208DF85800CB
:1022800016A80121C9F81850FEF79EFE4FF01F084E
:1022900016A801218DF85880C9F81850FEF794FE51
:1022A00040F200404FF02309C4F600008DF858902A
:1022B000856116A80121FEF787FEE1208DF8580000
:1022C00040F20040C4F60000856216A80121FEF726
:1022D0007BFE40F20040C4F600008DF85840856156
:1022E00016A80121FEF770FE04208DF8580040F278
:1022F0000040C4F60000856116A80121FEF764FEC7
:102300000C208DF8580040F20040C4F600008561B2
:1023100016A80121FEF758FE11208DF8580040F252
:102320000040C4F60000856116A80121FEF74CFEAE
:1023300013208DF8580040F20040C4F6000085617B
:1023400016A80121FEF740FE2C208DF8580040F21F
:102350000040C4F60000856116A80121FEF734FE96
:1023600040F20040C4F600008DF858A0856116A820
:102370000121FEF729FE44208DF8580040F200406C
:10238000C4F60000856116A80121FEF71DFE51204C
:102390008DF8580040F20040C4F60000856116A890
:1023A0000121FEF711FE2F208DF8580040F2004069
:1023B000C4F60000856116A80121FEF705FE40F273
:1023C0000040C4F600008DF85880856116A80121F0
:1023D000FEF7FAFD40F20040C4F600008DF8588088
:1023E000856116A80121FEF7EFFD20208DF8580029
:1023F00040F20040C4F60000856116A80121FEF7F6
:10240000E3FD40F20047C4F6000716A801218DF84D
:102410005890BD61FEF7D8FD21208DF8580016A810
:102420000121BD62FEF7D0FD29208DF8580016A8C5
:102430000121BD62FEF7C8FD00200021EF22EF233D
:10244000FEF753FD00200021EF22EF23FEF74DFDA4
:1024500040F2C410C2F200004FF6FF7120F81610CF
:102460000136B6F5107FF9D140F2C41610200024D1
:10247000C2F20006B86100BF30464FF49061FEF72B
:10248000A3FD632C04F10104F6D38020B861DBF8CE
:1024900000000DF1580940F00800CBF80000DBF80F
:1024A0000000494600F0080016901698DBF800007E
:1024B00040F00800CBF80000DBF8000000F0080056
:1024C00016901698DBF8000040F00800CBF80000EA
:1024D000DBF8000000F0080016901698DBF800000A
:1024E00040F00400CBF80000DBF800004FF0000BD8
:1024F00000F00400169016980020C1F21100DDF8DB
:1025000004A017904FF4806016905046CDF860B04C
:10251000FEF72EFB4EF60C574EF21744CEF2000794
:10252000CEF200044EF20015386884F811B0CEF2F5
:1025300000054FF48078C5F804804FF400701690C1
:1025400050464946FEF714FB386884F800B04FF453
:1025500000062E6050464946CDF85880FEF708FB2D
:10256000386884F800B02E604FF40050169040F2A6
:102570000040C4F6000000F580604946FEF7F8FA16
:10258000386884F811B040F25069C5F80480C2F28E
:102590000009EFF3108472B648469421FDF7C2FF9C
:1025A00084F310881020FDF727FF06464FF448708B
:1025B000FDF722FF0746B0464FF0141048F804BF5D
:1025C000C6E90207B9F82A10EFF3108072B6C906FF
:1025D00025D4032189F82910A9F82AB0B9F82A10BE
:1025E00041F01001A9F82A1080F3108843F20C0082
:1025F000C0F60000C9F824001F20A9F840007F2081
:10260000711CC9E90E6889F844000DD00020CDE99D
:102610000D00CDE90B00CDE9080030460FE080F356
:1026200010880021142585E0D9F81C000021C9F884
:102630003800CDE90D11CDE90B11CDE90811B568D0
:10264000746816A90FAA0023CDE90645FFF780F9A3
:1026500000285ED00F99D9F83800169116A90BAA58
:102660000123FFF71EFB002800F08B80BDF83C1013
:102670000746200CBDF83E2040EA0540611AADF83F
:102680001810801AB968ADF81A0008A8099106A9AF
:102690000246FFF7C1FAE0B30020CDE90400CDE91E
:1026A000020006A902AA38460123FFF7FAFA80B30E
:1026B000D9F82400017801F00E02052A5BD3C1F39A
:1026C00042010122407802FA01F115910027C30965
:1026D00002A80FA915AA0097FFF78CF916A8882160
:1026E000FDF720FF0FAB0ECBCDE91A2319911299FC
:1026F000139A09F12000CDE91C121499D9F824206D
:102700001E91916817900968B9B316A888470746C3
:1027100034E0FD27F8B2FD3818BF3846202189F88B
:10272000290001EA90004030A9F82A00F188B6F9A2
:102730000850F768B8F9000040F200482A18F02A5B
:10274000C4F6000816DCB6F90A4004FA81F3F02B4F
:1027500010DC013A013B80B292B29BB2FEF7C5FB9E
:102760001020C8F8180005FB04F041003846FEF7B9
:102770002BFC00BFFEE7FC27CCE7FC27FFF7A8F8FF
:10278000C8E743F2D01103A0C0F6000140F2A65200
:10279000FDF788FE4E554C4C20213D20707454614D
:1027A0007267657400000000B0B543F2442443F240
:1027B0004020C0F60004C0F60000A04209D243F257
:1027C0004025C0F6000500BF55F8040B8047A54220
:1027D000FAD3BDE8B040FFF7DBBA2DE9F04100289D
:1027E00054D040F22816C2F2000604463068A042D7
:1027F0004CD840F22418C2F20008D8F80000A042D9
:1028000044D900F035FA4FF4F550214640F2446CBB
:1028100041F80C0DC2F2000CDCF800E044F2305537
:1028200071453CBFCCF800108E4654F8080C326855
:10283000C2F200052F6886188B1B3B442B6011D019
:1028400073887BB9D8F800309E420BD0B64504BFE0
:10285000CCF800108E4670688D1A44F8080C736826
:1028600013449D6054F8046C95198D420AD06B880E
:1028700043B98E4508BFCCF80050686054F8080C86
:1028800010448660BDE8F04100F0CCB9BDE8F081AD
:10289000FEE700002DE9F04381B0002842D040F26D
:1028A0004C6440F2E8610330C2F20004C2F200015D
:1028B00020F003062078CA1C01F5705122F00302B3
:1028C00021F00301891A0028A1F1180918BF484610
:1028D000864227D80C2E98BF0C2600F0C9F940F28A
:1028E000446E40F22810C2F2000EC2F20000DEF880
:1028F000008002682078A8EB0203002808BF814608
:10290000A9EB06018B420BD2D4186788606827B9FF
:1029100003F10C07C51BB54208D288420346F3D326
:1029200000F080F9002001B0BDE8F08306F1180145
:1029300040F2486C8D42C2F2000C10D2012161803D
:1029400044F23051C2F20001C01A0B68DCF80050AA
:1029500018448542086022D2CCF800001FE006F13E
:102960000C013E4495194FF4F5579751C5E9010301
:1029700066600123686809F10C05638044F23053F6
:10298000A8421CBF10448660C2F200031868DCF83D
:10299000005008448542186038BFCCF800004FF45E
:1029A000F5504445208014D1B8F8020088B140F2B7
:1029B0002410C2F20000006880450AD0D8F8041044
:1029C00002EB0108B8F8021009B18045F6D1CEF843
:1029D000008000F027F904F10C00A4E7B0B5042A48
:1029E000054618D315F0030015D1C8B24FF00133D6
:1029F000102A00FB03F310D32C4600BF04F1100093
:102A0000103AC4E90033C4E902330F2A0446F5D86A
:102A1000032A03D807E0284605E02846043A032A9B
:102A200040F8043BFAD822B1CBB211461A46FDF762
:102A3000E2FE2846B0BD10B5044600202072FDF726
:102A40002BFC2246216952F80C3F59602169226112
:102A50000B601260FDF724FC2046BDE81040FFF734
:102A6000BCBE00002DE9F0410E4640F204011546BF
:102A700004460020C2F200010A5CB24205D01030C8
:102A80004028F9D14FF0000801E001EB0008FDF704
:102A900003FC44F2F427C2F200073988013139807F
:102AA000FDF7FEFBFDF7F8FB398801390AB2002A71
:102AB000398002DDFDF7F4FB0BE000213980FDF7E2
:102AC000EFFB40F2E460C2F20000006808B100F0E1
:102AD00023F846F080002072002000BF295C2154BA
:102AE00019B101300828F9D107E0072805D0C0F155
:102AF000070120440130FDF786FEFDF7CDFB58F8B5
:102B0000041F44F80C1F4C60C8F80040C4F804804F
:102B1000BDE8F041FDF7C4BB10B5FDF7BDFB44F2C5
:102B2000F421C2F200010988044621B12046BDE823
:102B30001040FDF7B5BB44F20040C2F2000000684F
:102B4000FEF7F1FF44F20031C2F2000101EBC000D8
:102B500040F2E46250F8081CC2F200021068A1F1D1
:102B600014038342E2D0136044F2EC22C2F200026A
:102B700012781C3001F1080112B1FDF794FBD5E782
:102B8000FDF791FBD2E710B50446FDF785FB94F8FD
:102B9000341094F8352001F0F001013184F834103C
:102BA00044F20031C2F2000101EBC2014A6844F272
:102BB000004C04F11403C2F2000C1360A2614B60DC
:102BC000A26BDCF80030616143EA0201CCF800102E
:102BD000BDE81040FDF764BBB0B50546FDF75CFBF2
:102BE000294651F8142F4B6853604B6849601A60AE
:102BF00091F8212044F200330960C2F2000353F837
:102C0000324003EBC202944208D144F20042C2F2C5
:102C10000002A96B136823EA01011160BDE8B0400E
:102C2000FDF73EBB10B5FDF737FB40F22C11C2F2A9
:102C300000010B4653F8142F04469A420AD0A2F121
:102C4000140000F0F8F82046FDF72AFBBDE810401C
:102C5000FFF762BF888B4FF6FF7290420FBF20468E
:102C6000421C20468A83BDE81040FDF719BB0000D6
:102C70002DE9F041FDF710FB40F22C17C2F20007DE
:102C8000B98B044631B101392046B983BDE8F04122
:102C9000FDF706BB40F2E460C2F2000005687E7AF0
:102CA00095F83400002100F00F000128296313D1AA
:102CB000FDF7F2FA80462846FFF78EFF95F83400BC
:102CC00000F0F000023085F8340005F1440000F017
:102CD00000F94046FDF7E4FAAEB1012E24D107F128
:102CE000140001460968814217D095F8352091F803
:102CF00021309A42F6D2486805F114020260A861B8
:102D00004A60696110E0B96905F1140007F1140225
:102D10000860A961B8616A6106E0B96905F1140249
:102D20000A60A961BA6168612046FDF7B9FABDE899
:102D3000F041FFF7F1BEF0B581B040F2E460C2F2BD
:102D400000000568FDF7A8FA0446FDF7A5FA296F0B
:102D5000064609B1284688473046FDF7A1FA2846BD
:102D6000FFF73AFF042085F83400FDF795FA2A466C
:102D7000E96D52F8583F5960E96DEA650B6095F8C6
:102D80004D10126001F0FE0185F84D10FDF788FA34
:102D9000002685F84C60FDF77FFA2F4657F8501F44
:102DA0007A684A607A681160C7E90077FDF778FAB7
:102DB00017F9480CB0F1FF3F0ADD44F2F820C2F2E7
:102DC0000000016845F8141F4D60056068600CE064
:102DD0002E72FDF761FA55F80C1F6A684A606A683E
:102DE0001160C5E90055FDF75BFAFFF795FE204637
:102DF00001B0BDE8F040FDF753BA000044F2F826F8
:102E0000C2F20006FDF748FA31680446B1420ED01E
:102E1000D1E90020A1F1140550604B6848691A609F
:102E2000C1E90011FFF7D9FC2846FFF704FE204650
:102E3000FDF736FAE6E7B0B5044690F8340000F046
:102E40000F00022818BFB0BDFDF726FA2246A1697F
:102E500052F8143F05465960A16904F144000B6023
:102E6000A261126000F035F82846FDF719FA2046F5
:102E7000BDE8B040FFF787BE80B590F8361001225C
:102E800080F8351002FA01F18163022180F83410D4
:102E9000FFF7D1FF40F2E460C2F20000006818B111
:102EA000BDE88040FFF738BE80BD80B5024681692D
:102EB00052F8143F6FF0010C59608169C0F830C0BE
:102EC0000B6082611260FFF75EFEBDE88040FFF795
:102ED00023BE10B50446407AC00708BF10BDFDF7F9
:102EE000DBF954F8141F62684A606268646011601C
:102EF00014F80B1C246001F0FE0104F80B1CBDE863
:102F00001040FDF7CDB90020704700207047002029
:102F10007047002070470000B0B5104804681049A1
:102F20002046B0FBF1F0304908607D20C10020460A
:102F3000B0FBF1F029490860EFF3108472B6FEF798
:102F4000DBFE084D69602860FEF7D6FE69682968D7
:102F5000401A0549086084F31088B0BD00000020C5
:102F600040420F00180100202001002070B51848D1
:102F7000006818494A68441C086800230019086062
:102F800053414B60144D2868001928602868134E7F
:102F9000316890FBF1F0316841432A68511A296089
:102FA0000F490A68101808600E4D2868001928603B
:102FB00028680D4C216890FBF1F0216841432A6894
:102FC000511A296009490A681018086070BDC04686
:102FD00014E000E0184500202045002044000020B7
:102FE000244500202C4500204800002028450020D2
:102FF000F1EE100A4FF6FF71C0F2C03120EA010075
:1030000040F04070E1EE100A704700000802003105
:10301000000000001C300008000000003917000804
:1030200000000000A0860100400D0300801A060089
:1030300000350C0040420F0080841E0000093D0056
:1030400000127A000024F40000366E010048E80106
:10305000006CDC020000010002000100030001001E
:103060000200010004000100020001000300010051
:103070000200010005000100020001000300010040
:103080000200010004000100020001000300010031
:10309000020001000600010002000100030001001F
:1030A0000200010004000100020001000300010011
:1030B0000200010005000100020001000300010000
:1030C00002000100040001000200010003000100F1
:1030D00002000100070001000200010003000100DE
:1030E00002000100040001000200010003000100D1
:1030F00002000100050001000200010003000100C0
:1031000002000100040001000200010003000100B0
:10311000020001000600010002000100030001009E
:103120000200010004000100020001000300010090
:10313000020001000500010002000100030001007F
:103140000200010004000100020001000300010070
:103150000200010000000000000000000102030462
:1031600006070809433A2F55736572732F323430BE
:1031700037332F417070446174612F4C6F63616C01
:103180002F41726D2F5061636B732F41524D2F4150
:10319000726D2D32442F312E312E332F4C696272D5
:1031A0006172792F536F757263652F5F5F61726D06
:1031B0005F32645F636F6C6F75725F66696C6C69B8
:1031C0006E675F776974685F616C7068612E630019
:1031D000433A2F55736572732F32343037332F4192
:1031E0007070446174612F4C6F63616C2F41726D1C
:1031F0002F5061636B732F41524D2F41726D2D32F1
:10320000442F312E312E332F4C6962726172792F27
:10321000496E636C7564655C2E2E2F536F757263F7
:10322000652F5F5F61726D5F32645F636F72652EE1
:1032300063006D61696E0000132F00080B2F0008FA
:10324000072F00080F2F0008703200080000002030
:1032500050000000E8010008C032000850000020C3
:10326000F04A0000040200088DE8FFFF00000000A3
:1032700000093D00010000000800002008000020B7
:103280007800000002000000180000201800002054
:103290002000000005000000280000202800002079
:1032A000300000000A000000380000203800002034
:1032B0002C000000010000000100000000000000E0
:04000005080001AD41
:00000001FF
