:020000040800F2
:10000000F04E002091020008C9120008B303000856
:10001000C5120008290B0008D51B000800000000CD
:10002000000000000000000000000000AF15000804
:100030002B0B000800000000FF020008110400085C
:10004000AB020008AB020008AB020008AB020008DC
:10005000AB020008AB020008AB020008AB020008CC
:10006000AB020008AB020008AB020008AB020008BC
:10007000AB020008AB020008AB020008AB020008AC
:10008000AB020008AB020008AB020008AB0200089C
:10009000AB020008AB020008AB020008610B0008CD
:1000A000AB020008AB020008AB020008AB0200087C
:1000B000AB020008AB020008AB020008AB0200086C
:1000C000AB020008AB020008AB020008AB0200085C
:1000D000AB020008AB020008AB020008AB0200084C
:1000E0002D0B0008AB020008AB020008AB020008B1
:1000F000AB020008AB020008AB020008AB0200082C
:10010000AB020008AB020008AB020008AB0200081B
:10011000AB020008AB020008AB020008AB0200080B
:10012000AB020008AB020008AB020008AB020008FB
:10013000AB020008AB020008AB020008AB020008EB
:10014000AB020008AB020008AB020008AB020008DB
:10015000AB020008AB020008AB020008AB020008CB
:10016000AB020008AB020008AB020008AB020008BB
:10017000AB020008AB020008AB0200080000000060
:10018000AB020008AB020008AB020008AB0200089B
:10019000AB020008AB020008AB020008AB0200088B
:1001A000AB020008AB020008AB02000800F002F846
:1001B00000F044F80AA090E8000C82448344AAF1BD
:1001C0000107DA4501D100F039F8AFF2090EBAE8BB
:1001D0000F0013F0010F18BFFB1A43F0010318477B
:1001E000F434000014350000103A24BF78C878C1F8
:1001F000FAD8520724BF30C830C144BF04680C602D
:10020000704700000023002400250026103A28BF74
:1002100078C1FBD8520728BF30C148BF0B60704778
:100220001FB503F02DF99DE8030000F00DFA00F072
:100230006AF900F0DBF91FBD10B510BD00F089FAB6
:100240001146FFF7EDFF00F03BFB00F0A7FA03B407
:10025000FFF7F2FF03BC00F049FA00000B49D1F8A8
:1002600000C04A685CF8043B1068184442F8040B6C
:100270008C4528BFA1F1DC0C8A4228BFA1F1DC0229
:10028000C1F800C04A6020F0004070472C010020F7
:100290000948804709480047FEE7FEE7FEE7FEE71A
:1002A000FEE7FEE7FEE7FEE7FEE7FEE70448054956
:1002B000054A064B70470000911B0008AD0100087D
:1002C000F0480020F04E0020F04A0020F04A0020C4
:1002D000EFF3108072B6704780F310887047434A7E
:1002E0001368012B04D04FF001031360404A1060E3
:1002F000404A116040484FF0805101607047EFF371
:10030000108272B63948016851B34FF000010160A4
:100310003748016891B1EFF309811EF0100F08BF53
:1003200021ED108B21E9F00F4FF000041EF0100FAB
:1003300008BF012441F8044D006801602D49096897
:10034000096808C9B1E8F00F002B18BF00F05AB8CF
:1003500081F309884EF0100E002B18BF2EF0100EFE
:1003600082F310884EF0040E704722490860EFF3C4
:10037000148222F0040282F314881D494FF0000019
:1003800008601A494FF0010008601C484FF47F01D3
:10039000D0F8002041EA0201016017484FF0805177
:1003A000016017480068006880F3088861B662B68B
:1003B00070471EF0040F0CBFEFF30880EFF30980C5
:1003C00020E9F00F40F804ED40F804ED1EF0040FB2
:1003D0000CBF80F3088880F3098800B502F0ECFBBD
:1003E0005DF804EB4EF0040E70470000E847002073
:1003F000CC450020D445002004ED00E020ED00E0D5
:1004000008ED00E0B1EC088BB1EC08CBFFF7A0BF22
:1004100030B410B50348804730BCAE4630BC02480B
:1004200000470000FD3300080118000800BF7047B6
:1004300070B5064600F0ECF8056806F10B0020F0F8
:100440000704B4429CBF002070BD2B466A68BAB155
:100450001068A04210D304F1080188423CBF5068E4
:10046000586007D35168101941601168091B016079
:1004700058601460101D70BD13465268002AE7D101
:100480002146284600F0CCF80028DED170BD70B5BA
:100490000446051F00F0BCF80068002C14BF446837
:1004A00070BD002C18BFAC423CBF20466468F8D336
:1004B00001680A18AA4218BF456003D12A68054698
:1004C0001144016028684119A1421CBF6C6070BDD5
:1004D0006168696021680844286070BD0B4910B5E7
:1004E000A1F17C020A4CC2E93712372106E000EB89
:1004F000104342F82130074B00FB03400B1EA1F1D3
:100500000101F4DC10BD0120E8E70000CC00002070
:10051000E119D666CD0D01000EB5054614460E460E
:1005200013A000F0D2F8284600F0CFF816A000F093
:10053000CCF8304600F0C9F815A000F0C6F800214C
:100540008DF80B100A210DF10A008DF80A1008E051
:1005500094FBF1F201FB124294FBF1F4303200F80B
:10056000012D002CF4DC00F0B0F800F0A3F800003E
:100570002A2A2A20617373657274696F6E2066611E
:10058000696C65643A2000002C2066696C65200067
:100590002C206C696E6520004FF0000200B51346F8
:1005A00094469646203922BFA0E80C50A0E80C5093
:1005B000B1F12001BFF4F7AF090728BFA0E80C5044
:1005C00048BF0CC05DF804EB890028BF40F8042B3D
:1005D00008BF704748BF20F8022B11F0804F18BFAA
:1005E00000F8012B704770477047704770B5064C94
:1005F0007C44064D7D4404E0204601680844804761
:10060000241DAC42F8D170BD003100000031000063
:10061000004870473C0100207047704770477047A2
:1006200038B504460A4600206946AFF3008000282A
:1006300008BF38BD02460099204600F061F801204D
:1006400038BD012000F07DB8F8B5AFF30080054655
:1006500000200C46102000BF0646A819A0420DD964
:10066000324669460020AFF30080070008BF00F063
:1006700068F80098A04218BF0546C419FFF7C8FFE4
:1006800005600746F01D20F007004619284600F0D7
:100690000AF8B44208BFF8BDA21B31463868BDE86D
:1006A000F84000F02DB800210160C0E9011070474A
:1006B0001020704710B5002000F03CF8FFF7BCFD9B
:1006C000BDE81040012000F011B810B5044602E06A
:1006D000641C00F004F820780028F9D110BD08B59A
:1006E00069468DF800000320ABBE08BD0149182003
:1006F000ABBEFEE726000200004870473401002030
:10070000034640688C46002818BF88423CBF034619
:100710004068F8D318681844884207D00CF10300E9
:1007200020F00700001D411A521A0146081D0A60F8
:10073000FFF7ADBE10B500F03FF8BDE8104000F087
:1007400036B810B500F050F8BDE8104000F02FB8F2
:1007500070477546FFF7D0FFAE4605006946534621
:1007600020F00700854618B020B5FFF79FFDBDE8D3
:1007700020404FF000064FF000074FF000084FF008
:10078000000BAC46ACE8C009ACE8C009ACE8C00955
:10079000ACE8C00921F007018D46704710B504464A
:1007A000AFF300802046BDE81040FFF750BD0028A1
:1007B00001D0FFF79BBF704710B5002102A000F0E9
:1007C0003BF8012010BD0000534947414252543AC2
:1007D0002041626E6F726D616C207465726D696E1E
:1007E0006174696F6E00000010B5012805D000210A
:1007F00003A000F021F8012010BD09A1F8E70000D6
:1008000053494752544D454D3A204F7574206F66F9
:100810002068656170206D656D6F72790000000061
:100820003A2048656170206D656D6F727920636F45
:10083000727275707465640070B505460C460A20C6
:1008400000E06D1CFFF74BFF35B128780028F8D188
:1008500002E0641CFFF743FF14B120780028F8D1B0
:10086000BDE870400A20FFF73ABF02F0FF0343EAF9
:10087000032242EA024200F002B84FF000020429CB
:10088000C0F0128010F0030C3FF488AECCF1040CE1
:10089000BCF1020F18BF00F8012BA8BF20F8022BF3
:1008A000A1EB0C01FFF77ABE5FEAC17C24BF00F820
:1008B000012B00F8012B48BF00F8012B7047000006
:1008C0002DE9F04182B041F20004C4F20204FFF7C6
:1008D000FFFC00F098FB01F045F82068000703D406
:1008E000D4F89400000A01E02068000943F2B44102
:1008F000A26800F00F00C0F6000151F82000C2F31A
:100900008101DFE801F02F02070C42F20040C0F243
:10091000F40027E041F20020C0F27A0022E0E16812
:10092000E36801F00302C3F30211022A01F101019D
:1009300006D0032A04BF41F20020C0F27A0003E08F
:1009400042F20040C0F2F400E268B0FBF1F0C2F302
:100950000621E2684843C2F34161022202EB4101F1
:10096000B0FBF1F040F20001C2F200010860A268A1
:1009700043F2E453C2F30312C0F600039A5C43F25D
:10098000CC64D04043F2C862C0F60004C0F6000256
:10099000A242086009D243F2C865C0F6000500BF54
:1009A00055F8040B8047A542FAD340F6CC10C2F2AA
:1009B0000000C11C00F5705020F0030421F0030575
:1009C000A4F11801A9424FF0000138BF0121192CF0
:1009D0004FF0000238BF012211434FF0000632D120
:1009E00040F63011C2F2000101270F7040F20C41B5
:1009F000C2F20001621B41F6A0630D604FF4F55195
:100A00000C3AC0F20103204685E8460040F2084156
:100A100040F80C3D44E9022240F21044C2F20001C9
:100A2000C2F2000408603AA22046022102F0FEF958
:100A300004F11400C4E9050040F62810C2F20000D9
:100A4000A7836672056044F2F070C2F20000C0E94C
:100A5000000044F2D85044F2E455C2F20000C2F261
:100A600000050680A819A8510836B6F5807F4060B9
:100A7000F8D140F6C81844F2E467C2F2000800203A
:100A8000C2F20007C8F80000386044F2DC50C2F23D
:100A9000000042F6C121C0E9000014241EA0C0F6E7
:100AA00000014FF480720A23009402F00AFB02F066
:100AB000CBFB40F23044C2F2000419A220460121CF
:100AC00002F0B4F91F2043F2CD1144F2E86220266F
:100AD0000090C0F60001C2F2000220464FF480737D
:100AE000019601F08BFA204602F0AEFB386801F067
:100AF0006AFA05EBC00050F8080CA0F114010830A8
:100B0000C8F80010FFF731FC002002B0BDE8F0810A
:100B100068656170000000006D61696E0000000092
:100B20007469646C65000000FEE7704740F2144091
:100B3000C4F201000168490540F20441C2F200011B
:100B400004D54FF48062026001220A7002689204A8
:100B500058BF70474FF4005202600420087070477D
:100B600040F21440C4F201000168890540F20441DA
:100B7000C2F2000104D54FF40072026002220A7032
:100B80000268D20558BF70474FF48072026003209C
:100B9000087070472DE9F04FB9B001F039FB10B182
:100BA00039B000F03DB91020FFF742FC82464FF407
:100BB0001070FFF73DFC0AF1040103914FF018118A
:100BC0000DF15C0BCAE902100BF10C0040F2EC34A1
:100BD00040F634190190C2F20004C2F200094FF04D
:100BE00000080AF101000290206802F025FA0028AE
:100BF000FAD1002540F25C21C2F2000101EB850030
:100C0000807831F82510B9F82A30EFF3108272B6E7
:100C1000DB0625D4032389F82930A9F82A80B9F8FE
:100C20002A3043F01003A9F82A3082F3108843F2E7
:100C30009C42C0F60002A9F840100299C9F824208D
:100C4000039AC9F838A0C9F83C2089F8440051B18A
:100C5000CDE90E88CDE90C88CDE90A8850460CE034
:100C600082F3108889E0D9F81C00CDE90E88C9F814
:100C70003800CDE90C88CDE90A88DAF80840DAF8BE
:100C80000470594610AA0023CDE9087401F0B0F8A9
:100C9000002861D01099D9F83800179159460CAA4C
:100CA000012301F04BFA002800F0A680BDF84010A7
:100CB0000646380CBDF8422040EA0440791AADF8E7
:100CC0002010801AB168ADF822000AA808AC0B9178
:100CD0002146024601F0EDF900283DD0304621467C
:100CE00004AA0123CDE90688CDE9048801F026FA9B
:100CF00090B3D9F82400017801F00E02052A65D3DB
:100D0000C1F342010122407802FA01F11691C309B0
:100D100004A810A916AACDF8008001F0BBF8584627
:100D20008821FFF739FC10AF8ECF019C149E216003
:100D3000159904F1040C8CE88C00D9F82420266164
:100D4000616109F12000916818900968002940D07C
:100D50005846884783463EE04FF0FD0B5FFA8BF024
:100D6000FD3818BF5846202189F8290001EA900073
:100D700040300DF15C0BA9F82A00BAF90400BAF969
:100D800008402218F02A1CDCBAF90610BAF90A70D9
:100D90007B18F02B15DC013A013B80B289B2DAF8FE
:100DA0000C6092B29BB200F0FCF940F218411020A6
:100DB000C4F60001086004FB07F04100304600F073
:100DC0005FFA0135642D7FF415AF07E04FF0FC0B9F
:100DD000C4E74FF0FC0B00F0CBFFBFE740F2EC3470
:100DE00040F2F035C2F20004C2F20005286802F0B9
:100DF000FDF80028FAD1F7E643F2606103A0C0F6DF
:100E0000000140F2A652FFF787FB00BF4E554C4C45
:100E100020213D20707454617267657400000000E9
:100E200030BCBDE8C08F00002DE9F04F84B00A68E7
:100E3000002A00F0E28041F6004500F13847C4F690
:100E4000000508234FEAB726A84208BF0723072E4C
:100E500038BF4FEAB7234FF0010C00254FF0000BCD
:100E600001274FF000080093019100BFA7F101098D
:100E70000CFA09F4224000F0AC80D1F804A00292F0
:100E8000BAF1120F00F2B3800CFA0AF212F0061F48
:100E900000F0AD800322D0F808E002FA05F3CA683A
:100EA0002EEA030EAA4042EA0E0282604268DE4346
:100EB000A2434FEA1A1404FA09F42243AE464260F0
:100EC000C2688C68324004FA0EF422434AF01004DF
:100ED000122CC26017D16FF0030101EA59020244DB
:100EE0000BF01C030F21D2F820A001FA03F40199A2
:100EF0002AEA0404D1F810C001990CFA03F3234341
:100F00001362D1F804A002680AF00303324003FA26
:100F10000EF31A430260029E5FEACA034FF0010C0F
:100F200057D541F26001C4F202010A6840F2004E56
:100F300042F001020A600A68C4F2010E02F00102E6
:100F40000392039A29F003024FF608497244CFF640
:100F5000FF7952F809C00BF00C040F2101FA04F3D9
:100F60002CEA030CDDE9003103FA04F444EA0C0333
:100F700042F80930DEF800C04B684CEA0604DA0398
:100F800058BF2CEA0604CEF80040DEF804C09C03EB
:100F90004CEA060258BF2CEA0602CEF80420DEF81E
:100FA00008C0DC024CEA060258BF2CEA060240F2F6
:100FB0000C4CCEF80820C4F2010CDCF800409B0277
:100FC00044EA060258BF24EA0602CCF800204FF09B
:100FD000010C0A6808F1010832FA07F307F101076A
:100FE0000BF1040B05F102057FF440AF05E003228D
:100FF000AA404FEA480ED64362E704B000F000B8BA
:1010000030BCBDE8C08F80B582B04EF60C50CEF239
:10101000000001684FF6FF02114040F20032C0F2BA
:10102000FA52114301600F2000F019F8A8B941F2FB
:101030005800C4F20200816841F0010181608168BA
:1010400001F0010101910199016841F080510160B5
:10105000006800F080500090009802B080BD40F21F
:101060000001C2F20001096844F6D352C1F26202E3
:10107000A1FB02124FF0FF3101EB92130022B2EB01
:10108000136F1CBF012070474EF210014EF60C5C2E
:10109000CEF20001CEF2000C4B60F0238CF817303A
:1010A0008A6007220F284FF001000A6088BF70474E
:1010B000DCF800100023C1F3022181F00702042AAA
:1010C00028BF0422033938BF19464FF0FF3303FA13
:1010D00002F2D24302FA01F109018CF8171044F62A
:1010E000EC01C2F2000108700020704741F20001DB
:1010F000C4F20201886810F00C02C86805D00C2AFE
:1011000027D100F00300012823D10868000703D489
:10111000D1F89400000A01E00868000943F2B443E2
:1011200000F00F00C0F6000353F82030002A1846E4
:1011300018BF00200C2A18BF7047C86800F00300D1
:1011400002280FD0032804BF41F20023C0F27A0323
:101150000CE0042A1DD0082A20D141F20020C0F260
:101160007A00704742F20043C0F2F403C868CA68CC
:10117000C0F30210C2F30622C96801305A43B2FB21
:10118000F0F0C1F34161022202EB4101B0FBF1F04A
:10119000704742F20040C0F2F40070470020002384
:1011A000C8E72DE9F04383B007462A2040F21844EF
:1011B00089468DF80100C4F6000410250DF10100E8
:1011C000012198461646256100F05AF8380A8DF834
:1011D00002000DF102000121256000F051F80DF12F
:1011E000030001218DF80370256000F049F8300AF2
:1011F0008DF8040001A80121256000F041F80DF1EF
:10120000050001218DF80560256000F039F82B20DC
:101210008DF806000DF106000121256100F030F87F
:101220004FEA19208DF807000DF107000121256014
:1012300000F026F802A801218DF80890256000F042
:101240001FF84FEA18208DF809000DF1090001215F
:10125000256000F015F80DF10A0001218DF80A80D3
:10126000256000F00DF82C208DF80B000DF10B001F
:101270000121256100F004F803B0BDE8F08300000F
:101280002DE9F04148F20102C8F20002A1FB02235D
:10129000DE0B04463004A0EBD33001EBD338251825
:1012A0004FF6FF773EB120464FF6FF7100F00EF883
:1012B0003C44013EF6E71FFA88F12846BDE8F041BC
:1012C00000F004B8FEE70000FEE700002DE9F04161
:1012D00082B040F29415C2F2000595F85C20012A14
:1012E00000F0FD804FF0010844F6E80785F85C80C7
:1012F000C2F200073C6895F85D20012A40F0EA80C0
:10130000002800F0E780002900F0E4800322002399
:1013100085F85D202B66A863A987E9872B64A5F86B
:101320004430A5F84630AA68EB64B2F5004F2A684D
:101330002B6507D1136823F040031360136843F44F
:101340008043136013685B0603D4136843F04003C3
:1013500013606B680139EE68B3FA83F3B1FA81F177
:101360005B094909B6F5E06F41EA030113D931B1D0
:1013700030F8021BD160A863E98F0139E987E98F52
:10138000002941D091688907F2D43968091BC9083E
:101390007C29F4D99EE000294FF6FE7111D0EB8F25
:1013A000022B05D330F8023BD3604FF6FE7304E006
:1013B00000784B1C1073A86B0130A863EE8F334488
:1013C000EB87EB8F03B3013193689B0706D43B682F
:1013D0001B1BDB087C2B14D97CE000BFEB8F022B9E
:1013E00006D330F8023BD3604FF6FE7305E000BF32
:1013F00000780B461073A86B0130A863EE8F33445E
:10140000EB87EB8F002BDFD14FF4C050214600F06B
:1014100069F800284DD140F200023868C2F200029B
:1014200039681368201A00F57A72C3F3CB30504341
:101430000190286883681B060FD500BF3B685B1AC4
:10144000934211D2019B019E002BA6F10106019649
:10145000866808BF1A463306F0D44FF4C0602146B0
:1014600000F040F828BB2AE0416821F0E00141602B
:101470006968B1F5827F0AD1A968B1F5004F02D041
:10148000B1F5806F03D1016821F040010160A96AC4
:10149000B1F5005F07D1016821F4005101600168D6
:1014A00041F400510160012085F85D00002085F8BD
:1014B0005C00286E40F02000286620202866A8687E
:1014C00038B9002000902868C168009180680090B9
:1014D0000098286E002085F85D8085F85C0002B0D9
:1014E000BDE8F081B0B582B044F6E80EC2F2000E5D
:1014F000DEF80020DEF80030891A40F20002C2F265
:101500000002D2F800C023220CFB02F201F57A712E
:10151000120D4A4340F2941C0092C2F2000CDCF817
:1015200000209468044215D0B0F5C06F02D1147B3E
:101530000194019CDEF80040E41A8C420CD2009C1D
:10154000009D002CA5F101050095956808BF214676
:101550000542E9D1002028E0506820F0E00050600A
:10156000DCF80400B0F5827F0BD1DCF80800B0F5A0
:10157000004F02D0B0F5806F03D1106820F040001A
:101580001060DCF82800B0F5005F07D1106820F487
:1015900000501060106840F40050106001208CF87A
:1015A0005D0000208CF85C00032002B0B0BD7047E5
:1015B00040F25C2900204FF6FF78C2F200094FF498
:1015C000807100BF09EB800229F820800130642877
:1015D0005180F7D144F61807C2F2000740F2022109
:1015E000398040F2F8110120C2F20001A7F8C800CA
:1015F000C8724FF08070C9F82C00032087F8CA0029
:1016000000F0C6FD40F2EC35C2F20005286888B152
:1016100040F2F034C2F20004206858B1286801F0AA
:10162000E5FC0028FAD100BF206801F005FD002884
:10163000FAD101E000F0ECFD40F2044140F2F43A4E
:10164000C2F20001C2F2000AB7F8C8C00A78ACF1D1
:10165000010007EB400317F810B05D7882B1013A42
:10166000032A4FF000030B700AD8DFE802F0020CE7
:10167000111797F8CA20022A22D0032213E000BFD4
:1016800097F8CA2011E097F8CA20A2B101220AE017
:1016900097F8CA20032A17D0022204E097F8CA203C
:1016A000012A0BD0002287F8CA20032A0ED8DFE8CF
:1016B00002F00205070B013D08E000BF013505E01F
:1016C000ABF1010B02E000BF0BF1010B9AF8003007
:1016D0005FFA8BF29A4229D19AF80130EEB29E421B
:1016E00024D101208AF8020000F052FDB7F8C800AA
:1016F0000130A7F8C80080B207EB400000F802BC38
:1017000000F8015CB7F8C80007EB400030F8020CA5
:10171000C2B29200010A52FA80F001EB40000B388D
:1017200080B24FF0807149F8201040E0ABF10B031C
:10173000DBB2F62B62D32B0660D0EBB20B2B5DD263
:101740003E88BCF1020FF4B24FEA84044FEA16213E
:1017500054FA86F601EB4601A1F10B0140F2F816AE
:1017600089B2C2F200064FF00004745409EB8106FE
:101770004FF48074748029F8218013D3002000BFB7
:1017800007EB40018E78B24202D1CE78B34233D01B
:101790004988861C27F81010B7F8C81001308E420F
:1017A000EED3481E07EB400107F810B04D70FEF76E
:1017B0008FFD40F6C811C2F200010C6805462046B4
:1017C00001F05BFD04F14406FEF782FDC821A1662D
:1017D000FEF782FD304601F083FD2846FEF77CFDD2
:1017E00001F07EFB206B40F204410230C2F20001A6
:1017F00004BF0020206327E7FEE700BFFEE70000EC
:101800002DE9F04F83B0FEF763FD44F2D058C2F2E9
:10181000000898F80010013188F80010FEF75CFD10
:1018200044F6E800C2F20000016840F6C814013135
:10183000016044F2EC7AC2F20004C2F2000A2068AD
:10184000DAF80010026C0131CAF80010511E016470
:1018500028D1C16B0164FEF73BFD216891F834206B
:1018600002F00F02012A1BD10A4652F8143F5768B2
:10187000BB4215D05F6091F8357044F2E456C2F275
:10188000000606EBC7078E698A617D6833602A60AF
:101890008D617A604F61FEF71FFD01F021FB01E0D1
:1018A000FEF71AFD01AFDAF8004002970197FEF744
:1018B0000FFD44F2F075C2F200052E688146AE427B
:1018C0003BD04FF6FE7BC7F6FF7B00BF7069201A46
:1018D000584532D8D6E900104860726816F80B0CEB
:1018E0001160810736605CBF00F0FE0006F80B0C4B
:1018F000019846603060D6E902100196776088470B
:101900000198DAF80040B84214D0D6E900014160ED
:1019100071687660086016F80B1C366001F00300F1
:10192000032807D1A6F1140001F0FE0106F80B1CF4
:1019300001F0D6FC2E68AE42C8D14846FEF7CCFC7A
:10194000FEF7C6FC98F80010013988F8001003B0C3
:1019500000F002B8FEF7C0BC30BCBDE8C04FFFF7D6
:10196000F9BF000010B547F20000C4F200000168A2
:1019700001F4C061B1F5007F1FD00168012262F35C
:101980004A21016040F20001C2F2000109683223DD
:1019900059434DF68363C4F21B33A1FB031302EBDF
:1019A000934100224469013942F10003640501D5E5
:1019B000002BF7D1406940054ED441F20004C4F237
:1019C0000204A068E16800F00C00082805D00C288B
:1019D00045D101F00301032941D12168E26847F6AE
:1019E000737341F20341CFF66063C1F200011A4004
:1019F0008A4217D1206880015CD4206840F0807052
:101A00002060E06840F08070E06044F6E800C2F2D8
:101A100000000168226892014CD40268521A032A1D
:101A2000F8D32CE00C282AD0206840015CBF206845
:101A30005FEAC00023D4206820F08070206044F664
:101A4000E800C2F20000026823689B0119D5036810
:101A50009B1A022BF8D912E072B600BFFEE721688C
:101A600041F48031216044F6E801C2F200010A68C5
:101A700023689B03B2D40B689B1A642BF8D972B607
:101A8000FEE7E26848F28C03C0F29D131A4011434E
:101A9000E160216841F080712160E16841F080716E
:101AA000E16001682268920104D40268521A022A95
:101AB000F8D9E4E742F2000CC4F2020CDCF80010A2
:101AC00049070CD4DCF80010042262F30201CCF8C0
:101AD0000010DCF8001001F00701042955D121683D
:101AE000890152D5A16841F2883341F00301A16018
:101AF00044F6E801C2F200010A6800BFA06800F0E5
:101B00000C000C2804D00868801A9842F6D93CE0F2
:101B1000A06820F0F000A060DCF8000000F00700F2
:101B200005280CD3DCF80000042161F30200CCF896
:101B30000000DCF8000000F00700042825D1A068B0
:101B400020F4E060A060A06820F46050A060FFF77F
:101B5000CDFAA16843F2E452C1F30311C0F60002CA
:101B6000515C01F01F01C84040F20001C2F20001C7
:101B7000086044F6EC00C2F2000001781020002951
:101B800018BF0F20FFF76BFA08B172B6FEE710BD61
:101B90004EF68850CEF2000001684FF6FF7341F414
:101BA0007001016041F20000C4F202000168CEF64B
:101BB000F62341F0010101600021816002681A40B2
:101BC00002604FF48052C260026822F480220260F8
:101BD00081617047FEE700002DE9F04F89B047684A
:101BE00040F63411C2F20001002F08BF01F12007B6
:101BF00079680978082940F0918097F82420C16815
:101C0000B0F91430FF2A6ED0B0F91E50012D2E46C7
:101C10000295C0F27F803F8CB0F91CA0FE00F0B2AC
:101C20000490F82000EA172EFC2000EAD70BC2F53A
:101C30008077A3EB0A000024FF2507AB0DF1140CFD
:101C4000019000BFBAF1010F039443DB4FF000088D
:101C50000498ADF820E0ADF81C00ADF81EB0ADF86A
:101C600022500C884FF00009E000C0B2ADF814001B
:101C7000F82000EA1420ADF81800FC2000EAD40097
:101C8000ADF81600ADF81A5033F819003CF81940B9
:101C9000504304FB070080B2000A2CF8190009F138
:101CA0000109B9F1030FEFD1BDF81400BDF81640DA
:101CB000BDF81860C0F3C40004F0FC0440EAC4009E
:101CC00006F0F80440EA042008F10108D04521F8A4
:101CD000020BBDD1039C029801348442019801EBB0
:101CE0004001AFD116E0B0F91E20012A12DB3F8C73
:101CF000B0F91C00002600BF012806DB002500BF4C
:101D000021F815700135A842FAD10136964201EB4F
:101D10004301F1D1002009B000F026B843F2F4519C
:101D200002A0C0F60001ED22FEF7F6FB41524D5F26
:101D300032445F434F4C4F55525F52474235363520
:101D4000203D3D204F505F434F52452E70744F70E1
:101D50002D3E496E666F2E436F6C6F75722E6368F1
:101D6000536368656D65000030BCBDE8C08F00003E
:101D700010B540F63414C2F20004606A407800F0F6
:101D80001F00122814DCC21F082A04F1400124D8C5
:101D9000DFE802F005252528052525250500206C0E
:101DA00000F0DFF8A06C00F0DCF804F14C0119E061
:101DB0001A2804DC132813D0172805D00FE01B289D
:101DC00002D01F2818BF10BDA06C00F0CAF8E06D4B
:101DD00000F0C7F804F1600104E0032802D010BD50
:101DE00004F148010868BDE8104000F0BAB80000EE
:101DF0002DE9F04383B004460F46806861681D46B4
:101E00001646786039600BB1002028600EB10020C2
:101E100030602078C10739D14FF000090DF1040876
:101E2000400703D515B1286800B92C60E46864B395
:101E30007EB1B7F90000B7F902104042328820EABB
:101E4000E07049421044728821EAE17130805018F4
:101E50007080A1682078CDF804900291C0071CBF63
:101E600060680190404639463A4600F022F960B178
:101E70002078C0070AD1A088398808443880E088D3
:101E80007988084478802078CAE70024204603B087
:101E9000BDE8F0832DE9F04182B01E4615460C46A0
:101EA00001F11403694600224FF00008FFF7A0FF7C
:101EB000616919B10978022222EA410800284DD04F
:101EC000DDF820C016B10178890702D4D5F800E00A
:101ED00007E0C1780123C1F3420103FA01FEC5F80E
:101EE00000E05FEA0C75BDF800304FF00005BDF86A
:101EF00002208788C1884FF0000658BFDD1B5FEACB
:101F00004C7358BF561ABEF1080F09D3B0F9081028
:101F10002AB211FB0622C6688BB202FB0EF10DE05D
:101F2000B0F90810C7688BB20EFB01F10731C90880
:101F300036B22AB201FB06760EFB02F106EBD101A6
:101F4000C4E90012DDE900122381C4E90312C1785B
:101F5000E27AA17202F0FC014144E17202B0BDE8F4
:101F6000F081A8B180B582B0694600220023FFF756
:101F70003FFF50B101460078000706D58B69CA685B
:101F80000020C8600BB10869984702B0BDE88040E6
:101F90007047000080B5EFF3108072B6012149064A
:101FA000DC4A116080F3108801F0FEF9DA48002164
:101FB00041600160D9480160D948016000F002F831
:101FC00080BDC046704718B1C1B219B101200EE002
:101FD0000020704710F47F4102D0090A092006E072
:101FE00010F47F0107BF010E1920090C112043F2E4
:101FF000E442C0F60002515C084470472DE9F0430A
:1020000081B004461430C4E905000020DDE90898D9
:10201000C4E90810C4E90A23104623211A4600F037
:102020007DFED4E90A12D4E90803114421F0070126
:102030004BF6EF65A1F144026FF04307CDF6AD65B5
:10204000CD510437FCD143F207150027C0F6000537
:102050004FF0807641E9083741E9067741E9047598
:1020600041E9020641F8447CE26104F144000A219E
:10207000224684F8369084F83590C4E90E78C4F886
:102080004080276384F83470C4E91C7700F0CEFEEA
:1020900043F2B92004F15801C0F60000C4E916115A
:1020A00004F1600184F84D7091C1E76601B0BDE8AC
:1020B000F0832DE9F0418388B0F90040B1F804C005
:1020C0002344013B1FB2B1F90030B0F90280B1F9ED
:1020D000025003EB0C06013E9C420FFA86FCC8BF7F
:1020E0002346A845AE46C8BFC6466745B8BFBC46EE
:1020F0009C4511DBC988ADB22944C5881FFA88F414
:10210000013908B26119013909B28142B8BF0846E4
:102110000FFA8EF1884202DA0020BDE8F08152B158
:10212000ACEB0301A0EB0E00013101301380A2F8EB
:1021300002E09180D0800120BDE8F08170B582B0CE
:1021400014460A46054600202146C4E902002060E4
:1021500041F8040F56681268A6600A600090A868EB
:10216000019068462BB10A46FFF7A3FF30B900265D
:102170000BE000220026FFF79CFF30B128682646BE
:10218000206000F0FA002070E560304602B070BDBB
:1021900070B540F2F434C2F20004A078B8B340F253
:1021A000F815CD26C2F2000500F070F8FEF796F99A
:1021B000FEF754F8C1B27143C90A01EB8101A0EBEB
:1021C00041002070FEF74AF8C1B27143C90A01EB21
:1021D0008101A0EB410060702088C2B29200010A28
:1021E00052FA80F001EB40000B3880B2295C0129E3
:1021F000DAD00021A1700121295440F25C214FF670
:102200000002C2F20001C0F2001241F8202070BDAD
:10221000B0B540F2EC34C2F20004206860B915A1F8
:10222000022000F0A9FD30B100F11401C0E9051150
:10223000002181834172206040F2F035C2F2000536
:10224000296871B90EA1022000F096FD014630B157
:1022500001F11400C1E9050000208883487220685C
:102260002960B0FA80F0B1FA81F1400949090843C8
:10227000B0BD00BF656E67696E6552657100000094
:10228000656E67696E6552737000000010B5EFF3FC
:10229000108072B60B490A684B68D21A1D4B1B6836
:1022A0005B0106D50B689B1A102B02DB09685118DD
:1022B0004A1C19494B680C6880F31088D117A01884
:1022C000594110BD14E000E080B5EFF3108172B603
:1022D000002807D10D48002202600D4B4360826048
:1022E00007220260012040060A4A106081F310882C
:1022F00001F05AF808480021416001600748016078
:1023000007480160FFF75EFE80BDC04610E000E0B8
:10231000FFFFFF0004ED00E0004800200C48002013
:10232000104800202DE9F04F8DB040F2004441F2FA
:102330004C0BC4F60004C4F2020BFEF764FEFFF778
:1023400011FB01200125FFF7BFFFDBF8000003AE02
:1023500040F08000CBF80000DBF80000D02700F050
:10236000800008900898DBF80000314640F0020039
:10237000CBF80000DBF8000000F00200089008989D
:10238000DBF8000040F00800CBF80000DBF80000AC
:1023900000F0080008900898022006902046CDE939
:1023A00003750595FEF740FD802504F50060314674
:1023B000A76203950290FEF737FD40F62840C4F669
:1023C000000005600560A562402044F6E805A062B3
:1023D000C2F20005286800BF2968091A7929FBD3D1
:1023E00043F60040402140F29416C4F20000A1617F
:1023F000C2F200064FF4827200274FF400714FF4CE
:10240000E06386E8850006F10C02C6E9061707219D
:102410004FF002084FF0010C82E80811C6E9087776
:10242000C6E90A7196F85D1051B186F85D800168C1
:102430004FF4E06E21F0400101604FF4805C3BE01E
:1024400086F85C70DBF8000008A940F00200CBF8C9
:102450000000DBF8000000F0020008900898DBF8AC
:102460000C0040F40040CBF80C00DBF80C0000F44A
:10247000004008900898282081E8011103200B9063
:1024800006200C9008A92046FEF7CEFC3068D6F84E
:102490000CE086F85D800268BEF5E06F22F0400235
:1024A000026098BF01274EF400624FEA073CB2F584
:1024B000706F1CBF0023B362D6E90137D6E904214F
:1024C00003F4827307F404473B4402F002021A4407
:1024D000B36901F00101F769114403F4007211447A
:1024E00007F03802376A114407F08002B76A1144D6
:1024F00007F40052114301600421726A0EF4706700
:1025000001EA1341736B47EA0C0702F010023943EA
:1025100003F0080311431943416000213166012192
:1025200086F85D10016841F040010160286800BF35
:102530002968091A7929FBD311208DF82000102071
:10254000A06208A80121FEF79BFE28682968091AE5
:102550007929FBD336208DF82000102508A8012109
:10256000A5624FF0010AFEF78BFE002608A80121A4
:102570008DF82060A561FEF783FE3A208DF82000DB
:1025800008A80121A562FEF77BFE65208DF82000DA
:1025900008A80121A561FEF773FEB2208DF8200086
:1025A00008A80121A562FEF76BFE0C2708A80121EF
:1025B0008DF82070A561FEF763FE08A801218DF853
:1025C0002070A561FEF75CFE08A801218DF820604F
:1025D000A561FEF755FE332708A801218DF820706C
:1025E000A561FEF74DFE08A801218DF82070A561B8
:1025F000FEF746FEB7208DF8200008A80121A5624D
:10260000FEF73EFE72208DF8200008A80121A5618A
:10261000FEF736FEBB208DF8200008A80121A56238
:10262000FEF72EFE3D208DF8200008A80121A561AF
:10263000FEF726FEC0208DF8200008A80121A56223
:10264000FEF71EFE2C208DF8200008A80121A561B0
:10265000FEF716FEC2208DF8200008A80121A56211
:10266000FEF70EFE08A801218DF820A0A561FEF757
:1026700007FEC3208DF8200008A80121A562FEF7FF
:10268000FFFD19208DF8200008A80121A561FEF7A3
:10269000F7FDC4208DF8200008A80121A562FEF7EF
:1026A000EFFD20208DF8200008A80121A561FEF78C
:1026B000E7FDC6208DF8200008A80121A562FEF7DD
:1026C000DFFD0F208DF8200008A80121A561FEF78D
:1026D000D7FD4FF0D00A08A801218DF820A0A562EF
:1026E000FEF7CEFDA4208DF8200008A80121A561E9
:1026F000FEF7C6FDA1208DF8200008A80121A561E4
:10270000FEF7BEFDE0208DF8200008A80121A5629B
:10271000FEF7B6FD08A801218DF820A0A561FEF7FF
:10272000AFFD04208DF8200008A80121A561FEF767
:10273000A7FD0D2708A801218DF82070A561FEF7DF
:102740009FFD11208DF8200008A80121A561FEF74A
:1027500097FD13208DF8200008A80121A561FEF740
:102760008FFD2B208DF8200008A80121A561FEF720
:1027700087FD3F208DF8200008A80121A561FEF704
:102780007FFD54208DF8200008A80121A561FEF7E7
:1027900077FD4C208DF8200008A80121A561FEF7E7
:1027A0006FFD18208DF8200008A80121A561FEF713
:1027B00067FD08A801218DF82070A561FEF760FD76
:1027C0000B208DF8200008A80121A561FEF758FD17
:1027D0004FF01F0808A801218DF82080A561FEF7A1
:1027E0004FFD4FF0230908A801218DF82090A56125
:1027F000FEF746FDE1208DF8200008A80121A56222
:10280000FEF73EFD08A801218DF820A0A561FEF786
:1028100037FD04208DF8200008A80121A561FEF7EE
:102820002FFD0C208DF8200008A80121A561FEF7DE
:1028300027FD11208DF8200008A80121A561FEF7D1
:102840001FFD13208DF8200008A80121A561FEF7C7
:1028500017FD2C208DF8200008A80121A561FEF7A6
:102860000FFD3F208DF8200008A80121A561FEF78B
:1028700007FD44208DF8200008A80121A561FEF77E
:10288000FFFC51208DF8200008A80121A561FEF76A
:10289000F7FC2F208DF8200008A80121A561FEF784
:1028A000EFFC08A801218DF82080A561FEF7E8FC67
:1028B00008A801218DF82080A561FEF7E1FC202009
:1028C0008DF8200008A80121A561FEF7D9FC08A811
:1028D00001218DF82090A561FEF7D2FC21208DF812
:1028E000200008A80121A562FEF7CAFC29208DF866
:1028F000200008A80121A562FEF7C2FC00200021EB
:10290000EF22EF23FEF74DFC00200021EF22EF2302
:10291000FEF747FC40F2A840C2F200004FF6FF71FC
:1029200020F816100136B6F5107FF9D140F2A8460E
:1029300010200025C2F20006A06100BF30464FF40F
:102940009061FEF79DFC632D05F10105F6D3802013
:10295000A061DBF800000DF1200840F00800CBF882
:102960000000DBF80000002500F00800089008983F
:10297000DBF80000414640F00800CBF80000DBF82F
:10298000000000F0080008900898DBF8000040F014
:102990000800CBF80000DBF8000000F00800089009
:1029A0000898DBF8000040F00400CBF80000DBF8EA
:1029B000000000F00400089008980020C1F2110007
:1029C000DDF808A009904FF48060089050460A9501
:1029D000FEF72AFA4EF60C59CEF200094EF2174BCA
:1029E000D9F80000CEF2000B4EF200178BF8115010
:1029F000CEF200074FF4807078604FF400700890BA
:102A000050464146FEF710FAD9F800008BF8005006
:102A10004FF400063E604FF48070089050464146E7
:102A2000FEF702FAD9F800008BF800503E604FF430
:102A30000050089004F580604146FEF7F5F9D9F89A
:102A400000008BF811504FF48070786040F634101D
:102A5000EFF3108472B6C2F200009421FDF79CFDE2
:102A600040F6953184F3108805240FA0C0F60001CC
:102A70004FF400721923009400F023FB08B100F01A
:102A8000E3FB41F2B1510AA0C0F600014FF400721D
:102A90001723009400F015FB08B100F0D5FB0020CF
:102AA0000DB000F009B800BF656E67696E65000083
:102AB00067616D650000000030BCBDE8C08F00009C
:102AC000B0B543F2D06443F2CC60C0F60004C0F667
:102AD0000000A04209D243F2CC65C0F6000500BF59
:102AE00055F8040B8047A542FAD3BDE8B040FFF784
:102AF00019BC2DE9F04100285CD040F20C46C2F22E
:102B0000000604463068A04254D840F20848C2F299
:102B10000008D8F80000A0424CD940F21040C2F2A0
:102B2000000000F089FA4FF4F550214640F6281CC9
:102B300041F80C0DC2F2000CDCF800E044F6E405AC
:102B400071453CBFCCF800108E4654F8080C326832
:102B5000C2F200052F6886188B1B3B442B6011D0F6
:102B600073887BB9D8F800309E420BD0B64504BFBD
:102B7000CCF800108E4670688D1A44F8080C736803
:102B800013449D6054F8046C95198D420AD06B88EB
:102B900043B98E4508BFCCF80050686054F8080C63
:102BA0001044866040F21040C2F20000BDE8F041DF
:102BB00000F01CBABDE8F081FEE700002DE9F0430B
:102BC00081B000284AD040F6301440F6CC110330D2
:102BD000C2F20004C2F2000120F003062078CA1CF1
:102BE00001F5705122F0030221F00301891A002837
:102BF000A1F1180918BF484686422FD840F210406C
:102C0000C2F200000C2E98BF0C2600F015FA40F618
:102C1000281E40F20C40C2F2000EC2F20000DEF8A4
:102C2000008002682078A8EB0203002808BF8146D4
:102C3000A9EB06018B420BD2D4186788606827B9CC
:102C400003F10C07C51BB5420CD288420346F3D3EF
:102C500040F21040C2F2000000F0C8F9002001B0BC
:102C6000BDE8F08306F1180140F62C1C8D42C2F23B
:102C7000000C10D20121618044F6E401C2F200018F
:102C8000C01A0B68DCF8005018448542086022D254
:102C9000CCF800001FE006F10C013E4495194FF4FA
:102CA000F5579751C5E9010366600123686809F18A
:102CB0000C05638044F6E403A8421CBF1044866000
:102CC000C2F200031868DCF800500844854218601E
:102CD00038BFCCF800004FF4F5504445208014D1A3
:102CE000B8F8020088B140F20840C2F20000006863
:102CF00080450AD0D8F8041002EB0108B8F8021099
:102D000009B18045F6D1CEF8008040F21040C2F201
:102D1000000000F06BF904F10C00A0E7B0B5042A44
:102D2000054618D315F0030015D1C8B24FF0013392
:102D3000102A00FB03F310D32C4600BF04F110004F
:102D4000103AC4E90033C4E902330F2A0446F5D827
:102D5000032A03D807E0284605E02846043A032A58
:102D600040F8043BFAD822B1CBB211461A46FDF71F
:102D70007CFD2846B0BD00002DE9F0410C4640F234
:102D8000040106460020C2F2000100BF0A5CB24204
:102D900005D010304028F9D14FF0000801E001EBD8
:102DA0000008D8F80C00FFF709FF054628B3D8F84B
:102DB0000C20284600210027FFF7B0FF2E726F720B
:102DC000E05DE85518B10137082FF9D107E0072F6A
:102DD00005D0E819C7F107010130FDF74EFDFDF7F9
:102DE00077FA58F8041F2A4642F80C1F4A60C8F8C0
:102DF0000020C2F80480FDF76FFA2846BDE8F08194
:102E000010B5044600202072FDF762FA22462169BF
:102E100052F80C3F5960216922610B601260FDF786
:102E20005BFA2046BDE81040FFF763BE2DE9F04194
:102E30000E4640F20401154604460020C2F200018D
:102E40000A5CB24205D010304028F9D14FF000089A
:102E500001E001EB0008FDF73BFA44F2D857C2F25B
:102E60000007398801313980FDF736FAFDF730FA6D
:102E7000398801390AB2002A398002DDFDF72CFABF
:102E80000BE000213980FDF727FA40F6C810C2F2A6
:102E90000000006808B100F023F846F080002072BE
:102EA000002000BF295C215419B101300828F9D154
:102EB00007E0072805D0C0F1070120440130FDF7E5
:102EC000DCFCFDF705FA58F8041F44F80C1F4C60B1
:102ED000C8F80040C4F80480BDE8F041FDF7FCB933
:102EE00010B5FDF7F5F944F2D851C2F20001098896
:102EF000044621B12046BDE81040FDF7EDB944F28B
:102F0000E460C2F200000068FFF75DF844F2E451AB
:102F1000C2F2000101EBC00040F6C81250F8081CD4
:102F2000C2F200021068A1F114038342E2D01360E0
:102F300044F2D052C2F2000212781C3001F10801B2
:102F400012B1FDF7CCF9D5E7FDF7C9F9D2E710B515
:102F50000446FDF7BDF994F8341094F8352001F0DB
:102F6000F001013184F8341044F2E451C2F200015E
:102F700001EBC2014A6844F2E46C04F11403C2F2AA
:102F8000000C1360A2614B60A26BDCF80030616141
:102F900043EA0201CCF80010BDE81040FDF79CB9EF
:102FA000B0B50546FDF794F9294651F8142F4B6842
:102FB00053604B6849601A6091F8212044F2E45351
:102FC0000960C2F2000353F8324003EBC20294429C
:102FD00008D144F2E462C2F20002A96B136823EA4A
:102FE00001011160BDE8B040FDF776B9B0B5054606
:102FF000FDF76EF92A4652F8141F0446914209D093
:10300000A1F1140000F0FFF82046FDF765F9FFF785
:1030100067FF0FE0A88B4FF6FF71884205D120466D
:10302000FDF75AF96FF00200B0BD0130A8832046C9
:10303000FDF752F90020B0BD2DE9F0410646FDF73D
:1030400047F9B18B804639B1481EB0834046FDF741
:1030500043F90020BDE8F08140F6C810C2F200003C
:10306000056800202863747A284606F1140700F0EA
:1030700004F9A4B1012C19D1384600BF0068B84248
:103080000DD095F8351090F821209142F6D2416884
:1030900005F114020A60A9614260686106E0B06946
:1030A00005F114010160A861B1616F614046FDF74F
:1030B00013F9FFF715FF286B002808BF0020BDE8B3
:1030C000F081F0B583B00E46014601201F4615463B
:1030D000FFF752FE98B104462846FFF76FFD58B13E
:1030E000DDF820C00246204631462B460097CDF839
:1030F00004C0FEF783FF03E02046FFF781FE0024B3
:10310000204603B0F0BDF0B581B040F6C810C2F261
:1031100000000568FDF7DCF80446FDF7D9F8296FD3
:10312000064609B1284688473046FDF7D5F82846B7
:10313000FFF736FF042085F83400FDF7C9F82A466A
:10314000E96D52F8583F5960E96DEA650B6095F8F2
:103150004D10126001F0FE0185F84D10FDF7BCF82E
:10316000002685F84C60FDF7B3F82F4657F8501F3E
:103170007A684A607A681160C7E90077FDF7ACF8B1
:1031800017F9480CB0F1FF3F0ADD44F2DC50C2F2FF
:103190000000016845F8141F4D60056068600CE090
:1031A0002E72FDF795F855F80C1F6A684A606A6838
:1031B0001160C5E90055FDF78FF8FFF791FE204635
:1031C00001B0BDE8F040FDF787B8000044F2DC56DE
:1031D000C2F20006FDF77CF831680446B1420ED019
:1031E000D1E90020A1F1140550604B6848691A60CC
:1031F000C1E90011FFF77DFC2846FFF701FE2046DC
:10320000FDF76AF8E6E7B0B5044690F8340000F040
:103210000F00022818BFB0BDFDF75AF82246A16979
:1032200052F8143F05465960A16904F144000B604F
:10323000A261126000F095F82846FDF74DF820468F
:10324000BDE8B040FFF783BE80B590F8361001228C
:1032500080F8351002FA01F18163022180F8341000
:10326000FFF7D1FF40F6C810C2F20000006818B1A5
:10327000BDE88040FFF734BE80BDB0B5044690F88D
:10328000340000F00F00012818BFB0BDFDF720F892
:1032900005462046FFF784FE94F8340000F0F00065
:1032A000023084F8340004F1440000F05AF8284653
:1032B000BDE8B040FDF710B880B50246816952F80C
:1032C000143F6FF0010C59608169C0F830C00B6089
:1032D00082611260FFF73BFEBDE88040FFF700BE51
:1032E0002DE9F0418046FCF7F3FF414651F8142FD9
:1032F0004FF6FE764B6811F80BCC53604B68C7F65F
:10330000FF761A6044F2EC72C2F2000212680B6996
:1033100009609D1844F2F072C2F2000254684D61D7
:10332000A24207D01346126857697F1BF8D0B742F4
:10333000F6D801E02268234644F2F877C2F200078B
:103340003E6851600136C8F8142019604CF0010144
:103350003E60C8F8183088F80910BDE8F041FCF765
:10336000BBBF10B50446407AC00708BF10BDFCF7CC
:10337000AFFF54F8141F62684A60626864601160AD
:1033800014F80B1C246001F0FE0104F80B1CBDE8CE
:103390001040FCF7A1BF00207047002070470020BC
:1033A0007047002070470000B0B51048046810490D
:1033B0002046B0FBF1F0304908607D20C100204676
:1033C000B0FBF1F029490860EFF3108472B6FEF704
:1033D0005DFF084D69602860FEF758FF696829683D
:1033E000401A0549086084F31088B0BD0000002031
:1033F00040420F00F80300200004002070B5184878
:10340000006818494A68441C0868002300190860CD
:1034100053414B60144D2868001928602868134EEA
:10342000316890FBF1F0316841432A68511A2960F4
:103430000F490A68101808600E4D286800192860A6
:1034400028680D4C216890FBF1F0216841432A68FF
:10345000511A296009490A681018086070BDC046F1
:1034600014E000E00048002008480020440000204C
:103470000C4800201448002048000020104800207C
:10348000F1EE100A4FF6FF71C0F2C03120EA0100E0
:1034900040F04070E1EE100A704700000802003171
:1034A00000000000AC34000800000000D91B000838
:1034B00000000000A0860100400D0300801A0600F5
:1034C00000350C0040420F0080841E0000093D00C2
:1034D00000127A000024F40000366E010048E80172
:1034E000006CDC020000010002000100030001008A
:1034F00002000100040001000200010003000100BD
:1035000002000100050001000200010003000100AB
:10351000020001000400010002000100030001009C
:10352000020001000600010002000100030001008A
:10353000020001000400010002000100030001007C
:10354000020001000500010002000100030001006B
:10355000020001000400010002000100030001005C
:103560000200010007000100020001000300010049
:10357000020001000400010002000100030001003C
:10358000020001000500010002000100030001002B
:10359000020001000400010002000100030001001C
:1035A000020001000600010002000100030001000A
:1035B00002000100040001000200010003000100FC
:1035C00002000100050001000200010003000100EB
:1035D00002000100040001000200010003000100DC
:1035E00002000100000000000000000001020304CE
:1035F00006070809433A2F55736572732F3234302A
:1036000037332F417070446174612F4C6F63616C6C
:103610002F41726D2F5061636B732F41524D2F41BB
:10362000726D2D32442F312E312E332F4C69627240
:103630006172792F536F757263652F5F5F61726D71
:103640005F32645F636F6C6F75725F66696C6C6923
:103650006E675F776974685F616C7068612E630084
:10366000433A2F55736572732F32343037332F41FD
:103670007070446174612F4C6F63616C2F41726D87
:103680002F5061636B732F41524D2F41726D2D325C
:10369000442F312E312E332F4C6962726172792F93
:1036A000496E636C7564655C2E2E2F536F75726363
:1036B000652F5F5F61726D5F32645F636F72652E4D
:1036C00063000000A33300089B3300089733000811
:1036D0009F330008F836000800000020500000006A
:1036E000E80100084837000850000020A04E000004
:1036F00004020008A1E8FFFF00093D0001000000EE
:1037000008000020080000207800000002000000EF
:103710001800002018000020200000000500000014
:103720002800002028000020300000000A000000CF
:1037300038000020380000202C00000001000000AC
:08374000010000000000000080
:04000005080001AD41
:00000001FF
