:020000040800F2
:1000000078D0012059020008350C00080D0B0008BB
:10001000310C0008BD070008710F00080000000047
:100020000000000000000000000000001B0F00089E
:10003000BF07000800000000370C00089902000804
:1000400073020008730200087302000873020008BC
:1000500073020008730200087302000873020008AC
:10006000730200087302000873020008730200089C
:10007000730200087302000873020008730200088C
:10008000730200087302000873020008730200087C
:10009000730200087302000873020008730200086C
:1000A000730200087302000873020008730200085C
:1000B000730200087302000873020008730200084C
:1000C000730200087302000873020008730200083C
:1000D000730200087302000873020008730200082C
:1000E000730200087302000873020008730200081C
:1000F000730200087302000873020008730200080C
:1001000073020008730200087302000873020008FB
:1001100073020008730200087302000873020008EB
:1001200073020008730200087302000873020008DB
:1001300073020008730200087302000873020008CB
:1001400073020008730200087302000873020008BB
:1001500073020008730200087302000873020008AB
:10016000730200087302000873020008730200089B
:100170007302000873020008730200080000000008
:10018000730200087302000873020008730200087B
:10019000730200087302000873020008730200086B
:1001A00073020008730200087302000800F002F8EE
:1001B00000F042F80AA090E8000C82448344AAF1BF
:1001C0000107DA4501D100F037F8AFF2090EBAE8BD
:1001D0000F0013F0010F18BFFB1A43F0010318477B
:1001E00084550000A4550000103A24BF78C878C197
:1001F000FAD8520724BF30C830C144BF04680C602D
:10020000704700000023002400250026103A28BF74
:1002100078C1FBD8520728BF30C148BF0B60704778
:100220001FB504F0AFFD9DE8030000F033F900F0C6
:1002300003F91FBD10B510BD00F0E3F91146FFF73B
:10024000EFFF03F0A9FE00F001FA03B4FFF7F2FF9D
:1002500003BC00F0A3F900000948804709480047A3
:10026000FEE7FEE7FEE7FEE7FEE7FEE7FEE7FEE766
:10027000FEE7FEE704480549054A064B70470000C3
:100280002D0F0008AD01000878CA012078D00120A8
:1002900078CC012078CC012030B410B503488047D9
:1002A00030BCAE4630BC024800470000014D00089B
:1002B0001D0F000800BF704770B5064600F0CEF86D
:1002C000056806F10B0020F00704B4429CBF002033
:1002D00070BD2B466A68BAB11068A04210D304F111
:1002E000080188423CBF5068586007D35168101914
:1002F00041601168091B016058601460101D70BDD9
:1003000013465268002AE7D12146284600F0AEF88D
:100310000028DED170BD70B50446051F00F09EF8C0
:100320000068002C14BF446870BD002C18BFAC429C
:100330003CBF20466468F8D301680A18AA4218BF77
:10034000456003D12A6805461144016028684119B7
:10035000A1421CBF6C6070BD61686960216808447F
:10036000286070BD0EB5054614460E4613A000F079
:10037000D2F8284600F0CFF816A000F0CCF83046AE
:1003800000F0C9F815A000F0C6F800218DF80B1098
:100390000A210DF10A008DF80A1008E094FBF1F231
:1003A00001FB124294FBF1F4303200F8012D002CD5
:1003B000F4DC00F0B0F800F0A3F800002A2A2A20AC
:1003C000617373657274696F6E206661696C6564D0
:1003D0003A2000002C2066696C6520002C206C6996
:1003E0006E6520004FF0000200B513469446964615
:1003F000203922BFA0E80C50A0E80C50B1F1200138
:10040000BFF4F7AF090728BFA0E80C5048BF0CC0E5
:100410005DF804EB890028BF40F8042B08BF704743
:1004200048BF20F8022B11F0804F18BF00F8012BB5
:10043000704770477047704770B5064C7C44064D56
:100440007D4404E02046016808448047241DAC42F6
:10045000F8D170BD105B0100105B010000487047CF
:1004600070000020704770477047704738B50446E9
:100470000A4600206946AFF30080002808BF38BD57
:1004800002460099204600F093F8012038BD012073
:1004900000F0AFB8F8B5AFF30080054600200C4679
:1004A000102000BF0646A819A0420DD93246694661
:1004B0000020AFF30080070008BF00F09AF8009812
:1004C000A04218BF0546C419FFF7C8FF05600746DC
:1004D000F01D20F007004619284600F00AF8B44243
:1004E00008BFF8BDA21B31463868BDE8F84000F0EF
:1004F0005FB800210160C0E901107047102070470B
:1005000010B5002000F06EF8FFF794FEBDE8104033
:10051000012000F043B810B5044602E0641C00F06E
:1005200036F820780028F9D110BD10B5203AC0F077
:100530000B80B1E81850A0E81850B1E81850A0E8B6
:100540001850203ABFF4F5AF5FEA027C24BFB1E84F
:100550001850A0E8185044BF18C918C0BDE8104092
:100560005FEA827C24BF51F8043B40F8043B08BF9B
:100570007047D20728BF31F8023B48BF11F8012B62
:1005800028BF20F8023B48BF00F8012B704708B590
:1005900069468DF800000320ABBE08BD0149182054
:1005A000ABBEFEE72600020000487047680000204E
:1005B000034640688C46002818BF88423CBF03466B
:1005C0004068F8D318681844884207D00CF103003B
:1005D00020F00700001D411A521A0146081D0A604A
:1005E000FFF799BE10B500F03FF8BDE8104000F0ED
:1005F00036B810B500F050F8BDE8104000F02FB844
:1006000070477546FFF7D0FFAE4605006946534672
:1006100020F00700854618B020B5FFF72BFEBDE897
:1006200020404FF000064FF000074FF000084FF059
:10063000000BAC46ACE8C009ACE8C009ACE8C009A6
:10064000ACE8C00921F007018D46704710B504469B
:10065000AFF300802046BDE81040FFF7F6BD00284C
:1006600001D0FFF79BBF704710B5002102A000F03A
:100670003BF8012010BD0000534947414252543A13
:100680002041626E6F726D616C207465726D696E6F
:100690006174696F6E00000010B5012805D000215B
:1006A00003A000F021F8012010BD09A1F8E7000027
:1006B00053494752544D454D3A204F7574206F664B
:1006C0002068656170206D656D6F727900000000B3
:1006D0003A2048656170206D656D6F727920636F97
:1006E000727275707465640070B505460C460A2018
:1006F00000E06D1CFFF74BFF35B128780028F8D1DA
:1007000002E0641CFFF743FF14B120780028F8D101
:10071000BDE870400A20FFF73ABF000070B5B8B1DD
:100720000C46E9B116461AB3054620461421FFF7D8
:1007300059FE2869C4E90205042020703078296A2E
:100740006A8A401A5043E08001212046E17470BD5E
:1007500045F2EF3115A0C0F60001CD22FFF702FEF1
:1007600045F2EF310BA0C0F60001CE22FFF7FAFDF3
:1007700045F2EF3102A0C0F60001CF22FFF7F2FDF3
:100780004E554C4C20213D20706368436861724394
:100790006F6465004E554C4C20213D2070744465BB
:1007A0007363726970746F72000000004E554C4C98
:1007B00020213D207074466F6E740000FEE7704784
:1007C0002DE9F04F84B00A68002A00F0E28041F67B
:1007D000004500F13847C4F6000508234FEAB72664
:1007E000A84208BF0723072E38BF4FEAB7234FF0B0
:1007F000010C00254FF0000B01274FF0000800937B
:10080000019100BFA7F101090CFA09F4224000F0A0
:10081000AC80D1F804A00292BAF1120F00F2B380BA
:100820000CFA0AF212F0061F00F0AD800322D0F895
:1008300008E002FA05F3CA682EEA030EAA4042EA6B
:100840000E0282604268DE43A2434FEA1A1404FAA1
:1008500009F42243AE464260C2688C68324004FA12
:100860000EF422434AF01004122CC26017D16FF02C
:10087000030101EA590202440BF01C030F21D2F8D4
:1008800020A001FA03F401992AEA0404D1F810C067
:1008900001990CFA03F323431362D1F804A0026810
:1008A0000AF00303324003FA0EF31A430260029E79
:1008B0005FEACA034FF0010C57D541F26001C4F260
:1008C00002010A6840F2004E42F001020A600A6822
:1008D000C4F2010E02F001020392039A29F003020E
:1008E0004FF608497244CFF6FF7952F809C00BF071
:1008F0000C040F2101FA04F32CEA030CDDE90031AA
:1009000003FA04F444EA0C0342F80930DEF800C0AC
:100910004B684CEA0604DA0358BF2CEA0604CEF80A
:100920000040DEF804C09C034CEA060258BF2CEAE3
:100930000602CEF80420DEF808C0DC024CEA06020B
:1009400058BF2CEA060240F20C4CCEF80820C4F244
:10095000010CDCF800409B0244EA060258BF24EA7E
:100960000602CCF800204FF0010C0A6808F10108DB
:1009700032FA07F307F101070BF1040B05F1020549
:100980007FF440AF05E00322AA404FEA480ED64369
:1009900062E704B000F000B830BCBDE8C08F40F2A0
:1009A0000C01C2F20001096844F6D352C1F262029E
:1009B000A1FB02124FF0FF3101EB92130022B2EBC8
:1009C000136F1CBF012070474EF210014EF60C5CF5
:1009D000CEF20001CEF2000C4B60F0238CF8173001
:1009E0008A6007220F284FF001000A6088BF704715
:1009F000DCF800100023C1F3022181F00702042A71
:100A000028BF0422033938BF19464FF0FF3303FAD9
:100A100002F2D24302FA01F109018CF817104CF6E8
:100A20007021C2F2010108700020704741F20001FC
:100A3000C4F20201886810F00C02C86805D00C2AC4
:100A400024D100F00300012820D10868000703D456
:100A5000D1F89400000A01E00868000900F00F00D6
:100A60001EA353F82030002A184618BF00200C2A75
:100A700018BF7047C86800F0030002280FD0032891
:100A800004BF41F20023C0F27A030CE0042A1DD017
:100A9000082A20D141F20020C0F27A00704742F2C9
:100AA0000043C0F2F403C868CA68C0F30210C2F37E
:100AB0000622C96801305A43B2FBF0F0C1F341612C
:100AC000022202EB4101B0FBF1F0704742F200401C
:100AD000C0F2F400704700200023C8E7A0860100A0
:100AE000400D0300801A060000350C0040420F0044
:100AF00080841E0000093D0000127A000024F400EA
:100B000000366E010048E801006CDC02FEE72DE9CA
:100B1000F04383B007462A2040F2184489468DF8F6
:100B20000100C4F6000410250DF1010001219846D2
:100B30001646256100F05AF8380A8DF802000DF1CA
:100B400002000121256000F051F80DF103000121A0
:100B50008DF80370256000F049F8300A8DF8040024
:100B600001A80121256000F041F80DF105000121E7
:100B70008DF80560256000F039F82B208DF806000F
:100B80000DF106000121256100F030F84FEA19202F
:100B90008DF807000DF107000121256000F026F80F
:100BA00002A801218DF80890256000F01FF84FEA97
:100BB00018208DF809000DF109000121256000F0D1
:100BC00015F80DF10A0001218DF80A80256000F06A
:100BD0000DF82C208DF80B000DF10B000121256183
:100BE00000F004F803B0BDE8F08300002DE9F04107
:100BF00048F20102C8F20002A1FB0223DE0B044608
:100C00003004A0EBD33001EBD33825184FF6FF7733
:100C10003EB120464FF6FF7100F00EF83C44013E15
:100C2000F6E71FFA88F12846BDE8F04100F004B865
:100C3000FEE70000FEE770472DE9F04182B040F288
:100C4000D805C2F2000595F85C20012A00F0FD806D
:100C50004FF001084CF66C2785F85C80C2F2010762
:100C60003C6895F85D20012A40F0EA80002800F0F9
:100C7000E780002900F0E4800322002385F85D204E
:100C80002B66A863A987E9872B64A5F84430A5F8EB
:100C90004630AA68EB64B2F5004F2A682B6507D18D
:100CA000136823F040031360136843F48043136018
:100CB00013685B0603D4136843F0400313606B684A
:100CC0000139EE68B3FA83F3B1FA81F15B0949099E
:100CD000B6F5E06F41EA030113D931B130F8021BD8
:100CE000D160A863E98F0139E987E98F002941D0F4
:100CF00091688907F2D43968091BC9087C29F4D99D
:100D00009EE000294FF6FE7111D0EB8F022B05D328
:100D100030F8023BD3604FF6FE7304E000784B1CC2
:100D20001073A86B0130A863EE8F3344EB87EB8F11
:100D300003B3013193689B0706D43B681B1BDB0898
:100D40007C2B14D97CE000BFEB8F022B06D330F84C
:100D5000023BD3604FF6FE7305E000BF00780B4600
:100D60001073A86B0130A863EE8F3344EB87EB8FD1
:100D7000002BDFD14FF4C050214600F069F8002865
:100D80004DD140F20C023868C2F200023968136893
:100D9000201A00F57A72C3F3CB30504301902868D3
:100DA00083681B060FD500BF3B685B1A934211D2C4
:100DB000019B019E002BA6F101060196866808BFE3
:100DC0001A463306F0D44FF4C060214600F040F8D4
:100DD00028BB2AE0416821F0E00141606968B1F573
:100DE000827F0AD1A968B1F5004F02D0B1F5806FBA
:100DF00003D1016821F040010160A96AB1F5005FEB
:100E000007D1016821F400510160016841F40051EB
:100E10000160012085F85D00002085F85C00286EE7
:100E200040F02000286620202866A86838B90020F5
:100E300000902868C1680091806800900098286E32
:100E4000002085F85D8085F85C0002B0BDE8F08187
:100E5000B0B582B04CF66C2EC2F2010EDEF8002066
:100E6000DEF80030891A40F20C02C2F20002D2F819
:100E700000C023220CFB02F201F57A71120D4A43E5
:100E800040F2D80C0092C2F2000CDCF8002094680A
:100E9000044215D0B0F5C06F02D1147B0194019CBF
:100EA000DEF80040E41A8C420CD2009C009D002C1D
:100EB000A5F101050095956808BF21460542E9D1D5
:100EC000002028E0506820F0E0005060DCF80400CA
:100ED000B0F5827F0BD1DCF80800B0F5004F02D0EE
:100EE000B0F5806F03D1106820F040001060DCF88E
:100EF0002800B0F5005F07D1106820F400501060A2
:100F0000106840F40050106001208CF85D00002053
:100F10008CF85C00032002B0B0BD70474CF66C202A
:100F2000C2F2010001680131016070474EF688503D
:100F3000CEF2000001684FF6FF7341F470010160CA
:100F400041F20000C4F202000168CEF6F62341F03F
:100F5000010101600021816002681A4002604FF4C3
:100F60008052C260026822F4802202608161704770
:100F7000FEE740F26861C2F20001486D20B10068EE
:100F8000486508B1012011E091F8740020B10120FA
:100F900081F8700000207047886B0028F7D0086C3B
:100FA0000028F4D04865012081F8740081F87100B0
:100FB000704770B5A2B090E8780004940393D0E92C
:100FC000043005950696CDE9073091E83900D1E95E
:100FD000041640F2D05EC2F2000ECDE90D1609A94A
:100FE0004FF0000C39C1DEF82400ADF808C00F92B4
:100FF0008068CDF800C001680EF12000019019B1A1
:1010000068468847044600E0FC2401F093FF60B284
:1010100022B070BDF0B5A3B090E8F000059504943F
:10102000D0E9044006960797CDE9084092E87100A0
:10103000D2E904271093CDE90E270AAA71C291E8DC
:101040001D00D1E9041540F2D05EC2F2000ECDE9D8
:10105000151512A94FF0000C1CC1DEF82410ADF8D4
:101060000CC011908868CDF804C001680EF1200012
:10107000029019B101A88847044600E0FC2401F061
:1010800059FF60B223B0F0BD2DE9F047A2B040F2A5
:10109000D058C2F20008002608F1200592460096BA
:1010A0000195ADF80860D0E90065D0E90227D0E9E4
:1010B0000440CDE90365CDE90527CDE9074093E874
:1010C00085005D69D3E90363DDE92A9CCDE90C6302
:1010D00009AB85C391E88D00D1E90416CDE90E5C1A
:1010E000CDE914166E4610A906F158058DC12846A3
:1010F0003021FFF777F9BAF1000F07D09AE88F0097
:10110000DAF8144085E88F006C6102E001208DF868
:101110006300B9F1000F0AD006F1700099E88E0063
:10112000D9E9046580E88E00C0E9046502E0012089
:101130008DF87B00D8F824008068016819B16846F2
:101140008847044600E0FC2401F0F4FE60B222B0BF
:10115000BDE8F0872DE9F043A3B040F2D058C2F2C9
:1011600000089946002308F120070D4601930297D5
:10117000ADF80C30D0E90037D0E90261D0E9044085
:10118000CDE90437CDE90661CDE9084092E88B004E
:10119000D2E904260DF1280E8EE88B000EA801AFCF
:1011A000DDF8A8C080E8441007F140063046302141
:1011B000FFF718F915B13FCD3FC602E001208DF8C9
:1011C0004F00B9F1000F0AD007F1580099E88E00DE
:1011D000D9E9046580E88E00C0E9046502E00120D9
:1011E0008DF86700D8F824008068016819B101A85B
:1011F0008847044600E0FC2401F09CFE60B223B066
:10120000BDE8F083B0B5A2B0D0E90042D0E9023524
:101210000394D0E9044004AF2CC7CDE9074091E81E
:101220001D00D1E9041540F2D05EC2F2000ECDE9F6
:101230000D150AA91CC1DEF8241009904FF0000C0E
:10124000C868ADF808C001680EF12000CDF800C0F4
:10125000019019B168468847044600E0FC2401F07B
:1012600069FE60B222B0B0BD2DE9F043A3B040F2F8
:10127000D058C2F2000899460D46002108F120031B
:1012800001910293ADF80C1090E88A00D0E9036454
:1012900040690DF1100C8CE88A00CDE907640990D3
:1012A00092E88B00D2E90426CDE90E260AAA8BC269
:1012B00001AF07F13C0630463021FFF793F815B136
:1012C0003FCD3FC602E001208DF84B00B9F1000F81
:1012D0000AD007F1540099E88E00D9E9046580E846
:1012E0008E00C0E9046502E001208DF86300D8F8A3
:1012F0002400C068016819B101A88847044600E0CD
:10130000FC2401F017FE60B223B0BDE8F0832DE9A4
:10131000F047B8B040F2D056C2F20006706A40788A
:1013200000F00300022819D003282ED1B06B411C15
:1013300001D1F069B063F16B0022CDE91822CDE94B
:1013400016220F920E9211B30D684F68290C41EAD4
:1013500007444FEA174ACDE90A5720E0B06B411C19
:1013600001D1F069B063F16B00220029CDE90C22B4
:10137000CDE90A220992089275D00F684A68390CA3
:1013800041EA0245CDE9067273E0FC20D9E0011D77
:10139000F163876800240B974FEA174A002502A9DA
:1013A00008AA002301F006FE002800F0C580089975
:1013B000B06B029102A916AA012302F049FD002890
:1013C00000F051818046BDF82000BDF82210281A97
:1013D000756C0FFA80F9ADF82800601A04B2E907BD
:1013E000ADF82A0023D0B9F1FF3F0EDC306CB0F924
:1013F000080099FBF0F101FB109009EB0701091AB5
:101400008146ADF82800ADF82C10B4F1FF3F0EDC9A
:10141000306CB0F90A0094FBF0F101FB104004EBD2
:101420000A01091A0446ADF82A00ADF82E10D8F8C2
:1014300008000AA90F900EA8024602F0C4FC00287A
:101440007AD00FFA89F7002F00F1868020B2B0F130
:10145000FF3F40F38180306C0AAA41462B4602F0E0
:101460005EF9054669E0011DF16381680025079179
:10147000002716A90EAA002301F09CFD00285BD0CE
:101480000E99B06B169116A90AAA012302F0E0FC8E
:10149000002800F0F4800446BDF83800BDF83A108A
:1014A000381AADF81800681AA168ADF81A0008A833
:1014B000099106A9024602F086FCE8B30020CDE9B6
:1014C0000400CDE9020006A902AA2046012302F089
:1014D000BFFC88B3706A017801F00E02052AC0F0E3
:1014E000BC80C1F342010122407802FA01F115915A
:1014F0000027C30902A80EA915AA009701F0ACFDA8
:1015000016A88821FEF76EFF0EAB0ECBCDE91A238D
:1015100019911199129A06F12000CDE91C12139924
:10152000726A1E91916817900968002900F09780EF
:1015300016A88847054693E0FD25E8B2FD3818BF98
:101540002846202101EA9001403186F8290040B266
:10155000718538B0BDE8F08725F001030AA902AA19
:10156000404602F090F805460028E6D4736CD80790
:10157000E3D0BDF90C00BDF93C10814220DDDDE96E
:101580000E250FFA84FC091A1044BCF1FF3FCDE987
:101590000825ADF82410ADF8200006DCBDF80E00DB
:1015A000ADF82240001BADF8260008A940460022F5
:1015B00002F069F80546B0F1FF3F01DCE81CBCD140
:1015C000BDF90E00BDF93E10814221DDDDE90E328C
:1015D000091A00EB1340B7F1FF3FCDE90832ADF82F
:1015E0002610ADF8220007DCBDF80C00ADF8209005
:1015F000A0EB0900ADF82400736C08A94046002256
:1016000002F041F80546B0F1FF3F01DCE81C94D13F
:10161000BDF90C00BDF93C2082428EDDBDF90E10F3
:10162000BDF93E308B427FF788AF0E9F121A3844C7
:10163000ADF824205A1AADF8200001EB1741D6E985
:101640001003ADF82620ADF8221008AA414602F09A
:1016500066F80546B0F1FF3F6FE7FC256DE7FC2516
:1016600001F068FC69E745F2EC6045F28D31C0F6A7
:101670000000C0F6000140F21762FEF773FE45F26B
:10168000EC6045F28D31C0F60000C0F6000140F27A
:10169000A652FEF767FE00002DE9F04FD1B00029F9
:1016A00000F0F28240F2D05BC2F2000B0746DBF89A
:1016B00024000C4601781546C1F34201012202FACA
:1016C00001F12D91CDE92B1141780822C8064FF088
:1016D00000062A9202D44FF000080CE0DBF8480024
:1016E000CB090CA92BAA009501F0B6FC48B38046A3
:1016F000DBF8240041780DF1900ACB092CAA38467A
:101700005146009501F0A8FC814618A92DAA204653
:101710000023009601F0A0FCB9F1000F4FF0FD048A
:1017200018BF002803D160B251B000F0F3BADBF863
:1017300024004078C10600F0040004D438B9002425
:101740001CE0FD24EFE700283FD1002454E0DBF843
:1017500048001EA90C3100220023002401F02AFCBD
:1017600060B10AF10C0108AA002302F071FB1EA966
:101770002AAA0123009501F06FFC0446DBF824003F
:10178000407800073DD5DBF84C0012A90C3100224F
:101790000023002601F00EFC002800F08880DBF812
:1017A000382002941478D2F808C00823E407039381
:1017B0004BD10023002400BF9688D188D2683444DE
:1017C00017780B44FF07F7D03CE0DBF85C001EA95C
:1017D0000C3100220023002401F0ECFB60B10CA9C5
:1017E0000C3108AA002302F033FB1EA92AAA012308
:1017F000009501F031FC0446DBF824004078000736
:1018000001D4002653E0DBF8600012A90C3100225D
:101810000023002601F0CEFB002848D0DBF838205A
:1018200008231778D2F808C0FF07029403930CD15D
:10183000002300249788D688D2683C44117833442A
:10184000C907F7D0C4EA034200E00022BDF87030B7
:10185000BDF86C10A3EB0C0743688668891A19441D
:10186000340CCDE92E36ADF8B810B919012CADF80D
:10187000BC100ED0BDF86E10BDF87270A1EB124115
:10188000A7EB1C4201EB1341ADF8BA101119ADF8EA
:10189000BE102EA904AA0023002402F0D9FA12A92E
:1018A00003AA0123009401F0D7FB029C0646BDF970
:1018B000A000BDF97020BDF9A210BDF97270904270
:1018C0000AF11003B8BF0246B942B8BF0F46C2EAD8
:1018D000074ADBF82400CDF8A0A04078E90700F023
:1018E000100171D1002940F0DF802C9A24A94846CC
:1018F000009501F0B7FADBF82400407840071ED5C8
:10190000ECB1BDF98800BDF9A070BDF98A20B446DC
:101910002646BDF9A240B842B8BF0746ADF8887068
:10192000A242B8BF14461EA92A9AADF88A4034468E
:1019300001F1100320466646009501F093FA274610
:101940008EB1BDF95800BDF97020BDF95A10BDF92E
:1019500072309042B8BF0246ADF858209942B8BFE5
:101960000B46ADF85A3024A9484601F048FC04461D
:1019700000287FF4D8AE1EAD3846294601F03FFC62
:10198000044600287FF4CFAE0DF1480830464146AA
:1019900001F035FC044600287FF4C5AEDBF82400D6
:1019A000407810F00C0F00F05C81002F08BF3D461E
:1019B000002E08BFB04624A818AA29464346CDF8F1
:1019C00000A0FFF7C7FB5DE1002940F0E0802C9A02
:1019D00024A94846009501F045FADBF82400407838
:1019E00040071ED5ECB1BDF98800BDF9A070BDF966
:1019F0008A20B4462646BDF9A240B842B8BF074681
:101A0000ADF88870A242B8BF14461EA92A9AADF854
:101A10008A40344601F1100320466646009501F0E5
:101A200021FA27468EB1BDF95800BDF97020BDF9E5
:101A30005A10BDF972309042B8BF0246ADF8582036
:101A40009942B8BF0B46ADF85A3024A9484601F078
:101A5000D6FB044600287FF466AE1EAD3846294604
:101A600001F0CDFB044600287FF45DAE0DF148087F
:101A70003046414601F0C3FB044600287FF453AED4
:101A8000DBF82400407810F00C0F00F0F080002FFD
:101A900008BF3D46002E08BFB04624A818AA294614
:101AA0004346FFF7E1FBEDE02B9A0CA901F110038F
:101AB0004046009501F0D6F9DBF824004078400755
:101AC0001ED5ECB1BDF98800BDF94070BDF98A2082
:101AD000B4462646BDF94240B842B8BF0746ADF805
:101AE0008870A242B8BF14461EA92A9AADF88A404F
:101AF000344601F1100320466646009501F0B2F924
:101B000027468EB1BDF95800BDF97020BDF95A10B5
:101B1000BDF972309042B8BF0246ADF858209942E4
:101B2000B8BF0B46ADF85A300CA9404601F067FB30
:101B3000044600287FF4F7AD1EAD3846294601F073
:101B40005EFB044600287FF4EEAD0DF148083046F8
:101B5000414601F054FB044600287FF4E4ADDBF875
:101B60002400407810F00C0F00F08680002F08BF92
:101B70003D4624A80CA918AB2A46002E08BFB04643
:101B8000CDF80080CDF804A0FFF77EFA7AE0410797
:101B900000F18680000700F18C802B9A0CA901F1DE
:101BA00010034046009501F05DF9DBF82400407811
:101BB00040071AD5CCB1BDF98800BDF94070BDF918
:101BC0008A20BDF94260B8421EA9B8BF0746ADF8E9
:101BD0008870B242B8BF16462A9A01F11003204617
:101BE000ADF88A60009501F03DF90CA9404601F07E
:101BF00006FB044600287FF496AD0BF1200124AFCC
:101C00002F918ECF0DF1C40C8CE88E00DDE92812E7
:101C100018ABCDE935120ECBDDE91C670DF1DC0CFC
:101C20003C971B9F8CE88E00DDE910210CAFCDE9BD
:101C300041210F9B86CFCDE93E27DBF824203B9640
:101C400040933D910020D1682E90ADF8C000096806
:101C500019B12EA88847044600E0FC2401F06AF977
:101C600061E524A818A95246FFF7A3F90AE024A8C1
:101C700018A9FFF7C7FA05E024A80CA918AA53462B
:101C8000FFF7C8F904464EE545F2EC6045F28D31A8
:101C9000C0F60000C0F6000140F2DB22FEF762FB56
:101CA00045F28D3107A0C0F6000140F2D632FEF7B2
:101CB00059FB45F28D310DA0C0F6000140F2D7323C
:101CC000FEF750FB214F505F434F52452E70744F2B
:101CD000702D3E496E666F2E506172616D2E6248A6
:101CE00061735372634D61736B000000214F505F4D
:101CF000434F52452E70744F702D3E496E666F2EC5
:101D0000506172616D2E624861734465734D6173F9
:101D10006B00000030BCBDE8C08F000010B541680A
:101D200040F2D052C2F20002002908BF02F12001A5
:101D30004A68127802F00E02082A1BD1B0F91EC0C0
:101D4000BCF1010F14DBC268B0F914E0098CB0F9E2
:101D50001C000023012806DB002400BF22F8141019
:101D60000134A042FAD10133634502EB4E02F1D1B6
:101D7000002010BD45F2F01045F2A341C0F600006E
:101D8000C0F600014FF4C572FEF7ECFA2DE9F04FF2
:101D900083B0436840F2D051C2F20001002B08BF6B
:101DA00001F120035968097801F00E01082940F07B
:101DB0002C81596A11F00C0F01D0FC2421E1C1F3F0
:101DC0000217072F4FF0000400F21B81D0E903E651
:101DD000426A858AB0F92CC0B3F828A0B3F82C80E9
:101DE000DFE817F03C006E000F01AB0008000F01A8
:101DF0000800DB00B0F93EA0BAF1010FC0F200818B
:101E0000EB1D1BB24FEAE30906F007030124B0F90A
:101E10003C0004FA03F800254FF4FF76012816DB96
:101E200000274346744600BF21780B4204D032F8A5
:101E30001710C94322F8171013F07F0106EA430375
:101E400007F1010704BF01340123B842ECD1013589
:101E5000CE44554502EB4C02E0D1D1E0B0F93E90C2
:101E6000B9F1010FC0F2CC80EB1D1BB2D91006F006
:101E700007030124B0F93C0004FA03F84FF0000B0B
:101E80004FF4FF77012813DB00254446734600BF5B
:101E90001E78344218BF22F815A014F07F0607EA16
:101EA000440405F1010504BF01330124A842EFD128
:101EB0000BF1010B8E44CB4502EB4C02E2D19FE0CB
:101EC000B0F93E30012B19460293C0F29980EB1D08
:101ED0001BB2D91006F007030124B0F93C000191B0
:101EE00004FA03F14FF0000B4FF4FF76009100BFAE
:101EF000012818DB009F0024754600BF2B4613F80D
:101F0000019B514617EA090F08BF414622F81410F9
:101F100017F07F0106EA470704F1010404BF1D46DC
:101F20000127A042EAD101990BF1010B8E440299DD
:101F300002EB4C028B45DBD162E0B0F93E90B9F187
:101F4000010F5DDBE91D09B24FEAE10A06F0070166
:101F50000123B0F93C0003FA01FB00264FF4FF77A0
:101F6000012813DB00255C46714600BF0B781C423C
:101F700008BF22F8158014F07F0307EA440405F136
:101F8000010504BF01310124A842EFD10136D64436
:101F90004E4502EB4C02E3D132E0B0F93EA0BAF17B
:101FA000010F2DDBE91D09B24FEAE10906F0070137
:101FB0000123B0F93C0003FA01FB00264FF4FF7740
:101FC000012817DB00255946744600BF23781942C3
:101FD00043461CBF32F81530DB4322F8153011F0B0
:101FE0007F0307EA410105F1010504BF0134012126
:101FF000A842EBD10136CE44564502EB4C02DFD16C
:10200000002460B203B000F00CB845F2F01045F2C5
:10201000A341C0F60000C0F6000140F27B22FEF7AB
:10202000A1F930BCBDE8C08F2DE9F04F89B04768F9
:1020300040F2D051C2F20001002F08BF01F1200789
:1020400079680978082940F0918097F82420C168C0
:10205000B0F91430FF2A6ED0B0F91E50012D2E4673
:102060000295C0F27F803F8CB0F91CA0FE00F0B258
:102070000490F82000EA172EFC2000EAD70BC2F5E6
:102080008077A3EB0A000024FF2507AB0DF1140CA9
:10209000019000BFBAF1010F039443DB4FF0000839
:1020A0000498ADF820E0ADF81C00ADF81EB0ADF816
:1020B00022500C884FF00009E000C0B2ADF81400C7
:1020C000F82000EA1420ADF81800FC2000EAD40043
:1020D000ADF81600ADF81A5033F819003CF8194065
:1020E000504304FB070080B2000A2CF8190009F1E4
:1020F0000109B9F1030FEFD1BDF81400BDF8164086
:10210000BDF81860C0F3C40004F0FC0440EAC40049
:1021100006F0F80440EA042008F10108D04521F84F
:10212000020BBDD1039C029801348442019801EB5B
:102130004001AFD116E0B0F91E20012A12DB3F8C1E
:10214000B0F91C00002600BF012806DB002500BFF7
:1021500021F815700135A842FAD10136964201EBFB
:102160004301F1D1002009B000F026B845F26B21FF
:1021700002A0C0F60001ED22FEF7F4F841524D5FD7
:1021800032445F434F4C4F55525F524742353635CC
:10219000203D3D204F505F434F52452E70744F708D
:1021A0002D3E496E666F2E436F6C6F75722E63689D
:1021B000536368656D65000030BCBDE8C08F0000EA
:1021C0002DE9F04F8DB0416840F2D052C2F20002CA
:1021D000002908BF02F120014A68127802F00E02BD
:1021E000082A40F07D828A6A002A00F0848290F8F2
:1021F0004B20D20708D190F84A20062A06D0EB2AB5
:1022000040F08482F52067E2FE2065E2B0F91430E8
:10221000B0F94870496AC2680493036C0697446A2F
:10222000B0F92C7011F00C01039700F09280042992
:1022300000F0B9810C2900F01781082940F0718263
:10224000B0F93E70012F39460597C0F24482B0F9CB
:102250003C100BAF08460891481E00210DF12408E0
:10226000029000BF08980791012864DB02984FF0A4
:10227000000903EB000C02EB400E21469CF80060C5
:102280000025FF2E08BF4FF0FF35AD1BBEF80060E4
:102290004FF0FF0AF000C0B2ADF82C00F82000EAC1
:1022A0001620ADF83000FC2000EAD600ADF82E0074
:1022B000088805F5807BC600F6B2ADF82460F826E4
:1022C00006EA1026ADF82860FC26ADF832A006EA32
:1022D000D000ADF82AA06E424FF0000AADF82600FB
:1022E00037F81A0038F81A50704305FB0B0080B21B
:1022F000000A28F81A000AF1010ABAF1030FEFD117
:10230000BDF82400BDF82650BDF82860C0F3C40015
:1023100005F0FC0540EAC50006F0F80540EA052096
:1023200021F8020B089809F10109ACF1010C814573
:10233000AEF1020EA2D10498079902EB4002039875
:10234000013104EB4004059881420698034489D189
:10235000C1E1B0F93E70012F39460597C0F2BB814B
:10236000B0F93C1004980791401A049003980BAE02
:10237000401A0390069809AF401A0021029000BF4E
:1023800007980691012861DB4FF0000E19780025AF
:102390000893FF2908BF4FF0FF351088691AC50060
:1023A0009346EDB2F822FC23ADF82C5002EA10253A
:1023B00003EAD000ADF82E002046FF24ADF83050DF
:1023C000ADF832408246008801F58078C500EDB254
:1023D000ADF8245002EA102503EAD000C1F1000C48
:1023E0004FF00009ADF82850ADF82600ADF82A40AE
:1023F00036F8190037F8191000FB0CF001FB080043
:1024000080B2000A27F8190009F10109B9F1030F98
:10241000EED1BDF82400BDF82610BDF82850C0F359
:10242000C40001F0FC0140EAC10005F0F80140EAF7
:102430000120544624F8020B089B07980EF1010E68
:102440005A46013386450BF102029FD10498069942
:1024500002EB40020398013104EB400405988142ED
:10246000029803448CD136E1B0F93EC0B0F9521065
:102470008C4500F36281BCF1010FC0F22C81069DF6
:10248000ACF10101B0F93C6001FB0530049BCDF8D3
:1024900008C0594302EB41075942049103990BAB21
:1024A000891B03916942002509AA0191089600BF82
:1024B000012E0595CDE9067064DB711E00EB010E5F
:1024C00007EB41084FF0000C9EF800700026FF2F2C
:1024D00008BF4FF0FF36B8F80000F61BC700FFB288
:1024E0004FF0F80AFC25ADF82C700AEA102705EA2F
:1024F000D000FF21ADF83070ADF82E00ADF83210ED
:10250000208806F58079C700FFB2ADF824700AEA8A
:10251000102705EAD000C6F1000A4FF0000BADF815
:102520002870ADF82600ADF82A1000BF33F81B0064
:1025300032F81B6000FB0AF006FB090080B2000ABB
:1025400022F81B000BF1010BBBF1030FEED1BDF81C
:102550002400BDF82660BDF82870C0F3C40006F062
:10256000FC0640EAC60007F0F80640EA0620089E8E
:102570000CF1010C24F8020BAEF1010EB445A8F1E8
:102580000208A1D1069F0498059D07EB4007039818
:10259000DDF808C004EB4004079801990135654552
:1025A000084485D197E0B0F93E70B0F952108F42DF
:1025B00000F3CF80012FC0F28E80B0F93C60069806
:1025C000791E01FB003A049B0896594302EB410B2C
:1025D0005942049103994042891B039100260BAB99
:1025E00009AAF821FC250190029700BF08980596DA
:1025F0000128CDE906BA5DDB4FF0000E9AF80070B5
:102600000020FF2F08BF4FF0FF30BBF80060C01B59
:10261000F700FFB2ADF82C7001EA1627ADF8307064
:1026200005EAD6074FF0FF0CADF82E70ADF832C0BA
:10263000278800F58079FE00F6B2ADF8246001EA43
:10264000172605EAD707ADF82AC0C0F100084FF0F9
:10265000000CADF82860ADF8267000BF33F81C0000
:1026600032F81C6000FB08F006FB090080B2000A8B
:1026700022F81C000CF1010CBCF1030FEED1BDF8E7
:102680002400BDF82670BDF82860C0F3C40007F030
:10269000FC0740EAC70006F0F80740EA072024F8E4
:1026A000020B08980EF1010E0AF1010A86450BF1A2
:1026B000020BA3D1DDF818B00498059E0BEB400B7C
:1026C0000398029F04EB4004DDF81CA0019801363A
:1026D000BE4282448AD1002040B20DB000F045B81D
:1026E00045F22F2045F25A51C0F60000C0F6000115
:1026F0007022FDF737FE45F2C55045F25A51C0F63B
:102700000000C0F600017322FDF72CFE45F22C609C
:1027100045F25A51C0F60000C0F60001A822FDF7AC
:1027200021FE45F2746045F2F841C0F60000C0F6A3
:10273000000140F21372FDF715FE45F2307045F2CC
:10274000F841C0F60000C0F6000140F2AD62FDF7AE
:1027500009FE45F2307045F2F841C0F60000C0F6BF
:10276000000140F25D62FDF7FDFD30BCBDE8C08FA9
:102770002DE9F04F97B0426840F2D051C2F200010B
:10278000002A08BF01F120025168097801F00E010A
:10279000082940F01C83916A002900F0248390F8F6
:1027A0004710C90708D190F84610062906D0EB2932
:1027B00040F02583F52006E3FE2004E3516AC26859
:1027C000D0F824B00292B0F9142011F00C010A9252
:1027D000C26B03900192B0F944200992B0F92C2009
:1027E0000C9200F0BC80042900F02E820C2900F02D
:1027F0006381082940F00F83B0F93620012A114681
:102800000792C0F2DF82B0F91E10002715AB13AAA1
:10281000F8250091002940F39B80B0F91C60B0F9C5
:10282000340011960690701E05907818DDE901615C
:10283000049000BF05980E97371801EB40000F90E9
:1028400006980B91594608961097CDF834B000BF02
:10285000DDF844801290404538BF8046B8F1000F43
:102860005ED0DDE90F904FF0000B00BF0778002429
:10287000FF2F08BF4FF0FF34B9F80060E71BF400EA
:10288000E4B24FF0FC0CADF8544005EA16240CEA13
:10289000D6064FF0FF0AADF85840ADF85660ADF8D7
:1028A0005AA00E8807F5807EF400E4B2ADF84C40E3
:1028B00005EA16240CEAD606ADF852A0C7F1000AC4
:1028C0004FF0000CADF85040ADF84E6033F81C40AE
:1028D00032F81C6004FB0AF406FB0E44A4B2240A7E
:1028E00022F81C400CF1010CBCF1030FEED1BDF835
:1028F0004C70BDF84E60BDF85040C7F3C40706F0F9
:10290000FC0647EAC60704F0F80647EA06270BF17B
:10291000010B21F8027B0138C345A9F10209A5D1B9
:102920001298B0EB080093D10E9F079801378742A9
:10293000DDE90C0B0BEB400B0ADADDE9086006441D
:1029400004988742DDE90A0101EB40017FF472AF90
:102950000798009987420398FFF65CAF32E2B0F91E
:102960003620012A11460892C0F22C82B0F91E10BE
:10297000002215AC13ADF827059100BF002940F3E4
:1029800095800398B0F91C30B0F93400109307908B
:102990005018069002980F9001980E900B92079A8B
:1029A0005946CDF834B000BF10981192824238BF1A
:1029B0001046002812905FD0DDE90EC94FF0000EDE
:1029C0009CF800300022FF2B08BF4FF0FF32B9F80F
:1029D0000060D21AF300DBB2ADF8543007EA1623D8
:1029E000FC20ADF8583000EAD6034FF0FF08ADF8F0
:1029F0005630ADF85A800B8802F5807BDE00F6B2C7
:102A0000ADF84C6007EA132600EAD303ADF8528014
:102A1000C2F100084FF0000AADF85060ADF84E303A
:102A200034F81A2035F81A3002FB08F203FB0B22A7
:102A300092B2120A25F81A200AF1010ABAF1030F1C
:102A4000EED1BDF84C20BDF84E30BDF85060C2F359
:102A5000C40203F0FC0342EAC30206F0F803129832
:102A600042EA03220EF1010E21F8022B0CF1010CB7
:102A7000864509F10209A3D1DDE91120121A93D18B
:102A80000B9A089801328242DDE90C0B0BEB400BEC
:102A90000CDA09980E99014406980E9182420A9820
:102AA0000F9901EB40010F917FF478AF08980599D9
:102AB0008242FFF663AF85E1C28BB0F94E1016B2C9
:102AC0008E4200F3B481B0F936100129084608910E
:102AD000C0F278810998019B711E01FB00314042D0
:102AE00001910A99059048420490501E484302996A
:102AF0004FF0FF0901EB4000002115AF0DF14C082C
:102B000000900296002E40F399800398B0F91C20A3
:102B1000B0F9340011920990501EDDE9003207909F
:102B20008819069007980E91111803EB40000F903A
:102B300009985C460B9210910A93CDF834B000BF0F
:102B4000DDF844C01290604538BF8446BCF1000FE8
:102B50005CD0DDE90F0E4FF0000B00BF9EF80010B7
:102B60000026FF2908BF4FF0FF360388711ADE00E8
:102B7000F6B2F8224FF0FC0AADF8546002EA1326D0
:102B80000AEAD303ADF85860ADF85630ADF85A9064
:102B9000238801F58076DD00EDB2ADF84C5002EAF5
:102BA00013250AEAD30349424FF0000AADF850500A
:102BB000ADF84E30ADF8529037F81A3038F81A5058
:102BC0004B4305FB06339BB21B0A28F81A300AF167
:102BD000010ABAF1030FEFD1BDF84C10BDF84E3029
:102BE000BDF85050C1F3C40103F0FC0341EAC30136
:102BF00005F0F80341EA03210BF1010B24F8021B55
:102C0000AEF1010EE345A0F10200A7D11298B0EB9E
:102C10000C0095D10E99089801318142DDE90C0B29
:102C20000BEB400B0ADA05980B9A0A9B02440698B4
:102C30008142049803EB40037FF474AF0898029E2E
:102C40008142FFF65FAFBDE0C28BB0F94E1016B205
:102C50008E4200F3F880B0F93610012908460B9136
:102C6000C0F2B0800998019B711E01FB0031404207
:102C700005910A99089048420790501E48430299CE
:102C800015AF01EB400000210DF14C0804900696B1
:102C9000002E40F392800398B0F91C20B0F9340064
:102CA00011920A90881909900598109004980F9035
:102CB0000A98CDE90DB100BFDDF844C0129060451F
:102CC00038BF8446BCF1000F5DD0DDE90FA90026B6
:102CD00099F800100024FF2908BF4FF0FF34BAF81C
:102CE0000030641AD900C9B2F822ADF8541002EAD3
:102CF0001321FC20ADF8581000EAD3014FF0FF0E6D
:102D0000ADF85610ADF85AE0BBF8003004F580710C
:102D1000DD00EDB2ADF84C5002EA132500EAD30312
:102D2000ADF852E064424FF0000EADF85050ADF8EF
:102D30004E3000BF37F81E3038F81E50634305FB95
:102D400001339BB21B0A28F81E300EF1010EBEF1B2
:102D5000030FEFD1BDF84C10BDF84E30BDF8505008
:102D6000C1F3C40103F0FC0341EAC30105F0F80319
:102D700041EA032101362BF8021B09F101096645DE
:102D80000AF1020AA4D11298B0EB0C0094D10E996A
:102D90000B9801318142DDE90C0B0BEB400B0CDA97
:102DA0000898109A024409981092814207980F9A45
:102DB00002EB40020F927FF47BAF0B98069E81429C
:102DC000FFF666AF002040B217B000F048B845F2F9
:102DD0002F2045F25A51C0F60000C0F6000140F223
:102DE000F722FDF7BFFA45F2C55045F25A51C0F639
:102DF0000000C0F6000140F2FA22FDF7B3FA45F2F6
:102E0000E45045F25A51C0F60000C0F6000140F20D
:102E10003932FDF7A7FA45F2746045F2F841C0F681
:102E20000000C0F6000140F28642FDF79BFA45F231
:102E3000FD6045F2F841C0F60000C0F6000140F226
:102E40000942FDF78FFA45F2FD6045F2F841C0F600
:102E50000000C0F600014FF46A72FDF783FA30BC3F
:102E6000BDE8C08FF0B591F80BC0DDF814E05FEA63
:102E70008C7C0EF0080C05D4BCF1000F08D14FF08B
:102E8000000C0DE0BCF1000F13D14FF0000C1FE05F
:102E90008F891E8805893744A5EB070CA1F80CC063
:102EA0005FEA4E7717D5CF895B8846893B44F31A92
:102EB0001CE0D1F814C08D89BCF80470BCF808403F
:102EC0001E8804EB47072E44A7EB060CA1F80CC0A4
:102ED0005FEA4E7701D4002309E04F69CD89FE886F
:102EE0007F895B8807EB46072B44FB1ACB81082AB6
:102EF0000CD34F68B0F9086007FA8CF716FB037320
:102F00004B60C0685A4300EBD20011E04F680FFAE3
:102F10008CF607FA8CF74F60B0F908000F68504341
:102F200007307243C0081BB207EBD20200FB03203C
:102F30000860F0BD10B540F2D054C2F20004606ADF
:102F4000407800F01F00122814DCC21F082A04F188
:102F5000400124D8DFE802F0052525280525252590
:102F60000500206C00F0DFF8A06C00F0DCF804F144
:102F70004C0119E01A2804DC132813D0172805D0B7
:102F80000FE01B2802D01F2818BF10BDA06C00F056
:102F9000CAF8E06D00F0C7F804F1600104E003280E
:102FA00002D010BD04F148010868BDE8104000F0EF
:102FB000BAB800002DE9F04383B004460F4680689C
:102FC00061681D461646786039600BB100202860A4
:102FD0000EB1002030602078C10739D14FF00009D0
:102FE0000DF10408400703D515B1286800B92C601D
:102FF000E46864B37EB1B7F90000B7F9021040424B
:10300000328820EAE07049421044728821EAE17176
:10301000308050187080A1682078CDF8049002911B
:10302000C0071CBF60680190404639463A4600F030
:10303000CAFE60B12078C0070AD1A0883988084448
:103040003880E0887988084478802078CAE70024AE
:10305000204603B0BDE8F0832DE9F04182B01E4662
:1030600015460C4601F11403694600224FF0000892
:10307000FFF7A0FF616919B10978022222EA41082D
:1030800000284DD0DDF820C016B10178890702D4A0
:10309000D5F800E007E0C1780123C1F3420103FA4B
:1030A00001FEC5F800E05FEA0C75BDF800304FF096
:1030B0000005BDF802208788C1884FF0000658BF80
:1030C000DD1B5FEA4C7358BF561ABEF1080F09D3D7
:1030D000B0F908102AB211FB0622C6688BB202FBB7
:1030E0000EF10DE0B0F90810C7688BB20EFB01F1CC
:1030F0000731C90836B22AB201FB06760EFB02F18F
:1031000006EBD101C4E90012DDE900122381C4E914
:103110000312C178E27AA17202F0FC014144E1722B
:1031200002B0BDE8F081A8B180B582B06946002246
:103130000023FFF73FFF50B101460078000706D596
:103140008B69CA680020C8600BB10869984702B053
:10315000BDE880407047F0B581B0B1F90C00B1F91D
:1031600010603218F02A1CDCB1F90E50B1F912705F
:103170007B19F02B15DCACB24D69511E013B80B2BE
:103180008AB29BB22146FDF7C2FC40F21840C4F659
:1031900000001021016006FB07F041002846FDF702
:1031A00025FD40F26860EFF3108372B6C2F20000B2
:1031B000D0F880100022C0F8802083F3108891B1ED
:1031C000CA60EFF3108272B6C36F0B60B0F876304E
:1031D000C167591CA0F8761082F3108801B0BDE8D1
:1031E000F04000F0C3BA45F2746045F2D721C0F652
:1031F0000000C0F600014FF43672FDF7B3F8B0B529
:10320000054600284FF000002ED00C4661B3287808
:1032100000F00900092826D16B69EBB1286904F197
:103220000C022946984708B3E8602060E878A8B106
:10323000C0F34200022811D8C0F103004FF0FF3163
:10324000626801FA00F00021E181218A22EA00008F
:103250006060A081084405E0FA2005E0208A002192
:103260006160E1602081002040B2B0BDF920FBE741
:1032700070B540F2080EC2F2000EDEF8001099B3ED
:1032800040F2686240F2000CC2F20002C2F2000C8E
:10329000D2F89800DCF8002040F2C803904238BF12
:1032A0000246C2F200031C68CCF8002040F2D002B3
:1032B000C2F20002A042C8BF0446D2E900561C6018
:1032C0002C1846EBE070C2E90040481ECEF8000022
:1032D0000AD14FF0FF30CCF8000000201860C2E99E
:1032E00000001E20CEF80000012070BD90F83820AC
:1032F0000021002A41600163416318BF7047FDF758
:103300000AB870477047000080B5EFF3108072B6BE
:1033100001214906084A116080F3108801F0C6FCBB
:1033200006480021416001600548016005480160D0
:1033300000F00AF880BDC04604ED00E078C9012025
:1033400084C9012088C90120704780B540F2D0505F
:10335000C2F20000438DEFF3108272B6DB061AD47E
:1033600003234FF0000C80F82930A0F82AC0438DC9
:1033700043F01003438582F3108844F61862C0F6C8
:103380000002C0E90E1C4FF6FF714262A0F8401027
:10339000FDF7BDFF01E082F31088002080BD000032
:1033A0002DE9F04F89B04FF096100D460490486813
:1033B000B1F908104FF66A72C0F201021144B5F972
:1033C0000A3000EB5101ADF80C109918000C00EB1D
:1033D0005100ADF80E0045F63070C0F6010007A9A7
:1033E00000220023FFF7E6FD002850D0017889076E
:1033F0004DD5C07806284AD145F63078C0F6010888
:1034000007A9404600220023FFF7D4FD45F6407986
:10341000C0F60109064605A9484600220023FFF729
:10342000C9FD6EB168B1BDF92000BDF91810884220
:103430002DDBBDF92200BDF91A10884201DA26E021
:1034400028BB40F2D053C2F20003598DEFF3108035
:1034500072B6C90619D4032183F8291000215985B1
:103460005A8D42F010025A8580F3108844F6386075
:10347000C0F60000586203A8C3E90E50C3E91091DA
:10348000C3E91281FDF743FF01E080F3108840F2A9
:103490003804C2F200044FF6FF70A081B4F90400B2
:1034A0004FF0806100282561A16009DCA169B4F9B1
:1034B0000620B1F9121000239142B8BF01236372B4
:1034C00068A54FF0000841462B78A3F10802052AB1
:1034D0002CD8DFE802F0030B1B2E2E230A0621D086
:1034E000A1F10108414684F808801CE028F007019A
:1034F00001F10808A1695FFA88F2B1F9101084F8A7
:103500000880514302B2914241460CDB617A4FF090
:103510000008013184F80880617203E04FF0000870
:1035200084F8088000210135CEE700BF002B00F0B1
:103530008A80A0698369002B00F08980A17B078ABB
:10354000B0F812A0B4F800B0668894F80990019120
:1035500004F11C012A4602919847002877D05FFAAF
:1035600088F007FB00B094F92D200AFB0961104494
:1035700094F92E20ADF81C008818A16994F92F80C9
:10358000CE69ADF81E002069616A089136B1638981
:10359000DDE9017207A90097B04731E0616901F0E8
:1035A0007002202A2CD040F2D053C2F20003B4F8AB
:1035B0000AC0B4F80CE05A8DEFF3108672B6D2064A
:1035C0001CD4032283F8292000225A855A8D42F008
:1035D00010025A8586F31088986307A844F608629B
:1035E000D8630298C0F600025A62C3E91001A3F83A
:1035F00048C0A3F84CE0FDF78AFE01E086F310888E
:10360000207AA169454400F10108B1F91030A08881
:103610005FFA88F25A4303B29A4284F80880FFF6B0
:1036200052AF627AB1F912100132D3B2B4F9067016
:1036300059434FF00008B94284F808806272A8BF6D
:1036400084F809803FE7002009B000F019B845F27E
:10365000746045F2EF31C0F60000C0F60001EB22C5
:10366000FCF780FE507265737320416E79204B65C4
:103670007920546F2053746172742047616D650026
:1036800030BCBDE8C08F2DE9F0438BB00D46174626
:1036900009886A6840F2D0596C889846064600202E
:1036A000C2F200094B421144CDE90900CDE90700FF
:1036B000CDE90500CDE90300D9F84000ADF80430AC
:1036C0006342ADF8081004EB1241ADF80630ADF8D6
:1036D0000A1001A907AA012300F0BAFBC0B11FB16B
:1036E000DDE908107860396003AA304629460123D5
:1036F00000F0AEFB60B1D9F82400007800F00E00B5
:10370000052807D307A803A94246FDF7C5FF02E035
:10371000FD2000E0FC2040B20BB0BDE8F083B0B566
:1037200084B01C46134605460020CDE90200CDE9D1
:1037300000006A4608461946012300F089FB78B16B
:1037400040F2D050C2F20000406A007800F00E0053
:10375000052807D3694628462246FDF79DFF02E06B
:10376000FD2000E0FC2040B204B0B0BD40F2686330
:10377000EFF3108072B6C2F20003D3F88410B1B137
:103780000A68C3F8842012B90022C3F8882093F88D
:10379000732002F0FD0283F8732080F31088C3F8D1
:1037A00080108A69D3E906C0D20F4B60604793F856
:1037B000731041F0020183F8731080F31088704792
:1037C0002DE9F04F85B040F26864C2F20004216A2E
:1037D000002900F09482054694F87200042800F253
:1037E000AB80DFE810F0B000DF01FF01050005004D
:1037F00094F8730000F0FE0084F8730000F080FB82
:10380000A269C4E92401002A00F08582A06F002883
:1038100000F08D82B4F84410B4F84C20B4F846306F
:10382000B4F84E701144FA188181C281E18AA06F08
:10383000490726D54169002900F08282B0F910209D
:10384000B0F912305A43E2B1CB0740F0828201F066
:103850000303022B05D10B88013A1BBA1B0C21F87C
:10386000023B530802F0010206D000BF0F68013B83
:103870007FBA41F8047BF9D11AB10A6812BA120C66
:103880000A80816994F8702021F0004141EAC271F8
:103890008161EFF3108072B6D4F88830A26F94F88B
:1038A00073100026002B14BF1A60C4F88420C4F8DB
:1038B0008820166080F31088880748BFFFF756FFFE
:1038C000E18AA06FC90784F870600AD140F2D05233
:1038D000C2F200020023EFF3108172B6D36181F3CC
:1038E0001088018AB4F844201144B4F950200BB276
:1038F0009342A4F8441035DB408AB4F84610B4F97A
:103900005220084401B2A4F8460000209142A4F8D5
:10391000440027DBA4F84600FDF72BFB10BB00F0AA
:10392000EFFAD4F89010D4F89C20401A1044C4F850
:103930009C00002084F87200216B09B1606B8847FD
:103940004FF00008CBE194F873100020C4F8980001
:10395000C4F89C0041F0010084F8730000F0D0FA34
:10396000C4E92401B5FA85F040094FF0000A04F1DA
:10397000580802AE019000BFC4F878A0EFF31080A1
:1039800072B6B4F87610E28AB1EB123F11D9EFF3B8
:10399000108172B6B4F87630E26F013BA4F876304D
:1039A0001AB11368E367C2F800A081F3108854606D
:1039B000A26780F31088D4F878B0BBF1000F0DD067
:1039C00094F870000BF1080950B10198656584F80E
:1039D0007400012084F8710004E000BF0020AFE013
:1039E00094F8710050B3606D84F871A048B3017B06
:1039F00031B9011D04F14C02204600F0E4F920BB6E
:103A0000FDF7B7FA0028EBD1EFF3108072B6A16F83
:103A100061B1EFF3108272B6E36F0B60B4F87630E9
:103A2000E167591CA4F8761082F31088C4F878A0D6
:103A300080F310884FF0FF3082E000BFB4F86800D8
:103A400042E0D4E90001C4E91301E08AB446C0F3BE
:103A5000821191B1B4F84C204FF0FF3303FA01F119
:103A600002EA0103A4F84C30D21AB4F85030CE4325
:103A70001A4432441140A4F85010C0F3422189B1D5
:103A8000B4F84E204FF0FF338B4002EA0306A4F84F
:103A90004E60921BB4F85260DF4332443A441A40FD
:103AA000A4F8522080070CD4B4F95020E36E664687
:103AB000934255D8B4F952005043984250D9E06827
:103AC00001E0E0686646A066B4F84C10B4F9442002
:103AD000B4F84E301144B4F846704942ADF80810BD
:103AE000D9194942ADF80A10B4F95010636800B210
:103AF000891A03938142B8BF0846ABF81000B4F9A5
:103B00004600B4F95210B4F96A20081A9042B8BFBE
:103B10000246ABF81220484631464246002300F0E8
:103B200097F9E08AC0070AD140F2D051C2F20001F1
:103B3000EFF3108072B6C1F81C8080F31088404605
:103B4000C4F88C0010B1411C06D1E8E6A16A19B195
:103B5000E06A8847D4F88C0000283FF40DAF14E0E9
:103B600090B2B3FBF2F2A4F8680059B14FF0FF3302
:103B700003FA01F111404FF6FE7211429FD0A4F8F2
:103B80006A10A1E7A4F86A209EE700F0B9F9D4F81A
:103B90009010D4F89C20401A1044C4F89C000120D6
:103BA00084F8720000F0ACF994F87320C4E92401A1
:103BB000D4E90830D4F88C1002F00102984780460E
:103BC00000F09EF9D4F89020A16BD4F89830801AB8
:103BD0001844C4F89800E9B1B8F1000F1AD10220D6
:103BE00084F8720000F08CF994F87320C4E9240181
:103BF000D4E90E30D4F88C1002F0010298478046C8
:103C000000F07EF9D4F89010D4F89820401A1044AF
:103C1000C4F89800E08A000749D5002D47D04FF03E
:103C2000010902AF6FF0010A287BE8BBD4F88C6071
:103C3000002E58D0A86869684FF4FC62CDE90210E4
:103C400030463946ADF80E9000F02CF96889BDF881
:103C50000A104FF4FC6208440138ADF80A003046FF
:103C6000394600F01FF9A86869684FF4FC62CDE995
:103C7000021009EB11410AEB1040ADF80A10ADF843
:103C80000E0030463946ADF80C9000F00BF928894B
:103C9000BDF808104FF4FC6208440138ADF8080084
:103CA0003046394600F0FEF82D68002DBCD1B8F141
:103CB000010F12D0B8F1FF3F08DDB8F1020F09D1B2
:103CC000032084F872004FF0020808E0002084F816
:103CD000720004E0042084F872004FF001084046AE
:103CE00005B000F06DB845F2EC6045F24D41C0F60C
:103CF0000000C0F6000140F28312FCF733FB45F2EE
:103D0000B86045F2D721C0F60000C0F6000140F2CD
:103D10000F32FCF727FB45F27A6045F2D721C0F657
:103D20000000C0F600014FF4B872FCF71BFB45F22F
:103D3000D7211BA0C0F6000140F27112FCF712FB64
:103D400045F2D72111A0C0F6000140F21B12FCF78A
:103D500009FB45F2D72103A0C0F600014FF4917290
:103D6000FCF700FB28282875696E747074725F7404
:103D70002920706877427566666572292026203092
:103D800078303129203D3D20300000004E554C4C0C
:103D900020213D20706877427566666572000000DC
:103DA0004E554C4C20213D20746869732E4164614E
:103DB000707465722E707443757272656E74000053
:103DC00030BCBDE8C08F2DE9F0418388B0F90040D8
:103DD000B1F804C02344013B1FB2B1F90030B0F97F
:103DE0000280B1F9025003EB0C06013E9C420FFA2F
:103DF00086FCC8BF2346A845AE46C8BFC646674531
:103E0000B8BFBC469C4511DBC988ADB22944C58802
:103E10001FFA88F4013908B26119013909B28142E7
:103E2000B8BF08460FFA8EF1884202DA0020BDE8DA
:103E3000F08152B1ACEB0301A0EB0E000131013077
:103E40001380A2F802E09180D0800120BDE8F081CB
:103E500070B582B014460A46054600202146C4E9E2
:103E60000200206041F8040F56681268A6600A60DC
:103E70000090A868019068462BB10A46FFF7A3FF9F
:103E800030B900260BE000220026FFF79CFF30B17E
:103E900028682646206000F0FA002070E560304671
:103EA00002B070BD80B540F2D05EC2F2000EBEF826
:103EB0002A30EFF3108CDB0672B61ED403238EF883
:103EC00029300023AEF82A30BEF82A3043F0100320
:103ED000AEF82A3044F628638CF31088C0F600034D
:103EE000CEE90E018020CEF82430AEF840208EF8C6
:103EF0004400BDE88040FDF70ABA8CF3108880BD0D
:103F000010B5EFF3108072B60B490A684B68D21AED
:103F10001D4B1B685B0106D50B689B1A102B02DB3F
:103F2000096851184A1C19494B680C6880F31088BD
:103F3000D117A018594110BD14E000E080B5EFF38F
:103F4000108172B6002807D10D48002202600D4B87
:103F50004360826007220260012040060A4A106026
:103F600081F3108800F0A2FE084800214160016042
:103F70000748016007480160FFF7E6F980BDC046C9
:103F800010E000E0FFFFFF0004ED00E078C9012031
:103F900084C9012088C901208AB04EF60C50CEF2A7
:103FA000000001684FF6FF02114040F20032C0F2FB
:103FB000FA52114341F2000601600F20C4F20206DA
:103FC000FCF7EDFC88B9306E40F001003066306ED1
:103FD00000F0010005900598B06D40F08050B0658C
:103FE000B06D00F080500590059847F20000C4F2D3
:103FF0000000016801F4C061B1F5007F1FD00168C5
:10400000012262F34A21016040F20C01C2F2000178
:104010000968322359434DF68363C4F21B33A1FB75
:10402000031302EB934100224769013942F1000377
:104030007F0501D5002BF7D1406940054AD4B0680F
:10404000F16800F00C00082805D00C2845D101F0DB
:104050000301032941D13168F26847F6737341F2D5
:104060000341CFF66063C1F200011A408A4217D1C2
:10407000306880015CD4306840F080703060F06857
:1040800040F08070F0604CF66C20C2F201000168D4
:10409000326892014CD40268521A032AF8D32CE0F9
:1040A0000C282AD0306840015CBF30685FEAC0004D
:1040B00023D4306820F0807030604CF66C20C2F25F
:1040C0000100026833689B0119D503689B1A022B13
:1040D000F8D912E072B600BFFEE7316841F48031D2
:1040E00031604CF66C21C2F201010A6833689B030F
:1040F000B2D40B689B1A642BF8D972B6FEE7F2684B
:1041000048F28C03C0F29D131A401143F1603168EC
:1041100041F080713160F16841F08071F1600168B7
:104120003268920104D40268521A022AF8D9E4E7EC
:1041300042F20000C4F202000168490709D4016894
:10414000042262F302010160016801F00701042901
:104150004FD1316889014CD5B1684CF66C2741F0DC
:104160000301B160C2F20107396841F2883200BF31
:10417000B36803F00C030C2B04D03B685B1A93422A
:10418000F6D936E0B16821F0F001B160016801F0C4
:104190000701052909D30168042262F302010160C5
:1041A000006800F00700042823D1B06820F4E06024
:1041B000B060B06820F46050B060FCF737FCB168C4
:1041C0000FF66422C1F30311515C40F20C0401F0BC
:1041D0001F01C840C2F2000420604CF67020C2F2F9
:1041E000010001781020002918BF0F20FCF7D7FB31
:1041F00008B172B6FEE74BF20040C0F2C44040F294
:10420000004A20600120C4F6000A0125FFF796FE4F
:10421000F06CD02440F08000F064F06C00F080007E
:1042200005900598F06C40F00200F064F06C00F02E
:10423000020005900598F06C40F00800F064F06C06
:1042400000F0080005900598CDE900450295022090
:104250006D46039050462946FCF7B2FACAF828404A
:1042600080240AF5006029460094FCF7A9FA40F67C
:104270002840C4F60000046004604020CAF82840CA
:10428000CAF8280038683968091A7929FBD343F637
:104290000040402140F2D805C4F20000CAF81810CE
:1042A000C2F200054FF4827200244FF400714FF403
:1042B000E06385E8150005F10C02C5E90614072145
:1042C0004FF002084FF0010C82E80811C5E90844DC
:1042D000C5E90A4195F85D10A9BB85F85C40F06C12
:1042E00005A940F00200F064F06C00F002000590B7
:1042F0000598B06D40F40040B065B06D00F400402A
:1043000005900598282081E80111032008900620D7
:10431000099005A95046FCF753FA2868E96885F822
:104320005D800268B1F5E06F22F04002026098BF44
:10433000012441F400624FEA043CB2F5706F1CBFE7
:104340000023AB6209E085F85D8001684FF4805C72
:1043500021F0400101604FF4E061D5E90136D5E973
:10436000044203F4827306F40446334404F0020664
:104370003344AE6902F00102EC691A4406F400739A
:104380001A4404F038032C6A1A4404F08003AC6A1F
:104390001A4404F400531A43026004226B6A01F4C5
:1043A000706102EA16426E6B41EA0C0103F01003E1
:1043B000114306F008061943314341600021296684
:1043C000012185F85D10016841F040010160386805
:1043D0003968091A7929FBD311208DF814001020AF
:1043E000CAF8280005A80121FCF700FC38683968E4
:1043F000091A7929FBD336208DF81400102605A858
:104400000121CAF828600127FCF7F0FB002505A868
:1044100001218DF81450CAF81860FCF7E7FB3A2028
:104420008DF8140005A80121CAF82860FCF7DEFB0E
:1044300065208DF8140005A80121CAF81860FCF762
:10444000D5FBB2208DF8140005A80121CAF8286018
:10445000FCF7CCFB0C2405A801218DF81440CAF808
:104460001860FCF7C3FB05A801218DF81440CAF8B9
:104470001860FCF7BBFB05A801218DF81450CAF8A1
:104480001860FCF7B3FB332405A801218DF8144014
:10449000CAF81860FCF7AAFB05A801218DF81440A2
:1044A000CAF81860FCF7A2FBB7208DF8140005A825
:1044B0000121CAF82860FCF799FB72208DF81400DE
:1044C00005A80121CAF81860FCF790FBBB208DF805
:1044D000140005A80121CAF82860FCF787FB3D20DD
:1044E0008DF8140005A80121CAF81860FCF77EFBBE
:1044F000C0208DF8140005A80121CAF82860FCF737
:1045000075FB2C208DF8140005A80121CAF818604D
:10451000FCF76CFBC2208DF8140005A80121CAF835
:104520002860FCF763FB05A801218DF81470CAF818
:104530001860FCF75BFBC3208DF8140005A801216F
:10454000CAF82860FCF752FB19208DF8140005A862
:104550000121CAF81860FCF749FBC4208DF814004B
:1045600005A80121CAF82860FCF740FB20208DF83F
:10457000140005A80121CAF81860FCF737FBC62013
:104580008DF8140005A80121CAF82860FCF72EFB5D
:104590000F208DF8140005A80121CAF81860FCF757
:1045A00025FB4FF0D00905A801218DF81490CAF819
:1045B0002860FCF71BFBA4208DF8140005A801213E
:1045C000CAF81860FCF712FBA1208DF8140005A8AA
:1045D0000121CAF81860FCF709FBE0208DF81400EF
:1045E00005A80121CAF82860FCF700FB05A80121F5
:1045F0008DF81490CAF81860FCF7F8FA04208DF8CA
:10460000140005A80121CAF81860FCF7EFFA0D277D
:1046100005A801218DF81470CAF81860FCF7E6FAB5
:1046200011208DF8140005A80121CAF81860FCF7C4
:10463000DDFA13208DF8140005A80121CAF81860CE
:10464000FCF7D4FA2B208DF8140005A80121CAF834
:104650001860FCF7CBFA3F2405A801218DF814401F
:10466000CAF81860FCF7C2FA54208DF8140005A8A7
:104670000121CAF81860FCF7B9FA4C208DF8140033
:1046800005A80121CAF81860FCF7B0FA18208DF8C7
:10469000140005A80121CAF81860FCF7A7FA05A8BC
:1046A00001218DF81470CAF81860FCF79FFA0B20EE
:1046B0008DF8140005A80121CAF81860FCF796FAD5
:1046C0004FF01F0805A801218DF81480CAF8186062
:1046D000FCF78CFA4FF0230B05A801218DF814B0DC
:1046E000CAF81860FCF782FAE1208DF8140005A8DA
:1046F0000121CAF82860FCF779FA05A801218DF894
:104700001490CAF81860FCF771FA04208DF81400B0
:1047100005A80121CAF81860FCF768FA0C208DF88A
:10472000140005A80121CAF81860FCF75FFA1120EF
:104730008DF8140005A80121CAF81860FCF756FA94
:1047400013208DF8140005A80121CAF81860FCF7A1
:104750004DFA2C208DF8140005A80121CAF8186024
:10476000FCF744FA05A801218DF81440CAF8186036
:10477000FCF73CFA44208DF8140005A80121CAF882
:104780001860FCF733FA51208DF8140005A80121B8
:10479000CAF81860FCF72AFA2F208DF8140005A833
:1047A0000121CAF81860FCF721FA05A801218DF84B
:1047B0001480CAF81860FCF719FA05A801218DF8D1
:1047C0001480CAF81860FCF711FA20208DF8140044
:1047D00005A80121CAF81860FCF708FA05A801210C
:1047E0008DF814B0CAF81860FCF700FA21208DF893
:1047F000140005A80121CAF82860FCF7F7F9292060
:104800008DF8140005A80121CAF82860FCF7EEF91C
:1048100000200021EF22EF23FCF779F9002000218E
:10482000EF22EF23FCF773F940F24C10C2F20000C4
:104830004FF6FF7120F815100135B5F5107FF9D14D
:1048400040F24C1510200024C2F20005CAF81800EE
:1048500028464FF49061FCF7C9F9632C04F1010478
:10486000F6D38020CAF8180040F2D050EFF310843D
:1048700072B6C2F200009421FBF7B4FD84F31088F5
:1048800040F26864C2F200042046F021FBF7AAFD62
:104890004CF69015C2F201050127EFF3108072B6B5
:1048A0002F7080F3108804F144005C21FBF79AFD1F
:1048B00044F6A051C0F6000120464422FBF735FE25
:1048C0004FF46140E066E06840F258710026C2F2A1
:1048D0000001C1E9036001F11C00486188694FF4DF
:1048E000E13262F31700A4F876600F72CE7288612D
:1048F000EFF3108072B6E26FE1670A60B4F87620D9
:10490000511CA4F8761080F3108894F8730084F892
:10491000707040F0020084F87300EFF3108072B6FC
:104920002F704CF69415C2F2010580F310882846CA
:104930006C21FBF757FD05F16C006C21FBF752FD74
:10494000FFF7DEFAFFF7DCFAD4E900014FF65D73FA
:10495000C0F2010303FA81F703EB2141020C62313B
:1049600002EB510140F2100200EB5700C2F20002CC
:104970009080A320C0F2410090604020D180FBF7DE
:104980009BFC28B9BCA0C0A14FF49D72FBF7EAFCC8
:1049900040210546FBF726FD43F24B3043F2A1319F
:1049A000C0F60000C0F60001C5E9030143F205307E
:1049B00043F20331C0F60000C0F60001C5E907016B
:1049C00043F2ED20C0F60000A86285F838606C6004
:1049D000EFF3108072B6D4F8A4104FF0000900294C
:1049E00014BF0D60C4F8A050C4F8A450C5F80090DE
:1049F00080F310884FF0020A4FF0030B04270526BE
:104A00004FF0060894F8A900D4F8A050C0B20928C5
:104A100003D9002084F8A900F8E7DFE800F0050BCF
:104A20001D2C393F4A8CAB72002D00F0DB80012039
:104A300084F8A900E868002800F0B680696911B11F
:104A400028468847E868EFF3108172B6C4E9080584
:104A500081F3108884F8A9A00020FEF7B1FEB0F120
:104A6000FF3F40F3BB800028CCD1A96909B128469B
:104A7000884784F8A9B02869002800F0AF80EFF3D8
:104A8000108172B6C4E9080581F3108884F8A97012
:104A9000E96909B12846884784F8A960A868FEF743
:104AA0008FFEB0F1FF3F40F399800028AAD184F82F
:104AB000A980296A09B12846884794F8A800C10747
:104AC00005D1410768D4042084F8A9009CE7696AED
:104AD00009B128468847D4F8E83023B1D4F8EC006F
:104AE00021462A469847D4F8B0000078A0F10C017E
:104AF00011F10C0F84F8DC004AD9072084F8A900D2
:104B000082E794F8A80000F0FE0084F8A800EFF314
:104B1000108172B6D4F8A00000285DD00268C4F8F5
:104B2000A0200AB9C4F8A49081F31088816A0029F2
:104B300054D0884752E0D4F8B000017800296AD0F8
:104B40004068EFF3108172B6C4E9080481F310885D
:104B500094F8A800B4F8DE1000F0FD0084F8A80076
:104B60000820C82998BFC821A4F8DE1084F8B490A2
:104B700084F8A9000020FEF723FEB0F1FF3F2DDDF1
:104B800000287FF43FAF94F8A80080077FF53AAF84
:104B9000092084F8A90037E700F0FB0084F8A8009A
:104BA000012084F8A9002FE7A86888B1286978B1A6
:104BB000696911B1284688472869EFF3108172B6F8
:104BC000C4E9080581F31088022084F8A9001BE7D6
:104BD000032084F8A90017E781F31088002084F8E7
:104BE000A90011E7EFF3108072B694F8A81001F055
:104BF000FE0284F8A82080F31088C8073FF402AFB3
:104C0000D4F8E830002B3FF4FDAED4F8EC00214698
:104C100000229847F6E645F2313107A0C0F60001C0
:104C200040F2D942FBF79EFB0000000000000000AC
:104C30000102030406070809746869732E53776933
:104C40007463682E70744D6F64652D3E63684566AD
:104C5000666563747320213D2041524D5F32445F8D
:104C60005343454E455F5357495443485F43464776
:104C70005F4E4F4E450000004E554C4C20213D20CC
:104C800070745468697300005254452F4163636522
:104C90006C65726174696F6E2F61726D5F32645FF3
:104CA0007363656E655F302E63000000B0B5104819
:104CB000046810492046B0FBF1F0304908607D20BF
:104CC000C1002046B0FBF1F029490860EFF31084E1
:104CD00072B6FFF715F9084D69602860FFF710F903
:104CE00069682968401A0549086084F31088B0BDD6
:104CF0000C00002040420F0040010020480100202D
:104D000070B51848006818494A68441C08680023B0
:104D10000019086053414B60144D28680019286041
:104D20002868134E316890FBF1F0316841432A68DE
:104D3000511A29600F490A68101808600E4D28683A
:104D40000019286028680D4C216890FBF1F021685B
:104D500041432A68511A296009490A6810180860F5
:104D600070BDC04614E000E078C9012080C9012070
:104D70003000002084C901208CC9012034000020AB
:104D800088C90120F1EE100A4FF6FF71C0F2C03160
:104D900020EA010040F04070E1EE100A7047000088
:104DA00000000000F000F00058070020F000F000C4
:104DB00000C201000100040057310008000000009B
:104DC00000000000000000000000000000000000E3
:104DD0007132000800000000000000000000000028
:104DE0000000000003000000000000000600800337
:104DF000484E000806000800700000001D0700086B
:104E000000000000200000000883003D00000000BA
:104E1000D05100080000000008020030000000002F
:104E2000D851000800000000080200310000000016
:104E3000E0510008000000000807001E000000000C
:104E4000C8510008E8510008000000000000000000
:104E500004040404040004000A0A0A00000000001C
:104E60000A0A1F0A1F0A0A00041E050E140F040076
:104E7000031308040219180002050502150916009B
:104E80000C0C0402000000000804020202040800E6
:104E900002040808080402000004150E0E150400A0
:104EA0000004041F04040000000000000C0C0402B5
:104EB0000000001F0000000000000000000C0C00BB
:104EC00000100804020100000E11131519110E0044
:104ED0000406040404040E000E11100E01011F004C
:104EE0001F10080C10110E00080C0A091F080800FA
:104EF0001F010F1010110E001C02010F11110E00E6
:104F00001F101008040201000E11110E11110E00E5
:104F10000E11111E1008070000000400040000001C
:104F20000000040004040200100804020408100039
:104F300000001F001F000000020408100804020007
:104F40000E11100C040004000E11151D0D011E00A1
:104F5000040A11111F1111000F11110F11110F006F
:104F60000E11010101110E000F11111111110F008D
:104F70001F01010F01011F001F01010F01010100AD
:104F80001E11010119111E001111111F1111110023
:104F90000E04040404040E001C0808080809060096
:104FA00011090503050911000101010101011F009B
:104FB000111B1515151111001111131519111100DF
:104FC0000E11111111110E000F11110F010101002D
:104FD0000E111111150916000F11110F05091100FD
:104FE0000E11010E10110E001F150404040404001C
:104FF0001111111111110E0011111111110A0400DA
:105000001111111515150A0011110A040A111100C8
:1050100011110A04040404001F10080E02011F00ED
:105020001E02020202021E0000010204081000001B
:105030001E10101010101E00040A110000000000C5
:105040000000000000001F00060604080000000029
:10505000000006080E091E0001010D1311130D00BA
:1050600000000E1101110E00101016191119160072
:1050700000000E111F010E000814040E04040400A9
:1050800000000E191916100E01010D131111110057
:105090000400060404040E000800080808090600BD
:1050A00001010905030509000604040404040E00B7
:1050B00000000B151515150000000D13111111003E
:1050C00000000E1111110E0000000D13130D01014F
:1050D000000016191916101000000D13010101002F
:1050E00000001E010E100F0004041F040414080029
:1050F000000011111119160000001111110A04000D
:105100000000111115150A000000110A040A11000F
:10511000000011111E10110E00001F0804021F00D4
:105120000804040204040800040404000404040045
:105130000204040804040200021508000000000034
:10514000000000000000000000000C12120C000023
:1051500000000C1E1E0C000000001E12121E00009B
:1051600000001E1E1E1E000000000C0C121E00007F
:1051700000000C0C1E1E000000001E120C0C000093
:1051800000001E1E0C0C000000001816161800006F
:105190000000181E1E1800000000061A1A06000063
:1051A0000000061E1E06000000000C12120C00007B
:1051B00000000C1E1E0C000000001E12121E00003B
:1051C00000001E1E1E1E0000C1210008000000007D
:1051D0008D1D0008000000001D1D000800000000DB
:1051E00029200008000000007127000800000000CE
:1051F00041524D5F32445F434F4C4F55525F535ABB
:105200005F3136424954203D3D204F505F434F525D
:10521000452E70744F702D3E496E666F2E436F6C35
:105220006F75722E7533436F6C6F7572535A005FD2
:105230005F4150495F4142575F434F4C4F55525F6A
:10524000535A203D3D204F505F434F52452E7074BE
:105250004F702D3E496E666F2E436F6C6F75722EC8
:105260007533436F6C6F7572535A00433A2F557301
:105270006572732F32343037332F4170704461744C
:10528000612F4C6F63616C2F41726D2F5061636BA6
:10529000732F41524D2F41726D2D32442F312E31DB
:1052A0002E332F4C6962726172792F536F7572635E
:1052B000652F5F5F61726D5F32645F636F6C6F75E6
:1052C000725F66696C6C696E675F776974685F614D
:1052D0006C7068612E6300433A2F55736572732FAB
:1052E00032343037332F417070446174612F4C6F0A
:1052F00063616C2F41726D2F5061636B732F41524C
:105300004D2F41726D2D32442F312E312E332F48C7
:10531000656C7065722F536F757263652F61726D66
:105320005F32645F68656C7065725F7066622E6381
:1053300000433A2F55736572732F32343037332F51
:10534000417070446174612F4C6F63616C2F4172C6
:105350006D2F5061636B732F41524D2F41726D2D34
:1053600032442F312E312E332F48656C7065722FE9
:10537000536F757263652F61726D5F32645F68652C
:105380006C7065725F7363656E652E6300433A2FC0
:1053900055736572732F32343037332F4170704438
:1053A0006174612F4C6F63616C2F41726D2F50617E
:1053B000636B732F41524D2F41726D2D32442F314B
:1053C0002E312E332F4C6962726172792F496E63D0
:1053D0006C7564655C2E2E2F536F757263652F5F3D
:1053E0005F61726D5F32645F636F72652E6300434D
:1053F0003A2F55736572732F32343037332F417023
:1054000070446174612F4C6F63616C2F41726D2F1A
:105410005061636B732F41524D2F41726D2D324499
:105420002F312E312E332F6578616D706C65732F9F
:10543000636F6D6D6F6E2F636F6E74726F6C732F11
:105440006C63645F7072696E74662E6300433A2FFA
:1054500055736572732F32343037332F4170704477
:105460006174612F4C6F63616C2F41726D2F5061BD
:10547000636B732F41524D2F41726D2D32442F318A
:105480002E312E332F48656C7065722F536F7572F5
:1054900063652F61726D5F32645F68656C70657201
:1054A0002E6300433A2F55736572732F32343037B1
:1054B000332F417070446174612F4C6F63616C2FA6
:1054C00041726D2F5061636B732F41524D2F4172AA
:1054D0006D2D32442F312E312E332F4C6962726183
:1054E00072792F536F757263652F61726D5F3264CD
:1054F0005F647261772E6300433A2F557365727350
:105500002F32343037332F417070446174612F4C27
:105510006F63616C2F41726D2F5061636B732F410C
:10552000524D2F41726D2D32442F312E312E332F9B
:105530004C6962726172792F536F757263652F5F68
:105540005F61726D5F32645F6C6C5F616C7068612B
:105550005F6D61736B2E696E6300433A2F557365FF
:1055600072732F32343037332F417070446174615D
:105570002F4C6F63616C2F41726D2F5061636B73A1
:105580002F41524D2F41726D2D32442F312E312E2D
:10559000332F4C6962726172792F536F7572636534
:1055A0002F5F5F61726D5F32645F616C7068615F15
:1055B000626C656E64696E675F7772617070657248
:1055C0002E696E63004E554C4C20213D2074686955
:1055D000732E4D61736B2E7074536F7572636553C8
:1055E0006964650041524D5F32445F434F4C4F55F3
:1055F000525F38424954203D3D2070745461736BB2
:105600002D3E506172616D2E7446696C6C4D6173F4
:105610006B2E745372634D61736B2E74436F6C6F9A
:1056200075722E6368536368656D650041524D5F06
:1056300032445F434F4C4F55525F38424954203DEE
:105640003D2070745461736B2D3E506172616D2EFC
:1056500074436F70794D61736B2E745372634D6137
:10566000736B2E74436F6C6F75722E63685363682F
:10567000656D650066616C7365004E554C4C20216C
:105680003D20746869732E744346472E44657065E7
:105690006E64656E63792E6576744F6E4C6F774CD1
:1056A0006576656C52656E646572696E672E666EAE
:1056B00048616E646C6572004E554C4C20213D2053
:1056C000746869732E744346472E446570656E6432
:1056D000656E63792E6576744F6E44726177696E7C
:1056E000672E666E48616E646C6572004E554C4C58
:1056F00020213D207074546172676574007074538A
:105700006F7572636553697A652D3E69486569678F
:105710006874203C3D207074536F757263654D61F1
:10572000736B53697A652D3E6948656967687400D3
:105730007074436F707953697A652D3E6948656965
:10574000676874203C3D207074536F757263654DBB
:1057500061736B53697A652D3E6948656967687442
:1057600000000000585F01080000002068000000F1
:10577000E8010008C05F01086800002010D00100A7
:10578000040200080000000000000000000000000B
:105790000000000000000000000000000000000009
:1057A00000000000000000000000000000000000F9
:1057B00000000000000000000000000000000000E9
:1057C00000000000000000000000000000000000D9
:1062E0000000000000000000000000000000000BA3
:1062F00040512E01000000000000000000000000DE
:10630000000000000000000000000000000000008D
:10631000000000000000000000000000000000007D
:10632000000000000000000000000000000000006D
:10633000000000000000000000000000000000005D
:10634000000000000000000000000000000000004D
:10635000000000000000000000000000000000003D
:10636000000000000000000000000000000000002D
:10637000000000000000000000000000000000001D
:106380000000000041D3FFFFFEBC3500000000000C
:1063900000000000000000000000000000000000FD
:1063A00000000000000000000000000000000000ED
:1063B00000000000000000000000000000000000DD
:1063C00000000000000000000000000000000000CD
:1063D00000000000000000000000000000000000BD
:1063E00000000000000000000000000000000000AD
:1063F000000000000000000000000000000000009D
:10640000000000000000000000000000000000008C
:1064100000000000000000000021F4FFD6BAE1FFF8
:10642000DC0A000000000000000000000000000086
:10643000000000000000000000000000000000005C
:10644000000000000000000000000000000000004C
:10645000000000000000000000000000000000003C
:10646000000000000000000000000000000000002C
:10647000000000000000000000000000000000001C
:10648000000000000000000000000000000000000C
:1064900000000000000000000000000000000000FC
:1064A00000034581977915000000000000000014EA
:1064B0008C5F0B000F584801000000000000000036
:1064C00000000000000000000000000000000000CC
:1064D00000000000000000000000000000000000BC
:1064E00000000000000000000000000000000000AC
:1064F000000000000000000000000000000000009C
:10650000000000000000000000000000000000008B
:10651000000000000000000000000000000000007B
:10652000000000000000000000000000000000006B
:1065300000000000000034C1FFFFFFFF79000000F1
:10654000000000000000000000000000000000004B
:10655000000000000000000000000000000000003B
:10656000000000000000000000000000000000002B
:10657000000000000000000000000000000000001B
:10658000000000000000000000000000000000000B
:1065900000000000000000000000000000000000FB
:1065A00000000000000000000000000000000000EB
:1065B00000000000000000000000000000000000DB
:1065C000000000000000000000000028EAFFA9838E
:1065D0009C9B21000000000000000000000F344ED2
:1065E000462501000000000000000000000000003F
