:020000040800F2
:10000000107E0020910200085D130008B303000871
:10001000591300088D0B0008E11C000800000000C7
:10002000000000000000000000000000431600086F
:100030008F0B000800000000FF02000811040008F8
:10004000AB020008AB020008AB020008AB020008DC
:10005000AB020008AB020008AB020008AB020008CC
:10006000AB020008AB020008AB020008AB020008BC
:10007000AB020008AB020008AB020008AB020008AC
:10008000AB020008AB020008AB020008AB0200089C
:10009000AB020008AB020008AB020008C50B000869
:1000A000AB020008AB020008AB020008AB0200087C
:1000B000AB020008AB020008AB020008AB0200086C
:1000C000AB020008AB020008AB020008AB0200085C
:1000D000AB020008AB020008AB020008AB0200084C
:1000E000910B0008AB020008AB020008AB0200084D
:1000F000AB020008AB020008AB020008AB0200082C
:10010000AB020008AB020008AB020008AB0200081B
:10011000AB020008AB020008AB020008AB0200080B
:10012000AB020008AB020008AB020008AB020008FB
:10013000AB020008AB020008AB020008AB020008EB
:10014000AB020008AB020008AB020008AB020008DB
:10015000AB020008AB020008AB020008AB020008CB
:10016000AB020008AB020008AB020008AB020008BB
:10017000AB020008AB020008AB0200080000000060
:10018000AB020008AB020008AB020008AB0200089B
:10019000AB020008AB020008AB020008AB0200088B
:1001A000AB020008AB020008AB02000800F002F846
:1001B00000F044F80AA090E8000C82448344AAF1BD
:1001C0000107DA4501D100F039F8AFF2090EBAE8BB
:1001D0000F0013F0010F18BFFB1A43F0010318477B
:1001E0000C4300002C430000103A24BF78C878C1AB
:1001F000FAD8520724BF30C830C144BF04680C602D
:10020000704700000023002400250026103A28BF74
:1002100078C1FBD8520728BF30C148BF0B60704778
:100220001FB503F04FFF9DE8030000F00DFA00F04A
:100230006AF900F0DBF91FBD10B510BD00F0BBFA84
:100240001146FFF7EDFF00F06DFB00F0D9FA03B4A3
:10025000FFF7F2FF03BC00F07BFA00000B49D1F876
:1002600000C04A685CF8043B1068184442F8040B6C
:100270008C4528BFA1F1DC0C8A4228BFA1F1DC0229
:10028000C1F800C04A6020F00040704734010020EF
:100290000948804709480047FEE7FEE7FEE7FEE71A
:1002A000FEE7FEE7FEE7FEE7FEE7FEE70448054956
:1002B000054A064B704700009D1C0008AD01000870
:1002C00010780020107E0020107A0020107A002084
:1002D000EFF3108072B6704780F310887047434A7E
:1002E0001368012B04D04FF001031360404A1060E3
:1002F000404A116040484FF0805101607047EFF371
:10030000108272B63948016851B34FF000010160A4
:100310003748016891B1EFF309811EF0100F08BF53
:1003200021ED108B21E9F00F4FF000041EF0100FAB
:1003300008BF012441F8044D006801602D49096897
:10034000096808C9B1E8F00F002B18BF00F05AB8CF
:1003500081F309884EF0100E002B18BF2EF0100EFE
:1003600082F310884EF0040E704722490860EFF3C4
:10037000148222F0040282F314881D494FF0000019
:1003800008601A494FF0010008601C484FF47F01D3
:10039000D0F8002041EA0201016017484FF0805177
:1003A000016017480068006880F3088861B662B68B
:1003B00070471EF0040F0CBFEFF30880EFF30980C5
:1003C00020E9F00F40F804ED40F804ED1EF0040FB2
:1003D0000CBF80F3088880F3098800B503F00EFA9B
:1003E0005DF804EB4EF0040E704700002C76002000
:1003F000107400201874002004ED00E020ED00E0EF
:1004000008ED00E0B1EC088BB1EC08CBFFF7A0BF22
:1004100030B410B50348804730BCAE4630BC02480B
:1004200000470000414000080D19000800BF704758
:1004300070B5064600F0ECF8056806F10B0020F0F8
:100440000704B4429CBF002070BD2B466A68BAB155
:100450001068A04210D304F1080188423CBF5068E4
:10046000586007D35168101941601168091B016079
:1004700058601460101D70BD13465268002AE7D101
:100480002146284600F0CCF80028DED170BD70B5BA
:100490000446051F00F0BCF80068002C14BF446837
:1004A00070BD002C18BFAC423CBF20466468F8D336
:1004B00001680A18AA4218BF456003D12A68054698
:1004C0001144016028684119A1421CBF6C6070BDD5
:1004D0006168696021680844286070BD0B4910B5E7
:1004E000A1F17C020A4CC2E93712372106E000EB89
:1004F000104342F82130074B00FB03400B1EA1F1D3
:100500000101F4DC10BD0120E8E70000D400002068
:10051000E119D666CD0D01000EB5054614460E460E
:1005200013A000F0D2F8284600F0CFF816A000F093
:10053000CCF8304600F0C9F815A000F0C6F800214C
:100540008DF80B100A210DF10A008DF80A1008E051
:1005500094FBF1F201FB124294FBF1F4303200F80B
:10056000012D002CF4DC00F0B0F800F0A3F800003E
:100570002A2A2A20617373657274696F6E2066611E
:10058000696C65643A2000002C2066696C65200067
:100590002C206C696E6520004FF0000200B51346F8
:1005A00094469646203922BFA0E80C50A0E80C5093
:1005B000B1F12001BFF4F7AF090728BFA0E80C5044
:1005C00048BF0CC05DF804EB890028BF40F8042B3D
:1005D00008BF704748BF20F8022B11F0804F18BFAA
:1005E00000F8012B704770477047704770B5064C94
:1005F0007C44064D7D4404E0204601680844804761
:10060000241DAC42F8D170BD183F0000183F000017
:10061000004870474401002070477047704770479A
:1006200038B504460A4600206946AFF3008000282A
:1006300008BF38BD02460099204600F093F801201B
:1006400038BD012000F0AFB8F8B5AFF30080054623
:1006500000200C46102000BF0646A819A0420DD964
:10066000324669460020AFF30080070008BF00F063
:100670009AF80098A04218BF0546C419FFF7C8FFB2
:1006800005600746F01D20F007004619284600F0D7
:100690000AF8B44208BFF8BDA21B31463868BDE86D
:1006A000F84000F05FB800210160C0E90110704718
:1006B0001020704710B5002000F06EF8FFF7BCFD69
:1006C000BDE81040012000F043B810B5044602E038
:1006D000641C00F036F820780028F9D110BD10B560
:1006E000203AC0F00B80B1E81850A0E81850B1E8EB
:1006F0001850A0E81850203ABFF4F5AF5FEA027C2A
:1007000024BFB1E81850A0E8185044BF18C918C059
:10071000BDE810405FEA827C24BF51F8043B40F8FA
:10072000043B08BF7047D20728BF31F8023B48BFDF
:1007300011F8012B28BF20F8023B48BF00F8012B1D
:10074000704708B569468DF800000320ABBE08BDB0
:1007500001491820ABBEFEE72600020000487047A2
:100760003C010020034640688C46002818BF8842A0
:100770003CBF03464068F8D318681844884207D045
:100780000CF1030020F00700001D411A521A014627
:10079000081D0A60FFF77BBE10B500F03FF8BDE80A
:1007A000104000F036B810B500F050F8BDE8104029
:1007B00000F02FB870477546FFF7D0FFAE46050032
:1007C0006946534620F00700854618B020B5FFF76C
:1007D0006DFDBDE820404FF000064FF000074FF0E0
:1007E00000084FF0000BAC46ACE8C009ACE8C0090B
:1007F000ACE8C009ACE8C00921F007018D4670479C
:1008000010B50446AFF300802046BDE81040FFF766
:100810001EBD002801D0FFF79BBF704710B5002117
:1008200002A000F03BF8012010BD000053494741F1
:100830004252543A2041626E6F726D616C20746551
:10084000726D696E6174696F6E00000010B50128E9
:1008500005D0002103A000F021F8012010BD09A15E
:10086000F8E7000053494752544D454D3A204F7523
:1008700074206F662068656170206D656D6F727998
:10088000000000003A2048656170206D656D6F7250
:100890007920636F727275707465640070B5054677
:1008A0000C460A2000E06D1CFFF74BFF35B128789D
:1008B0000028F8D102E0641CFFF743FF14B1207850
:1008C0000028F8D1BDE870400A20FFF73ABF02F0D7
:1008D000FF0343EA032242EA024200F002B84FF06B
:1008E00000020429C0F0128010F0030C3FF456AE51
:1008F000CCF1040CBCF1020F18BF00F8012BA8BF0B
:1009000020F8022BA1EB0C01FFF748BE5FEAC17C87
:1009100024BF00F8012B00F8012B48BF00F8012B81
:10092000704700002DE9F04182B041F20004C4F2AA
:100930000204FFF7CDFC00F0B0FB01F099F820684D
:10094000000703D4D4F89400000A01E020680009ED
:1009500044F23C11A26800F00F00C0F6000151F80B
:100960002000C2F38101DFE801F02F02070C42F200
:100970000040C0F2F40027E041F20020C0F27A000B
:1009800022E0E168E36801F00302C3F30211022AE6
:1009900001F1010106D0032A04BF41F20020C0F298
:1009A0007A0003E042F20040C0F2F400E268B0FBDB
:1009B000F1F0C2F30621E2684843C2F3416102222A
:1009C00002EB4101B0FBF1F040F20C01C2F2000178
:1009D0000860A26844F26C23C2F30312C0F600035D
:1009E0009A5C44F2E444D04044F2E042C0F6000491
:1009F000C0F60002A242086009D244F2E045C0F607
:100A0000000500BF55F8040B8047A542FAD343F612
:100A10001000C2F20000C11C00F5705020F0030469
:100A200021F00305A4F11801A9424FF0000138BFDD
:100A30000121192C4FF0000238BF012211434FF061
:100A4000000632D140F66011C2F2000101270F709A
:100A500040F23441C2F20001621B41F6A0630D6016
:100A60004FF4F5510C3AC0F20103204685E84600E8
:100A700040F2304140F80C3D44E9022240F2384453
:100A8000C2F20001C2F2000408603AA2204602212C
:100A900002F0EEFF04F11400C4E9050040F658101E
:100AA000C2F20000A7836672056047F23460C2F2AA
:100AB0000000C0E9000047F21C4047F22845C2F29E
:100AC0000000C2F200050680A819A8510836B6F544
:100AD000807F4060F8D143F60C0847F22857C2F2F5
:100AE00000080020C2F20007C8F80000386047F292
:100AF0002040C2F2000043F20571C0E90000142456
:100B00001EA0C0F600014FF480720A23009403F087
:100B1000FAF803F0BBF940F25844C2F2000419A2FB
:100B20002046012102F0A4FF1F2043F6116147F285
:100B30002C5220260090C0F60001C2F2000220468E
:100B40004FF48073019601F0E7FB204603F09EF915
:100B5000386801F0C5FB05EBC00050F8080CA0F1A7
:100B600014010830C8F80010FFF7FFFB002002B0A6
:100B7000BDE8F08168656170000000006D61696E1C
:100B8000000000007469646C65000000FEE77047B7
:100B900040F21440C4F201000168490540F22C41C2
:100BA000C2F2000104D54FF48062026001220A7093
:100BB0000268920458BF70474FF40052026004204C
:100BC0000870704740F21440C4F2010001688905C2
:100BD00040F22C41C2F2000104D54FF400720260D1
:100BE00002220A700268D20558BF70474FF4807223
:100BF000026003200870704740F21440C2F2000007
:100C00000078012804D002F085F808B1FEE700BFA3
:100C100040F20840C2F20000006803F02FF80028FC
:100C2000F6D140F60024C2F2000400264FF001097C
:100C30004FF0020A4FF0040B05274FF0080800BFE1
:100C400094F8A900092800F2F980D4F8A050DFE850
:100C500000F0050A1C2D3A404D5B7A89002D00F00A
:100C6000D48084F8A990E868002800F0AD80696914
:100C700011B128468847E868EFF3108172B6C4E9DD
:100C8000080581F3108884F8A9A0002001F0CAFBB0
:100C9000B0F1FF3F40F3D280002840F0D280A96934
:100CA00009B128468847032084F8A900286900284C
:100CB00000F0C480EFF3108172B6C4E9080581F337
:100CC000108884F8A9B0E96909B12846884784F8F2
:100CD000A970A86801F0A6FBB0F1FF3F40F3AE8019
:100CE000002840F0AE80062084F8A900296A09B1E6
:100CF0002846884794F8A800C1074DD1410700F164
:100D0000788084F8A9B07EE0D4F8B000017800299A
:100D100000F0AA804068EFF3108172B6C4E90804BD
:100D200081F3108894F8A800B4F8DE1000F0FD00FC
:100D300084F8A800C82998BFC821A4F8DE1084F858
:100D4000B46084F8A980002001F06CFBB0F1FF3F93
:100D500040F37480002840F0748094F8A800800765
:100D600030D450E094F8A80000F0FE0084F8A80009
:100D7000EFF3108172B6D4F8A00000285BD00268AF
:100D8000C4F8A0200AB9C4F8A46081F31088816A6D
:100D9000002953D0884751E0696A09B1284688473D
:100DA000D4F8E83023B1D4F8EC0021462A4698471D
:100DB000D4F8B0000078A0F10C0111F10C0F84F808
:100DC000DC001DD809201CE0A86800283DD0286957
:100DD00000283AD0696911B1284688472869EFF39D
:100DE000108172B6C4E9080581F3108884F8A9A0BF
:100DF00026E000F0FB0084F8A80084F8A99002E047
:100E0000072084F8A90000201BE0EFF3108072B6E1
:100E100094F8A81001F0FE0284F8A82080F310884E
:100E2000C807F0D0D4F8E83053B1D4F8EC0021462C
:100E30000022984704E081F3108800BF84F8A9607D
:100E4000FE2000067FF4FCAE04E0032084F8A90035
:100E5000F6E700BF40F20C44C2F20004206802F042
:100E6000E7FE0028FAD1D3E644F2423103A0C0F6EF
:100E7000000140F2D942FFF74FFB00BF746869736D
:100E80002E5377697463682E70744D6F64652D3EC0
:100E900063684566666563747320213D2041524D49
:100EA0005F32445F5343454E455F5357495443486F
:100EB0005F4346475F4E4F4E450000002DE9F04F1F
:100EC00084B00A68002A00F0E28041F6004500F193
:100ED0003847C4F6000508234FEAB726A84208BFE2
:100EE0000723072E38BF4FEAB7234FF0010C002528
:100EF0004FF0000B01274FF000080093019100BF55
:100F0000A7F101090CFA09F4224000F0AC80D1F8F5
:100F100004A00292BAF1120F00F2B3800CFA0AF2A6
:100F200012F0061F00F0AD800322D0F808E002FAAC
:100F300005F3CA682EEA030EAA4042EA0E02826056
:100F40004268DE43A2434FEA1A1404FA09F422432A
:100F5000AE464260C2688C68324004FA0EF4224306
:100F60004AF01004122CC26017D16FF0030101EA9D
:100F7000590202440BF01C030F21D2F820A001FA01
:100F800003F401992AEA0404D1F810C001990CFA7B
:100F900003F323431362D1F804A002680AF00303A9
:100FA000324003FA0EF31A430260029E5FEACA035C
:100FB0004FF0010C57D541F26001C4F202010A68FA
:100FC00040F2004E42F001020A600A68C4F2010ECB
:100FD00002F001020392039A29F003024FF6084936
:100FE0007244CFF6FF7952F809C00BF00C040F21C0
:100FF00001FA04F32CEA030CDDE9003103FA04F4EE
:1010000044EA0C0342F80930DEF800C04B684CEAB1
:101010000604DA0358BF2CEA0604CEF80040DEF8D6
:1010200004C09C034CEA060258BF2CEA0602CEF824
:101030000420DEF808C0DC024CEA060258BF2CEAA5
:10104000060240F20C4CCEF80820C4F2010CDCF889
:1010500000409B0244EA060258BF24EA0602CCF88C
:1010600000204FF0010C0A6808F1010832FA07F37A
:1010700007F101070BF1040B05F102057FF440AF06
:1010800005E00322AA404FEA480ED64362E704B0C7
:1010900000F000B830BCBDE8C08F80B582B04EF61D
:1010A0000C50CEF2000001684FF6FF02114040F2F2
:1010B0000032C0F2FA52114301600F2000F019F81B
:1010C000A8B941F25800C4F20200816841F0010160
:1010D0008160816801F0010101910199016841F08D
:1010E00080510160006800F080500090009802B0CC
:1010F00080BD40F20C01C2F20001096844F6D352EF
:10110000C1F26202A1FB02124FF0FF3101EB921318
:101110000022B2EB136F1CBF012070474EF210018A
:101120004EF60C5CCEF20001CEF2000C4B60F023C8
:101130008CF817308A6007220F284FF001000A60F0
:1011400088BF7047DCF800100023C1F3022181F052
:101150000702042A28BF0422033938BF19464FF07A
:10116000FF3303FA02F2D24302FA01F109018CF8CB
:10117000171047F60801C2F20001087000207047FE
:1011800041F20001C4F20201886810F00C02C86844
:1011900005D00C2A27D100F00300012823D10868CC
:1011A000000703D4D1F89400000A01E008680009A0
:1011B00044F23C1300F00F00C0F6000353F8203057
:1011C000002A184618BF00200C2A18BF7047C868AC
:1011D00000F0030002280FD0032804BF41F20023CF
:1011E000C0F27A030CE0042A1DD0082A20D141F273
:1011F0000020C0F27A00704742F20043C0F2F403CC
:10120000C868CA68C0F30210C2F30622C968013078
:101210005A43B2FBF0F0C1F34161022202EB4101FB
:10122000B0FBF1F0704742F20040C0F2F4007047AA
:1012300000200023C8E72DE9F04383B007462A20A9
:1012400040F2184489468DF80100C4F600041025C8
:101250000DF10100012198461646256100F05AF86B
:10126000380A8DF802000DF102000121256000F01E
:1012700051F80DF1030001218DF80370256000F095
:1012800049F8300A8DF8040001A80121256000F01A
:1012900041F80DF1050001218DF80560256000F091
:1012A00039F82B208DF806000DF10600012125618B
:1012B00000F030F84FEA19208DF807000DF1070013
:1012C0000121256000F026F802A801218DF8089080
:1012D000256000F01FF84FEA18208DF809000DF185
:1012E00009000121256000F015F80DF10A00012127
:1012F0008DF80A80256000F00DF82C208DF80B0089
:101300000DF10B000121256100F004F803B0BDE8E8
:10131000F08300002DE9F04148F20102C8F200021A
:10132000A1FB0223DE0B04463004A0EBD33001EB1B
:10133000D33825184FF6FF773EB120464FF6FF71A0
:1013400000F00EF83C44013EF6E71FFA88F128460B
:10135000BDE8F04100F004B8FEE70000FEE7000041
:101360002DE9F04182B040F2B015C2F2000595F8C7
:101370005C20012A00F0FD804FF0010847F60407C9
:1013800085F85C80C2F200073C6895F85D20012A70
:1013900040F0EA80002800F0E780002900F0E480B7
:1013A0000322002385F85D202B66A863A987E987BF
:1013B0002B64A5F84430A5F84630AA68EB64B2F572
:1013C000004F2A682B6507D1136823F04003136090
:1013D000136843F48043136013685B0603D41368F7
:1013E00043F0400313606B680139EE68B3FA83F38E
:1013F000B1FA81F15B094909B6F5E06F41EA0301F1
:1014000013D931B130F8021BD160A863E98F0139DB
:10141000E987E98F002941D091688907F2D43968BA
:10142000091BC9087C29F4D99EE000294FF6FE71FA
:1014300011D0EB8F022B05D330F8023BD3604FF66F
:10144000FE7304E000784B1C1073A86B0130A86396
:10145000EE8F3344EB87EB8F03B3013193689B0727
:1014600006D43B681B1BDB087C2B14D97CE000BF37
:10147000EB8F022B06D330F8023BD3604FF6FE739E
:1014800005E000BF00780B461073A86B0130A8631D
:10149000EE8F3344EB87EB8F002BDFD14FF4C0503E
:1014A000214600F069F800284DD140F20C0238685E
:1014B000C2F2000239681368201A00F57A72C3F389
:1014C000CB3050430190286883681B060FD500BFBE
:1014D0003B685B1A934211D2019B019E002BA6F13F
:1014E00001060196866808BF1A463306F0D44FF409
:1014F000C060214600F040F828BB2AE0416821F096
:10150000E00141606968B1F5827F0AD1A968B1F54F
:10151000004F02D0B1F5806F03D1016821F0400186
:101520000160A96AB1F5005F07D1016821F400519B
:101530000160016841F400510160012085F85D00FF
:10154000002085F85C00286E40F0200028662020EE
:101550002866A86838B9002000902868C168009102
:10156000806800900098286E002085F85D8085F8DE
:101570005C0002B0BDE8F081B0B582B047F6040E61
:10158000C2F2000EDEF80020DEF80030891A40F2C8
:101590000C02C2F20002D2F800C023220CFB02F2BD
:1015A00001F57A71120D4A4340F2B01C0092C2F26A
:1015B000000CDCF800209468044215D0B0F5C06F30
:1015C00002D1147B0194019CDEF80040E41A8C42A5
:1015D0000CD2009C009D002CA5F10105009595689A
:1015E00008BF21460542E9D1002028E0506820F0DC
:1015F000E0005060DCF80400B0F5827F0BD1DCF82D
:101600000800B0F5004F02D0B0F5806F03D110682C
:1016100020F040001060DCF82800B0F5005F07D132
:10162000106820F400501060106840F40050106002
:1016300001208CF85D0000208CF85C00032002B0D3
:10164000B0BD704740F2144140F2D045C2F20001F3
:10165000C2F200054FF00A100978286040F27820A5
:10166000C2F20000686009B901F054FB40F210407A
:10167000C2F2000000684FF6FF770563002040F2D9
:10168000FF1100BF6A6802EB800322F8207001306E
:1016900064285980F6D147F23477C2F2000740F24D
:1016A0000220388040F214200121C2F20000C172F1
:1016B0006868A7F8C81040F2FF11C1850021818534
:1016C000032087F8CA0001F0E3FA40F2084B40F229
:1016D0000C4840F22C46C2F2000BC2F20008C2F2E3
:1016E000000600BF40F21440C2F20000007808B9C2
:1016F00001F010FBDBF8000002F09AFA0028F9D1A3
:10170000D8F8000002F0BAFA0028F9D1B7F8C8C03A
:101710003278ACF1010007EB400317F8109093F812
:1017200001A09AB1013A032A4FF0000131700DD89F
:10173000DFE802F002131C2697F8CA2040F2164197
:10174000022AC2F2000133D0032222E097F8CA2015
:1017500040F21641C2F200011DE097F8CA2040F2A3
:101760001641C2F20001E2B1012212E097F8CA204C
:1017700040F21641032AC2F200011DD0022208E005
:1017800097F8CA2040F21641012AC2F200010BD09C
:10179000002287F8CA20032A10D8DFE802F00205E9
:1017A000090DAAF1010A09E00AF1010A06E000BFE9
:1017B000A9F1010902E000BF09F101090B785FFA04
:1017C00089F29A422ED14B785FFA8AF69E4229D14D
:1017D0000120887001F05CFAB7F8C80040F2FF13EE
:1017E0000130A7F8C80080B207EB400000F8029C67
:1017F00000F801ACB7F8C80007EB400030F8020C65
:10180000C2B29200010A52FA80F001EB40000B389C
:10181000696880B201EB80025380002221F8202009
:1018200046E000BFA9F10B03DBB2F62B6CD35FEAF5
:101830000A6369D05FFA8AF30B2B65D23E88BCF14C
:10184000020FF4B24FEA84044FEA162154FA86F6E6
:1018500001EB4601A1F10B016E6840F2142489B23C
:10186000C2F200044FF00005655406EB810440F21B
:10187000FF1565804FF6FF7426F8214012D3002033
:1018800007EB40018E78B24202D1CE78B34239D014
:101890004988861C27F81010B7F8C81001308E420E
:1018A000EED3481E07EB400107F8109081F801A025
:1018B000FEF70EFD43F60C01C2F200010C6805466E
:1018C000204602F0FCFA04F14406FEF701FDC821AF
:1018D000A166FEF701FD304602F024FB2846FEF724
:1018E000FBFC02F01FF9206B40F2D04540F22C4681
:1018F0000230C2F20005C2F2000604BF00202063DD
:10190000F0E600BFFEE700BFFEE700002DE9F04F64
:1019100083B0FEF7DDFC47F21448C2F2000898F8E5
:101920000010013188F80010FEF7D6FC47F60400DD
:10193000C2F20000016843F60C040131016047F275
:10194000306AC2F20004C2F2000A2068DAF800101D
:10195000026C0131CAF80010511E016428D1C16B1C
:101960000164FEF7B5FC216891F8342002F00F0203
:10197000012A1BD10A4652F8143F5768BB4215D0C2
:101980005F6091F8357047F22846C2F2000606EB18
:10199000C7078E698A617D6833602A608D617A60CD
:1019A0004F61FEF799FC02F0BDF801E0FEF794FCF0
:1019B00001AFDAF8004002970197FEF789FC47F281
:1019C0003465C2F200052E688146AE423BD04FF628
:1019D000FE7BC7F6FF7B00BF7069201A584532D8DE
:1019E000D6E900104860726816F80B0C1160810788
:1019F00036605CBF00F0FE0006F80B0C01984660F4
:101A00003060D6E902100196776088470198DAF8CD
:101A10000040B84214D0D6E9000141607168766098
:101A2000086016F80B1C366001F00300032807D18C
:101A3000A6F1140001F0FE0106F80B1C02F072FA88
:101A40002E68AE42C8D14846FEF746FCFEF740FC81
:101A500098F80010013988F8001003B000F002B8BF
:101A6000FEF73ABC30BCBDE8C04FFFF7F9BF00003D
:101A700010B547F20000C4F20000016801F4C06133
:101A8000B1F5007F1FD00168012262F34A21016095
:101A900040F20C01C2F200010968322359434DF6AD
:101AA0008363C4F21B33A1FB031302EB93410022B7
:101AB0004469013942F10003640501D5002BF7D1D7
:101AC000406940054ED441F20004C4F20204A0680B
:101AD000E16800F00C00082805D00C2845D101F081
:101AE0000301032941D12168E26847F6737341F28B
:101AF0000341CFF66063C1F200011A408A4217D158
:101B0000206880015CD4206840F080702060E0682C
:101B100040F08070E06047F60400C2F20000016807
:101B2000226892014CD40268521A032AF8D32CE09E
:101B30000C282AD0206840015CBF20685FEAC00002
:101B400023D4206820F08070206047F60400C2F2A1
:101B50000000026823689B0119D503689B1A022BB9
:101B6000F8D912E072B600BFFEE7216841F4803177
:101B7000216047F60401C2F200010A6823689B0352
:101B8000B2D40B689B1A642BF8D972B6FEE7E268F0
:101B900048F28C03C0F29D131A401143E1602168A2
:101BA00041F080712160E16841F08071E16001687D
:101BB0002268920104D40268521A022AF8D9E4E792
:101BC00042F2000CC4F2020CDCF8001049070CD4FD
:101BD000DCF80010042262F30201CCF80010DCF8FB
:101BE000001001F00701042955D12168890152D55F
:101BF000A16841F2883341F00301A16047F6040176
:101C0000C2F200010A6800BFA06800F00C000C28B6
:101C100004D00868801A9842F6D93CE0A06820F009
:101C2000F000A060DCF8000000F0070005280CD3ED
:101C3000DCF80000042161F30200CCF80000DCF8BD
:101C4000000000F00700042825D1A06820F4E0601F
:101C5000A060A06820F46050A060FFF791FAA1682E
:101C600044F26C22C1F30311C0F60002515C01F092
:101C70001F01C84040F20C01C2F20001086047F6A3
:101C80000800C2F2000001781020002918BF0F20C0
:101C9000FFF72FFA08B172B6FEE710BD4EF6885076
:101CA000CEF2000001684FF6FF7341F4700101604D
:101CB00041F20000C4F202000168CEF6F62341F0C2
:101CC000010101600021816002681A4002604FF446
:101CD0008052C260026822F48022026081617047F3
:101CE000FEE740F60021C2F20001486D20B1006815
:101CF000486508B1012011E091F8740020B101207D
:101D000081F8700000207047886B0028F7D0086CBD
:101D10000028F4D04865012081F8740081F8710032
:101D2000704700002DE9F04F89B0476840F6681110
:101D3000C2F20001002F08BF01F12007796809787D
:101D4000082940F0918097F82420C168B0F9143038
:101D5000FF2A6ED0B0F91E50012D2E460295C0F21A
:101D60007F803F8CB0F91CA0FE00F0B20490F820F8
:101D700000EA172EFC2000EAD70BC2F58077A3EB10
:101D80000A000024FF2507AB0DF1140C019000BFE1
:101D9000BAF1010F039443DB4FF000080498ADF84B
:101DA00020E0ADF81C00ADF81EB0ADF822500C8854
:101DB0004FF00009E000C0B2ADF81400F82000EACE
:101DC0001420ADF81800FC2000EAD400ADF816008D
:101DD000ADF81A5033F819003CF81940504304FB91
:101DE000070080B2000A2CF8190009F10109B9F1C5
:101DF000030FEFD1BDF81400BDF81640BDF8186010
:101E0000C0F3C40004F0FC0440EAC40006F0F80487
:101E100040EA042008F10108D04521F8020BBDD1A9
:101E2000039C029801348442019801EB4001AFD138
:101E300016E0B0F91E20012A12DB3F8CB0F91C001D
:101E4000002600BF012806DB002500BF21F8157021
:101E50000135A842FAD10136964201EB4301F1D196
:101E6000002009B000F026B844F27C2102A0C0F6A0
:101E70000001ED22FEF750FB41524D5F32445F43BB
:101E80004F4C4F55525F524742353635203D3D202D
:101E90004F505F434F52452E70744F702D3E496E28
:101EA000666F2E436F6C6F75722E6368536368653F
:101EB0006D65000030BCBDE8C08F000010B540F675
:101EC0006814C2F20004606A407800F01F00122813
:101ED00014DCC21F082A04F1400124D8DFE802F014
:101EE00005252528052525250500206C00F0DFF8AF
:101EF000A06C00F0DCF804F14C0119E01A2804DCB5
:101F0000132813D0172805D00FE01B2802D01F2854
:101F100018BF10BDA06C00F0CAF8E06D00F0C7F863
:101F200004F1600104E0032802D010BD04F148016F
:101F30000868BDE8104000F0BAB800002DE9F04391
:101F400083B004460F46806861681D461646786077
:101F500039600BB1002028600EB10020306020787D
:101F6000C10739D14FF000090DF10408400703D52E
:101F700015B1286800B92C60E46864B37EB1B7F984
:101F80000000B7F902104042328820EAE07049426E
:101F90001044728821EAE171308050187080A16885
:101FA0002078CDF804900291C0071CBF60680190B2
:101FB000404639463A4600F03EFD60B12078C00701
:101FC0000AD1A088398808443880E0887988084494
:101FD00078802078CAE70024204603B0BDE8F0836B
:101FE0002DE9F04182B01E4615460C4601F114035E
:101FF000694600224FF00008FFF7A0FF616919B1A0
:102000000978022222EA410800284DD0DDF820C0DC
:1020100016B10178890702D4D5F800E007E0C1784D
:102020000123C1F3420103FA01FEC5F800E05FEAB3
:102030000C75BDF800304FF00005BDF80220878810
:10204000C1884FF0000658BFDD1B5FEA4C7358BFD4
:10205000561ABEF1080F09D3B0F908102AB211FBC5
:102060000622C6688BB202FB0EF10DE0B0F9081033
:10207000C7688BB20EFB01F10731C90836B22AB22C
:1020800001FB06760EFB02F106EBD101C4E900125A
:10209000DDE900122381C4E90312C178E27AA1725A
:1020A00002F0FC014144E17202B0BDE8F081A8B148
:1020B00080B582B0694600220023FFF73FFF50B190
:1020C00001460078000706D58B69CA680020C86001
:1020D0000BB10869984702B0BDE880407047000026
:1020E000F0B581B0B1F90C00B1F910603218F02AE6
:1020F0001CDCB1F90E50B1F912707B19F02B15DC14
:10210000ACB24D69511E013B80B28AB29BB22146EE
:10211000FFF791F840F21840C4F60000102101606A
:1021200006FB07F041002846FFF7F4F840F60020D0
:10213000EFF3108372B6C2F20000D0F880100022D4
:10214000C0F8802083F3108891B1CA60EFF3108249
:1021500072B6C36F0B60B0F87630C167591CA0F837
:10216000761082F3108801B0BDE8F04000F02FB97E
:1021700044F2E82103A0C0F600014FF43672FEF7E6
:10218000CBF900BF66616C736500000070B540F26A
:10219000080EC2F2000EDEF8001099B340F60022DD
:1021A00040F2000CC2F20002C2F2000CD2F8980019
:1021B000DCF8002040F2A013904238BF0246C2F281
:1021C00000031C68CCF8002040F2A812C2F2000202
:1021D000A042C8BF0446D2E900561C602C1846EB4A
:1021E000E070C2E90040481ECEF800000AD14FF06E
:1021F000FF30CCF8000000201860C2E900001E206B
:10220000CEF80000012070BDFEF741B97047000014
:1022100080B5EFF3108072B601214906084A1160BB
:1022200080F3108801F0E2FE064800214160016061
:10223000054801600548016000F00AF880BDC0460D
:1022400004ED00E0407600204C760020507600201F
:10225000704700002DE9F04F83B040F21048C2F201
:102260000008D8F80000006B0388428802FB03F7DF
:102270007FB38B460027F0254FF6FF7A0DF1040956
:10228000B7FBF3F192B201FB13749BB2B5FBF3F30E
:10229000B5FBF2F25C4351434068ADF80440ADF841
:1022A0000610ADF80830ADF80A208378008826EAD9
:1022B0000A010E1858464946324600F02BFCD8F861
:1022C00000000137006B0388428802FB03F18F4254
:1022D000D6D3002003B000F000B830BCBDE8C08FFA
:1022E00018B1C1B219B101200EE00020704710F4FE
:1022F0007F4102D0090A092006E010F47F0107BFE0
:10230000010E1920090C112044F26C12C0F60002D3
:10231000515C0844704700002DE9F04381B0044649
:102320001430C4E905000020DDE90898C4E908106C
:10233000C4E90A23104623211A4601F011FBD4E90F
:102340000A12D4E90803114421F007014BF6EF65A6
:10235000A1F144026FF04307CDF6AD65CD510437CE
:10236000FCD143F64B550027C0F600054FF08076B0
:1023700041E9083741E9067741E9047541E9020678
:1023800041F8447CE26104F144000A21224684F8C9
:10239000369084F83590C4E90E78C4F840802763FD
:1023A00084F83470C4E91C7701F062FB43F6FD60E9
:1023B00004F15801C0F60000C4E9161104F16001EF
:1023C00084F84D7091C1E76601B0BDE8F08340F636
:1023D0000023EFF3108072B6C2F20003D3F884102A
:1023E000B1B10A68C3F8842012B90022C3F888206A
:1023F00093F8732002F0FD0283F8732080F31088B5
:10240000C3F880108A69D3E906C0D20F4B606047D9
:1024100093F8731041F0020183F8731080F3108871
:10242000704700002DE9F04F85B040F60024C2F25D
:102430000004216A002900F09982054694F8720090
:10244000042800F2AB80DFE810F0B000DF01FF01EC
:102450000500050094F8730000F0FE0084F8730096
:1024600000F036FDA269C4E92401002A00F08A8246
:10247000A06F002800F09282B4F84410B4F84C2009
:10248000B4F84630B4F84E701144FA188181C28114
:10249000E18AA06F490726D54169002900F08782AB
:1024A000B0F91020B0F912305A43E2B1CB0740F036
:1024B000878201F00303022B05D10B88013A1BBA76
:1024C0001B0C21F8023B530802F0010206D000BFAA
:1024D0000F68013B7FBA41F8047BF9D11AB10A6851
:1024E00012BA120C0A80816994F8702021F0004120
:1024F00041EAC2718161EFF3108072B6D4F888307E
:10250000A26F94F873100026002B14BF1A60C4F851
:102510008420C4F88820166080F31088880748BF9C
:10252000FFF755FFE18AA06FC90784F870600AD1F0
:1025300040F66812C2F200020023EFF3108172B677
:10254000D36181F31088018AB4F844201144B4F9AE
:1025500050200BB29342A4F8441035DB408AB4F803
:102560004610B4F95220084401B2A4F846000020F5
:102570009142A4F8440027DBA4F84600FFF7B1FB22
:1025800010BB00F0A5FCD4F89010D4F89C20401AA1
:102590001044C4F89C00002084F87200216B09B13B
:1025A000606B88474FF00008D0E194F8731000206A
:1025B000C4F89800C4F89C0041F0010084F873004E
:1025C00000F086FCC4E92401B5FA85F040094FF01B
:1025D000000A04F1580802AE019000BFC4F878A0C8
:1025E000EFF3108072B6B4F87610E28AB1EB123FC6
:1025F00011D9EFF3108172B6B4F87630E26F013B77
:10260000A4F876301AB11368E367C2F800A081F32A
:1026100010885460A26780F31088D4F878B0BBF1BA
:10262000000F0DD094F870000BF1080950B101981B
:10263000656584F87400012084F8710004E000BF2F
:102640000020AFE094F8710050B3606D84F871A081
:1026500048B3017B31B9011D04F14C02204600F062
:10266000EAF920BBFFF73DFB0028EBD1EFF3108028
:1026700072B6A16F61B1EFF3108272B6E36F0B60B7
:10268000B4F87630E167591CA4F8761082F310880C
:10269000C4F878A080F310884FF0FF3082E000BFCC
:1026A000B4F8680042E0D4E90001C4E91301E08A0B
:1026B000B446C0F3821191B1B4F84C204FF0FF330F
:1026C00003FA01F102EA0103A4F84C30D21AB4F87B
:1026D0005030CE431A4432441140A4F85010C0F395
:1026E000422189B1B4F84E204FF0FF338B4002EA0B
:1026F0000306A4F84E60921BB4F85260DF433244E4
:102700003A441A40A4F8522080070CD4B4F950205F
:10271000E36E6646934255D8B4F95200504398424E
:1027200050D9E06801E0E0686646A066B4F84C1055
:10273000B4F94420B4F84E301144B4F8467049421C
:10274000ADF80810D9194942ADF80A10B4F9501083
:10275000636800B2891A03938142B8BF0846ABF898
:102760001000B4F94600B4F95210B4F96A20081AFE
:102770009042B8BF0246ABF8122048463146424666
:10278000002300F09DF9E08AC0070AD140F66811E5
:10279000C2F20001EFF3108072B6C1F81C8080F322
:1027A00010884046C4F88C0010B1411C06D1E8E600
:1027B000A16A19B1E06A8847D4F88C0000283FF478
:1027C0000DAF14E090B2B3FBF2F2A4F8680059B177
:1027D0004FF0FF3303FA01F111404FF6FE72114240
:1027E0009FD0A4F86A10A1E7A4F86A209EE700F041
:1027F0006FFBD4F89010D4F89C20401A1044C4F811
:102800009C00012084F8720000F062FB94F87320B1
:10281000C4E92401D4E90830D4F88C1002F0010294
:102820009847804600F054FBD4F89020A16BD4F870
:102830009830801A1844C4F89800E9B1B8F1000F34
:102840001AD1022084F8720000F042FB94F8732041
:10285000C4E92401D4E90E30D4F88C1002F001024E
:102860009847804600F034FBD4F89010D4F89820B4
:10287000401A1044C4F89800E08A00074ED5002D95
:102880004CD04FF0010902AF6FF0010A287B0028FD
:1028900041D1D4F88C60002E5CD0A86869684FF4F0
:1028A000FC62CDE90210304639468023ADF80E9027
:1028B00000F030F96889BDF80A104FF4FC62084452
:1028C0000138ADF80A0030463946802300F022F97D
:1028D000A86869684FF4FC62CDE9021009EB114168
:1028E0000AEB1040ADF80A10ADF80E00304639463C
:1028F0008023ADF80C9000F00DF92889BDF8081080
:102900004FF4FC6208440138ADF8080030463946FF
:10291000802300F0FFF82D68002DB7D1B8F1010F2A
:1029200012D0B8F1FF3F08DDB8F1020F09D1032042
:1029300084F872004FF0020808E0002084F872006A
:1029400004E0042084F872004FF00108404605B00E
:1029500000F06EB844F2C84044F20041C0F60000F6
:10296000C0F6000140F28312FDF7D6FD44F2944018
:1029700044F2E821C0F60000C0F6000140F20F3238
:10298000FDF7CAFD44F2564044F2E821C0F60000CB
:10299000C0F600014FF4B872FDF7BEFD44F2E82125
:1029A0001BA0C0F6000140F27112FDF7B5FD44F224
:1029B000E82112A0C0F6000140F21B12FDF7ACFDA9
:1029C00044F2E82103A0C0F600014FF49172FDF734
:1029D000A3FD00BF28282875696E747074725F7437
:1029E0002920706877427566666572292026203036
:1029F00078303129203D3D20300000004E554C4CB0
:102A000020213D207068774275666665720000007F
:102A10004E554C4C20213D20746869732E416461F1
:102A2000707465722E707443757272656E740000F6
:102A300030BCBDE8C08F2DE9F0418388B0F900407B
:102A4000B1F804C02344013B1FB2B1F90030B0F922
:102A50000280B1F9025003EB0C06013E9C420FFAD2
:102A600086FCC8BF2346A845AE46C8BFC6466745D4
:102A7000B8BFBC469C4511DBC988ADB22944C588A6
:102A80001FFA88F4013908B26119013909B281428B
:102A9000B8BF08460FFA8EF1884202DA0020BDE87E
:102AA000F08152B1ACEB0301A0EB0E00013101301B
:102AB0001380A2F802E09180D0800120BDE8F0816F
:102AC00070B582B014460A46054600202146C4E986
:102AD0000200206041F8040F56681268A6600A6080
:102AE0000090A868019068462BB10A46FFF7A3FF43
:102AF00030B900260BE000220026FFF79CFF30B122
:102B000028682646206000F0FA002070E560304614
:102B100002B070BDF0B5B7B040F66815C2F200055E
:102B20006F8DEFF3108672B6FF0628D4032785F861
:102B3000297000276F856C8D44F010046C8586F336
:102B4000108844F22416C0F60006A5F84020421C66
:102B50006E62C5E90E0185F8443001D1E869A863C9
:102B60000D97CDE90B77CDE90977089751B10F683B
:102B70004A68390C41EA0246CDE9067208E086F35C
:102B8000108870E0011DE963816800260791002725
:102B900015A90EAA0023FFF7D1F9002857D00E99E6
:102BA000A86B159115A90AAA0123FFF789FF002830
:102BB00061D00446BDF83800BDF83A10381AADF8B7
:102BC0001800701AA168ADF81A0008A8099106A9A2
:102BD0000246FFF730FFD0B30020CDE90400CDE975
:102BE000020006A902AA20460123FFF769FF70B37D
:102BF000686A017801F00E02052A36D3C1F342015A
:102C00000122407802FA01F114910027C30902A8B9
:102C10000EA914AA0097FFF7E3F915A88821FDF77C
:102C2000BBFC0EAB0ECBCDE9192318911199129A6A
:102C300005F12000CDE91B1213996A6A1D91916874
:102C40001690096899B115A88847044610E0FD243C
:102C5000E0B2FD3818BF2046202185F8290001EA9E
:102C600090004030688537B0F0BDFC24F0E7FC24CC
:102C7000FFF724F9ECE744F2C84044F29E31C0F675
:102C80000000C0F6000140F2A652FDF745FC00002E
:102C900070B540F21644C2F20004A078C0B340F20E
:102CA0001425CD26C2F2000500F012F9FDF716FC3E
:102CB000FDF7D4FAC1B27143C90A01EB8101A0EB5F
:102CC00041002070FDF7CAFAC1B27143C90A01EB95
:102CD0008101A0EB410060702088C2B29200010A1D
:102CE00052FA80F001EB40000B3880B2295C0129D8
:102CF000DAD00021A1700121295440F2D041C2F262
:102D0000000149684FF60002C0F2FF1241F820208E
:102D100070BD000070B540F60024C2F200042046E9
:102D2000F021FDF739FC47F25865C2F20005012693
:102D3000EFF3108072B62E7080F3108804F1440017
:102D40005C21FDF729FC44F2E001C0F600012046B9
:102D50004422FDF7C4FC4FF4B450E16840F6F02281
:102D6000E0660020C2F20002A4F87600D072C2E948
:102D7000030102F11C00506190694FF4345161F37A
:102D8000170016729061EFF3108072B6E16FE26780
:102D90001160B4F876100131A4F8761080F3108831
:102DA00094F8730084F8706040F0020084F87300B7
:102DB000EFF3108072B62E7047F25C65C2F2000528
:102DC00080F3108828466C21FDF7E6FB05F16C00C6
:102DD0006C21FDF7E1FB00F07BF800F079F840F2A0
:102DE0001046C2F20006306868BB3420FDF720FBB5
:102DF000002830605ED034210546FDF7CDFB42F25D
:102E00005520C0F60000002142F20D22C5E9040160
:102E100042F20920C0F60002C0F60000C5E9061122
:102E20002A62A8626C60EFF3108072B6D4F8A41026
:102E3000002914BF0D60C4F8A0500021C4F8A450AC
:102E4000296080F3108840F20844C2F20004206830
:102E500060B919A1022000F0B1FD30B100F11401F8
:102E6000C0E90511002181834172206040F20C45C8
:102E7000C2F20005296871B912A1022000F09EFD7E
:102E8000014630B101F11400C1E90500002088833A
:102E900048722068296000284FF0010018BF0029FF
:102EA00000D170BD40F21440C2F200000121017057
:102EB000002070BD012070BD656E67696E6552654A
:102EC00071000000656E67696E65527370000000E6
:102ED00010B5EFF3108072B60B490A684B68D21A2E
:102EE0001D4B1B685B0106D50B689B1A102B02DB80
:102EF000096851184A1C19494B680C6880F31088FE
:102F0000D117A018594110BD14E000E080B5EFF3CF
:102F1000108172B6002807D10D48002202600D4BC7
:102F20004360826007220260012040060A4A106066
:102F300081F3108801F05AF80848002141600160CF
:102F40000748016007480160FFF782F980BDC0466D
:102F500010E000E0FFFFFF0004ED00E040760020FD
:102F60004C760020507600202DE9F04F8DB040F2D5
:102F7000004441F24C0BC4F60004C4F2020BFEF70D
:102F80008CF8FEF775FD01200125FFF7BFFFDBF888
:102F9000000003AE40F08000CBF80000DBF800003A
:102FA000D02700F0800008900898DBF80000314638
:102FB00040F00200CBF80000DBF8000000F0020057
:102FC00008900898DBF8000040F00800CBF80000FB
:102FD000DBF8000000F00800089008980220069036
:102FE0002046CDE903750595FDF768FF802504F5BA
:102FF00000603146A76203950290FDF75FFF40F63F
:103000002840C4F6000005600560A562402047F630
:103010000405A062C2F20005286800BF2968091AE9
:103020007929FBD343F60040402140F2B016C4F2A8
:103030000000A161C2F200064FF4827200274FF433
:1030400000714FF4E06386E8850006F10C02C6E9E2
:10305000061707214FF002084FF0010C82E8081113
:10306000C6E90877C6E90A7196F85D1051B186F88D
:103070005D8001684FF4E06E21F0400101604FF483
:10308000805C3BE086F85C70DBF8000008A940F04B
:103090000200CBF80000DBF8000000F0020008900E
:1030A0000898DBF80C0040F40040CBF80C00DBF88B
:1030B0000C0000F4004008900898282081E80111D5
:1030C00003200B9006200C9008A92046FDF7F6FE81
:1030D0003068D6F80CE086F85D800268BEF5E06FD7
:1030E00022F04002026098BF01274EF400624FEACE
:1030F000073CB2F5706F1CBF0023B362D6E90137FD
:10310000D6E9042103F4827307F404473B4402F038
:1031100002021A44B36901F00101F769114403F492
:103120000072114407F03802376A114407F0800238
:10313000B76A114407F40052114301600421726A16
:103140000EF4706701EA1341736B47EA0C0702F053
:103150001002394303F00803114319434160002171
:103160003166012186F85D10016841F0400101607F
:10317000286800BF2968091A7929FBD311208DF826
:1031800020001020A06208A80121FEF7C3F82868DB
:103190002968091A7929FBD336208DF820001025DB
:1031A00008A80121A5624FF0010AFEF7B3F8002636
:1031B00008A801218DF82060A561FEF7ABF83A2040
:1031C0008DF8200008A80121A562FEF7A3F865206C
:1031D0008DF8200008A80121A561FEF79BF8B22018
:1031E0008DF8200008A80121A562FEF793F80C27AE
:1031F00008A801218DF82070A561FEF78BF808A8BA
:1032000001218DF82070A561FEF784F808A801213E
:103210008DF82060A561FEF77DF8332708A801210D
:103220008DF82070A561FEF775F808A801218DF8CA
:103230002070A561FEF76EF8B7208DF8200008A871
:103240000121A562FEF766F872208DF8200008A81B
:103250000121A561FEF75EF8BB208DF8200008A8CB
:103260000121A562FEF756F83D208DF8200008A840
:103270000121A561FEF74EF8C0208DF8200008A8B6
:103280000121A562FEF746F82C208DF8200008A841
:103290000121A561FEF73EF8C2208DF8200008A8A4
:1032A0000121A562FEF736F808A801218DF820A0BB
:1032B000A561FEF72FF8C3208DF8200008A8012192
:1032C000A562FEF727F819208DF8200008A8012133
:1032D000A561FEF71FF8C4208DF8200008A8012181
:1032E000A562FEF717F820208DF8200008A801211C
:1032F000A561FEF70FF8C6208DF8200008A801216F
:10330000A562FEF707F80F208DF8200008A801211C
:10331000A561FDF7FFFF4FF0D00A08A801218DF845
:1033200020A0A562FDF7F6FFA4208DF8200008A8D4
:103330000121A561FDF7EEFFA1208DF8200008A86E
:103340000121A561FDF7E6FFE0208DF8200008A827
:103350000121A562FDF7DEFF08A801218DF820A05C
:10336000A561FDF7D7FF04208DF8200008A80121F2
:10337000A561FDF7CFFF0D2708A801218DF820706A
:10338000A561FDF7C7FF11208DF8200008A80121D5
:10339000A561FDF7BFFF13208DF8200008A80121CB
:1033A000A561FDF7B7FF2B208DF8200008A80121AB
:1033B000A561FDF7AFFF3F208DF8200008A801218F
:1033C000A561FDF7A7FF54208DF8200008A8012172
:1033D000A561FDF79FFF4C208DF8200008A8012172
:1033E000A561FDF797FF18208DF8200008A801219E
:1033F000A561FDF78FFF08A801218DF82070A56158
:10340000FDF788FF0B208DF8200008A80121A56199
:10341000FDF780FF4FF01F0808A801218DF82080DC
:10342000A561FDF777FF4FF0230908A801218DF86A
:103430002090A561FDF76EFFE1208DF8200008A81F
:103440000121A562FDF766FF08A801218DF820A0E3
:10345000A561FDF75FFF04208DF8200008A8012179
:10346000A561FDF757FF0C208DF8200008A8012169
:10347000A561FDF74FFF11208DF8200008A801215C
:10348000A561FDF747FF13208DF8200008A8012152
:10349000A561FDF73FFF2C208DF8200008A8012131
:1034A000A561FDF737FF3F208DF8200008A8012116
:1034B000A561FDF72FFF44208DF8200008A8012109
:1034C000A561FDF727FF51208DF8200008A80121F4
:1034D000A561FDF71FFF2F208DF8200008A801210E
:1034E000A561FDF717FF08A801218DF82080A561CF
:1034F000FDF710FF08A801218DF82080A561FDF7D8
:1035000009FF20208DF8200008A80121A561FDF702
:1035100001FF08A801218DF82090A561FDF7FAFEB2
:1035200021208DF8200008A80121A562FDF7F2FEF8
:1035300029208DF8200008A80121A562FDF7EAFEE8
:1035400000200021EF22EF23FDF775FE002000216F
:10355000EF22EF23FDF76FFE40F2D840C2F20000E9
:103560004FF6FF7120F816100136B6F5107FF9D12D
:1035700040F2D84610200025C2F20006A06100BF2C
:1035800030464FF49061FDF7C5FE632D05F101054E
:10359000F6D38020A061DBF800000DF1200840F098
:1035A0000800CBF80000DBF80000002500F0080060
:1035B00008900898DBF80000414640F00800CBF87E
:1035C0000000DBF8000000F0080008900898DBF825
:1035D000000040F00800CBF80000DBF8000000F02D
:1035E000080008900898DBF8000040F00400CBF8D1
:1035F0000000DBF8000000F00400089008980020AC
:10360000C1F21100DDF808A009904FF48060089025
:1036100050460A95FDF752FC4EF60C59CEF20009C1
:103620004EF2174BD9F80000CEF2000B4EF2001705
:103630008BF81150CEF200074FF4807078604FF491
:103640000070089050464146FDF738FCD9F800005C
:103650008BF800504FF400063E604FF480700890E5
:1036600050464146FDF72AFCD9F800008BF800507F
:103670003E604FF40050089004F580604146FDF72D
:103680001DFCD9F800008BF811504FF48070786061
:1036900040F66810EFF3108472B6C2F20000942175
:1036A000FCF77AFF40F6F93184F3108864240FA008
:1036B000C0F600014FF400721923009400F023FBC0
:1036C00008B100F0E3FB41F245610AA0C0F6000139
:1036D0004FF400721723009400F015FB08B100F0BE
:1036E000D5FB00200DB000F009B800BF656E67691A
:1036F0006E65000067616D650000000030BCBDE8CC
:10370000C08F0000B0B544F2E84444F2E440C0F693
:103710000004C0F60000A04209D244F2E445C0F61D
:10372000000500BF55F8040B8047A542FAD3BDE859
:10373000B040FFF719BC2DE9F04100285CD040F201
:103740003446C2F2000604463068A04254D840F223
:103750003048C2F20008D8F80000A0424CD940F22C
:103760003840C2F2000000F089FA4FF4F5502146CB
:1037700040F6581C41F80C0DC2F2000CDCF800E0D9
:1037800047F6000571453CBFCCF800108E4654F852
:10379000080C3268C2F200052F6886188B1B3B4468
:1037A0002B6011D073887BB9D8F800309E420BD0C3
:1037B000B64504BFCCF800108E4670688D1A44F8E8
:1037C000080C736813449D6054F8046C95198D427D
:1037D0000AD06B8843B98E4508BFCCF800506860AA
:1037E00054F8080C1044866040F23840C2F20000E1
:1037F000BDE8F04100F01CBABDE8F081FEE7000032
:103800002DE9F04381B000284AD040F6601443F619
:1038100010010330C2F20004C2F2000120F00306DE
:103820002078CA1C01F5705122F0030221F0030137
:10383000891A0028A1F1180918BF484686422FD8D6
:1038400040F23840C2F200000C2E98BF0C2600F067
:1038500015FA40F6581E40F23440C2F2000EC2F291
:103860000000DEF8008002682078A8EB0203002840
:1038700008BF8146A9EB06018B420BD2D41867889A
:10388000606827B903F10C07C51BB5420CD288420A
:103890000346F3D340F23840C2F2000000F0C8F90A
:1038A000002001B0BDE8F08306F1180140F65C1C71
:1038B0008D42C2F2000C10D20121618047F6000156
:1038C000C2F20001C01A0B68DCF8005018448542AF
:1038D000086022D2CCF800001FE006F10C013E4443
:1038E00095194FF4F5579751C5E901036660012317
:1038F000686809F10C05638047F60003A8421CBF05
:1039000010448660C2F200031868DCF800500844D6
:103910008542186038BFCCF800004FF4F55044459C
:10392000208014D1B8F8020088B140F23040C2F2D1
:103930000000006880450AD0D8F8041002EB0108A6
:10394000B8F8021009B18045F6D1CEF8008040F2F7
:103950003840C2F2000000F06BF904F10C00A0E75F
:10396000B0B5042A054618D315F0030015D1C8B226
:103970004FF00133102A00FB03F310D32C4600BF95
:1039800004F11000103AC4E90033C4E902330F2AED
:103990000446F5D8032A03D807E0284605E0284660
:1039A000043A032A40F8043BFAD822B1CBB21146BC
:1039B0001A46FCF78CFF2846B0BD00002DE9F04107
:1039C0000C4640F2100106460020C2F2000100BF82
:1039D0000A5CB24205D010304028F9D14FF00008FF
:1039E00001E001EB0008D8F80C00FFF709FF0546DD
:1039F00028B3D8F80C20284600210027FFF7B0FF95
:103A00002E726F72E05DE85518B10137082FF9D1B9
:103A100007E0072F05D0E819C7F107010130FCF7CF
:103A20005EFFFCF755FC58F8041F2A4642F80C1FAD
:103A30004A60C8F80020C2F80480FCF74DFC284614
:103A4000BDE8F08110B5044600202072FCF740FC70
:103A50002246216952F80C3F5960216922610B60AE
:103A60001260FCF739FC2046BDE81040FFF763BE4A
:103A70002DE9F0410E4640F21001154604460020A3
:103A8000C2F200010A5CB24205D010304028F9D1E0
:103A90004FF0000801E001EB0008FCF719FC47F2C9
:103AA0001C47C2F20007398801313980FCF714FC49
:103AB000FCF70EFC398801390AB2002A398002DD90
:103AC000FCF70AFC0BE000213980FCF705FC43F60B
:103AD0000C00C2F20000006808B100F023F846F0C4
:103AE00080002072002000BF295C215419B10130F0
:103AF0000828F9D107E0072805D0C0F107012044C4
:103B00000130FCF7ECFEFCF7E3FB58F8041F44F827
:103B10000C1F4C60C8F80040C4F80480BDE8F041B8
:103B2000FCF7DABB10B5FCF7D3FB47F21C41C2F23D
:103B300000010988044621B12046BDE81040FCF789
:103B4000CBBB47F22850C2F200000068FEF7C8FB6A
:103B500047F22841C2F2000101EBC00043F60C021B
:103B600050F8081CC2F200021068A1F1140383424D
:103B7000E2D0136047F21442C2F2000212781C3005
:103B800001F1080112B1FCF7AAFBD5E7FCF7A7FB8E
:103B9000D2E710B50446FCF79BFB94F8341094F878
:103BA000352001F0F001013184F8341047F228414A
:103BB000C2F2000101EBC2014A6847F2285C04F13D
:103BC0001403C2F2000C1360A2614B60A26BDCF81C
:103BD0000030616143EA0201CCF80010BDE81040FA
:103BE000FCF77ABBB0B50546FCF772FB294651F8E5
:103BF000142F4B6853604B6849601A6091F821207C
:103C000047F228430960C2F2000353F8324003EB45
:103C1000C202944208D147F22852C2F20002A96BB4
:103C2000136823EA01011160BDE8B040FCF754BB02
:103C3000B0B50546FCF74CFB2A4652F8141F044663
:103C4000914209D0A1F1140000F0FFF82046FCF7E2
:103C500043FBFFF767FF0FE0A88B4FF6FF71884229
:103C600005D12046FCF738FB6FF00200B0BD0130F3
:103C7000A8832046FCF730FB0020B0BD2DE9F041C1
:103C80000646FCF725FBB18B804639B1481EB08350
:103C90004046FCF721FB0020BDE8F08143F60C0014
:103CA000C2F20000056800202863747A284606F1F5
:103CB000140700F004F9A4B1012C19D1384600BF53
:103CC0000068B8420DD095F8351090F82120914247
:103CD000F6D2416805F114020A60A9614260686188
:103CE00006E0B06905F114010160A861B1616F617E
:103CF0004046FCF7F1FAFFF715FF286B002808BFD4
:103D00000020BDE8F081F0B583B00E4601460120E9
:103D10001F461546FFF752FE98B104462846FFF7A6
:103D20006FFD58B1DDF820C00246204631462B46D3
:103D30000097CDF804C0FEF7EFFA03E02046FFF746
:103D400081FE0024204603B0F0BDF0B581B043F6FB
:103D50000C00C2F200000568FCF7BAFA0446FCF752
:103D6000B7FA296F064609B1284688473046FCF75E
:103D7000B3FA2846FFF736FF042085F83400FCF735
:103D8000A7FA2A46E96D52F8583F5960E96DEA658D
:103D90000B6095F84D10126001F0FE0185F84D1092
:103DA000FCF79AFA002685F84C60FCF791FA2F464A
:103DB00057F8501F7A684A607A681160C7E900773F
:103DC000FCF78AFA17F9480CB0F1FF3F0ADD47F219
:103DD0002040C2F20000016845F8141F4D600560E4
:103DE00068600CE02E72FCF773FA55F80C1F6A68D5
:103DF0004A606A681160C5E90055FCF76DFAFFF783
:103E000091FE204601B0BDE8F040FCF765BA000025
:103E100047F22046C2F20006FCF75AFA316804461F
:103E2000B1420ED0D1E90020A1F1140550604B68D9
:103E300048691A60C1E90011FFF77DFC2846FFF7C9
:103E400001FE2046FCF748FAE6E7B0B5044690F8D4
:103E5000340000F00F00022818BFB0BDFCF738FA9C
:103E60002246A16952F8143F05465960A16904F140
:103E700044000B60A261126000F095F82846FCF740
:103E80002BFA2046BDE8B040FFF783BE80B590F81E
:103E90003610012280F8351002FA01F18163022107
:103EA00080F83410FFF7D1FF43F60C00C2F2000097
:103EB000006818B1BDE88040FFF734BE80BDB0B5E2
:103EC000044690F8340000F00F00012818BFB0BD80
:103ED000FCF7FEF905462046FFF784FE94F834000F
:103EE00000F0F000023084F8340004F1440000F0E7
:103EF0005AF82846BDE8B040FCF7EEB980B5024656
:103F0000816952F8143F6FF0010C59608169C0F863
:103F100030C00B6082611260FFF73BFEBDE880405D
:103F2000FFF700BE2DE9F0418046FCF7D1F941468C
:103F300051F8142F4FF6FE764B6811F80BCC5360F6
:103F40004B68C7F6FF761A6047F23062C2F2000291
:103F500012680B6909609D1847F23462C2F20002D0
:103F600054684D61A24207D01346126857697F1BFF
:103F7000F8D0B742F6D801E02268234647F23C6702
:103F8000C2F200073E6851600136C8F8142019607B
:103F90004CF001013E60C8F8183088F80910BDE8FF
:103FA000F041FCF799B910B50446407AC00708BF44
:103FB00010BDFCF78DF954F8141F62684A606268FE
:103FC0006460116014F80B1C246001F0FE0104F819
:103FD0000B1CBDE81040FCF77FB9002070470020A3
:103FE000704700207047002070470000B0B51048AF
:103FF000046810492046B0FBF1F0304908607D208C
:10400000C1002046B0FBF1F029490860EFF31084AD
:1040100072B6FEF75DFF084D69602860FEF758FF35
:1040200069682968401A0549086084F31088B0BDA2
:104030000C00002040420F00200400202804002033
:1040400070B51848006818494A68441C086800237D
:104050000019086053414B60144D2868001928600E
:104060002868134E316890FBF1F0316841432A68AB
:10407000511A29600F490A68101808600E4D286807
:104080000019286028680D4C216890FBF1F0216828
:1040900041432A68511A296009490A6810180860C2
:1040A00070BDC04614E000E0407600204876002055
:1040B000500000204C760020547600205400002050
:1040C00050760020F1EE100A4FF6FF71C0F2C031B9
:1040D00020EA010040F04070E1EE100A7047000055
:1040E00000000000F000F000F00A0020F0001800CE
:1040F000002D000001000400E12000080000000085
:1041000000000000000000000000000000000000AF
:104110008D210008000000000000000000000000E9
:1041200000000000080200310000000034410008D7
:1041300000000000251D000800000000A08601000E
:10414000400D0300801A060000350C0040420F00AD
:1041500080841E0000093D0000127A000024F40053
:1041600000366E010048E801006CDC02000001002E
:104170000200010003000100020001000400010030
:10418000020001000300010002000100050001001F
:104190000200010003000100020001000400010010
:1041A00002000100030001000200010006000100FE
:1041B00002000100030001000200010004000100F0
:1041C00002000100030001000200010005000100DF
:1041D00002000100030001000200010004000100D0
:1041E00002000100030001000200010007000100BD
:1041F00002000100030001000200010004000100B0
:10420000020001000300010002000100050001009E
:10421000020001000300010002000100040001008F
:10422000020001000300010002000100060001007D
:10423000020001000300010002000100040001006F
:10424000020001000300010002000100050001005E
:10425000020001000300010002000100040001004F
:104260000200010003000100020001000000000044
:10427000000000000102030406070809433A2F5515
:10428000736572732F32343037332F41707044614D
:1042900074612F4C6F63616C2F41726D2F5061639D
:1042A0006B732F41524D2F41726D2D32442F312EA1
:1042B000312E332F4C6962726172792F536F757290
:1042C00063652F5F5F61726D5F32645F636F6C6FF8
:1042D00075725F66696C6C696E675F776974685F39
:1042E000616C7068612E6300433A2F557365727379
:1042F0002F32343037332F417070446174612F4C4A
:104300006F63616C2F41726D2F5061636B732F412E
:10431000524D2F41726D2D32442F312E312E332FBD
:1043200048656C7065722F536F757263652F61728B
:104330006D5F32645F68656C7065725F7066622E77
:104340006300433A2F55736572732F32343037331D
:104350002F417070446174612F4C6F63616C2F4109
:10436000726D2F5061636B732F41524D2F41726DEF
:104370002D32442F312E312E332F48656C706572EB
:104380002F536F757263652F61726D5F32645F6862
:10439000656C7065725F7363656E652E6300433A8A
:1043A0002F55736572732F32343037332F4170704D
:1043B000446174612F4C6F63616C2F41726D2F509B
:1043C00061636B732F41524D2F41726D2D32442F1B
:1043D000312E312E332F4C6962726172792F496E02
:1043E000636C7564655C2E2E2F536F757263652F39
:1043F0005F5F61726D5F32645F636F72652E630031
:10440000433A2F55736572732F32343037332F414F
:104410007070446174612F4C6F63616C2F41726DD9
:104420002F5061636B732F41524D2F41726D2D32AE
:10443000442F312E312E332F48656C7065722F5307
:104440006F757263652F61726D5F32645F68656C52
:104450007065722E63004E554C4C20213D207468CF
:1044600069732E744346472E446570656E64656EAD
:1044700063792E6576744F6E4C6F774C6576656CFC
:1044800052656E646572696E672E666E48616E6411
:104490006C6572004E554C4C20213D207468697348
:1044A0002E744346472E446570656E64656E63796D
:1044B0002E6576744F6E44726177696E672E666EF4
:1044C00048616E646C6572004E554C4C20213D2055
:1044D000707454617267657400000000E73F000863
:1044E000DF3F0008DB3F0008E33F000810450008FD
:1044F0000000002058000000E8010008684500089E
:1045000058000020B87D00000402000805DDFFFF10
:10451000FFFFFFFF000000001E00000000093D003B
:1045200001000000140000201400002078000000AA
:1045300002000000240000202400002020000000D1
:10454000050000003400002034000020300000008E
:104550000A00000044000020440000202C0000005D
:08456000010000000100000051
:04000005080001AD41
:00000001FF
