:020000040800F2
:10000000604B002051020008250F00087103000812
:10001000210F0008D5070008F117000800000000B4
:10002000000000000000000000000000F30F0008C6
:10003000D707000800000000BF020008D103000835
:100040006B0200086B0200086B0200086B020008DC
:100050006B0200086B0200086B0200086B020008CC
:100060006B0200086B0200086B0200086B020008BC
:100070006B0200086B0200086B0200086B020008AC
:100080006B0200086B0200086B0200086B0200089C
:100090006B0200086B0200086B0200084B080008A6
:1000A0006B0200086B0200086B0200086B0200087C
:1000B0006B0200086B0200086B0200086B0200086C
:1000C0006B0200086B0200086B0200086B0200085C
:1000D0006B020008311500086B0200086B02000873
:1000E000D90700086B0200086B0200086B020008C9
:1000F0006B0200086B0200086B0200086B0200082C
:100100006B0200086B0200086B0200086B0200081B
:100110006B0200086B0200086B0200086B0200080B
:100120006B0200086B0200086B0200086B020008FB
:100130006B0200086B0200086B0200086B020008EB
:100140006B0200086B0200086B0200086B020008DB
:100150006B0200086B0200086B0200086B020008CB
:100160006B0200086B0200086B0200086B020008BB
:100170006B0200086B0200086B0200080000000020
:100180006B0200086B0200086B0200086B0200089B
:100190006B0200086B0200086B0200086B0200088B
:1001A0006B0200086B0200086B02000800F002F806
:1001B00000F03EF80AA090E8000C82448344AAF1C3
:1001C0000107DA4501D100F033F8AFF2090EBAE8C1
:1001D0000F0013F0010F18BFFB1A43F0010318477B
:1001E000F435000014360000103A24BF78C878C1F6
:1001F000FAD8520724BF30C830C144BF04680C602D
:10020000704700000023002400250026103A28BF74
:1002100078C1FBD8520728BF30C148BF0B60704778
:100220001FB503F0FBF900F0E5F91FBD10B510BDD7
:1002300000F032F91146FFF7F3FF00F0EDF900F09E
:1002400050F903B4FFF7F2FF03BC00F0F3F800002D
:100250000948804709480047FEE7FEE7FEE7FEE75A
:10026000FEE7FEE7FEE7FEE7FEE7FEE70448054996
:10027000054A064B7047000045140008AD01000810
:1002800060450020604B0020604700206047002050
:10029000EFF3108072B6704780F310887047424ABF
:1002A0001368012B04D04FF0010313603F4A106024
:1002B0003F4A11603F484FF0805101607047EFF3B3
:1002C000108272B63848016851B34FF000010160E6
:1002D0003648016891B1EFF309811EF0100F08BF95
:1002E00021ED108B21E9F00F4FF000041EF0100FEC
:1002F00008BF012441F8044D006801602C490968D9
:10030000096808C9B1E8F00F002B18BF00F05AB80F
:1003100081F309884EF0100E002B18BF2EF0100E3E
:1003200082F310884EF0040E704721490860EFF305
:10033000148222F0040282F314881C494FF000005A
:10034000086019494FF0010008601B481B49D0F8AC
:10035000002041EA0201016016484FF0805101601F
:1003600017480068006880F3088861B662B6704775
:100370001EF0040F0CBFEFF30880EFF3098020E9B3
:10038000F00F40F804ED40F804ED1EF0040F0CBF30
:1003900080F3088880F3098800B502F04DFA5DF813
:1003A00004EB4EF0040E704708450020EC4200209C
:1003B000F442002004ED00E020ED00E00000FFFF2B
:1003C00008ED00E0B1EC088BB1EC08CBFFF7A0BF63
:1003D00030B410B50348804730BCAE4630BC02484C
:1003E0000047000089350008F50F000800BF70477E
:1003F0004FF000020429C0F0128010F0030C00F04E
:100400002580CCF1040CBCF1020F18BF00F8012BC1
:10041000A8BF20F8022BA1EB0C0100F017B85FEA8F
:10042000C17C24BF00F8012B00F8012B48BF00F865
:10043000012B704701491820ABBEFEE726000200E1
:1004400000487047600000204FF0000200B51346DE
:1004500094469646203922BFA0E80C50A0E80C50E4
:10046000B1F12001BFF4F7AF090728BFA0E80C5095
:1004700048BF0CC05DF804EB890028BF40F8042B8E
:1004800008BF704748BF20F8022B11F0804F18BFFB
:1004900000F8012B704770477546FFF7D1FFAE4655
:1004A00005006946534620F00700854618B020B580
:1004B000FFF7DCFEBDE820404FF000064FF00007DC
:1004C0004FF000084FF0000BAC46ACE8C009ACE8B8
:1004D000C009ACE8C009ACE8C00921F007018D46AD
:1004E000704710B50446AFF300802046BDE81040C9
:1004F000FFF7A7BE53EA020C00F069802DE9F04B2C
:100500004FF00006002B1FBFB3FA83F503FA05F482
:1005100024FA05F65E4012BF1643B2FA82F502FADB
:1005200005F4C5F120051EBF22FA05FC44EA0C04BF
:10053000203556EA044C4FEA144418BF641C4FF0AF
:1005400000084FF00009904271EB030C39D30029E9
:1005500019BFB1FA81F701FA07F6B0FA80F700FA8D
:1005600007F6C7F120071EBF20FA07FC46EA0C0673
:100570002037B6FBF4FCA7EB0507103F07F01F0B75
:10058000CBF120062CFA06F60CFA0BFB44BFB3465F
:100590000026202FA4BF5E464FF0000B5BEA060C3E
:1005A00008BF4FF0010B19EB0B0948EB0608ABFB3A
:1005B000027C06FB02CC0BFB03CCC01B71EB0C01D5
:1005C000C1E70B46024641464846BDE8F08B13B5ED
:1005D000084318BF4FF0FF300146AFF30080BDE87D
:1005E0001C40704702F0FF0343EA032242EA024242
:1005F000FFF700BF70B5064C7C44064D7D4404E017
:100600002046016808448047241DAC42F8D170BDE3
:10061000F8310000F83100002DE9F04182B0FFF719
:1006200037FE00F038FA00F09DFD00F0B1FE43F215
:10063000CC7443F2C870C0F60004C0F60000A042BB
:1006400009D243F2C875C0F6000500BF55F8040B87
:100650008047A542FAD340F2EC60C2F20000C11C10
:1006600000F5705020F0030421F00305A4F11801F7
:10067000A9424FF0000138BF0121192C4FF00002B0
:1006800038BF012211434FF0000632D140F2E4613D
:10069000C2F2000101270F7040F2C011C2F2000146
:1006A000621B41F6A0630D604FF4F5510C3AC0F2A5
:1006B0000103204685E8460040F2BC1140F80C3D9D
:1006C00044E9022240F2C414C2F20001C2F2000462
:1006D00008603AA22046022102F06EFB04F11400E9
:1006E000C4E9050040F2DC60C2F20000A783667234
:1006F000056044F21050C2F20000C0E9000044F26C
:10070000F82044F20435C2F20000C2F2000506806F
:10071000A819A8510836B6F5807F4060F8D140F29C
:10072000E86844F20447C2F200080020C2F2000761
:10073000C8F80000386044F2FC20C2F2000042F227
:100740004171C0E9000014241EA0C0F600014FF45E
:1007500080720A23009402F07AFC02F03BFD40F222
:10076000E414C2F2000419A22046012102F024FB85
:100770001F2043F2591144F2084220260090C0F68F
:100780000001C2F2000220464FF48073019601F08E
:100790006DF8204602F01EFD386801F04BF805EBBD
:1007A000C00050F8080CA0F114010830C8F800107F
:1007B000FFF7BBFD002002B0BDE8F0816865617005
:1007C000000000006D61696E000000007469646CD7
:1007D00065000000FEE7704770B582B040F2144635
:1007E000C4F20106306840F6100544F23854C4F6ED
:1007F00000054005C2F2000411D54FF4806030605E
:100800000020ADF80000D5F800040121400558BFD4
:10081000022120688DF80110694602F032FA306832
:10082000800410D54FF4005030600320ADF8040070
:1008300028680121800458BF022120688DF8051026
:1008400001A902F01EFA02B070BD70B582B040F28C
:100850001446C4F20106306840F6104544F238549C
:10086000C4F600058005C2F200040FD54FF40070F5
:1008700001213060ADF800102868800558BF0221C2
:1008800020688DF80110694602F0FBF93068C00558
:1008900010D54FF4807030600220ADF80400286855
:1008A0000121C00558BF022120688DF8051001A95B
:1008B00002F0E7F902B070BD2DE9F04F84B00A688C
:1008C000002A00F0E28041F6004500F13847C4F606
:1008D000000508234FEAB726A84208BF0723072EC2
:1008E00038BF4FEAB7234FF0010C00254FF0000B43
:1008F00001274FF000080093019100BFA7F1010903
:100900000CFA09F4224000F0AC80D1F804A0029265
:10091000BAF1120F00F2B3800CFA0AF212F0061FBD
:1009200000F0AD800322D0F808E002FA05F3CA68AF
:100930002EEA030EAA4042EA0E0282604268DE43BB
:10094000A2434FEA1A1404FA09F42243AE46426065
:10095000C2688C68324004FA0EF422434AF0100454
:10096000122CC26017D16FF0030101EA5902024450
:100970000BF01C030F21D2F820A001FA03F4019917
:100980002AEA0404D1F810C001990CFA03F32343B6
:100990001362D1F804A002680AF00303324003FA9C
:1009A0000EF31A430260029E5FEACA034FF0010C85
:1009B00057D541F26001C4F202010A6840F2004ECC
:1009C00042F001020A600A68C4F2010E02F001025C
:1009D0000392039A29F003024FF608497244CFF6B6
:1009E000FF7952F809C00BF00C040F2101FA04F34F
:1009F0002CEA030CDDE9003103FA04F444EA0C03A9
:100A000042F80930DEF800C04B684CEA0604DA030D
:100A100058BF2CEA0604CEF80040DEF804C09C0360
:100A20004CEA060258BF2CEA0602CEF80420DEF893
:100A300008C0DC024CEA060258BF2CEA060240F26B
:100A40000C4CCEF80820C4F2010CDCF800409B02EC
:100A500044EA060258BF24EA0602CCF800204FF010
:100A6000010C0A6808F1010832FA07F307F10107DF
:100A70000BF1040B05F102057FF440AF05E0032202
:100A8000AA404FEA480ED64362E704B000F000B82F
:100A900030BCBDE8C08F80B582B04EF60C50CEF2AF
:100AA000000001684FF6FF02114040F20032C0F230
:100AB000FA52114301600F2000F019F8A8B941F271
:100AC0005800C4F20200816841F001018160816830
:100AD00001F0010101910199016841F0805101602B
:100AE000006800F080500090009802B080BD40F295
:100AF0000001C2F20001096844F6D352C1F2620259
:100B0000A1FB02124FF0FF3101EB92130022B2EB76
:100B1000136F1CBF012070474EF210014EF60C5CA3
:100B2000CEF20001CEF2000C4B60F0238CF81730AF
:100B30008A6007220F284FF001000A6088BF7047C3
:100B4000DCF800100023C1F3022181F00702042A1F
:100B500028BF0422033938BF19464FF0FF3303FA88
:100B600002F2D24302FA01F109018CF8171044F2A3
:100B70005C51C2F2000108700020704741F2000190
:100B8000C4F20201886810F00C02C86805D00C2A73
:100B900027D100F00300012823D10868000703D4FF
:100BA000D1F89400000A01E00868000943F23863B4
:100BB00000F00F00C0F6000353F82030002A18465A
:100BC00018BF00200C2A18BF7047C86800F0030047
:100BD00002280FD0032804BF41F20023C0F27A0399
:100BE0000CE0042A1DD0082A20D141F20020C0F2D6
:100BF0007A00704742F20043C0F2F403C868CA6842
:100C0000C0F30210C2F30622C96801305A43B2FB96
:100C1000F0F0C1F34161022202EB4101B0FBF1F0BF
:100C2000704742F20040C0F2F400704700200023F9
:100C3000C8E7F0B583B02A2040F218448DF80100CF
:100C4000C4F6000410250DF101000121256100F01A
:100C500055F800260DF1020001218DF80260256093
:100C600000F04CF80DF1030001218DF803602560C0
:100C700000F044F801A801218DF80460256000F01F
:100C80003DF8EF270DF1050001218DF80570256075
:100C900000F034F82B208DF806000DF1060001213C
:100CA000256100F02BF80DF1070001218DF8076098
:100CB000256000F023F802A801218DF80860256066
:100CC00000F01CF80DF1090001218DF80960256084
:100CD00000F014F80DF10A0001218DF80A7025606A
:100CE00000F00CF82C208DF80B000DF10B00012109
:100CF000256100F003F803B0F0BD00002DE9F043DA
:100D000083B040F2C405C2F2000595F85C20012AC8
:100D100000F002814FF0010844F2585985F85C80D8
:100D2000C2F20009D9F8004095F85D20012A40F090
:100D3000EE80002800F0EB800322002385F85D2080
:100D40002B66A863A987E9872B64A5F84430A5F82A
:100D50004630AA68EB64B2F5004F2A682B6507D1CC
:100D6000136823F040031360136843F48043136057
:100D700013685B0603D4136843F0400313606B6889
:100D80004FF0FF3717FA81F1EE68B3FA83F3B1FA47
:100D900081F15B094909B6F5E06F41EA030114D915
:100DA00031B130F8021BD160A863E98F0139E987BE
:100DB000E98F002942D091688907F2D4D9F8001050
:100DC000091BC9087C29F3D9A1E000294FF6FE715F
:100DD00011D0EB8F022B05D330F8023BD3604FF6D6
:100DE000FE7304E000784B1C1073A86B0130A863FD
:100DF000EF8F3B44EB87EB8F03B3013193689B0785
:100E000006D4D9F800301B1BDB087C2B13D97EE0FD
:100E1000EB8F022B06D330F8023BD3604FF6FE7304
:100E200005E000BF00780B461073A86B0130A86383
:100E3000EF8F3B44EB87EB8F002BDFD14FF4C0509B
:100E4000214600F071F8002850D140F20002D9F894
:100E50000000C2F20002D9F800101368201A00F551
:100E60007A72C3F3CB3050430290286883681B0624
:100E700010D500BFD9F800305B1A934211D2029B03
:100E8000029F002BA7F101070297876808BF1A4647
:100E90003B06EFD44FF4C060214600F045F828BB74
:100EA0002AE0416821F0E00141606968B1F5827F84
:100EB0000AD1A968B1F5004F02D0B1F5806F03D116
:100EC000016821F040010160A96AB1F5005F07D116
:100ED000016821F400510160016841F40051016092
:100EE000012085F85D00002085F85C00286E40F048
:100EF0002000286620202866A86838B900200190C4
:100F00002868C1680191806801900198286E0020CE
:100F100085F85D8085F85C0003B0BDE8F0830000D3
:100F2000FEE70000FEE70000B0B582B044F2585E74
:100F3000C2F2000EDEF80020DEF80030891A40F21E
:100F40000002C2F20002D2F800C023220CFB02F21F
:100F500001F57A71120D4A4340F2C40C0092C2F2BC
:100F6000000CDCF800209468044215D0B0F5C06F86
:100F700002D1147B0194019CDEF80040E41A8C42FB
:100F80000CD2009C009D002CA5F1010500959568F0
:100F900008BF21460542E9D1002028E0506820F032
:100FA000E0005060DCF80400B0F5827F0BD1DCF883
:100FB0000800B0F5004F02D0B0F5806F03D1106883
:100FC00020F040001060DCF82800B0F5005F07D189
:100FD000106820F400501060106840F40050106059
:100FE00001208CF85D0000208CF85C00032002B02A
:100FF000B0BD70472DE9F04F83B0FFF749F944F2D7
:10100000F022C2F20002117801311170FFF744F9A9
:1010100044F25859C2F20009D9F8000040F2E864DD
:101020000130C9F8000044F20C5BC2F20004C2F2C5
:10103000000B2068DBF80010026C0131CBF80010C7
:10104000511E016428D1C16B0164FFF721F92168A9
:1010500091F8342002F00F02012A1BD10A4652F8FF
:10106000143F5768BB4215D05F6091F8357044F269
:101070000436C2F2000606EBC7078E698A617D68F6
:1010800033602A608D617A604F61FFF705F901F0E6
:10109000EDFE01E0FFF700F901ADDBF800800295FD
:1010A0000195FFF7F5F844F21056C2F200063768D2
:1010B0008246B7423CD04FF6FE74C7F6FF7400BFBD
:1010C0007869A8EB0000A04232D8D7E90010486048
:1010D0007A6817F80B0C116081073F605CBF00F065
:1010E000FE0007F80B0C019847603860D7E9021042
:1010F00001977D6088470198DBF80080A84214D0F2
:10110000D7E90001416079687F60086017F80B1C1F
:101110003F6001F00300032807D1A7F1140001F09C
:10112000FE0107F80B1C02F0A1F83768B742C7D1DF
:101130005046FFF7B1F8FFF7ABF844F2F022C2F2E5
:101140000002117801391170FFF7A6F8D9F80000F4
:101150000130C9F8000003B000F000B830BCBDE8B1
:10116000C08F000010B547F20000C4F20000016813
:1011700001F4C061B1F5007F1FD00168012262F364
:101180004A21016040F20001C2F2000109683223E5
:1011900059434DF68363C4F21B33A1FB031302EBE7
:1011A000934100224469013942F10003640501D5ED
:1011B000002BF7D1406940054ED441F20004C4F23F
:1011C0000204A068E16800F00C00082805D00C2893
:1011D00045D101F00301032941D12168E26847F6B6
:1011E000737341F20341CFF66063C1F200011A400C
:1011F0008A4217D1206880015CD4206840F080705A
:101200002060E06840F08070E06044F25850C2F224
:1012100000000168226892014CD40268521A032A25
:10122000F8D32CE00C282AD0206840015CBF20684D
:101230005FEAC00023D4206820F08070206044F270
:101240005850C2F20000026823689B0119D5036858
:101250009B1A022BF8D912E072B600BFFEE7216894
:1012600041F48031216044F25851C2F200010A6811
:1012700023689B03B2D40B689B1A642BF8D972B60F
:10128000FEE7E26848F28C03C0F29D131A40114356
:10129000E160216841F080712160E16841F0807176
:1012A000E16001682268920104D40268521A022A9D
:1012B000F8D9E4E742F2000CC4F2020CDCF80010AA
:1012C00049070CD4DCF80010042262F30201CCF8C8
:1012D0000010DCF8001001F00701042955D1216845
:1012E000890152D5A16841F2883341F00301A16020
:1012F00044F25851C2F200010A6800BFA06800F031
:101300000C000C2804D00868801A9842F6D93CE0FA
:10131000A06820F0F000A060DCF8000000F00700FA
:1013200005280CD3DCF80000042161F30200CCF89E
:101330000000DCF8000000F00700042825D1A068B8
:1013400020F4E060A060A06820F46050A060FFF787
:1013500015FCA16843F27872C1F30311C0F60002D4
:10136000515C01F01F01C84040F20001C2F20001CF
:10137000086044F25C50C2F200000178102000299D
:1013800018BF0F20FFF7B3FB08B172B6FEE710BD20
:1013900041F20000C4F202000168090703D4D0F84A
:1013A0009410090A01E00168090943F23862836870
:1013B00001F00F01C0F6000252F82110C3F38102C0
:1013C000DFE802F02F02070C42F20041C0F2F40104
:1013D00027E041F20021C0F27A0122E0C368C2682E
:1013E00003F00303C2F30212022B02F1010206D042
:1013F000032B04BF41F20021C0F27A0103E042F264
:101400000041C0F2F401C368B1FBF2F1C3F306225C
:10141000C3685143C3F34162022303EB4202B1FBB1
:10142000F2F140F20002C2F200021160806843F261
:101430007873C0F30310C0F60003185C21FA00F0C3
:10144000106070474EF68850CEF2000001684FF6EB
:10145000FF7341F47001016041F20000C4F2020028
:101460000168CEF6F62341F00101016000218160A0
:1014700002681A4002604FF48052C260026822F48F
:101480008022026081617047806A0021A0F85A10B2
:10149000A0F8521070470000B0B5D0F800C0DCF8DA
:1014A0001C400C408C4216D044F2585EC2F2000E32
:1014B000DEF80040A51ADCF800409D420DD8640714
:1014C00044BFDCF81C405FEA045415D4DCF81C402F
:1014D0000C408C42ECD10020B0BD24F4D071CCF88B
:1014E0000010DCF8081021F00101CCF808102021D0
:1014F000816700F17C0114E04FF40061CCF820100A
:10150000DCF8001021F4D071CCF80010DCF80810E1
:1015100021F00101CCF8081020218167C16700F19A
:10152000800120220A60002180F874100320B0BDE1
:10153000F0B581B040F22817C2F20007386840F6D3
:101540002F03C169026885680B40202B02F020033D
:101550000CD15BB1796E002900F0418140F2281076
:10156000C2F2000001B0BDE8F040084740F60F04A9
:10157000214208D040F22016C0F2004605F00104D6
:101580001640361911D13B6E012B05D111F0100315
:1015900018BF12F0100368D1CB025FD515F4800399
:1015A0005CD04FF48011016219E1CE0718BF12F42C
:1015B000807607D001260662D7F8806046F00106E3
:1015C000C7F880608E0708D53CB102260662D7F8BE
:1015D000806046F00406C7F880604E0708D53CB12D
:1015E00004260662D7F8806046F00206C7F88060DD
:1015F0000E070DD543EA0406B6FA86F6760907D13A
:1016000008260662D7F8806046F00806C7F88060B2
:101610000E050BD512F0806208D04FF40062026212
:10162000D7F8802042F02002C7F88020D7F8802029
:10163000002A00F0D48011F0200118BF002B40F0E8
:10164000BF80D7F88010826801F0280102F04002C4
:10165000891878D10020C7F88000C0E00B0627D594
:1016600012F0800324D0B96E75E710210162816801
:1016700049062DD4B7F85810B7F85A20B7F85A30A1
:10168000002B00F0AC80914200F0A980016821F4A9
:1016900090710160816821F0010181602021F9676A
:1016A000002139667966016821F01001016096E039
:1016B000490640F1948012F0400100F090800168EA
:1016C00021F0400101602020B8670020B86686E064
:1016D000396F0A6853689DB2002D00F08080B7F81A
:1016E0005860B5427BD2A7F85A3013689B0674D471
:1016F000036823F480730360836823F0010383602D
:10170000836823F0400383602023FB6700233B664C
:10171000036823F01003036091F82500022857D1D5
:101720001068012320F00E001060106820F0010006
:101730001060D1E9102000F01C0003FA00F05060A6
:1017400081F8253046E0016821F4907101608168DC
:1017500021F001018160396E012903D1016821F076
:10176000100101602021F9670021396679668168DE
:10177000490634D5816821F040018160386F70B32B
:1017800041F28941C0F60001816390F825100229D9
:1017900027D10168D0E910230F6827F00E070F60EA
:1017A0000F6827F001070F6003F01C01012303FA03
:1017B00001F15160002180F8253080F8241012E0FA
:1017C000796E00293FF43DAF38468847386838E7DE
:1017D0000420C863002081F82400B7F85A0001B043
:1017E000F0BD0421C16301B0BDE8F040FFF74CBE7D
:1017F000FEE780B54EF60451CEF200014FF00072C4
:10180000EFF3108072B60A6080F3108801F086FE54
:1018100044F22050C2F200000021C0E9001144F25D
:101820002C50C2F20000016044F23050C2F20000BD
:10183000016080BD18B1C1B219B101200EE00020D5
:10184000704710F47F4102D0090A092006E010F425
:101850007F0107BF010E1920090C112043F26862B5
:10186000C0F60002515C0844704700002DE9F043C7
:1018700081B004461430C4E905000020DDE9089871
:10188000C4E90810C4E90A23104623211A4601F0CE
:10189000D3F8D4E90A12D4E90803114421F007016E
:1018A0004BF6EF65A1F144026FF04307CDF6AD654D
:1018B000CD510437FCD143F293050027C0F6000553
:1018C0004FF0807641E9083741E9067741E9047530
:1018D00041E9020641F8447CE26104F144000A2136
:1018E000224684F8369084F83590C4E90E78C4F81E
:1018F0004080276384F83470C4E91C7701F05CFAF7
:1019000043F2452004F15801C0F60000C4E9161165
:1019100004F1600184F84D7091C1E76601B0BDE843
:10192000F0834EF21402CEF20002EFF3108C72B686
:1019300011685368D2F8F00CC91A400106D5106836
:10194000401A102802DB10680844411C44F2205061
:10195000C2F20000D0E900028CF31088401842EB7C
:10196000E17170472DE9F04F8DB04EF60C5540F205
:10197000004841F24C07CEF20005C4F60008C4F25C
:101980000207FFF788F8FFF7EDFBFFF701FD4FF0C7
:101990000071EFF3108072B645F8081C80F31088D0
:1019A00001F0BCFD44F22050C2F200000021C0E969
:1019B000001144F22C50C2F20000016044F2305099
:1019C000C2F200000160386803AE40F08000386069
:1019D0003868D02500F080000890089838683146B3
:1019E00040F001003860386800F001000890089865
:1019F000386840F002003860386800F00200089053
:101A00000898386840F002003860386800F002003A
:101A100008900898386840F008003860386800F08E
:101A20000800089008980120CDE9040002200690E3
:101A300040460395FEF740FFC8F82850802508F57A
:101A40000060314603950290FEF736FF40F62840CD
:101A5000C4F6000005600560402044F25854C8F800
:101A60002850C8F82800C2F2000420682168091A2A
:101A70007929FBD343F6004940F2C405C4F20009BA
:101A80004020C2F200054FF48271C8F81800002609
:101A90004FF4E0624FF0020A01204FF40073C5E9F1
:101AA00000910721C5E90262C5E904A0C5E906362F
:101AB000C5E90866C5E90A6195F85D1069B185F860
:101AC0005DA0D9F800004FF4E06E20F04000C9F8A6
:101AD00000004FF4805C484635E085F85C6039686A
:101AE00041F002013960396801F00201089108995A
:101AF000F96841F40041F960F96801F40041089186
:101B000008990A90032028210B900620CDE9081A95
:101B10000C9008A94046FEF7CFFE2868D5F80CE0E7
:101B200085F85DA00268BEF5E06F22F04002026019
:101B300098BF01264EF400624FEA063CB2F5706F82
:101B40001CBF0023AB62D5E90136D5E9042103F4BB
:101B5000827306F40446334402F002021A44AB696D
:101B600001F00101EE69114403F40072114406F022
:101B700038022E6A114406F08002AE6A114406F45F
:101B800000521143016004216A6A0EF4706601EA92
:101B900013416B6B46EA0C0602F01002314303F06E
:101BA000080311431943416000212966012185F88A
:101BB0005D10016841F04001016020682168091A48
:101BC0007929FBD311208DF820001020C8F82800B7
:101BD00008A80121FFF792F8206800BF2168091AC0
:101BE0007929FBD336208DF82000102508A8012183
:101BF000C8F828504FF00109FFF780F8002608A820
:101C000001218DF82060C8F81850FFF777F83A20C6
:101C10008DF8200008A80121C8F82850FFF76EF8B9
:101C200065208DF8200008A80121C8F81850FFF79A
:101C300065F8B2208DF8200008A80121C8F82850C6
:101C4000FFF75CF80C2708A801218DF82070C8F870
:101C50001850FFF753F808A801218DF82070C8F834
:101C60001850FFF74BF808A801218DF82060C8F83C
:101C70001850FFF743F8332708A801218DF820708A
:101C8000C8F81850FFF73AF808A801218DF820701D
:101C9000C8F81850FFF732F8B7208DF8200008A8D0
:101CA0000121C8F82850FFF729F872208DF820008C
:101CB00008A80121C8F81850FFF720F8BB208DF8BC
:101CC000200008A80121C8F82850FFF717F83D2088
:101CD0008DF8200008A80121C8F81850FFF70EF869
:101CE000C0208DF8200008A80121C8F82850FFF76F
:101CF00005F82C208DF8200008A80121C8F81850FC
:101D0000FEF7FCFFC2208DF8200008A80121C8F8CA
:101D10002850FEF7F3FF08A801218DF82090C8F89D
:101D20001850FEF7EBFFC3208DF8200008A8012112
:101D3000C8F82850FEF7E2FF19208DF8200008A807
:101D40000121C8F81850FEF7D9FFC4208DF82000F3
:101D500008A80121C8F82850FEF7D0FF20208DF8F0
:101D6000200008A80121C8F81850FEF7C7FFC620B8
:101D70008DF8200008A80121C8F82850FEF7BEFF02
:101D80000F208DF8200008A80121C8F81850FEF790
:101D9000B5FF4FF0D00908A801218DF82090C8F8B0
:101DA0002850FEF7ABFFA4208DF8200008A80121E1
:101DB000C8F81850FEF7A2FFA1208DF8200008A84F
:101DC0000121C8F81850FEF799FFE0208DF8200097
:101DD00008A80121C8F82850FEF790FF08A80121A3
:101DE0008DF82090C8F81850FEF788FF04208DF871
:101DF000200008A80121C8F81850FEF77FFF0D2425
:101E000008A801218DF82040C8F81850FEF776FF89
:101E100011208DF8200008A80121C8F81850FEF7FD
:101E20006DFF13208DF8200008A80121C8F8185074
:101E3000FEF764FF2B208DF8200008A80121C8F8C8
:101E40001850FEF75BFF3F208DF8200008A8012105
:101E50003F27C8F81850FEF751FF54208DF8200096
:101E600008A80121C8F81850FEF748FF4C208DF84B
:101E7000200008A80121C8F81850FEF73FFF1820DD
:101E80008DF8200008A80121C8F81850FEF736FF89
:101E900008A801218DF82040C8F81850FEF72EFF41
:101EA0000B208DF8200008A80121C8F81850FEF773
:101EB00025FF1F2408A801218DF82040C8F81850DC
:101EC000FEF71CFF4FF0230A08A801218DF820A07F
:101ED000C8F81850FEF712FFE1208DF8200008A87E
:101EE0000121C8F82850FEF709FF08A801218DF844
:101EF0002090C8F81850FEF701FF04208DF820004C
:101F000008A80121C8F81850FEF7F8FE0C208DF83B
:101F1000200008A80121C8F81850FEF7EFFE112094
:101F20008DF8200008A80121C8F81850FEF7E6FE39
:101F300013208DF8200008A80121C8F81850FEF7DA
:101F4000DDFE2C208DF8200008A80121C8F81850CB
:101F5000FEF7D4FE08A801218DF82070C8F81850AB
:101F6000FEF7CCFE44208DF8200008A80121C8F817
:101F70001850FEF7C3FE51208DF8200008A801215B
:101F8000C8F81850FEF7BAFE2F208DF8200008A8D8
:101F90000121C8F81850FEF7B1FE08A801218DF8FC
:101FA0002040C8F81850FEF7A9FE08A801218DF8B6
:101FB0002040C8F81850FEF7A1FE20208DF8200020
:101FC00008A80121C8F81850FEF798FE08A80121BA
:101FD0008DF820A0C8F81850FEF790FE21208DF84B
:101FE000200008A80121C8F82850FEF787FE292004
:101FF0008DF8200008A80121C8F82850FEF77EFEC1
:10200000FEF717FEFEF715FE40F25C20C2F200005C
:102010004FF6FF7120F816100136B6F5107FF9D192
:1020200040F25C2641F24C0710200025C2F2000667
:10203000C4F20207C8F8180030464FF49061FEF76A
:102040005DFE632D05F10105F6D38020C8F8180068
:10205000386808AE40F00800386038684EF217441F
:1020600000F008000890089838684EF2001B40F015
:10207000080038603868002500F0080008900898CB
:102080003868314640F0080038603868CEF2000405
:1020900000F00800089008983868CEF2000B40F075
:1020A00004003860386800F00400089008980020A8
:1020B000C1F23100DDF808A009904FF4806008906B
:1020C00050460A95FEF7F8FB4EF60C59CEF2000981
:1020D000D9F8000065744FF48070CBF804004FF419
:1020E00000700890504631462746FEF7E5FBD9F8C8
:1020F000000025704FF40007CBF800704FF480709B
:10210000089050463146FEF7D7FBD9F800002570FD
:10211000CBF800704FF40050089008F5806031460D
:10212000A246FEF7C9FBD9F8000065744FF4807031
:10213000CBF8040040F2C008C2F2000898F8000092
:10214000002840F0918243F60049C4F2000940F2B1
:10215000281609F57C40C2F200060C224FF4E1314A
:1021600086E82300C6E90355C6E90525C6E90755F3
:102170007562B16F29B100234FF0000C00210024DB
:1021800066E0002041F24C0186F87400C4F20201BE
:10219000486908AC40F48040486148694FF0030842
:1021A00000F48040089008980868072540F0010076
:1021B0000860086800F0010008900898086840F07E
:1021C000010008600868214600F0010008900898A6
:1021D0000220099001200A904FF4007008904FF0FF
:1021E0009040CDF82C800C95FEF766FB4FF4806094
:1021F00008904FF0904021460C95FEF75DFB4EF69F
:102200000C50CEF2000000680022C0F3022080F0E3
:102210000701042928BF0421033838BF10464FF0B6
:10222000FF3202FA01F128EA010101FA00F000018F
:102230008AF80E002020CBF8040006F1100C40F2C2
:10224000C0083068D6E902439CE82610C2F20008B4
:102250002427B7670768214327F001070760114368
:10226000026846F6F317CEF6FF773A40114341EA8B
:102270000C010160416809F5884221F4405119437D
:102280004160316A8368904218BF0D4323F4306186
:102290002943816044F6FF7144F2585AC4F20001A8
:1022A000C2F2000A88424FF0100318DC44F20041E9
:1022B000C4F2000141F24C078842C4F2020728D060
:1022C00044F60001C4F20001884225D044F60041E2
:1022D000C4F2000188422FD1F96B8B0924E045F24A
:1022E0000001C4F2000141F24C078842C4F2020727
:1022F00015D048F20001C4F20001884212D043F622
:102300000001C4F20101884216D1FB6B0FF2C43503
:102310000EE0F96B8B0807E0F96B0B0904E0F96B31
:102320000B0A01E0F96B8B0A43F26875C0F60005F1
:1023300003F0030155F8213090421ED0BCF5004F48
:102340003FD1082B00F28C8142F20040C0F2F40031
:10235000DFE813F0090075008D0086018700860113
:10236000860186018B0040F20000C2F20000006886
:1023700057F8441CC1F302216AE0082B00F2708177
:1023800042F20040C0F2F400DFE813F009006A01F5
:102390003D006A0137006A016A016A013B0040F2B0
:1023A0000000C2F20000006857F8441C43F2887233
:1023B000C1F30221C0F60002515C01F01F01C840C8
:1023C0001DE0082B00F24C8142F20040C0F2F40004
:1023D000DFE813F009005C00740046016E0046015E
:1023E00046014601720040F20000C2F2000000689F
:1023F00057F8441CC1F3022151E0FEF7BFFB10B9AE
:1024000067E04FF40040726802EB42018842C0F07E
:1024100027811103884200F22381010E000210EB94
:10242000520041F100010023FEF764F84FF600521C
:10243000A0F54071C0F20F02914248D310E140F282
:102440000000C2F20000006857F8441CC1F3C2212A
:1024500043F28872C0F60002515C01F01F01C840CF
:1024600001E0FEF78BFB10B933E04FF400407168D8
:102470004A0802EB4000B0FBF1F04FF6F07101406A
:1024800000F0EE80C0F34200084320E040F200007C
:10249000C2F20000006857F8441CC1F3C22143F2A5
:1024A0008872C0F60002515C01F01F01C84001E0D3
:1024B000FEF764FB10B90CE04FF40040716800EBCC
:1024C0005100B0FBF1F080B21028C0F0C980316833
:1024D000C860716A002000297066B06651D0CA07D2
:1024E00006D03268B36A576827F400373B4353601D
:1024F0008A0706D53268F36A576827F480373B436A
:1025000053604A0706D53268336B576827F4802733
:102510003B4353600A0706D53268736B576827F44C
:1025200000473B435360CA0606D53268B36B9768D1
:1025300027F480573B4393608A0606D53268F36BD5
:10254000976827F400573B4393604A0610D53268DA
:10255000336C5768B3F5801F27F4801747EA0307E9
:10256000576005D15368776C23F4C0033B43536035
:10257000090606D53168B26C4B6823F400231A4370
:102580004A6031684A6822F490424A608A6822F0C0
:102590002A028A600A6842F001020A60C6F88000D6
:1025A000DAF80040086800070ED540F22815C2F29C
:1025B000000528464FF4001122466FF07E43FEF7D7
:1025C0006BFF002850D12968086840070CD540F2FD
:1025D0002810C2F200004FF4800122466FF07E43C3
:1025E000FEF75AFF00283FD12020B067F067002790
:1025F000012044F24055376686F8747088F8000070
:10260000EFF3108472B6C2F2000536A10220C5E9CC
:102610000077AF6000F076FB38B300F11401C0E939
:10262000051187834772286031A1022000F06AFB00
:10263000E8B100F11401C0E905110021686044F21D
:10264000385581834172C2F200052CA0C5E9001102
:1026500000F020FA286060B12BA000F01BFA07E020
:102660000020C6E9190000BFFEE72F6001E000204E
:10267000686043F2F53184F31088642425A0C0F625
:1026800000014FF400721923009400F0E0FC43F2C3
:10269000353123A0C0F600014FF4007218230094D6
:1026A00000F0D5FC08B100F095FD43F225411FA0D4
:1026B000C0F600014FF400721723009400F0C7FC2D
:1026C00030B100F087FD00200DB000F035B800BF3C
:1026D000FEE700BF0100000004000000020000004F
:1026E00008000000746E737157616974526571005F
:1026F000746E73714769766552737000746E73718E
:102700004576744932450000746E737145767445A0
:1027100032470000746E73715F67667800000000D6
:10272000746E73715F65767400000000746E73716F
:102730005F736E616B65000030BCBDE8C08F000048
:10274000B0B543F2D07443F2CC70C0F60004C0F6CA
:102750000000A04209D243F2CC75C0F6000500BFCC
:1027600055F8040B8047A542FAD3BDE8B040FFF707
:10277000F9B82DE9F04100285CD040F2C016C2F251
:10278000000604463068A04254D840F2BC18C2F299
:102790000008D8F80000A0424CD940F2C410C2F2A0
:1027A000000000F00FFC4FF4F550214640F2DC6CC5
:1027B00041F80C0DC2F2000CDCF800E044F2545574
:1027C00071453CBFCCF800108E4654F8080C3268B6
:1027D000C2F200052F6886188B1B3B442B6011D07A
:1027E00073887BB9D8F800309E420BD0B64504BF41
:1027F000CCF800108E4670688D1A44F8080C736887
:1028000013449D6054F8046C95198D420AD06B886E
:1028100043B98E4508BFCCF80050686054F8080CE6
:102820001044866040F2C410C2F20000BDE8F041DE
:1028300000F0A2BBBDE8F081FEE700002DE9F04307
:1028400081B000284AD040F2E46440F2EC610330E9
:10285000C2F20004C2F2000120F003062078CA1C74
:1028600001F5705122F0030221F00301891A0028BA
:10287000A1F1180918BF484686422FD840F2C4106B
:10288000C2F200000C2E98BF0C2600F09BFB40F219
:10289000DC6E40F2C010C2F2000EC2F20000DEF8A0
:1028A000008002682078A8EB0203002808BF814658
:1028B000A9EB06018B420BD2D4186788606827B950
:1028C00003F10C07C51BB5420CD288420346F3D373
:1028D00040F2C410C2F2000000F04EFB002001B034
:1028E000BDE8F08306F1180140F2E06C8D42C2F2BF
:1028F000000C10D20121618044F25451C2F2000157
:10290000C01A0B68DCF8005018448542086022D2D7
:10291000CCF800001FE006F10C013E4495194FF47D
:10292000F5579751C5E9010366600123686809F10D
:102930000C05638044F25453A8421CBF10448660C7
:10294000C2F200031868DCF80050084485421860A1
:1029500038BFCCF800004FF4F5504445208014D126
:10296000B8F8020088B140F2BC10C2F20000006862
:1029700080450AD0D8F8041002EB0108B8F802101C
:1029800009B18045F6D1CEF8008040F2C410C2F201
:10299000000000F0F1FA04F10C00A0E72DE9F0418D
:1029A000102A02D203462AB90AE041EA00039B0733
:1029B00008D0034611F8017B013A03F8017BF9D1F5
:1029C000BDE8F08100234FF0000C00BF51F80C70FF
:1029D00001EB0C0640F80C70776800EB0C056F609B
:1029E000B768103BAF60F768D4180F2C0CF1100CCF
:1029F000EF60EBD801EB0C0E042C00EB0C0317D3AB
:102A0000A2EB0C08A8F10405002400260F1957F8C2
:102A10000C70021942F80C70371FAA190434032AEB
:102A20003E46F3D808EB07020EEB04012344BAE755
:102A300071462246B7E70000B0B5042A054618D310
:102A400015F0030015D1C8B24FF00133102A00FB76
:102A500003F310D32C4600BF04F11000103AC4E970
:102A60000033C4E902330F2A0446F5D8032A03D8F9
:102A700007E0284605E02846043A032A40F8043BCC
:102A8000FAD822B1CBB211461A46FDF7ABFD284663
:102A9000B0BD000070B50146062000F033F90446D1
:102AA00000284FF0000034D0607204F11400C4E933
:102AB00005000420C0F2400020624FF40070FFF7D0
:102AC000BDFEE06110B3628C4FF0000EC4F828E048
:102AD000C4F82CE0C4F830E08AB1B4F820C0002675
:102AE0000CF10403014600250E6003FB05060135C9
:102AF000013A1944F8D1A1EB0C000438206304F129
:102B00003400A4F824E0C4E90D0003E0204600F0FE
:102B10003DF90024204670BD2DE9F04F83B00F46EB
:102B200040F2E861C2F200010E6815460446FDF766
:102B3000AFFBA18C824631B92DB95046FDF7ACFBF5
:102B40006FF0010090E051B3D4E90A603268B042FE
:102B5000A26204BF0020E062481EA0845046FDF738
:102B60009BFB228C311D3846022A28BF0222FFF728
:102B700015FFFDF78DFB54F8341F054654F8042C5F
:102B8000A142326044F8046C6AD0A1F1140000F054
:102B900000FB2846FDF780FB00F068F963E004F1D4
:102BA0001800009704F1140706F1140B029006F1C7
:102BB00044004FF000090190002D4FF000003063F9
:102BC00055D094F80980304600F01DFB0299B8F109
:102BD000000F384611D0B8F1010F15D1384600BFAB
:102BE0000068B84207D096F8351090F8212091423D
:102BF000F6D2011D01E0029938460A68C2F800B019
:102C0000B261C1F800B07061012D0DDB44F20C50CF
:102C1000C2F20000D0F80090FDF73AFBB566FDF770
:102C20003BFB019800F022FB5046FDF735FB00F01E
:102C30001DF9306BC0B9FDF72BFB012D82460ADB75
:102C400044F20C50C2F200000068A0EB0909A5EBA9
:102C5000090020EAE075A18C0029ADD0009F73E740
:102C60002846FDF719FB002003B000F007B85046D6
:102C7000FDF712FB6FF001003063F5E730BCBDE8F3
:102C8000C08F70B50446008C02283CBF4FF0FF3067
:102C900070BD0D46FDF7FCFA266BCEB1316821639D
:102CA000FDF7FAFA0020306028783071687870718A
:102CB000FDF7EEFAE16A054601B10E60A06AE66230
:102CC00000B9A662A08C4FF6FF71884205D1284654
:102CD000FDF7E2FA6FF0020070BD54F8141F0130E6
:102CE000A142208209D0A1F1140000F052FA284636
:102CF000FDF7D2FA00F0BAF802E02846FDF7CCFA68
:102D0000002070BD2DE9F0410C4640F2040106465A
:102D10000020C2F2000100BF0A5CB24205D01030B0
:102D20005028F9D14FF0000801E001EB0008D8F875
:102D30000C00FFF783FD054628B3D8F80C20284681
:102D400000210027FFF778FE2E726F72E05DE855D4
:102D500018B10137082FF9D107E0072F05D0E8197E
:102D6000C7F107010130FDF743FBFDF791FA58F871
:102D7000041F2A4642F80C1F4A60C8F80020C2F817
:102D80000480FDF789FA2846BDE8F08110B50446B5
:102D900000202072FDF77CFA2246216952F80C3F90
:102DA0005960216922610B601260FDF775FA2046B7
:102DB000BDE81040FFF7DDBC2DE9F0410E4640F2C2
:102DC0000401154604460020C2F200010A5CB2422A
:102DD00005D010305028F9D14FF0000801E001EB88
:102DE0000008FDF755FA44F2F827C2F200073988C7
:102DF00001313980FDF750FAFDF74AFA3988013977
:102E00000AB2002A398002DDFDF746FA0BE0002104
:102E10003980FDF741FA40F2E860C2F20000006834
:102E200008B100F023F846F080002072002000BFB7
:102E3000295C215419B101300828F9D107E007288D
:102E400005D0C0F1070120440130FDF7D1FAFDF7AC
:102E50001FFA58F8041F44F80C1F4C60C8F80040D3
:102E6000C4F80480BDE8F041FDF716BA10B5FDF7CF
:102E70000FFA44F2F821C2F200010988044621B198
:102E80002046BDE81040FDF707BA44F20440C2F204
:102E900000000068FEF7CEFC44F20431C2F20001EB
:102EA00001EBC00040F2E86250F8081CC2F20002D8
:102EB0001068A1F114038342E2D0136044F2F022BF
:102EC000C2F2000212781C3001F1080112B1FDF7C4
:102ED000E6F9D5E7FDF7E3F9D2E710B50446FDF7CB
:102EE000D7F994F8341094F8352001F0F00101314D
:102EF00084F8341044F20431C2F2000101EBC20143
:102F00004A6844F2044C04F11403C2F2000C13604A
:102F1000A2614B60A26BDCF80030616143EA020100
:102F2000CCF80010BDE81040FDF7B6B9B0B50546C5
:102F3000FDF7AEF9294651F8142F4B6853604B68E2
:102F400049601A6091F8212044F204330960C2F20A
:102F5000000353F8324003EBC202944208D144F21A
:102F60000442C2F20002A96B136823EA0101116056
:102F7000BDE8B040FDF790B9B0B50546FDF788F95A
:102F80002A4652F8141F0446914209D0A1F11400B8
:102F900000F0FFF82046FDF77FF9FFF767FF0FE02D
:102FA000A88B4FF6FF71884205D12046FDF774F9D2
:102FB0006FF00200B0BD0130A8832046FDF76CF928
:102FC0000020B0BD2DE9F0410646FDF761F9B18B57
:102FD000804639B1481EB0834046FDF75DF90020B8
:102FE000BDE8F08140F2E860C2F200000568002010
:102FF0002863747A284606F1140700F004F9A4B196
:10300000012C19D1384600BF0068B8420DD095F8A0
:10301000351090F821209142F6D2416805F1140252
:103020000A60A9614260686106E0B06905F11401B7
:103030000160A861B1616F614046FDF72DF9FFF7AE
:1030400015FF286B002808BF0020BDE8F081F0B50F
:1030500083B00E46014601201F461546FFF752FE7B
:1030600098B104462846FFF7E9FB58B1DDF820C0C7
:103070000246204631462B460097CDF804C0FEF7A5
:10308000F5FB03E02046FFF781FE0024204603B055
:10309000F0BDF0B581B040F2E860C2F20000056812
:1030A000FDF7F6F80446FDF7F3F8296F064609B177
:1030B000284688473046FDF7EFF82846FFF736FFE9
:1030C000042085F83400FDF7E3F82A46E96D52F84C
:1030D000583F5960E96DEA650B6095F84D10126034
:1030E00001F0FE0185F84D10FDF7D6F8002685F8B1
:1030F0004C60FDF7CDF82F4657F8501F7A684A60AC
:103100007A681160C7E90077FDF7C6F817F9480C2F
:10311000B0F1FF3F0ADD44F2FC20C2F2000001687A
:1031200045F8141F4D60056068600CE02E72FDF7D5
:10313000AFF855F80C1F6A684A606A681160C5E903
:103140000055FDF7A9F8FFF791FE204601B0BDE854
:10315000F040FDF7A1B8000044F2FC26C2F20006E0
:10316000FDF796F831680446B1420ED0D1E900204F
:10317000A1F1140550604B6848691A60C1E900115B
:10318000FFF7F7FA2846FFF701FE2046FDF784F81F
:10319000E6E7B0B5044690F8340000F00F000228CE
:1031A00018BFB0BDFDF774F82246A16952F8143F6C
:1031B00005465960A16904F144000B60A2611260E8
:1031C00000F095F82846FDF767F82046BDE8B040C6
:1031D000FFF783BE80B590F83610012280F83510D5
:1031E00002FA01F18163022180F83410FFF7D1FF68
:1031F00040F2E860C2F20000006818B1BDE880400B
:10320000FFF734BE80BDB0B5044690F8340000F03E
:103210000F00012818BFB0BDFDF73AF8054620465B
:10322000FFF784FE94F8340000F0F000023084F8D8
:10323000340004F1440000F05AF82846BDE8B040DC
:10324000FDF72AB880B50246816952F8143F6FF045
:10325000010C59608169C0F830C00B608261126056
:10326000FFF73BFEBDE88040FFF700BE2DE9F041CF
:103270008046FDF70DF8414651F8142F4FF6FE76C3
:103280004B6811F80BCC53604B68C7F6FF761A6099
:1032900044F20C52C2F2000212680B6909609D18D8
:1032A00044F21052C2F2000254684D61A24207D0AB
:1032B0001346126857697F1BF8D0B742F6D801E071
:1032C0002268234644F21857C2F200073E68516054
:1032D0000136C8F8142019604CF001013E60C8F8AE
:1032E000183088F80910BDE8F041FCF7D5BF10B5DB
:1032F0000446407AC00708BF10BDFCF7C9FF54F868
:10330000141F62684A6062686460116014F80B1CE4
:10331000246001F0FE0104F80B1CBDE81040FCF72E
:10332000BBBF00207047002070470020704700207E
:103330007047000044F2385544F2515444F250565C
:1033400044F24C57C2F20005C2F20004C2F2000679
:10335000C2F200074FF001084FF004094FF0030AD2
:10336000286821464FF4FA62FFF7D6FB411CF7D0DC
:10337000023016D1307801280BD1387848B9686806
:10338000214687F8008084F80190FFF77AFC002836
:10339000E6D1286821464FF0FF32FFF7BDFB002839
:1033A000DED1607801280CD00228D9D130780028ED
:1033B000D6D168682146FFF764FC0028D0D10120EF
:1033C00016E030780128CBD168682146FFF759FC18
:1033D0000028C5D1387810B10020387008E068683E
:1033E000214684F801A0FFF74CFC0028B8D100204A
:1033F0003070B5E744F24054C2F200042068FFF791
:10340000E1FD0028FAD1A56835B100BFA868804762
:103410000028FBD12D68F7E76068FFF7ADFD0028B5
:10342000FAD1EBE782B040F2281544F25854002755
:10343000C2F20005C2F200044FF00109ADF80470B9
:1034400044F23850C2F20000406801A94FF0FF3248
:10345000FFF762FB9DF805000138C0B20328EFD8E2
:103460002AA151F820A09AF8000000BF0028E7D058
:10347000A86F202846D195F87400012842D0212059
:10348000C5F88070A8672668A5F85090A5F85290F6
:10349000A868296980F4805050EA010B18BFD34610
:1034A00085F87470B5F852004FF0000808BFD04698
:1034B000F0B12846802132464FF6FF73FDF7ECFF4E
:1034C00000BB2868BBF1000F02D01BF8011B05E010
:1034D00038F8021B4FF0000B6FF35F210185B5F840
:1034E00052000138A5F85200B5F85200E0E700BFDD
:1034F0002846402132464FF6FF73FDF7CDFF08B94D
:103500002020A8671AF8010FB0E700BFB9370008FC
:10351000AF370008A237000890370008B0B540F276
:103520000000C2F2000000684DF68361C4F21B3156
:10353000A0FB011244F6D351C1F26201A0FB0101CC
:10354000900C40F25802C2F200021060880940F26A
:103550005401C2F200010860EFF3108472B6FEF766
:10356000E0F940F2B015C2F20005C5E90001FEF72E
:10357000D8F9D5E90012401A40F2B811C2F20001A0
:10358000086084F31088B0BD4EF21400CEF2000043
:1035900044F220510068C2F20001D1E90023013059
:1035A000121843F10003C1E9002344F22851C2F28A
:1035B00000010A6840F2540C02440A60C2F2000C96
:1035C0000A68DCF80030DCF800C092FBF3F20B680C
:1035D0000CFB12330B6044F22C51C2F200010B6859
:1035E0001A440A6044F23451C2F200010A681044DD
:1035F00040F258020860C2F20002086813681268BC
:1036000090FBF3F00B6802FB10320A6044F2305179
:10361000C2F200010A68104408607047F1EE100A17
:103620004FF6FF71C0F2C03120EA010040F0407057
:10363000E1EE100A70470000A0860100400D030073
:10364000801A060000350C0040420F0080841E00E6
:1036500000093D0000127A000024F40000366E01DB
:103660000048E801006CDC020000010002000100DB
:10367000030001000200010004000100020001003B
:10368000030001000200010005000100020001002A
:10369000030001000200010004000100020001001B
:1036A0000300010002000100060001000200010009
:1036B00003000100020001000400010002000100FB
:1036C00003000100020001000500010002000100EA
:1036D00003000100020001000400010002000100DB
:1036E00003000100020001000700010002000100C8
:1036F00003000100020001000400010002000100BB
:1037000003000100020001000500010002000100A9
:10371000030001000200010004000100020001009A
:103720000300010002000100060001000200010088
:10373000030001000200010004000100020001007A
:103740000300010002000100050001000200010069
:10375000030001000200010004000100020001005A
:10376000030001000200010000000000040000004E
:10377000020000000800000000000000000000003F
:103780000102030406070809000000000102030407
:103790006B6579206C6F6E672070726573736564FA
:1037A0000A006B657920707265737365640A006B3B
:1037B000657920646F776E0A006B65792075700AF1
:1037C000000000002F3300082733000823330008CF
:1037D0002B330008F83700080000002060000000CC
:1037E000E80100085838000860000020004B000085
:1037F00004020008FFDFFFFF00093D000100000098
:1038000008000020080000207800000002000000EE
:103810001800002018000020200000000500000013
:1038200028000020280000203000000006000000D2
:1038300038000020380000203C0000000A00000092
:1038400048000020480000202C000000010000007B
:0838500001000000000000006F
:04000005080001AD41
:00000001FF
